{
  "contractName": "MasterName",
  "abi": [
    {
      "constant": true,
      "inputs": [
        {
          "name": "",
          "type": "uint256"
        }
      ],
      "name": "addressNameSCs",
      "outputs": [
        {
          "name": "",
          "type": "address"
        }
      ],
      "payable": false,
      "stateMutability": "view",
      "type": "function"
    },
    {
      "constant": true,
      "inputs": [],
      "name": "owner",
      "outputs": [
        {
          "name": "",
          "type": "address"
        }
      ],
      "payable": false,
      "stateMutability": "view",
      "type": "function"
    },
    {
      "constant": true,
      "inputs": [
        {
          "name": "",
          "type": "address"
        }
      ],
      "name": "scNamesByContract",
      "outputs": [
        {
          "name": "",
          "type": "string"
        }
      ],
      "payable": false,
      "stateMutability": "view",
      "type": "function"
    },
    {
      "constant": true,
      "inputs": [
        {
          "name": "",
          "type": "address"
        }
      ],
      "name": "scNamesByOwner",
      "outputs": [
        {
          "name": "",
          "type": "string"
        }
      ],
      "payable": false,
      "stateMutability": "view",
      "type": "function"
    },
    {
      "constant": true,
      "inputs": [
        {
          "name": "",
          "type": "uint256"
        }
      ],
      "name": "addressNamesOwners",
      "outputs": [
        {
          "name": "",
          "type": "address"
        }
      ],
      "payable": false,
      "stateMutability": "view",
      "type": "function"
    },
    {
      "inputs": [],
      "payable": false,
      "stateMutability": "nonpayable",
      "type": "constructor"
    },
    {
      "constant": true,
      "inputs": [],
      "name": "listAddressNameSCs",
      "outputs": [
        {
          "name": "",
          "type": "address[]"
        }
      ],
      "payable": false,
      "stateMutability": "view",
      "type": "function"
    },
    {
      "constant": true,
      "inputs": [],
      "name": "listNameOwners",
      "outputs": [
        {
          "name": "",
          "type": "address[]"
        }
      ],
      "payable": false,
      "stateMutability": "view",
      "type": "function"
    },
    {
      "constant": false,
      "inputs": [],
      "name": "listNames",
      "outputs": [
        {
          "name": "",
          "type": "string[]"
        }
      ],
      "payable": false,
      "stateMutability": "nonpayable",
      "type": "function"
    },
    {
      "constant": false,
      "inputs": [
        {
          "name": "_scAddress",
          "type": "address"
        }
      ],
      "name": "getOwnerSC",
      "outputs": [
        {
          "name": "",
          "type": "address"
        }
      ],
      "payable": false,
      "stateMutability": "nonpayable",
      "type": "function"
    },
    {
      "constant": true,
      "inputs": [
        {
          "name": "_scAddress",
          "type": "address"
        }
      ],
      "name": "getNameSC",
      "outputs": [
        {
          "name": "",
          "type": "string"
        }
      ],
      "payable": false,
      "stateMutability": "view",
      "type": "function"
    },
    {
      "constant": true,
      "inputs": [
        {
          "name": "_scAddress",
          "type": "address"
        },
        {
          "name": "_scName",
          "type": "string"
        }
      ],
      "name": "checkName",
      "outputs": [
        {
          "name": "",
          "type": "bool"
        }
      ],
      "payable": false,
      "stateMutability": "view",
      "type": "function"
    },
    {
      "constant": false,
      "inputs": [
        {
          "name": "_scAddress",
          "type": "address"
        },
        {
          "name": "_scName",
          "type": "string"
        }
      ],
      "name": "addName",
      "outputs": [
        {
          "name": "",
          "type": "bool"
        }
      ],
      "payable": false,
      "stateMutability": "nonpayable",
      "type": "function"
    },
    {
      "constant": false,
      "inputs": [
        {
          "name": "_scAddress",
          "type": "address"
        },
        {
          "name": "_scOwner",
          "type": "address"
        },
        {
          "name": "_scName",
          "type": "string"
        }
      ],
      "name": "addNameBySC",
      "outputs": [
        {
          "name": "",
          "type": "bool"
        }
      ],
      "payable": false,
      "stateMutability": "nonpayable",
      "type": "function"
    }
  ],
  "bytecode": "0x608060405234801561001057600080fd5b5033600460006101000a81548173ffffffffffffffffffffffffffffffffffffffff021916908373ffffffffffffffffffffffffffffffffffffffff160217905550611dbe806100616000396000f3fe608060405234801561001057600080fd5b50600436106100ec576000357c010000000000000000000000000000000000000000000000000000000090048063af76bbf1116100a9578063d5f22ec211610083578063d5f22ec214610259578063e8330ac714610289578063f3d80787146102b9578063f824e883146102e9576100ec565b8063af76bbf1146101c9578063bfb5934f146101f9578063d0aab3fd14610229576100ec565b80634f1c18f6146100f15780635723d5cb14610121578063579430ee1461013f5780638da5cb5b1461015d5780639fcba55f1461017b578063a9cad5b314610199575b600080fd5b61010b600480360361010691908101906117f1565b610319565b6040516101189190611ab1565b60405180910390f35b610129610357565b6040516101369190611aee565b60405180910390f35b610147610530565b6040516101549190611acc565b60405180910390f35b6101656105be565b6040516101729190611ab1565b60405180910390f35b6101836105e4565b6040516101909190611acc565b60405180910390f35b6101b360048036036101ae91908101906116a3565b610672565b6040516101c09190611ab1565b60405180910390f35b6101e360048036036101de91908101906116a3565b61071c565b6040516101f09190611b4d565b60405180910390f35b610213600480360361020e91908101906116a3565b6107ca565b6040516102209190611b2b565b60405180910390f35b610243600480360361023e919081019061175c565b61087a565b6040516102509190611b10565b60405180910390f35b610273600480360361026e91908101906116f5565b610d2e565b6040516102809190611b10565b60405180910390f35b6102a3600480360361029e919081019061175c565b6111e3565b6040516102b09190611b10565b60405180910390f35b6102d360048036036102ce91908101906116a3565b6112b3565b6040516102e09190611b2b565b60405180910390f35b61030360048036036102fe91908101906117f1565b611363565b6040516103109190611ab1565b60405180910390f35b60028181548110151561032857fe5b906000526020600020016000915054906101000a900473ffffffffffffffffffffffffffffffffffffffff1681565b60606005600061036791906113fa565b60008090505b60028054905081101561044857600560008060028481548110151561038e57fe5b9060005260206000200160009054906101000a900473ffffffffffffffffffffffffffffffffffffffff1673ffffffffffffffffffffffffffffffffffffffff1673ffffffffffffffffffffffffffffffffffffffff168152602001908152602001600020908060018154018082558091505090600182039060005260206000200160009091929091909150908054600181600116156101000203166002900461043992919061141b565b5050808060010191505061036d565b506005805480602002602001604051908101604052809291908181526020016000905b82821015610527578382906000526020600020018054600181600116156101000203166002900480601f0160208091040260200160405190810160405280929190818152602001828054600181600116156101000203166002900480156105135780601f106104e857610100808354040283529160200191610513565b820191906000526020600020905b8154815290600101906020018083116104f657829003601f168201915b50505050508152602001906001019061046b565b50505050905090565b606060038054806020026020016040519081016040528092919081815260200182805480156105b457602002820191906000526020600020905b8160009054906101000a900473ffffffffffffffffffffffffffffffffffffffff1673ffffffffffffffffffffffffffffffffffffffff168152602001906001019080831161056a575b5050505050905090565b600460009054906101000a900473ffffffffffffffffffffffffffffffffffffffff1681565b6060600280548060200260200160405190810160405280929190818152602001828054801561066857602002820191906000526020600020905b8160009054906101000a900473ffffffffffffffffffffffffffffffffffffffff1673ffffffffffffffffffffffffffffffffffffffff168152602001906001019080831161061e575b5050505050905090565b6000808290508073ffffffffffffffffffffffffffffffffffffffff16638da5cb5b6040518163ffffffff167c0100000000000000000000000000000000000000000000000000000000028152600401602060405180830381600087803b1580156106dc57600080fd5b505af11580156106f0573d6000803e3d6000fd5b505050506040513d601f19601f8201168201806040525061071491908101906116cc565b915050919050565b606060008290508073ffffffffffffffffffffffffffffffffffffffff166317d7de7c6040518163ffffffff167c010000000000000000000000000000000000000000000000000000000002815260040160006040518083038186803b15801561078557600080fd5b505afa158015610799573d6000803e3d6000fd5b505050506040513d6000823e3d601f19601f820116820180604052506107c291908101906117b0565b915050919050565b60006020528060005260406000206000915090508054600181600116156101000203166002900480601f0160208091040260200160405190810160405280929190818152602001828054600181600116156101000203166002900480156108725780601f1061084757610100808354040283529160200191610872565b820191906000526020600020905b81548152906001019060200180831161085557829003601f168201915b505050505081565b60008083905060608173ffffffffffffffffffffffffffffffffffffffff166317d7de7c6040518163ffffffff167c010000000000000000000000000000000000000000000000000000000002815260040160006040518083038186803b1580156108e457600080fd5b505afa1580156108f8573d6000803e3d6000fd5b505050506040513d6000823e3d601f19601f8201168201806040525061092191908101906117b0565b905061092d81856113a1565b151561096e576040517f08c379a000000000000000000000000000000000000000000000000000000000815260040161096590611b8f565b60405180910390fd5b3373ffffffffffffffffffffffffffffffffffffffff168273ffffffffffffffffffffffffffffffffffffffff16638da5cb5b6040518163ffffffff167c0100000000000000000000000000000000000000000000000000000000028152600401602060405180830381600087803b1580156109e957600080fd5b505af11580156109fd573d6000803e3d6000fd5b505050506040513d601f19601f82011682018060405250610a2191908101906116cc565b73ffffffffffffffffffffffffffffffffffffffff16141515610a79576040517f08c379a0000000000000000000000000000000000000000000000000000000008152600401610a7090611b6f565b60405180910390fd5b60028590806001815401808255809150509060018203906000526020600020016000909192909190916101000a81548173ffffffffffffffffffffffffffffffffffffffff021916908373ffffffffffffffffffffffffffffffffffffffff1602179055505060038273ffffffffffffffffffffffffffffffffffffffff16638da5cb5b6040518163ffffffff167c0100000000000000000000000000000000000000000000000000000000028152600401602060405180830381600087803b158015610b4557600080fd5b505af1158015610b59573d6000803e3d6000fd5b505050506040513d601f19601f82011682018060405250610b7d91908101906116cc565b90806001815401808255809150509060018203906000526020600020016000909192909190916101000a81548173ffffffffffffffffffffffffffffffffffffffff021916908373ffffffffffffffffffffffffffffffffffffffff1602179055505080600160008473ffffffffffffffffffffffffffffffffffffffff16638da5cb5b6040518163ffffffff167c0100000000000000000000000000000000000000000000000000000000028152600401602060405180830381600087803b158015610c4957600080fd5b505af1158015610c5d573d6000803e3d6000fd5b505050506040513d601f19601f82011682018060405250610c8191908101906116cc565b73ffffffffffffffffffffffffffffffffffffffff1673ffffffffffffffffffffffffffffffffffffffff1681526020019081526020016000209080519060200190610cce9291906114a2565b50806000808773ffffffffffffffffffffffffffffffffffffffff1673ffffffffffffffffffffffffffffffffffffffff1681526020019081526020016000209080519060200190610d219291906114a2565b5060019250505092915050565b60008084905060608173ffffffffffffffffffffffffffffffffffffffff166317d7de7c6040518163ffffffff167c010000000000000000000000000000000000000000000000000000000002815260040160006040518083038186803b158015610d9857600080fd5b505afa158015610dac573d6000803e3d6000fd5b505050506040513d6000823e3d601f19601f82011682018060405250610dd591908101906117b0565b9050610de181856113a1565b1515610e22576040517f08c379a0000000000000000000000000000000000000000000000000000000008152600401610e1990611b8f565b60405180910390fd5b8473ffffffffffffffffffffffffffffffffffffffff168273ffffffffffffffffffffffffffffffffffffffff16638da5cb5b6040518163ffffffff167c0100000000000000000000000000000000000000000000000000000000028152600401602060405180830381600087803b158015610e9d57600080fd5b505af1158015610eb1573d6000803e3d6000fd5b505050506040513d601f19601f82011682018060405250610ed591908101906116cc565b73ffffffffffffffffffffffffffffffffffffffff16141515610f2d576040517f08c379a0000000000000000000000000000000000000000000000000000000008152600401610f2490611b6f565b60405180910390fd5b60028690806001815401808255809150509060018203906000526020600020016000909192909190916101000a81548173ffffffffffffffffffffffffffffffffffffffff021916908373ffffffffffffffffffffffffffffffffffffffff1602179055505060038273ffffffffffffffffffffffffffffffffffffffff16638da5cb5b6040518163ffffffff167c0100000000000000000000000000000000000000000000000000000000028152600401602060405180830381600087803b158015610ff957600080fd5b505af115801561100d573d6000803e3d6000fd5b505050506040513d601f19601f8201168201806040525061103191908101906116cc565b90806001815401808255809150509060018203906000526020600020016000909192909190916101000a81548173ffffffffffffffffffffffffffffffffffffffff021916908373ffffffffffffffffffffffffffffffffffffffff1602179055505080600160008473ffffffffffffffffffffffffffffffffffffffff16638da5cb5b6040518163ffffffff167c0100000000000000000000000000000000000000000000000000000000028152600401602060405180830381600087803b1580156110fd57600080fd5b505af1158015611111573d6000803e3d6000fd5b505050506040513d601f19601f8201168201806040525061113591908101906116cc565b73ffffffffffffffffffffffffffffffffffffffff1673ffffffffffffffffffffffffffffffffffffffff16815260200190815260200160002090805190602001906111829291906114a2565b50806000808873ffffffffffffffffffffffffffffffffffffffff1673ffffffffffffffffffffffffffffffffffffffff16815260200190815260200160002090805190602001906111d59291906114a2565b506001925050509392505050565b60008083905060608173ffffffffffffffffffffffffffffffffffffffff166317d7de7c6040518163ffffffff167c010000000000000000000000000000000000000000000000000000000002815260040160006040518083038186803b15801561124d57600080fd5b505afa158015611261573d6000803e3d6000fd5b505050506040513d6000823e3d601f19601f8201168201806040525061128a91908101906117b0565b905061129681856113a1565b156112a6576001925050506112ad565b6000925050505b92915050565b60016020528060005260406000206000915090508054600181600116156101000203166002900480601f01602080910402602001604051908101604052809291908181526020018280546001816001161561010002031660029004801561135b5780601f106113305761010080835404028352916020019161135b565b820191906000526020600020905b81548152906001019060200180831161133e57829003601f168201915b505050505081565b60038181548110151561137257fe5b906000526020600020016000915054906101000a900473ffffffffffffffffffffffffffffffffffffffff1681565b6000816040516020016113b49190611a9a565b60405160208183030381529060405280519060200120836040516020016113db9190611a9a565b6040516020818303038152906040528051906020012014905092915050565b50805460008255906000526020600020908101906114189190611522565b50565b828054600181600116156101000203166002900490600052602060002090601f016020900481019282601f106114545780548555611491565b8280016001018555821561149157600052602060002091601f016020900482015b82811115611490578254825591600101919060010190611475565b5b50905061149e919061154e565b5090565b828054600181600116156101000203166002900490600052602060002090601f016020900481019282601f106114e357805160ff1916838001178555611511565b82800160010185558215611511579182015b828111156115105782518255916020019190600101906114f5565b5b50905061151e919061154e565b5090565b61154b91905b80821115611547576000818161153e9190611573565b50600101611528565b5090565b90565b61157091905b8082111561156c576000816000905550600101611554565b5090565b90565b50805460018160011615610100020316600290046000825580601f1061159957506115b8565b601f0160209004906000526020600020908101906115b7919061154e565b5b50565b60006115c78235611cf5565b905092915050565b60006115db8251611cf5565b905092915050565b600082601f83011215156115f657600080fd5b813561160961160482611bdc565b611baf565b9150808252602083016020830185838301111561162557600080fd5b611630838284611d31565b50505092915050565b600082601f830112151561164c57600080fd5b815161165f61165a82611bdc565b611baf565b9150808252602083016020830185838301111561167b57600080fd5b611686838284611d40565b50505092915050565b600061169b8235611d27565b905092915050565b6000602082840312156116b557600080fd5b60006116c3848285016115bb565b91505092915050565b6000602082840312156116de57600080fd5b60006116ec848285016115cf565b91505092915050565b60008060006060848603121561170a57600080fd5b6000611718868287016115bb565b9350506020611729868287016115bb565b925050604084013567ffffffffffffffff81111561174657600080fd5b611752868287016115e3565b9150509250925092565b6000806040838503121561176f57600080fd5b600061177d858286016115bb565b925050602083013567ffffffffffffffff81111561179a57600080fd5b6117a6858286016115e3565b9150509250929050565b6000602082840312156117c257600080fd5b600082015167ffffffffffffffff8111156117dc57600080fd5b6117e884828501611639565b91505092915050565b60006020828403121561180357600080fd5b60006118118482850161168f565b91505092915050565b60006118268383611846565b60208301905092915050565b600061183e83836119a8565b905092915050565b61184f81611cb7565b82525050565b61185e81611cb7565b82525050565b600061186f82611c22565b6118798185611c68565b935061188483611c08565b60005b828110156118b25761189a86835161181a565b95506118a582611c4e565b9150600181019050611887565b50849250505092915050565b60006118c982611c2d565b6118d38185611c79565b9350836020820285016118e585611c15565b60005b8481101561191e578383038852611900838351611832565b925061190b82611c5b565b91506020880197506001810190506118e8565b508196508694505050505092915050565b61193881611cc9565b82525050565b600061194982611c43565b6119538185611c9b565b9350611963818560208601611d40565b61196c81611d73565b840191505092915050565b600061198282611c43565b61198c8185611cac565b935061199c818560208601611d40565b80840191505092915050565b60006119b382611c38565b6119bd8185611c8a565b93506119cd818560208601611d40565b6119d681611d73565b840191505092915050565b60006119ec82611c38565b6119f68185611c9b565b9350611a06818560208601611d40565b611a0f81611d73565b840191505092915050565b6000611a27600d83611c9b565b91507f6f6e6c79207363206f776e6572000000000000000000000000000000000000006000830152602082019050919050565b6000611a67600e83611c9b565b91507f646966666572656e74206e616d650000000000000000000000000000000000006000830152602082019050919050565b6000611aa68284611977565b915081905092915050565b6000602082019050611ac66000830184611855565b92915050565b60006020820190508181036000830152611ae68184611864565b905092915050565b60006020820190508181036000830152611b0881846118be565b905092915050565b6000602082019050611b25600083018461192f565b92915050565b60006020820190508181036000830152611b4581846119e1565b905092915050565b60006020820190508181036000830152611b67818461193e565b905092915050565b60006020820190508181036000830152611b8881611a1a565b9050919050565b60006020820190508181036000830152611ba881611a5a565b9050919050565b6000604051905081810181811067ffffffffffffffff82111715611bd257600080fd5b8060405250919050565b600067ffffffffffffffff821115611bf357600080fd5b601f19601f8301169050602081019050919050565b6000602082019050919050565b6000602082019050919050565b600081519050919050565b600081519050919050565b600081519050919050565b600081519050919050565b6000602082019050919050565b6000602082019050919050565b600082825260208201905092915050565b600082825260208201905092915050565b600082825260208201905092915050565b600082825260208201905092915050565b600081905092915050565b6000611cc282611cd5565b9050919050565b60008115159050919050565b600073ffffffffffffffffffffffffffffffffffffffff82169050919050565b6000611d0082611d07565b9050919050565b600073ffffffffffffffffffffffffffffffffffffffff82169050919050565b6000819050919050565b82818337600083830152505050565b60005b83811015611d5e578082015181840152602081019050611d43565b83811115611d6d576000848401525b50505050565b6000601f19601f830116905091905056fea265627a7a72305820ea65c674ed152e67fd5ee258094501b108b51a4255af19a2944156411eb489046c6578706572696d656e74616cf50037",
  "source": "pragma solidity 0.5.4;\r\npragma experimental ABIEncoderV2;\r\n\r\ninterface iName {\r\n    function owner() external returns (address);\r\n    function getName() external view returns (string memory);\r\n}\r\n\r\ncontract MasterName {\r\n    \r\n    mapping(address => string) public scNamesByContract;\r\n    mapping(address => string) public scNamesByOwner;\r\n    address[] public addressNameSCs;\r\n    address[] public addressNamesOwners;\r\n    address public owner;\r\n    \r\n    constructor() public {\r\n        owner = msg.sender;\r\n    }\r\n\r\n    function listAddressNameSCs () public view returns (address[] memory) {\r\n        return addressNameSCs;\r\n    }\r\n    \r\n    function listNameOwners () public view returns (address[] memory) {\r\n        return addressNamesOwners;\r\n    }\r\n    \r\n    string[] private namesList;\r\n    function listNames () public returns (string[] memory) {\r\n        delete namesList;\r\n\r\n        for(uint i=0; i<addressNameSCs.length; i++) {\r\n            namesList.push(scNamesByContract[addressNameSCs[i]]);\r\n        }\r\n        return namesList;\r\n    }\r\n    \r\n    function getOwnerSC (address _scAddress) public returns (address) {\r\n        iName scName = iName(_scAddress);\r\n        return scName.owner();\r\n    }\r\n    \r\n    function getNameSC (address _scAddress) public view returns (string memory) {\r\n        iName scName = iName(_scAddress);\r\n        return scName.getName();\r\n    }\r\n    \r\n    function checkName (address _scAddress, string memory _scName) public view returns (bool) {\r\n        iName scName = iName(_scAddress);\r\n        string memory name = scName.getName();\r\n        if (compareStrings(name, _scName)) {\r\n            return true;\r\n        }\r\n        return false;\r\n    }\r\n    \r\n    function addName (address _scAddress, string memory _scName) public returns (bool) {\r\n        //Verificar se ja existe\r\n        iName scName = iName(_scAddress);\r\n        string memory name = scName.getName();\r\n        require (compareStrings(name, _scName), \"different name\");\r\n        //Only owner's sc can add\r\n        require (scName.owner() == msg.sender, \"only sc owner\");\r\n        addressNameSCs.push(_scAddress);\r\n        addressNamesOwners.push(scName.owner());\r\n        scNamesByOwner[scName.owner()] = name;  //account owner of SC => name\r\n        scNamesByContract[_scAddress] = name;   //sc => name\r\n        return true;\r\n    }\r\n    \r\n    function addNameBySC (address _scAddress, address _scOwner, string memory _scName) public returns (bool) {\r\n        iName scName = iName(_scAddress);\r\n        string memory name = scName.getName();\r\n        require (compareStrings(name, _scName), \"different name\");\r\n        //Only owner's sc can add\r\n        require (scName.owner() == _scOwner, \"only sc owner\");\r\n        addressNameSCs.push(_scAddress);\r\n        addressNamesOwners.push(scName.owner());\r\n        scNamesByOwner[scName.owner()] = name;  //account owner of SC => name\r\n        scNamesByContract[_scAddress] = name;   //sc => name\r\n        return true;\r\n    }    \r\n\r\n    function compareStrings(string memory a, string memory b) private pure returns (bool) {\r\n        return (keccak256(abi.encodePacked((a))) == keccak256(abi.encodePacked((b))));\r\n    }\r\n    \r\n}\r\n",
  "sourcePath": "C:/ETH/classes/contracts/MasterName.sol",
  "compiler": {
    "name": "solc",
    "version": "0.5.4+commit.9549d8ff.Emscripten.clang"
  },
  "schemaVersion": "3.3.2",
  "updatedAt": "2020-12-08T14:02:24.178Z",
  "networkType": "ethereum",
  "devdoc": {
    "methods": {}
  },
  "userdoc": {
    "methods": {}
  }
}