{
  "contractName": "AcademyStudents",
  "abi": [
    {
      "inputs": [
        {
          "internalType": "address",
          "name": "addressProjectList",
          "type": "address"
        }
      ],
      "stateMutability": "nonpayable",
      "type": "constructor"
    },
    {
      "anonymous": false,
      "inputs": [
        {
          "indexed": true,
          "internalType": "bytes32",
          "name": "role",
          "type": "bytes32"
        },
        {
          "indexed": true,
          "internalType": "bytes32",
          "name": "previousAdminRole",
          "type": "bytes32"
        },
        {
          "indexed": true,
          "internalType": "bytes32",
          "name": "newAdminRole",
          "type": "bytes32"
        }
      ],
      "name": "RoleAdminChanged",
      "type": "event"
    },
    {
      "anonymous": false,
      "inputs": [
        {
          "indexed": true,
          "internalType": "bytes32",
          "name": "role",
          "type": "bytes32"
        },
        {
          "indexed": true,
          "internalType": "address",
          "name": "account",
          "type": "address"
        },
        {
          "indexed": true,
          "internalType": "address",
          "name": "sender",
          "type": "address"
        }
      ],
      "name": "RoleGranted",
      "type": "event"
    },
    {
      "anonymous": false,
      "inputs": [
        {
          "indexed": true,
          "internalType": "bytes32",
          "name": "role",
          "type": "bytes32"
        },
        {
          "indexed": true,
          "internalType": "address",
          "name": "account",
          "type": "address"
        },
        {
          "indexed": true,
          "internalType": "address",
          "name": "sender",
          "type": "address"
        }
      ],
      "name": "RoleRevoked",
      "type": "event"
    },
    {
      "anonymous": false,
      "inputs": [
        {
          "indexed": true,
          "internalType": "address",
          "name": "classAddress",
          "type": "address"
        },
        {
          "indexed": true,
          "internalType": "address",
          "name": "studentAddress",
          "type": "address"
        }
      ],
      "name": "StudentClassSelected",
      "type": "event"
    },
    {
      "anonymous": false,
      "inputs": [
        {
          "indexed": true,
          "internalType": "address",
          "name": "studentAddress",
          "type": "address"
        }
      ],
      "name": "StudentCreated",
      "type": "event"
    },
    {
      "anonymous": false,
      "inputs": [
        {
          "indexed": true,
          "internalType": "address",
          "name": "studentAddress",
          "type": "address"
        }
      ],
      "name": "StudentRemoved",
      "type": "event"
    },
    {
      "anonymous": false,
      "inputs": [
        {
          "indexed": true,
          "internalType": "address",
          "name": "classAddress",
          "type": "address"
        },
        {
          "indexed": true,
          "internalType": "address",
          "name": "studentAddress",
          "type": "address"
        }
      ],
      "name": "StudentSubscribed",
      "type": "event"
    },
    {
      "inputs": [],
      "name": "DEFAULT_ADMIN_ROLE",
      "outputs": [
        {
          "internalType": "bytes32",
          "name": "",
          "type": "bytes32"
        }
      ],
      "stateMutability": "view",
      "type": "function",
      "constant": true
    },
    {
      "inputs": [
        {
          "internalType": "bytes32",
          "name": "role",
          "type": "bytes32"
        }
      ],
      "name": "getRoleAdmin",
      "outputs": [
        {
          "internalType": "bytes32",
          "name": "",
          "type": "bytes32"
        }
      ],
      "stateMutability": "view",
      "type": "function",
      "constant": true
    },
    {
      "inputs": [
        {
          "internalType": "bytes32",
          "name": "role",
          "type": "bytes32"
        },
        {
          "internalType": "uint256",
          "name": "index",
          "type": "uint256"
        }
      ],
      "name": "getRoleMember",
      "outputs": [
        {
          "internalType": "address",
          "name": "",
          "type": "address"
        }
      ],
      "stateMutability": "view",
      "type": "function",
      "constant": true
    },
    {
      "inputs": [
        {
          "internalType": "bytes32",
          "name": "role",
          "type": "bytes32"
        }
      ],
      "name": "getRoleMemberCount",
      "outputs": [
        {
          "internalType": "uint256",
          "name": "",
          "type": "uint256"
        }
      ],
      "stateMutability": "view",
      "type": "function",
      "constant": true
    },
    {
      "inputs": [
        {
          "internalType": "bytes32",
          "name": "role",
          "type": "bytes32"
        },
        {
          "internalType": "address",
          "name": "account",
          "type": "address"
        }
      ],
      "name": "grantRole",
      "outputs": [],
      "stateMutability": "nonpayable",
      "type": "function"
    },
    {
      "inputs": [
        {
          "internalType": "bytes32",
          "name": "role",
          "type": "bytes32"
        },
        {
          "internalType": "address",
          "name": "account",
          "type": "address"
        }
      ],
      "name": "hasRole",
      "outputs": [
        {
          "internalType": "bool",
          "name": "",
          "type": "bool"
        }
      ],
      "stateMutability": "view",
      "type": "function",
      "constant": true
    },
    {
      "inputs": [],
      "name": "projectListAddress",
      "outputs": [
        {
          "internalType": "address",
          "name": "",
          "type": "address"
        }
      ],
      "stateMutability": "view",
      "type": "function",
      "constant": true
    },
    {
      "inputs": [
        {
          "internalType": "bytes32",
          "name": "role",
          "type": "bytes32"
        },
        {
          "internalType": "address",
          "name": "account",
          "type": "address"
        }
      ],
      "name": "renounceRole",
      "outputs": [],
      "stateMutability": "nonpayable",
      "type": "function"
    },
    {
      "inputs": [
        {
          "internalType": "bytes32",
          "name": "role",
          "type": "bytes32"
        },
        {
          "internalType": "address",
          "name": "account",
          "type": "address"
        }
      ],
      "name": "revokeRole",
      "outputs": [],
      "stateMutability": "nonpayable",
      "type": "function"
    },
    {
      "inputs": [
        {
          "internalType": "address",
          "name": "account",
          "type": "address"
        }
      ],
      "name": "addStudent",
      "outputs": [
        {
          "internalType": "uint256",
          "name": "",
          "type": "uint256"
        }
      ],
      "stateMutability": "nonpayable",
      "type": "function"
    },
    {
      "inputs": [
        {
          "internalType": "address",
          "name": "account",
          "type": "address"
        }
      ],
      "name": "delStudent",
      "outputs": [
        {
          "internalType": "bool",
          "name": "",
          "type": "bool"
        }
      ],
      "stateMutability": "nonpayable",
      "type": "function"
    },
    {
      "inputs": [
        {
          "internalType": "address",
          "name": "account",
          "type": "address"
        },
        {
          "internalType": "address",
          "name": "classAddress",
          "type": "address"
        }
      ],
      "name": "addClass",
      "outputs": [
        {
          "internalType": "bool",
          "name": "",
          "type": "bool"
        }
      ],
      "stateMutability": "nonpayable",
      "type": "function"
    },
    {
      "inputs": [
        {
          "internalType": "address",
          "name": "classAddress",
          "type": "address"
        }
      ],
      "name": "updateActiveClass",
      "outputs": [
        {
          "internalType": "bool",
          "name": "",
          "type": "bool"
        }
      ],
      "stateMutability": "nonpayable",
      "type": "function"
    },
    {
      "inputs": [
        {
          "internalType": "address",
          "name": "account",
          "type": "address"
        },
        {
          "internalType": "address",
          "name": "classAddress",
          "type": "address"
        }
      ],
      "name": "updateStudentActiveClass",
      "outputs": [
        {
          "internalType": "bool",
          "name": "",
          "type": "bool"
        }
      ],
      "stateMutability": "nonpayable",
      "type": "function"
    },
    {
      "inputs": [
        {
          "internalType": "address",
          "name": "account",
          "type": "address"
        },
        {
          "internalType": "address",
          "name": "classAddress",
          "type": "address"
        }
      ],
      "name": "_updateActiveClass",
      "outputs": [
        {
          "internalType": "bool",
          "name": "",
          "type": "bool"
        }
      ],
      "stateMutability": "nonpayable",
      "type": "function"
    },
    {
      "inputs": [],
      "name": "changeActive",
      "outputs": [
        {
          "internalType": "bool",
          "name": "",
          "type": "bool"
        }
      ],
      "stateMutability": "nonpayable",
      "type": "function"
    },
    {
      "inputs": [
        {
          "internalType": "address",
          "name": "addressProjectList",
          "type": "address"
        }
      ],
      "name": "updateProjectListAddress",
      "outputs": [
        {
          "internalType": "bool",
          "name": "",
          "type": "bool"
        }
      ],
      "stateMutability": "nonpayable",
      "type": "function"
    },
    {
      "inputs": [
        {
          "internalType": "address",
          "name": "account",
          "type": "address"
        }
      ],
      "name": "isStudent",
      "outputs": [
        {
          "internalType": "bool",
          "name": "",
          "type": "bool"
        }
      ],
      "stateMutability": "view",
      "type": "function",
      "constant": true
    },
    {
      "inputs": [
        {
          "internalType": "address",
          "name": "account",
          "type": "address"
        }
      ],
      "name": "getStudentByAddress",
      "outputs": [
        {
          "components": [
            {
              "internalType": "uint256",
              "name": "index",
              "type": "uint256"
            },
            {
              "internalType": "address",
              "name": "ownerAddress",
              "type": "address"
            },
            {
              "internalType": "address",
              "name": "portfolioAddress",
              "type": "address"
            },
            {
              "internalType": "address",
              "name": "activeClass",
              "type": "address"
            },
            {
              "internalType": "address[]",
              "name": "studentClasses",
              "type": "address[]"
            }
          ],
          "internalType": "struct StudentStruct",
          "name": "",
          "type": "tuple"
        }
      ],
      "stateMutability": "view",
      "type": "function",
      "constant": true
    },
    {
      "inputs": [],
      "name": "countStudents",
      "outputs": [
        {
          "internalType": "uint256",
          "name": "",
          "type": "uint256"
        }
      ],
      "stateMutability": "view",
      "type": "function",
      "constant": true
    },
    {
      "inputs": [],
      "name": "listStudents",
      "outputs": [
        {
          "internalType": "address[]",
          "name": "",
          "type": "address[]"
        }
      ],
      "stateMutability": "view",
      "type": "function",
      "constant": true
    }
  ],
  "bytecode": "0x60806040523480156200001157600080fd5b50604051620061d0380380620061d083398181016040528101906200003791906200025b565b6200004c6000801b33620000ae60201b60201c565b60018060146101000a81548160ff02191690831515021790555080600160006101000a81548173ffffffffffffffffffffffffffffffffffffffff021916908373ffffffffffffffffffffffffffffffffffffffff16021790555050620002d5565b620000c08282620000c460201b60201c565b5050565b620000f2816000808581526020019081526020016000206000016200016760201b620013841790919060201c565b156200016357620001086200019f60201b60201c565b73ffffffffffffffffffffffffffffffffffffffff168173ffffffffffffffffffffffffffffffffffffffff16837f2f8788117e7eff1d82e926ec794901d17c78024a50270940304540a733656f0d60405160405180910390a45b5050565b600062000197836000018373ffffffffffffffffffffffffffffffffffffffff1660001b620001a760201b60201c565b905092915050565b600033905090565b6000620001bb83836200022160201b60201c565b620002165782600001829080600181540180825580915050600190039060005260206000200160009091909190915055826000018054905083600101600084815260200190815260200160002081905550600190506200021b565b600090505b92915050565b600080836001016000848152602001908152602001600020541415905092915050565b6000815190506200025581620002bb565b92915050565b6000602082840312156200026e57600080fd5b60006200027e8482850162000244565b91505092915050565b600062000294826200029b565b9050919050565b600073ffffffffffffffffffffffffffffffffffffffff82169050919050565b620002c68162000287565b8114620002d257600080fd5b50565b615eeb80620002e56000396000f3fe60806040523480156200001157600080fd5b5060043610620001545760003560e01c80639010d07c11620000c9578063b4ac0dfc1162000087578063b4ac0dfc146200041b578063bd06ea19146200043d578063ca15c8731462000473578063d547741f14620004a9578063d5df1ec114620004c9578063e3738e3414620004ff5762000154565b80639010d07c146200032157806391d1485414620003575780639f3da5cc146200038d578063a217fddf14620003c3578063aa0ccf2114620003e55762000154565b806336568abe116200011757806336568abe1462000251578063477f5a6914620002715780636cd3fedf14620002935780636f33fdaf14620002c957806382f7d39214620002eb5762000154565b80630c78a9741462000159578063103af6f8146200018f57806310c498c714620001c5578063248a9ca314620001fb5780632f2ff15d1462000231575b600080fd5b62000177600480360381019062000171919062001e78565b62000521565b60405162000186919062002293565b60405180910390f35b620001ad6004803603810190620001a7919062001e4c565b62000588565b604051620001bc919062002293565b60405180910390f35b620001e36004803603810190620001dd919062001e4c565b6200059d565b604051620001f2919062002293565b60405180910390f35b62000219600480360381019062000213919062001eb9565b6200063a565b604051620002289190620022b0565b60405180910390f35b6200024f600480360381019062000249919062001ee5565b62000659565b005b6200026f600480360381019062000269919062001ee5565b620006d5565b005b6200027b6200075f565b6040516200028a9190620023bd565b60405180910390f35b620002b16004803603810190620002ab919062001e78565b6200076c565b604051620002c0919062002293565b60405180910390f35b620002d362000a58565b604051620002e291906200226f565b60405180910390f35b62000309600480360381019062000303919062001e4c565b62000ae8565b60405162000318919062002293565b60405180910390f35b6200033f600480360381019062000339919062001f26565b62000be0565b6040516200034e919062002225565b60405180910390f35b6200037560048036038101906200036f919062001ee5565b62000c13565b60405162000384919062002293565b60405180910390f35b620003ab6004803603810190620003a5919062001e4c565b62000c46565b604051620003ba919062002399565b60405180910390f35b620003cd62000e62565b604051620003dc9190620022b0565b60405180910390f35b620004036004803603810190620003fd919062001e4c565b62000e69565b60405162000412919062002293565b60405180910390f35b6200042562000f23565b60405162000434919062002293565b60405180910390f35b6200045b600480360381019062000455919062001e4c565b62000fb5565b6040516200046a9190620023bd565b60405180910390f35b6200049160048036038101906200048b919062001eb9565b62001166565b604051620004a09190620023bd565b60405180910390f35b620004c76004803603810190620004c1919062001ee5565b6200118e565b005b620004e76004803603810190620004e1919062001e78565b6200120a565b604051620004f6919062002293565b60405180910390f35b620005096200135e565b60405162000518919062002225565b60405180910390f35b6000620005326000801b3362000c13565b62000574576040517f08c379a00000000000000000000000000000000000000000000000000000000081526004016200056b9062002333565b60405180910390fd5b6200058083836200120a565b905092915050565b60006200059633836200120a565b9050919050565b6000620005ae6000801b3362000c13565b620005f0576040517f08c379a0000000000000000000000000000000000000000000000000000000008152600401620005e79062002333565b60405180910390fd5b81600160006101000a81548173ffffffffffffffffffffffffffffffffffffffff021916908373ffffffffffffffffffffffffffffffffffffffff16021790555060019050919050565b6000806000838152602001908152602001600020600201549050919050565b62000683600080848152602001908152602001600020600201546200067d620013b6565b62000c13565b620006c5576040517f08c379a0000000000000000000000000000000000000000000000000000000008152600401620006bc90620022ef565b60405180910390fd5b620006d18282620013be565b5050565b620006df620013b6565b73ffffffffffffffffffffffffffffffffffffffff168173ffffffffffffffffffffffffffffffffffffffff16146200074f576040517f08c379a0000000000000000000000000000000000000000000000000000000008152600401620007469062002377565b60405180910390fd5b6200075b828262001456565b5050565b6000600380549050905090565b60006200077d6000801b3362000c13565b620007bf576040517f08c379a0000000000000000000000000000000000000000000000000000000008152600401620007b69062002333565b60405180910390fd5b600160149054906101000a900460ff1662000811576040517f08c379a0000000000000000000000000000000000000000000000000000000008152600401620008089062002311565b60405180910390fd5b6200081c8362000ae8565b6200082b576000905062000a52565b600460008473ffffffffffffffffffffffffffffffffffffffff1673ffffffffffffffffffffffffffffffffffffffff16815260200190815260200160002060008373ffffffffffffffffffffffffffffffffffffffff1673ffffffffffffffffffffffffffffffffffffffff16815260200190815260200160002060009054906101000a900460ff16620009f357600260008473ffffffffffffffffffffffffffffffffffffffff1673ffffffffffffffffffffffffffffffffffffffff168152602001908152602001600020600401829080600181540180825580915050600190039060005260206000200160009091909190916101000a81548173ffffffffffffffffffffffffffffffffffffffff021916908373ffffffffffffffffffffffffffffffffffffffff1602179055506001600460008573ffffffffffffffffffffffffffffffffffffffff1673ffffffffffffffffffffffffffffffffffffffff16815260200190815260200160002060008473ffffffffffffffffffffffffffffffffffffffff1673ffffffffffffffffffffffffffffffffffffffff16815260200190815260200160002060006101000a81548160ff0219169083151502179055505b8273ffffffffffffffffffffffffffffffffffffffff168273ffffffffffffffffffffffffffffffffffffffff167fa83a836cb37b2e19a8bda8040e2b8e18046612e65f0d12a31978e46aa832f65560405160405180910390a3600190505b92915050565b6060600380548060200260200160405190810160405280929190818152602001828054801562000ade57602002820191906000526020600020905b8160009054906101000a900473ffffffffffffffffffffffffffffffffffffffff1673ffffffffffffffffffffffffffffffffffffffff168152602001906001019080831162000a93575b5050505050905090565b600080600380549050141562000b02576000905062000bdb565b8173ffffffffffffffffffffffffffffffffffffffff166003600260008573ffffffffffffffffffffffffffffffffffffffff1673ffffffffffffffffffffffffffffffffffffffff168152602001908152602001600020600001548154811062000b96577f4e487b7100000000000000000000000000000000000000000000000000000000600052603260045260246000fd5b9060005260206000200160009054906101000a900473ffffffffffffffffffffffffffffffffffffffff1673ffffffffffffffffffffffffffffffffffffffff161490505b919050565b600062000c0b82600080868152602001908152602001600020600001620014ee90919063ffffffff16565b905092915050565b600062000c3e826000808681526020019081526020016000206000016200150a90919063ffffffff16565b905092915050565b62000c5062001d46565b62000c5b8262000ae8565b62000c745762000c6a62001d46565b8091505062000e5d565b600260008373ffffffffffffffffffffffffffffffffffffffff1673ffffffffffffffffffffffffffffffffffffffff1681526020019081526020016000206040518060a0016040529081600082015481526020016001820160009054906101000a900473ffffffffffffffffffffffffffffffffffffffff1673ffffffffffffffffffffffffffffffffffffffff1673ffffffffffffffffffffffffffffffffffffffff1681526020016002820160009054906101000a900473ffffffffffffffffffffffffffffffffffffffff1673ffffffffffffffffffffffffffffffffffffffff1673ffffffffffffffffffffffffffffffffffffffff1681526020016003820160009054906101000a900473ffffffffffffffffffffffffffffffffffffffff1673ffffffffffffffffffffffffffffffffffffffff1673ffffffffffffffffffffffffffffffffffffffff1681526020016004820180548060200260200160405190810160405280929190818152602001828054801562000e5157602002820191906000526020600020905b8160009054906101000a900473ffffffffffffffffffffffffffffffffffffffff1673ffffffffffffffffffffffffffffffffffffffff168152602001906001019080831162000e06575b50505050508152505090505b919050565b6000801b81565b600062000e7a6000801b3362000c13565b62000ebc576040517f08c379a000000000000000000000000000000000000000000000000000000000815260040162000eb39062002333565b60405180910390fd5b600160149054906101000a900460ff1662000f0e576040517f08c379a000000000000000000000000000000000000000000000000000000000815260040162000f059062002311565b60405180910390fd5b62000f19826200153c565b5060019050919050565b600062000f346000801b3362000c13565b62000f76576040517f08c379a000000000000000000000000000000000000000000000000000000000815260040162000f6d9062002333565b60405180910390fd5b600160149054906101000a900460ff1615600160146101000a81548160ff021916908315150217905550600160149054906101000a900460ff16905090565b600062000fc66000801b3362000c13565b62001008576040517f08c379a000000000000000000000000000000000000000000000000000000000815260040162000fff9062002333565b60405180910390fd5b600160149054906101000a900460ff166200105a576040517f08c379a0000000000000000000000000000000000000000000000000000000008152600401620010519062002311565b60405180910390fd5b6000620010678362000ae8565b6200107a57620010778362001875565b90505b600083600160009054906101000a900473ffffffffffffffffffffffffffffffffffffffff16604051620010ae9062001db7565b620010bb92919062002242565b604051809103906000f080158015620010d8573d6000803e3d6000fd5b50905080600260008673ffffffffffffffffffffffffffffffffffffffff1673ffffffffffffffffffffffffffffffffffffffff16815260200190815260200160002060020160006101000a81548173ffffffffffffffffffffffffffffffffffffffff021916908373ffffffffffffffffffffffffffffffffffffffff1602179055508192505050919050565b60006200118760008084815260200190815260200160002060000162001a22565b9050919050565b620011b860008084815260200190815260200160002060020154620011b2620013b6565b62000c13565b620011fa576040517f08c379a0000000000000000000000000000000000000000000000000000000008152600401620011f19062002355565b60405180910390fd5b62001206828262001456565b5050565b6000600160149054906101000a900460ff166200125e576040517f08c379a0000000000000000000000000000000000000000000000000000000008152600401620012559062002311565b60405180910390fd5b620012698362000ae8565b62001278576000905062001358565b81600260008573ffffffffffffffffffffffffffffffffffffffff1673ffffffffffffffffffffffffffffffffffffffff16815260200190815260200160002060030160006101000a81548173ffffffffffffffffffffffffffffffffffffffff021916908373ffffffffffffffffffffffffffffffffffffffff1602179055508273ffffffffffffffffffffffffffffffffffffffff168273ffffffffffffffffffffffffffffffffffffffff167f32ae1e15433e98cb8f7822b8d5647884e8776c0a7cccbedc03ad096b37a47cf560405160405180910390a3600190505b92915050565b600160009054906101000a900473ffffffffffffffffffffffffffffffffffffffff1681565b6000620013ae836000018373ffffffffffffffffffffffffffffffffffffffff1660001b62001a39565b905092915050565b600033905090565b620013e7816000808581526020019081526020016000206000016200138490919063ffffffff16565b156200145257620013f7620013b6565b73ffffffffffffffffffffffffffffffffffffffff168173ffffffffffffffffffffffffffffffffffffffff16837f2f8788117e7eff1d82e926ec794901d17c78024a50270940304540a733656f0d60405160405180910390a45b5050565b6200147f8160008085815260200190815260200160002060000162001aad90919063ffffffff16565b15620014ea576200148f620013b6565b73ffffffffffffffffffffffffffffffffffffffff168173ffffffffffffffffffffffffffffffffffffffff16837ff6391f5c32d9c69d2a47ea670b442974b53935d1edc7fd64eb21e047a839171b60405160405180910390a45b5050565b6000620014ff836000018362001adf565b60001c905092915050565b600062001534836000018373ffffffffffffffffffffffffffffffffffffffff1660001b62001b7d565b905092915050565b6000620015498262000ae8565b62001558576000905062001870565b6000600260008473ffffffffffffffffffffffffffffffffffffffff1673ffffffffffffffffffffffffffffffffffffffff168152602001908152602001600020600001549050600060036001600380549050620015b7919062002492565b81548110620015ef577f4e487b7100000000000000000000000000000000000000000000000000000000600052603260045260246000fd5b9060005260206000200160009054906101000a900473ffffffffffffffffffffffffffffffffffffffff169050806003838154811062001658577f4e487b7100000000000000000000000000000000000000000000000000000000600052603260045260246000fd5b9060005260206000200160006101000a81548173ffffffffffffffffffffffffffffffffffffffff021916908373ffffffffffffffffffffffffffffffffffffffff16021790555081600260008373ffffffffffffffffffffffffffffffffffffffff1673ffffffffffffffffffffffffffffffffffffffff16815260200190815260200160002060000181905550600260008573ffffffffffffffffffffffffffffffffffffffff1673ffffffffffffffffffffffffffffffffffffffff1681526020019081526020016000206000808201600090556001820160006101000a81549073ffffffffffffffffffffffffffffffffffffffff02191690556002820160006101000a81549073ffffffffffffffffffffffffffffffffffffffff02191690556003820160006101000a81549073ffffffffffffffffffffffffffffffffffffffff0219169055600482016000620017b6919062001dc5565b50506003805480620017f1577f4e487b7100000000000000000000000000000000000000000000000000000000600052603160045260246000fd5b6001900381819060005260206000200160006101000a81549073ffffffffffffffffffffffffffffffffffffffff021916905590558373ffffffffffffffffffffffffffffffffffffffff167f090f8580c9984c072634e9bba0570c10e0478d3a652adb16d8c73528a2ab513c60405160405180910390a26001925050505b919050565b6000620018828262000ae8565b1562001892576000905062001a1d565b81600260008473ffffffffffffffffffffffffffffffffffffffff1673ffffffffffffffffffffffffffffffffffffffff16815260200190815260200160002060010160006101000a81548173ffffffffffffffffffffffffffffffffffffffff021916908373ffffffffffffffffffffffffffffffffffffffff1602179055506003829080600181540180825580915050600190039060005260206000200160009091909190916101000a81548173ffffffffffffffffffffffffffffffffffffffff021916908373ffffffffffffffffffffffffffffffffffffffff160217905550600060016003805490506200198c919062002492565b905080600260008573ffffffffffffffffffffffffffffffffffffffff1673ffffffffffffffffffffffffffffffffffffffff168152602001908152602001600020600001819055508273ffffffffffffffffffffffffffffffffffffffff167fa2da132766d374e1a5a81ba24686b4d3c079d9e5441a8e25e2258f8a55e2180560405160405180910390a2809150505b919050565b600062001a328260000162001ba0565b9050919050565b600062001a47838362001b7d565b62001aa257826000018290806001815401808255809150506001900390600052602060002001600090919091909150558260000180549050836001016000848152602001908152602001600020819055506001905062001aa7565b600090505b92915050565b600062001ad7836000018373ffffffffffffffffffffffffffffffffffffffff1660001b62001bb1565b905092915050565b60008183600001805490501162001b2d576040517f08c379a000000000000000000000000000000000000000000000000000000000815260040162001b2490620022cd565b60405180910390fd5b82600001828154811062001b6a577f4e487b7100000000000000000000000000000000000000000000000000000000600052603260045260246000fd5b9060005260206000200154905092915050565b600080836001016000848152602001908152602001600020541415905092915050565b600081600001805490509050919050565b6000808360010160008481526020019081526020016000205490506000811462001d3a57600060018262001be6919062002492565b905060006001866000018054905062001c00919062002492565b9050600086600001828154811062001c41577f4e487b7100000000000000000000000000000000000000000000000000000000600052603260045260246000fd5b906000526020600020015490508087600001848154811062001c8c577f4e487b7100000000000000000000000000000000000000000000000000000000600052603260045260246000fd5b906000526020600020018190555060018362001ca9919062002435565b876001016000838152602001908152602001600020819055508660000180548062001cfd577f4e487b7100000000000000000000000000000000000000000000000000000000600052603160045260246000fd5b6001900381819060005260206000200160009055905586600101600087815260200190815260200160002060009055600194505050505062001d40565b60009150505b92915050565b6040518060a0016040528060008152602001600073ffffffffffffffffffffffffffffffffffffffff168152602001600073ffffffffffffffffffffffffffffffffffffffff168152602001600073ffffffffffffffffffffffffffffffffffffffff168152602001606081525090565b613789806200272d83390190565b508054600082559060005260206000209081019062001de5919062001de8565b50565b5b8082111562001e0357600081600090555060010162001de9565b5090565b60008135905062001e1881620026de565b92915050565b60008135905062001e2f81620026f8565b92915050565b60008135905062001e468162002712565b92915050565b60006020828403121562001e5f57600080fd5b600062001e6f8482850162001e07565b91505092915050565b6000806040838503121562001e8c57600080fd5b600062001e9c8582860162001e07565b925050602062001eaf8582860162001e07565b9150509250929050565b60006020828403121562001ecc57600080fd5b600062001edc8482850162001e1e565b91505092915050565b6000806040838503121562001ef957600080fd5b600062001f098582860162001e1e565b925050602062001f1c8582860162001e07565b9150509250929050565b6000806040838503121562001f3a57600080fd5b600062001f4a8582860162001e1e565b925050602062001f5d8582860162001e35565b9150509250929050565b600062001f75838362001f81565b60208301905092915050565b62001f8c81620024cd565b82525050565b62001f9d81620024cd565b82525050565b600062001fb082620023ea565b62001fbc818562002402565b935062001fc983620023da565b8060005b838110156200200057815162001fe4888262001f67565b975062001ff183620023f5565b92505060018101905062001fcd565b5085935050505092915050565b60006200201a82620023ea565b62002026818562002413565b93506200203383620023da565b8060005b838110156200206a5781516200204e888262001f67565b97506200205b83620023f5565b92505060018101905062002037565b5085935050505092915050565b6200208281620024e1565b82525050565b6200209381620024ed565b82525050565b6000620020a860228362002424565b9150620020b58262002550565b604082019050919050565b6000620020cf602f8362002424565b9150620020dc826200259f565b604082019050919050565b6000620020f6601b8362002424565b91506200210382620025ee565b602082019050919050565b60006200211d601b8362002424565b91506200212a8262002617565b602082019050919050565b60006200214460308362002424565b9150620021518262002640565b604082019050919050565b60006200216b602f8362002424565b915062002178826200268f565b604082019050919050565b600060a0830160008301516200219d600086018262002203565b506020830151620021b2602086018262001f81565b506040830151620021c7604086018262001f81565b506060830151620021dc606086018262001f81565b5060808301518482036080860152620021f6828262001fa3565b9150508091505092915050565b6200220e8162002517565b82525050565b6200221f8162002517565b82525050565b60006020820190506200223c600083018462001f92565b92915050565b600060408201905062002259600083018562001f92565b62002268602083018462001f92565b9392505050565b600060208201905081810360008301526200228b81846200200d565b905092915050565b6000602082019050620022aa600083018462002077565b92915050565b6000602082019050620022c7600083018462002088565b92915050565b60006020820190508181036000830152620022e88162002099565b9050919050565b600060208201905081810360008301526200230a81620020c0565b9050919050565b600060208201905081810360008301526200232c81620020e7565b9050919050565b600060208201905081810360008301526200234e816200210e565b9050919050565b60006020820190508181036000830152620023708162002135565b9050919050565b6000602082019050818103600083015262002392816200215c565b9050919050565b60006020820190508181036000830152620023b5818462002183565b905092915050565b6000602082019050620023d4600083018462002214565b92915050565b6000819050602082019050919050565b600081519050919050565b6000602082019050919050565b600082825260208201905092915050565b600082825260208201905092915050565b600082825260208201905092915050565b6000620024428262002517565b91506200244f8362002517565b9250827fffffffffffffffffffffffffffffffffffffffffffffffffffffffffffffffff0382111562002487576200248662002521565b5b828201905092915050565b60006200249f8262002517565b9150620024ac8362002517565b925082821015620024c257620024c162002521565b5b828203905092915050565b6000620024da82620024f7565b9050919050565b60008115159050919050565b6000819050919050565b600073ffffffffffffffffffffffffffffffffffffffff82169050919050565b6000819050919050565b7f4e487b7100000000000000000000000000000000000000000000000000000000600052601160045260246000fd5b7f456e756d657261626c655365743a20696e646578206f7574206f6620626f756e60008201527f6473000000000000000000000000000000000000000000000000000000000000602082015250565b7f416363657373436f6e74726f6c3a2073656e646572206d75737420626520616e60008201527f2061646d696e20746f206772616e740000000000000000000000000000000000602082015250565b7f41636164656d7953747564656e74733a206e6f74206163746976650000000000600082015250565b7f41636164656d7953747564656e74733a206f6e6c79206f776e65720000000000600082015250565b7f416363657373436f6e74726f6c3a2073656e646572206d75737420626520616e60008201527f2061646d696e20746f207265766f6b6500000000000000000000000000000000602082015250565b7f416363657373436f6e74726f6c3a2063616e206f6e6c792072656e6f756e636560008201527f20726f6c657320666f722073656c660000000000000000000000000000000000602082015250565b620026e981620024cd565b8114620026f557600080fd5b50565b6200270381620024ed565b81146200270f57600080fd5b50565b6200271d8162002517565b81146200272957600080fd5b5056fe60806040523480156200001157600080fd5b506040516200378938038062003789833981810160405281019062000037919062000283565b6200004c6000801b33620000d660201b60201c565b81600460006101000a81548173ffffffffffffffffffffffffffffffffffffffff021916908373ffffffffffffffffffffffffffffffffffffffff16021790555080600560006101000a81548173ffffffffffffffffffffffffffffffffffffffff021916908373ffffffffffffffffffffffffffffffffffffffff160217905550505062000312565b620000e88282620000ec60201b60201c565b5050565b6200011a816000808581526020019081526020016000206000016200018f60201b62001c0f1790919060201c565b156200018b5762000130620001c760201b60201c565b73ffffffffffffffffffffffffffffffffffffffff168173ffffffffffffffffffffffffffffffffffffffff16837f2f8788117e7eff1d82e926ec794901d17c78024a50270940304540a733656f0d60405160405180910390a45b5050565b6000620001bf836000018373ffffffffffffffffffffffffffffffffffffffff1660001b620001cf60201b60201c565b905092915050565b600033905090565b6000620001e383836200024960201b60201c565b6200023e57826000018290806001815401808255809150506001900390600052602060002001600090919091909150558260000180549050836001016000848152602001908152602001600020819055506001905062000243565b600090505b92915050565b600080836001016000848152602001908152602001600020541415905092915050565b6000815190506200027d81620002f8565b92915050565b600080604083850312156200029757600080fd5b6000620002a7858286016200026c565b9250506020620002ba858286016200026c565b9150509250929050565b6000620002d182620002d8565b9050919050565b600073ffffffffffffffffffffffffffffffffffffffff82169050919050565b6200030381620002c4565b81146200030f57600080fd5b50565b61346780620003226000396000f3fe608060405234801561001057600080fd5b50600436106101425760003560e01c8063a217fddf116100b8578063e4440b991161007c578063e4440b99146103e7578063e5a2797914610417578063ec77f83014610447578063f4a496b714610465578063f7e0123a14610495578063fefd6e76146104b357610142565b8063a217fddf1461031d578063a84224bc1461033b578063ca15c8731461036b578063d46e1c4a1461039b578063d547741f146103cb57610142565b806336568abe1161010a57806336568abe14610223578063699450e81461023f5780637201ac1e1461025d5780638a06d20b1461028d5780639010d07c146102bd57806391d14854146102ed57610142565b80631734109a146101475780632289367f14610177578063248a9ca3146101a75780632727737d146101d75780632f2ff15d14610207575b600080fd5b610161600480360381019061015c919061238e565b6104d1565b60405161016e9190612adf565b60405180910390f35b610191600480360381019061018c919061238e565b610569565b60405161019e9190612adf565b60405180910390f35b6101c160048036038101906101bc919061245d565b6105c5565b6040516101ce9190612afa565b60405180910390f35b6101f160048036038101906101ec919061238e565b6105e4565b6040516101fe9190612d54565b60405180910390f35b610221600480360381019061021c9190612486565b610778565b005b61023d60048036038101906102389190612486565b6107eb565b005b61024761086e565b6040516102549190612aa2565b60405180910390f35b610277600480360381019061027291906124fe565b610894565b6040516102849190612d54565b60405180910390f35b6102a760048036038101906102a291906123e0565b610a07565b6040516102b49190612d76565b60405180910390f35b6102d760048036038101906102d291906124c2565b610ff5565b6040516102e49190612aa2565b60405180910390f35b61030760048036038101906103029190612486565b611026565b6040516103149190612adf565b60405180910390f35b610325611057565b6040516103329190612afa565b60405180910390f35b610355600480360381019061035091906124fe565b61105e565b6040516103629190612adf565b60405180910390f35b6103856004803603810190610380919061245d565b611099565b6040516103929190612d76565b60405180910390f35b6103b560048036038101906103b0919061238e565b6110bf565b6040516103c29190612d76565b60405180910390f35b6103e560048036038101906103e09190612486565b611108565b005b61040160048036038101906103fc919061253f565b61117b565b60405161040e9190612d54565b60405180910390f35b610431600480360381019061042c91906124fe565b611324565b60405161043e9190612d76565b60405180910390f35b61044f611352565b60405161045c9190612d76565b60405180910390f35b61047f600480360381019061047a919061238e565b61135f565b60405161048c9190612adf565b60405180910390f35b61049d611aa2565b6040516104aa9190612abd565b60405180910390f35b6104bb611be9565b6040516104c89190612b15565b60405180910390f35b60006104e06000801b33611026565b61051f576040517f08c379a000000000000000000000000000000000000000000000000000000000815260040161051690612cb4565b60405180910390fd5b81600560006101000a81548173ffffffffffffffffffffffffffffffffffffffff021916908373ffffffffffffffffffffffffffffffffffffffff16021790555060019050919050565b600080600260008473ffffffffffffffffffffffffffffffffffffffff1673ffffffffffffffffffffffffffffffffffffffff1681526020019081526020016000205414156105bb57600090506105c0565b600190505b919050565b6000806000838152602001908152602001600020600201549050919050565b6105ec61211d565b600180600260008573ffffffffffffffffffffffffffffffffffffffff1673ffffffffffffffffffffffffffffffffffffffff168152602001908152602001600020546106399190612ec3565b81548110610670577f4e487b7100000000000000000000000000000000000000000000000000000000600052603260045260246000fd5b90600052602060002090600202016040518060400160405290816000820160009054906101000a900473ffffffffffffffffffffffffffffffffffffffff1673ffffffffffffffffffffffffffffffffffffffff1673ffffffffffffffffffffffffffffffffffffffff1681526020016001820180546106ef90612faf565b80601f016020809104026020016040519081016040528092919081815260200182805461071b90612faf565b80156107685780601f1061073d57610100808354040283529160200191610768565b820191906000526020600020905b81548152906001019060200180831161074b57829003601f168201915b5050505050815250509050919050565b61079e60008084815260200190815260200160002060020154610799611c3f565b611026565b6107dd576040517f08c379a00000000000000000000000000000000000000000000000000000000081526004016107d490612bb4565b60405180910390fd5b6107e78282611c47565b5050565b6107f3611c3f565b73ffffffffffffffffffffffffffffffffffffffff168173ffffffffffffffffffffffffffffffffffffffff1614610860576040517f08c379a000000000000000000000000000000000000000000000000000000000815260040161085790612d14565b60405180910390fd5b61086a8282611cda565b5050565b600460009054906101000a900473ffffffffffffffffffffffffffffffffffffffff1681565b61089c61211d565b6001806003846040516108af9190612a74565b9081526020016040518091039020546108c89190612ec3565b815481106108ff577f4e487b7100000000000000000000000000000000000000000000000000000000600052603260045260246000fd5b90600052602060002090600202016040518060400160405290816000820160009054906101000a900473ffffffffffffffffffffffffffffffffffffffff1673ffffffffffffffffffffffffffffffffffffffff1673ffffffffffffffffffffffffffffffffffffffff16815260200160018201805461097e90612faf565b80601f01602080910402602001604051908101604052809291908181526020018280546109aa90612faf565b80156109f75780601f106109cc576101008083540402835291602001916109f7565b820191906000526020600020905b8154815290600101906020018083116109da57829003601f168201915b5050505050815250509050919050565b6000610a228260405180602001604052806000815250611d6d565b15610a62576040517f08c379a0000000000000000000000000000000000000000000000000000000008152600401610a5990612cd4565b60405180910390fd5b600073ffffffffffffffffffffffffffffffffffffffff168373ffffffffffffffffffffffffffffffffffffffff161415610ad2576040517f08c379a0000000000000000000000000000000000000000000000000000000008152600401610ac990612c94565b60405180910390fd5b600560009054906101000a900473ffffffffffffffffffffffffffffffffffffffff1673ffffffffffffffffffffffffffffffffffffffff1663261a323e836040518263ffffffff1660e01b8152600401610b2d9190612b30565b60206040518083038186803b158015610b4557600080fd5b505afa158015610b59573d6000803e3d6000fd5b505050506040513d601f19601f82011682018060405250810190610b7d9190612434565b610bbc576040517f08c379a0000000000000000000000000000000000000000000000000000000008152600401610bb390612c14565b60405180910390fd5b600560009054906101000a900473ffffffffffffffffffffffffffffffffffffffff1673ffffffffffffffffffffffffffffffffffffffff1663c8902a21836040518263ffffffff1660e01b8152600401610c179190612b30565b60206040518083038186803b158015610c2f57600080fd5b505afa158015610c43573d6000803e3d6000fd5b505050506040513d601f19601f82011682018060405250810190610c679190612434565b610ca6576040517f08c379a0000000000000000000000000000000000000000000000000000000008152600401610c9d90612d34565b60405180910390fd5b600560009054906101000a900473ffffffffffffffffffffffffffffffffffffffff1673ffffffffffffffffffffffffffffffffffffffff16634f491152836040518263ffffffff1660e01b8152600401610d019190612b30565b60206040518083038186803b158015610d1957600080fd5b505afa158015610d2d573d6000803e3d6000fd5b505050506040513d601f19601f82011682018060405250810190610d5191906123b7565b73ffffffffffffffffffffffffffffffffffffffff163373ffffffffffffffffffffffffffffffffffffffff1614610dbe576040517f08c379a0000000000000000000000000000000000000000000000000000000008152600401610db590612cf4565b60405180910390fd5b610dc783610569565b15610e07576040517f08c379a0000000000000000000000000000000000000000000000000000000008152600401610dfe90612bd4565b60405180910390fd5b610e108261105e565b15610e50576040517f08c379a0000000000000000000000000000000000000000000000000000000008152600401610e4790612b74565b60405180910390fd5b610e5861211d565b83816000019073ffffffffffffffffffffffffffffffffffffffff16908173ffffffffffffffffffffffffffffffffffffffff1681525050828160200181905250600181908060018154018082558091505060019003906000526020600020906002020160009091909190915060008201518160000160006101000a81548173ffffffffffffffffffffffffffffffffffffffff021916908373ffffffffffffffffffffffffffffffffffffffff1602179055506020820151816001019080519060200190610f2892919061214d565b5050506000600180549050905080600260008773ffffffffffffffffffffffffffffffffffffffff1673ffffffffffffffffffffffffffffffffffffffff1681526020019081526020016000208190555080600385604051610f8a9190612a74565b9081526020016040518091039020819055508473ffffffffffffffffffffffffffffffffffffffff167f5f72ee8f126edb9517a308b63a1840bbade7cc7d2406cf0df01e0b0f2071e45385604051610fe29190612b30565b60405180910390a2809250505092915050565b600061101e82600080868152602001908152602001600020600001611dc690919063ffffffff16565b905092915050565b600061104f82600080868152602001908152602001600020600001611de090919063ffffffff16565b905092915050565b6000801b81565b6000806003836040516110719190612a74565b908152602001604051809103902054141561108f5760009050611094565b600190505b919050565b60006110b8600080848152602001908152602001600020600001611e10565b9050919050565b6000600260008373ffffffffffffffffffffffffffffffffffffffff1673ffffffffffffffffffffffffffffffffffffffff168152602001908152602001600020549050919050565b61112e60008084815260200190815260200160002060020154611129611c3f565b611026565b61116d576040517f08c379a000000000000000000000000000000000000000000000000000000000815260040161116490612c34565b60405180910390fd5b6111778282611cda565b5050565b61118361211d565b60008211801561119857506001805490508211155b6111d7576040517f08c379a00000000000000000000000000000000000000000000000000000000081526004016111ce90612bf4565b60405180910390fd5b600180836111e59190612ec3565b8154811061121c577f4e487b7100000000000000000000000000000000000000000000000000000000600052603260045260246000fd5b90600052602060002090600202016040518060400160405290816000820160009054906101000a900473ffffffffffffffffffffffffffffffffffffffff1673ffffffffffffffffffffffffffffffffffffffff1673ffffffffffffffffffffffffffffffffffffffff16815260200160018201805461129b90612faf565b80601f01602080910402602001604051908101604052809291908181526020018280546112c790612faf565b80156113145780601f106112e957610100808354040283529160200191611314565b820191906000526020600020905b8154815290600101906020018083116112f757829003601f168201915b5050505050815250509050919050565b6003818051602081018201805184825260208301602085012081835280955050505050506000915090505481565b6000600180549050905090565b60008073ffffffffffffffffffffffffffffffffffffffff168273ffffffffffffffffffffffffffffffffffffffff1614156113d0576040517f08c379a00000000000000000000000000000000000000000000000000000000081526004016113c790612c54565b60405180910390fd5b6113d982610569565b611418576040517f08c379a000000000000000000000000000000000000000000000000000000000815260040161140f90612c74565b60405180910390fd5b6000600560009054906101000a900473ffffffffffffffffffffffffffffffffffffffff1673ffffffffffffffffffffffffffffffffffffffff16634f491152600180600260008873ffffffffffffffffffffffffffffffffffffffff1673ffffffffffffffffffffffffffffffffffffffff168152602001908152602001600020546114a59190612ec3565b815481106114dc577f4e487b7100000000000000000000000000000000000000000000000000000000600052603260045260246000fd5b90600052602060002090600202016001016040518263ffffffff1660e01b81526004016115099190612b52565b60206040518083038186803b15801561152157600080fd5b505afa158015611535573d6000803e3d6000fd5b505050506040513d601f19601f8201168201806040525081019061155991906123b7565b90508073ffffffffffffffffffffffffffffffffffffffff163373ffffffffffffffffffffffffffffffffffffffff16146115c9576040517f08c379a00000000000000000000000000000000000000000000000000000000081526004016115c090612cf4565b60405180910390fd5b60006001600260008673ffffffffffffffffffffffffffffffffffffffff1673ffffffffffffffffffffffffffffffffffffffff168152602001908152602001600020546116179190612ec3565b9050600060018281548110611655577f4e487b7100000000000000000000000000000000000000000000000000000000600052603260045260246000fd5b9060005260206000209060020201600101805461167190612faf565b80601f016020809104026020016040519081016040528092919081815260200182805461169d90612faf565b80156116ea5780601f106116bf576101008083540402835291602001916116ea565b820191906000526020600020905b8154815290600101906020018083116116cd57829003601f168201915b505050505090506000600180805490506117049190612ec3565b9050600060018281548110611742577f4e487b7100000000000000000000000000000000000000000000000000000000600052603260045260246000fd5b906000526020600020906002020160000160009054906101000a900473ffffffffffffffffffffffffffffffffffffffff169050600182815481106117b0577f4e487b7100000000000000000000000000000000000000000000000000000000600052603260045260246000fd5b9060005260206000209060020201600185815481106117f8577f4e487b7100000000000000000000000000000000000000000000000000000000600052603260045260246000fd5b90600052602060002090600202016000820160009054906101000a900473ffffffffffffffffffffffffffffffffffffffff168160000160006101000a81548173ffffffffffffffffffffffffffffffffffffffff021916908373ffffffffffffffffffffffffffffffffffffffff160217905550600182018160010190805461188190612faf565b61188c9291906121d3565b5090505060018461189d9190612e6d565b600260008373ffffffffffffffffffffffffffffffffffffffff1673ffffffffffffffffffffffffffffffffffffffff168152602001908152602001600020819055506001846118ed9190612e6d565b600360018481548110611929577f4e487b7100000000000000000000000000000000000000000000000000000000600052603260045260246000fd5b90600052602060002090600202016001016040516119479190612a8b565b908152602001604051809103902081905550600260008873ffffffffffffffffffffffffffffffffffffffff1673ffffffffffffffffffffffffffffffffffffffff168152602001908152602001600020600090556003836040516119ac9190612a74565b90815260200160405180910390206000905560018054806119f6577f4e487b7100000000000000000000000000000000000000000000000000000000600052603160045260246000fd5b6001900381819060005260206000209060020201600080820160006101000a81549073ffffffffffffffffffffffffffffffffffffffff0219169055600182016000611a429190612260565b505090558673ffffffffffffffffffffffffffffffffffffffff167f28396d1fabed6609301bc39be12fb83c36ef88bb22fd01e7e40882caea308bf384604051611a8c9190612b30565b60405180910390a2600195505050505050919050565b60606001805480602002602001604051908101604052809291908181526020016000905b82821015611be057838290600052602060002090600202016040518060400160405290816000820160009054906101000a900473ffffffffffffffffffffffffffffffffffffffff1673ffffffffffffffffffffffffffffffffffffffff1673ffffffffffffffffffffffffffffffffffffffff168152602001600182018054611b4f90612faf565b80601f0160208091040260200160405190810160405280929190818152602001828054611b7b90612faf565b8015611bc85780601f10611b9d57610100808354040283529160200191611bc8565b820191906000526020600020905b815481529060010190602001808311611bab57829003601f168201915b50505050508152505081526020019060010190611ac6565b50505050905090565b600560009054906101000a900473ffffffffffffffffffffffffffffffffffffffff1681565b6000611c37836000018373ffffffffffffffffffffffffffffffffffffffff1660001b611e25565b905092915050565b600033905090565b611c6e81600080858152602001908152602001600020600001611c0f90919063ffffffff16565b15611cd657611c7b611c3f565b73ffffffffffffffffffffffffffffffffffffffff168173ffffffffffffffffffffffffffffffffffffffff16837f2f8788117e7eff1d82e926ec794901d17c78024a50270940304540a733656f0d60405160405180910390a45b5050565b611d0181600080858152602001908152602001600020600001611e9590919063ffffffff16565b15611d6957611d0e611c3f565b73ffffffffffffffffffffffffffffffffffffffff168173ffffffffffffffffffffffffffffffffffffffff16837ff6391f5c32d9c69d2a47ea670b442974b53935d1edc7fd64eb21e047a839171b60405160405180910390a45b5050565b600081604051602001611d809190612a74565b6040516020818303038152906040528051906020012083604051602001611da79190612a74565b6040516020818303038152906040528051906020012014905092915050565b6000611dd58360000183611ec5565b60001c905092915050565b6000611e08836000018373ffffffffffffffffffffffffffffffffffffffff1660001b611f5f565b905092915050565b6000611e1e82600001611f82565b9050919050565b6000611e318383611f5f565b611e8a578260000182908060018154018082558091505060019003906000526020600020016000909190919091505582600001805490508360010160008481526020019081526020016000208190555060019050611e8f565b600090505b92915050565b6000611ebd836000018373ffffffffffffffffffffffffffffffffffffffff1660001b611f93565b905092915050565b600081836000018054905011611f10576040517f08c379a0000000000000000000000000000000000000000000000000000000008152600401611f0790612b94565b60405180910390fd5b826000018281548110611f4c577f4e487b7100000000000000000000000000000000000000000000000000000000600052603260045260246000fd5b9060005260206000200154905092915050565b600080836001016000848152602001908152602001600020541415905092915050565b600081600001805490509050919050565b60008083600101600084815260200190815260200160002054905060008114612111576000600182611fc59190612ec3565b9050600060018660000180549050611fdd9190612ec3565b9050600086600001828154811061201d577f4e487b7100000000000000000000000000000000000000000000000000000000600052603260045260246000fd5b9060005260206000200154905080876000018481548110612067577f4e487b7100000000000000000000000000000000000000000000000000000000600052603260045260246000fd5b90600052602060002001819055506001836120829190612e6d565b87600101600083815260200190815260200160002081905550866000018054806120d5577f4e487b7100000000000000000000000000000000000000000000000000000000600052603160045260246000fd5b60019003818190600052602060002001600090559055866001016000878152602001908152602001600020600090556001945050505050612117565b60009150505b92915050565b6040518060400160405280600073ffffffffffffffffffffffffffffffffffffffff168152602001606081525090565b82805461215990612faf565b90600052602060002090601f01602090048101928261217b57600085556121c2565b82601f1061219457805160ff19168380011785556121c2565b828001600101855582156121c2579182015b828111156121c15782518255916020019190600101906121a6565b5b5090506121cf91906122a0565b5090565b8280546121df90612faf565b90600052602060002090601f016020900481019282612201576000855561224f565b82601f10612212578054855561224f565b8280016001018555821561224f57600052602060002091601f016020900482015b8281111561224e578254825591600101919060010190612233565b5b50905061225c91906122a0565b5090565b50805461226c90612faf565b6000825580601f1061227e575061229d565b601f01602090049060005260206000209081019061229c91906122a0565b5b50565b5b808211156122b95760008160009055506001016122a1565b5090565b60006122d06122cb84612db6565b612d91565b9050828152602081018484840111156122e857600080fd5b6122f3848285612f6d565b509392505050565b60008135905061230a816133d5565b92915050565b60008151905061231f816133d5565b92915050565b600081519050612334816133ec565b92915050565b60008135905061234981613403565b92915050565b600082601f83011261236057600080fd5b81356123708482602086016122bd565b91505092915050565b6000813590506123888161341a565b92915050565b6000602082840312156123a057600080fd5b60006123ae848285016122fb565b91505092915050565b6000602082840312156123c957600080fd5b60006123d784828501612310565b91505092915050565b600080604083850312156123f357600080fd5b6000612401858286016122fb565b925050602083013567ffffffffffffffff81111561241e57600080fd5b61242a8582860161234f565b9150509250929050565b60006020828403121561244657600080fd5b600061245484828501612325565b91505092915050565b60006020828403121561246f57600080fd5b600061247d8482850161233a565b91505092915050565b6000806040838503121561249957600080fd5b60006124a78582860161233a565b92505060206124b8858286016122fb565b9150509250929050565b600080604083850312156124d557600080fd5b60006124e38582860161233a565b92505060206124f485828601612379565b9150509250929050565b60006020828403121561251057600080fd5b600082013567ffffffffffffffff81111561252a57600080fd5b6125368482850161234f565b91505092915050565b60006020828403121561255157600080fd5b600061255f84828501612379565b91505092915050565b600061257483836129eb565b905092915050565b61258581612ef7565b82525050565b61259481612ef7565b82525050565b60006125a582612e0c565b6125af8185612e2f565b9350836020820285016125c185612de7565b8060005b858110156125fd57848403895281516125de8582612568565b94506125e983612e22565b925060208a019950506001810190506125c5565b50829750879550505050505092915050565b61261881612f09565b82525050565b61262781612f15565b82525050565b61263681612f49565b82525050565b600061264782612e17565b6126518185612e40565b9350612661818560208601612f7c565b61266a8161309f565b840191505092915050565b600061268082612e17565b61268a8185612e51565b935061269a818560208601612f7c565b6126a38161309f565b840191505092915050565b60006126b982612e17565b6126c38185612e62565b93506126d3818560208601612f7c565b80840191505092915050565b600081546126ec81612faf565b6126f68186612e51565b94506001821660008114612711576001811461272357612756565b60ff1983168652602086019350612756565b61272c85612df7565b60005b8381101561274e5781548189015260018201915060208101905061272f565b808801955050505b50505092915050565b6000815461276c81612faf565b6127768186612e62565b9450600182166000811461279157600181146127a2576127d5565b60ff198316865281860193506127d5565b6127ab85612df7565b60005b838110156127cd578154818901526001820191506020810190506127ae565b838801955050505b50505092915050565b60006127eb601983612e51565b91506127f6826130b0565b602082019050919050565b600061280e602283612e51565b9150612819826130d9565b604082019050919050565b6000612831602f83612e51565b915061283c82613128565b604082019050919050565b6000612854601983612e51565b915061285f82613177565b602082019050919050565b6000612877600c83612e51565b9150612882826131a0565b602082019050919050565b600061289a601d83612e51565b91506128a5826131c9565b602082019050919050565b60006128bd603083612e51565b91506128c8826131f2565b604082019050919050565b60006128e0600f83612e51565b91506128eb82613241565b602082019050919050565b6000612903601283612e51565b915061290e8261326a565b602082019050919050565b6000612926601a83612e51565b915061293182613293565b602082019050919050565b6000612949601c83612e51565b9150612954826132bc565b602082019050919050565b600061296c601783612e51565b9150612977826132e5565b602082019050919050565b600061298f602883612e51565b915061299a8261330e565b604082019050919050565b60006129b2602f83612e51565b91506129bd8261335d565b604082019050919050565b60006129d5601d83612e51565b91506129e0826133ac565b602082019050919050565b6000604083016000830151612a03600086018261257c565b5060208301518482036020860152612a1b828261263c565b9150508091505092915050565b6000604083016000830151612a40600086018261257c565b5060208301518482036020860152612a58828261263c565b9150508091505092915050565b612a6e81612f3f565b82525050565b6000612a8082846126ae565b915081905092915050565b6000612a97828461275f565b915081905092915050565b6000602082019050612ab7600083018461258b565b92915050565b60006020820190508181036000830152612ad7818461259a565b905092915050565b6000602082019050612af4600083018461260f565b92915050565b6000602082019050612b0f600083018461261e565b92915050565b6000602082019050612b2a600083018461262d565b92915050565b60006020820190508181036000830152612b4a8184612675565b905092915050565b60006020820190508181036000830152612b6c81846126df565b905092915050565b60006020820190508181036000830152612b8d816127de565b9050919050565b60006020820190508181036000830152612bad81612801565b9050919050565b60006020820190508181036000830152612bcd81612824565b9050919050565b60006020820190508181036000830152612bed81612847565b9050919050565b60006020820190508181036000830152612c0d8161286a565b9050919050565b60006020820190508181036000830152612c2d8161288d565b9050919050565b60006020820190508181036000830152612c4d816128b0565b9050919050565b60006020820190508181036000830152612c6d816128d3565b9050919050565b60006020820190508181036000830152612c8d816128f6565b9050919050565b60006020820190508181036000830152612cad81612919565b9050919050565b60006020820190508181036000830152612ccd8161293c565b9050919050565b60006020820190508181036000830152612ced8161295f565b9050919050565b60006020820190508181036000830152612d0d81612982565b9050919050565b60006020820190508181036000830152612d2d816129a5565b9050919050565b60006020820190508181036000830152612d4d816129c8565b9050919050565b60006020820190508181036000830152612d6e8184612a28565b905092915050565b6000602082019050612d8b6000830184612a65565b92915050565b6000612d9b612dac565b9050612da78282612fe1565b919050565b6000604051905090565b600067ffffffffffffffff821115612dd157612dd0613070565b5b612dda8261309f565b9050602081019050919050565b6000819050602082019050919050565b60008190508160005260206000209050919050565b600081519050919050565b600081519050919050565b6000602082019050919050565b600082825260208201905092915050565b600082825260208201905092915050565b600082825260208201905092915050565b600081905092915050565b6000612e7882612f3f565b9150612e8383612f3f565b9250827fffffffffffffffffffffffffffffffffffffffffffffffffffffffffffffffff03821115612eb857612eb7613012565b5b828201905092915050565b6000612ece82612f3f565b9150612ed983612f3f565b925082821015612eec57612eeb613012565b5b828203905092915050565b6000612f0282612f1f565b9050919050565b60008115159050919050565b6000819050919050565b600073ffffffffffffffffffffffffffffffffffffffff82169050919050565b6000819050919050565b6000612f5482612f5b565b9050919050565b6000612f6682612f1f565b9050919050565b82818337600083830152505050565b60005b83811015612f9a578082015181840152602081019050612f7f565b83811115612fa9576000848401525b50505050565b60006002820490506001821680612fc757607f821691505b60208210811415612fdb57612fda613041565b5b50919050565b612fea8261309f565b810181811067ffffffffffffffff8211171561300957613008613070565b5b80604052505050565b7f4e487b7100000000000000000000000000000000000000000000000000000000600052601160045260246000fd5b7f4e487b7100000000000000000000000000000000000000000000000000000000600052602260045260246000fd5b7f4e487b7100000000000000000000000000000000000000000000000000000000600052604160045260246000fd5b6000601f19601f8301169050919050565b7f706f7274666f6c696f3a2070726f6a6563742065786973747300000000000000600082015250565b7f456e756d657261626c655365743a20696e646578206f7574206f6620626f756e60008201527f6473000000000000000000000000000000000000000000000000000000000000602082015250565b7f416363657373436f6e74726f6c3a2073656e646572206d75737420626520616e60008201527f2061646d696e20746f206772616e740000000000000000000000000000000000602082015250565b7f706f7274666f6c696f3a20616464726573732065786973747300000000000000600082015250565b7f6f7574206f662072616e67650000000000000000000000000000000000000000600082015250565b7f706f7274666f6c696f3a2070726f6a656374206e6f7420657869737473000000600082015250565b7f416363657373436f6e74726f6c3a2073656e646572206d75737420626520616e60008201527f2061646d696e20746f207265766f6b6500000000000000000000000000000000602082015250565b7f696e76616c696420616464726573730000000000000000000000000000000000600082015250565b7f61646472657373206e6f74206578697374730000000000000000000000000000600082015250565b7f706f7274666f6c696f3a20696e76616c69642061646472657373000000000000600082015250565b7f53747564656e74506f7274666f6c696f3a206f6e6c79206f776e657200000000600082015250565b7f706f7274666f6c696f3a20696e76616c6964206e616d65000000000000000000600082015250565b7f4f6e6c79204d61737465722063616e206164642070726f6a65637420696e207060008201527f6f7274666f6c696f000000000000000000000000000000000000000000000000602082015250565b7f416363657373436f6e74726f6c3a2063616e206f6e6c792072656e6f756e636560008201527f20726f6c657320666f722073656c660000000000000000000000000000000000602082015250565b7f706f7274666f6c696f3a2070726f6a656374206e6f7420616374697665000000600082015250565b6133de81612ef7565b81146133e957600080fd5b50565b6133f581612f09565b811461340057600080fd5b50565b61340c81612f15565b811461341757600080fd5b50565b61342381612f3f565b811461342e57600080fd5b5056fea26469706673582212204d7bc20269b58fb624732d35994a25df2d5736a131ab7670d5602d80d92f0de264736f6c63430008010033a2646970667358221220b0b4ba0f6f56a2d7540d22ff28d10d43bb1ae2fb700ccb36d603315cdaf97ec664736f6c63430008010033",
  "immutableReferences": {},
  "source": "// SPDX-License-Identifier: MIT\r\npragma solidity 0.8.1;\r\n\r\n//import \"https://github.com/OpenZeppelin/openzeppelin-contracts/blob/master/contracts/access/AccessControl.sol\";\r\n//import '@openzeppelin/contracts/access/AccessControl.sol';\r\nimport './oz-contracts/access/AccessControl.sol';\r\n\r\n\r\nstruct StudentStruct {\r\n    uint index;\r\n    address ownerAddress;\r\n    address portfolioAddress;\r\n    address activeClass;\r\n    address[] studentClasses;\r\n}\r\n\r\nstruct ProjectStruct {\r\n    bool active;\r\n    address master;\r\n    string name;\r\n    string description;\r\n    string ABI;\r\n    string sourceCode;\r\n}\r\n\r\ninterface iName {\r\n    //function owner() external returns (address);\r\n    //function getName() external view returns (string memory);\r\n}\r\n\r\ninterface iAcademyClass {\r\n    function addStudent (address account) external returns (bool);\r\n    function isStudent (address account) external view returns (bool);\r\n}\r\n\r\ninterface iAcademyProjectList {\r\n   function exists(string memory name) external view returns (bool);\r\n    function isActive(string memory name) external view returns (bool);\r\n    function getProjectByName (string memory name_) external view returns (ProjectStruct memory);\r\n    function getMasterAddressByName (string memory name_) external view returns (address);\r\n}\r\n\r\n\r\ncontract AcademyStudents is AccessControl {\r\n\r\n    address public projectListAddress;\r\n    bool active;\r\n\r\n    mapping(address => StudentStruct) private studentInfo;\r\n    address[] private studentIndex;\r\n    mapping(address => mapping (address=>bool) ) private studentClassSubscribed;\r\n    \r\n    constructor(address addressProjectList) {\r\n        _setupRole(DEFAULT_ADMIN_ROLE, msg.sender);\r\n        active = true;\r\n        projectListAddress = addressProjectList;\r\n    }\r\n\r\n    event StudentCreated(address indexed studentAddress);\r\n    event StudentRemoved(address indexed studentAddress);\r\n    event StudentSubscribed(address indexed classAddress, address indexed studentAddress);\r\n    event StudentClassSelected(address indexed classAddress, address indexed studentAddress);\r\n    \r\n    modifier onlyOwner() {\r\n        require(hasRole(DEFAULT_ADMIN_ROLE, msg.sender), \"AcademyStudents: only owner\");\r\n        _;\r\n    }\r\n    \r\n    modifier onlyActive() {\r\n        require(active, \"AcademyStudents: not active\");\r\n        _;\r\n    } \r\n\r\n    function addStudent (address account) public onlyOwner onlyActive returns (uint256) {\r\n        uint256 indexStudent;\r\n        if (!isStudent(account)) {\r\n            indexStudent = _addStudent(account);\r\n        }\r\n        \r\n        //Portfolio created for each student\r\n        StudentPortfolio p = new StudentPortfolio (account, projectListAddress);\r\n        studentInfo[account].portfolioAddress = address(p);\r\n        \r\n        return indexStudent;\r\n    }\r\n    \r\n    function _addStudent (address account) private returns (uint256) {\r\n        if (isStudent(account))\r\n            return 0;\r\n        //require (!isStudent(account), \"student already exists\");\r\n        \r\n        studentInfo[account].ownerAddress = account;\r\n        studentIndex.push(account);\r\n        uint256 index = studentIndex.length - 1;\r\n        studentInfo[account].index = index;\r\n        \r\n        emit StudentCreated(account);\r\n        return index;\r\n    }\r\n    \r\n    function delStudent (address account) public onlyOwner onlyActive returns (bool) {\r\n        _delStudent(account);\r\n        return true;\r\n    }\r\n    \r\n    function _delStudent (address account) private returns (bool) {\r\n        if (!isStudent(account))\r\n            return false;\r\n        //require (isStudent(account), \"student not exists\");\r\n        \r\n        uint indexToDelete = studentInfo[account].index;\r\n        address keyToMove = studentIndex[studentIndex.length-1];\r\n        studentIndex[indexToDelete] = keyToMove;\r\n        studentInfo[keyToMove].index = indexToDelete;\r\n        \r\n        delete studentInfo[account];\r\n        studentIndex.pop();\r\n        \r\n        //Mantm o Portfolio do estudante?\r\n\r\n        emit StudentRemoved(account);\r\n        return true;\r\n    }\r\n\r\n    function addClass (address account, address classAddress) public onlyOwner onlyActive returns (bool) {\r\n        if (!isStudent(account)) \r\n            return false;\r\n\r\n        //Verificar se ele j est inscrito nesta classe\r\n        if (!studentClassSubscribed[account][classAddress]) {\r\n            studentInfo[account].studentClasses.push(classAddress);\r\n            studentClassSubscribed[account][classAddress] = true;\r\n        }\r\n        \r\n        emit StudentSubscribed(classAddress, account);\r\n        return true;\r\n    }\r\n\r\n    function updateActiveClass (address classAddress) public returns (bool) {\r\n        return _updateActiveClass(msg.sender, classAddress);\r\n    }\r\n    \r\n    function updateStudentActiveClass (address account, address classAddress) public onlyOwner returns (bool) {\r\n        return _updateActiveClass(account, classAddress);\r\n    }\r\n\r\n    function _updateActiveClass (address account, address classAddress) public onlyActive returns (bool) {\r\n        if (!isStudent(account))\r\n            return false;\r\n        studentInfo[account].activeClass = classAddress;\r\n        emit StudentClassSelected(classAddress, account);\r\n        return true;\r\n    }\r\n\r\n    function changeActive () public onlyOwner returns (bool) {\r\n        active = !active;\r\n        return active;\r\n    }\r\n\r\n    function updateProjectListAddress (address addressProjectList) public onlyOwner returns (bool) {\r\n        projectListAddress = addressProjectList;\r\n        return true;\r\n    }\r\n    \r\n    function isStudent(address account) public view returns (bool) {\r\n        if(studentIndex.length == 0) return false;\r\n        return (studentIndex[studentInfo[account].index] == account);\r\n    }\r\n    \r\n    function getStudentByAddress (address account) public view returns (StudentStruct memory) {\r\n        if (!isStudent(account)) {\r\n            StudentStruct memory s;\r\n            return s;\r\n        }\r\n        else \r\n            return studentInfo[account];\r\n    }\r\n\r\n    function countStudents () public view returns (uint256) {\r\n        return studentIndex.length;\r\n    }\r\n    \r\n    function listStudents () public view returns (address[] memory) {\r\n        return studentIndex;\r\n    }\r\n\r\n    function compareStrings(string memory a, string memory b) private pure returns (bool) {\r\n        return (keccak256(abi.encodePacked((a))) == keccak256(abi.encodePacked((b))));\r\n    }\r\n\r\n}\r\n\r\n\r\n\r\ncontract StudentPortfolio is AccessControl {\r\n    //One StudentPortfolio per Student\r\n    \r\n    struct PortfolioStruct {\r\n        address projectAddress; // Key\r\n        //iAcademyProjects.ProjectStruct name;\r\n        string name;    // Key for iAcademyProjects.ProjectStruct\r\n    }\r\n    PortfolioStruct[] private portfolioProjects;\r\n    //private\r\n\r\n    mapping(address => uint256) private addressIndex;\r\n    mapping(string => uint256) public nameIndex;\r\n\r\n    address public student;\r\n    //address public projectList;\r\n    iAcademyProjectList public projectList;\r\n    \r\n    constructor(address account, address addressProjectList) {\r\n        _setupRole(DEFAULT_ADMIN_ROLE, msg.sender);\r\n        student = account;\r\n        //projectList = addressProjectList;\r\n        projectList = iAcademyProjectList(addressProjectList);\r\n        \r\n        //addProject(0xAb8483F64d9C6d1EcF9b849Ae677dD3315835cb2,\"P1\");\r\n    }\r\n\r\n    event PortfolioProjectAdded(address indexed projectAddress, string projectName);\r\n    event PortfolioProjectDeleted(address indexed projectAddress, string projectName);\r\n\r\n    modifier onlyOwner() {\r\n        require(hasRole(DEFAULT_ADMIN_ROLE, msg.sender), \"StudentPortfolio: only owner\");\r\n        _;\r\n    }\r\n    \r\n    modifier onlyOwnerOrStudent() {\r\n        require(hasRole(DEFAULT_ADMIN_ROLE, msg.sender) || (msg.sender == student), \"StudentPortfolio: only student or owner\");\r\n        _;\r\n    }\r\n\r\n    function addProject (address projectAddress, string memory projectName) public returns(uint256) {\r\n        //Owners sero os Masters ou Academy. Somente eles podem adicionar projetos, porque validam cada projeto antes de adicionar.\r\n        //melhor somente Academy pode adicionar, Masters chamam Academy\r\n        require (!compareStrings(projectName, \"\"), \"portfolio: invalid name\");\r\n        require (!(projectAddress == address(0x0)), \"portfolio: invalid address\");\r\n        require (projectList.exists(projectName), \"portfolio: project not exists\");\r\n        require (projectList.isActive(projectName), \"portfolio: project not active\");\r\n        require(msg.sender == projectList.getMasterAddressByName(projectName), \"Only Master can add project in portfolio\");\r\n        \r\n        // O estudante pode ter mais de um address por projeto? NO\r\n        require (!addressInPortfolio(projectAddress), \"portfolio: address exists\");\r\n        require (!nameInPortfolio(projectName), \"portfolio: project exists\");\r\n\r\n        PortfolioStruct memory p;\r\n        p.projectAddress = projectAddress;\r\n        p.name = projectName;\r\n\r\n        portfolioProjects.push(p);\r\n        uint256 index = portfolioProjects.length; \r\n        addressIndex[projectAddress] = index;\r\n        nameIndex[projectName] = index;\r\n\r\n        emit PortfolioProjectAdded(projectAddress, projectName);\r\n        return index;\r\n    }\r\n    \r\n    function deleteProjectByAddress (address projectAddress) public returns (bool) {\r\n        //Se o estudante no gostar do seu projeto, pode apag-lo para submete-lo novamente.\r\n        //onlyOwnerOrStudent\r\n        require (!(projectAddress == address(0x0)), \"invalid address\");\r\n        require (addressInPortfolio(projectAddress), \"address not exists\");\r\n\r\n        //Porm, dependendo do projeto, ele ter que apagar no MasterProject.\r\n        //Definir que um projeto s pode ser apagado em seu MasterProject? SIM!\r\n        address masterAddress = projectList.getMasterAddressByName(portfolioProjects[addressIndex[projectAddress]-1].name);\r\n        require(msg.sender == masterAddress, \"Only Master can add project in portfolio\");\r\n\r\n        uint256 indexToDelete = addressIndex[projectAddress]-1;\r\n        string memory nameToDelete =  portfolioProjects[indexToDelete].name;\r\n\r\n        \r\n        uint256 indexToMove = portfolioProjects.length-1;\r\n        address keyToMove = portfolioProjects[indexToMove].projectAddress;\r\n        portfolioProjects[indexToDelete] = portfolioProjects[indexToMove];\r\n        addressIndex[keyToMove] = indexToDelete+1;\r\n        nameIndex[portfolioProjects[indexToMove].name] = indexToDelete+1;\r\n        \r\n        //addressIndex[projectAddress] = 0;\r\n        //nameIndex[nameToDelete] = 0;\r\n        delete addressIndex[projectAddress];\r\n        delete nameIndex[nameToDelete];    \r\n        portfolioProjects.pop();\r\n\r\n        emit PortfolioProjectDeleted(projectAddress, nameToDelete);\r\n        /*\r\n        */\r\n        \r\n        return true;\r\n    }\r\n \r\n    function updateProjectList (address addressProjectList) public onlyOwner returns (bool) {\r\n        projectList = iAcademyProjectList(addressProjectList);\r\n        return true;\r\n    }\r\n\r\n    function addressInPortfolio (address projectAddress) public view returns (bool) {\r\n        //if(portfolioProjects.length == 0) return false;\r\n        \r\n        if (addressIndex[projectAddress] == 0)\r\n            return false;\r\n        else\r\n            return true;\r\n    }\r\n\r\n    function nameInPortfolio (string memory projectName) public view returns (bool) {\r\n        if (nameIndex[projectName] == 0)\r\n            return false;\r\n        else\r\n            return true;\r\n    }\r\n    \r\n    function listPortfolio () public view returns (PortfolioStruct[] memory) {\r\n        return (portfolioProjects);\r\n    }\r\n    \r\n    function countPortfolio () public view returns (uint) {\r\n        return (portfolioProjects.length);\r\n    }\r\n\r\n    function projectByName (string memory projectName) public view returns (PortfolioStruct memory) {\r\n        return portfolioProjects[nameIndex[projectName]-1];\r\n    }\r\n    \r\n    function projectByAddress (address projectAddress) public view returns (PortfolioStruct memory) {\r\n        return portfolioProjects[addressIndex[projectAddress]-1];\r\n    }\r\n    \r\n    function projectByIndex (uint256 index) public view returns (PortfolioStruct memory) {\r\n        require ((index > 0 ) && (index <= portfolioProjects.length), \"out of range\");\r\n        return portfolioProjects[index-1];\r\n    }    \r\n\r\n    function indexOfProject (address projectAddress) public view returns (uint) {\r\n        return addressIndex[projectAddress];\r\n    }\r\n    \r\n    function compareStrings(string memory a, string memory b) private pure returns (bool) {\r\n        return (keccak256(abi.encodePacked((a))) == keccak256(abi.encodePacked((b))));\r\n    }\r\n    \r\n}\r\n\r\n\r\n\r\n",
  "sourcePath": "C:/ACADEMY/GITHUB/rsk-academy-dapp/contracts/AcademyStudents.sol",
  "compiler": {
    "name": "solc",
    "version": "0.8.1+commit.df193b15.Emscripten.clang"
  },
  "schemaVersion": "3.3.4",
  "updatedAt": "2021-02-20T18:47:11.210Z",
  "networkType": "ethereum",
  "devdoc": {
    "kind": "dev",
    "methods": {
      "getRoleAdmin(bytes32)": {
        "details": "Returns the admin role that controls `role`. See {grantRole} and {revokeRole}. To change a role's admin, use {_setRoleAdmin}."
      },
      "getRoleMember(bytes32,uint256)": {
        "details": "Returns one of the accounts that have `role`. `index` must be a value between 0 and {getRoleMemberCount}, non-inclusive. Role bearers are not sorted in any particular way, and their ordering may change at any point. WARNING: When using {getRoleMember} and {getRoleMemberCount}, make sure you perform all queries on the same block. See the following https://forum.openzeppelin.com/t/iterating-over-elements-on-enumerableset-in-openzeppelin-contracts/2296[forum post] for more information."
      },
      "getRoleMemberCount(bytes32)": {
        "details": "Returns the number of accounts that have `role`. Can be used together with {getRoleMember} to enumerate all bearers of a role."
      },
      "grantRole(bytes32,address)": {
        "details": "Grants `role` to `account`. If `account` had not been already granted `role`, emits a {RoleGranted} event. Requirements: - the caller must have ``role``'s admin role."
      },
      "hasRole(bytes32,address)": {
        "details": "Returns `true` if `account` has been granted `role`."
      },
      "renounceRole(bytes32,address)": {
        "details": "Revokes `role` from the calling account. Roles are often managed via {grantRole} and {revokeRole}: this function's purpose is to provide a mechanism for accounts to lose their privileges if they are compromised (such as when a trusted device is misplaced). If the calling account had been granted `role`, emits a {RoleRevoked} event. Requirements: - the caller must be `account`."
      },
      "revokeRole(bytes32,address)": {
        "details": "Revokes `role` from `account`. If `account` had been granted `role`, emits a {RoleRevoked} event. Requirements: - the caller must have ``role``'s admin role."
      }
    },
    "version": 1
  },
  "userdoc": {
    "kind": "user",
    "methods": {},
    "version": 1
  }
}