{
  "contractName": "AcademyClassList",
  "abi": [
    {
      "inputs": [],
      "stateMutability": "nonpayable",
      "type": "constructor"
    },
    {
      "anonymous": false,
      "inputs": [
        {
          "indexed": true,
          "internalType": "address",
          "name": "classAddress",
          "type": "address"
        },
        {
          "indexed": false,
          "internalType": "string",
          "name": "className",
          "type": "string"
        }
      ],
      "name": "AcademyClassCreated",
      "type": "event"
    },
    {
      "anonymous": false,
      "inputs": [
        {
          "indexed": true,
          "internalType": "bytes32",
          "name": "role",
          "type": "bytes32"
        },
        {
          "indexed": true,
          "internalType": "bytes32",
          "name": "previousAdminRole",
          "type": "bytes32"
        },
        {
          "indexed": true,
          "internalType": "bytes32",
          "name": "newAdminRole",
          "type": "bytes32"
        }
      ],
      "name": "RoleAdminChanged",
      "type": "event"
    },
    {
      "anonymous": false,
      "inputs": [
        {
          "indexed": true,
          "internalType": "bytes32",
          "name": "role",
          "type": "bytes32"
        },
        {
          "indexed": true,
          "internalType": "address",
          "name": "account",
          "type": "address"
        },
        {
          "indexed": true,
          "internalType": "address",
          "name": "sender",
          "type": "address"
        }
      ],
      "name": "RoleGranted",
      "type": "event"
    },
    {
      "anonymous": false,
      "inputs": [
        {
          "indexed": true,
          "internalType": "bytes32",
          "name": "role",
          "type": "bytes32"
        },
        {
          "indexed": true,
          "internalType": "address",
          "name": "account",
          "type": "address"
        },
        {
          "indexed": true,
          "internalType": "address",
          "name": "sender",
          "type": "address"
        }
      ],
      "name": "RoleRevoked",
      "type": "event"
    },
    {
      "inputs": [],
      "name": "DEFAULT_ADMIN_ROLE",
      "outputs": [
        {
          "internalType": "bytes32",
          "name": "",
          "type": "bytes32"
        }
      ],
      "stateMutability": "view",
      "type": "function",
      "constant": true
    },
    {
      "inputs": [],
      "name": "active",
      "outputs": [
        {
          "internalType": "bool",
          "name": "",
          "type": "bool"
        }
      ],
      "stateMutability": "view",
      "type": "function",
      "constant": true
    },
    {
      "inputs": [
        {
          "internalType": "bytes32",
          "name": "role",
          "type": "bytes32"
        }
      ],
      "name": "getRoleAdmin",
      "outputs": [
        {
          "internalType": "bytes32",
          "name": "",
          "type": "bytes32"
        }
      ],
      "stateMutability": "view",
      "type": "function",
      "constant": true
    },
    {
      "inputs": [
        {
          "internalType": "bytes32",
          "name": "role",
          "type": "bytes32"
        },
        {
          "internalType": "uint256",
          "name": "index",
          "type": "uint256"
        }
      ],
      "name": "getRoleMember",
      "outputs": [
        {
          "internalType": "address",
          "name": "",
          "type": "address"
        }
      ],
      "stateMutability": "view",
      "type": "function",
      "constant": true
    },
    {
      "inputs": [
        {
          "internalType": "bytes32",
          "name": "role",
          "type": "bytes32"
        }
      ],
      "name": "getRoleMemberCount",
      "outputs": [
        {
          "internalType": "uint256",
          "name": "",
          "type": "uint256"
        }
      ],
      "stateMutability": "view",
      "type": "function",
      "constant": true
    },
    {
      "inputs": [
        {
          "internalType": "bytes32",
          "name": "role",
          "type": "bytes32"
        },
        {
          "internalType": "address",
          "name": "account",
          "type": "address"
        }
      ],
      "name": "grantRole",
      "outputs": [],
      "stateMutability": "nonpayable",
      "type": "function"
    },
    {
      "inputs": [
        {
          "internalType": "bytes32",
          "name": "role",
          "type": "bytes32"
        },
        {
          "internalType": "address",
          "name": "account",
          "type": "address"
        }
      ],
      "name": "hasRole",
      "outputs": [
        {
          "internalType": "bool",
          "name": "",
          "type": "bool"
        }
      ],
      "stateMutability": "view",
      "type": "function",
      "constant": true
    },
    {
      "inputs": [
        {
          "internalType": "bytes32",
          "name": "role",
          "type": "bytes32"
        },
        {
          "internalType": "address",
          "name": "account",
          "type": "address"
        }
      ],
      "name": "renounceRole",
      "outputs": [],
      "stateMutability": "nonpayable",
      "type": "function"
    },
    {
      "inputs": [
        {
          "internalType": "bytes32",
          "name": "role",
          "type": "bytes32"
        },
        {
          "internalType": "address",
          "name": "account",
          "type": "address"
        }
      ],
      "name": "revokeRole",
      "outputs": [],
      "stateMutability": "nonpayable",
      "type": "function"
    },
    {
      "inputs": [
        {
          "internalType": "address",
          "name": "addressStudentList",
          "type": "address"
        },
        {
          "internalType": "string",
          "name": "className",
          "type": "string"
        }
      ],
      "name": "createAcademyClass",
      "outputs": [
        {
          "internalType": "address",
          "name": "",
          "type": "address"
        }
      ],
      "stateMutability": "nonpayable",
      "type": "function"
    },
    {
      "inputs": [
        {
          "internalType": "address",
          "name": "classAddress",
          "type": "address"
        }
      ],
      "name": "changeActiveClass",
      "outputs": [
        {
          "internalType": "bool",
          "name": "",
          "type": "bool"
        }
      ],
      "stateMutability": "nonpayable",
      "type": "function"
    },
    {
      "inputs": [
        {
          "internalType": "address",
          "name": "account",
          "type": "address"
        },
        {
          "internalType": "address",
          "name": "classAddress",
          "type": "address"
        }
      ],
      "name": "addClassOwner",
      "outputs": [],
      "stateMutability": "nonpayable",
      "type": "function"
    },
    {
      "inputs": [
        {
          "internalType": "address",
          "name": "account",
          "type": "address"
        },
        {
          "internalType": "address",
          "name": "classAddress",
          "type": "address"
        }
      ],
      "name": "delClassOwner",
      "outputs": [],
      "stateMutability": "nonpayable",
      "type": "function"
    },
    {
      "inputs": [],
      "name": "changeActive",
      "outputs": [
        {
          "internalType": "bool",
          "name": "",
          "type": "bool"
        }
      ],
      "stateMutability": "nonpayable",
      "type": "function"
    },
    {
      "inputs": [
        {
          "internalType": "address",
          "name": "classAddress",
          "type": "address"
        }
      ],
      "name": "isAcademyClass",
      "outputs": [
        {
          "internalType": "bool",
          "name": "",
          "type": "bool"
        }
      ],
      "stateMutability": "view",
      "type": "function",
      "constant": true
    },
    {
      "inputs": [
        {
          "internalType": "address",
          "name": "classAddress",
          "type": "address"
        }
      ],
      "name": "getAcademyClass",
      "outputs": [
        {
          "components": [
            {
              "internalType": "uint256",
              "name": "index",
              "type": "uint256"
            },
            {
              "internalType": "address",
              "name": "classAddress",
              "type": "address"
            },
            {
              "internalType": "bool",
              "name": "active",
              "type": "bool"
            },
            {
              "internalType": "string",
              "name": "name",
              "type": "string"
            }
          ],
          "internalType": "struct ClassStruct",
          "name": "",
          "type": "tuple"
        }
      ],
      "stateMutability": "view",
      "type": "function",
      "constant": true
    },
    {
      "inputs": [],
      "name": "countAcademyClasses",
      "outputs": [
        {
          "internalType": "uint256",
          "name": "",
          "type": "uint256"
        }
      ],
      "stateMutability": "view",
      "type": "function",
      "constant": true
    },
    {
      "inputs": [],
      "name": "listAcademyClasses",
      "outputs": [
        {
          "internalType": "address[]",
          "name": "",
          "type": "address[]"
        }
      ],
      "stateMutability": "view",
      "type": "function",
      "constant": true
    }
  ],
  "bytecode": "0x60806040523480156200001157600080fd5b50620000276000801b336200004860201b60201c565b6001600360006101000a81548160ff021916908315150217905550620001de565b6200005a82826200005e60201b60201c565b5050565b6200008c816000808581526020019081526020016000206000016200010160201b620012371790919060201c565b15620000fd57620000a26200013960201b60201c565b73ffffffffffffffffffffffffffffffffffffffff168173ffffffffffffffffffffffffffffffffffffffff16837f2f8788117e7eff1d82e926ec794901d17c78024a50270940304540a733656f0d60405160405180910390a45b5050565b600062000131836000018373ffffffffffffffffffffffffffffffffffffffff1660001b6200014160201b60201c565b905092915050565b600033905090565b6000620001558383620001bb60201b60201c565b620001b0578260000182908060018154018082558091505060019003906000526020600020016000909190919091505582600001805490508360010160008481526020019081526020016000208190555060019050620001b5565b600090505b92915050565b600080836001016000848152602001908152602001600020541415905092915050565b61517880620001ee6000396000f3fe60806040523480156200001157600080fd5b5060043610620001305760003560e01c806391d1485411620000b1578063b4ac0dfc116200007b578063b4ac0dfc1462000375578063ca15c8731462000397578063d547741f14620003cd578063d9a5350814620003ed578063fc7519f9146200040f5762000130565b806391d1485414620002c55780639e48626f14620002fb578063a1357dc0146200031d578063a217fddf14620003535762000130565b806336568abe11620000ff57806336568abe14620001cd5780633b3a61ba14620001ed57806374db2a6014620002235780638fe182d114620002595780639010d07c146200028f5762000130565b806302fb0c5e14620001355780631d2fe0a71462000157578063248a9ca314620001775780632f2ff15d14620001ad575b600080fd5b6200013f6200042f565b6040516200014e919062001dee565b60405180910390f35b6200017560048036038101906200016f91906200190b565b62000442565b005b6200019560048036038101906200018f9190620019d2565b62000563565b604051620001a4919062001e0b565b60405180910390f35b620001cb6004803603810190620001c59190620019fe565b62000582565b005b620001eb6004803603810190620001e59190620019fe565b620005fe565b005b6200020b6004803603810190620002059190620018df565b62000688565b6040516200021a919062001f67565b60405180910390f35b6200024160048036038101906200023b91906200194c565b620007f8565b60405162000250919062001d79565b60405180910390f35b620002776004803603810190620002719190620018df565b62000bad565b60405162000286919062001dee565b60405180910390f35b620002ad6004803603810190620002a7919062001a3f565b62000dde565b604051620002bc919062001d79565b60405180910390f35b620002e36004803603810190620002dd9190620019fe565b62000e11565b604051620002f2919062001dee565b60405180910390f35b6200030562000e44565b60405162000314919062001dca565b60405180910390f35b6200033b6004803603810190620003359190620018df565b62000ed4565b6040516200034a919062001dee565b60405180910390f35b6200035d62000fcc565b6040516200036c919062001e0b565b60405180910390f35b6200037f62000fd3565b6040516200038e919062001dee565b60405180910390f35b620003b56004803603810190620003af9190620019d2565b62001065565b604051620003c4919062001f8b565b60405180910390f35b620003eb6004803603810190620003e59190620019fe565b6200108d565b005b620003f762001109565b60405162000406919062001f8b565b60405180910390f35b6200042d60048036038101906200042791906200190b565b62001116565b005b600360009054906101000a900460ff1681565b620004516000801b3362000e11565b62000493576040517f08c379a00000000000000000000000000000000000000000000000000000000081526004016200048a9062001f01565b60405180910390fd5b600360009054906101000a900460ff16620004e5576040517f08c379a0000000000000000000000000000000000000000000000000000000008152600401620004dc9062001f23565b60405180910390fd5b60008190508073ffffffffffffffffffffffffffffffffffffffff1663d547741f6000801b856040518363ffffffff1660e01b81526004016200052a92919062001e28565b600060405180830381600087803b1580156200054557600080fd5b505af11580156200055a573d6000803e3d6000fd5b50505050505050565b6000806000838152602001908152602001600020600201549050919050565b620005ac60008084815260200190815260200160002060020154620005a662001269565b62000e11565b620005ee576040517f08c379a0000000000000000000000000000000000000000000000000000000008152600401620005e59062001e9b565b60405180910390fd5b620005fa828262001271565b5050565b6200060862001269565b73ffffffffffffffffffffffffffffffffffffffff168173ffffffffffffffffffffffffffffffffffffffff161462000678576040517f08c379a00000000000000000000000000000000000000000000000000000000081526004016200066f9062001f45565b60405180910390fd5b62000684828262001309565b5050565b6200069262001713565b600160008373ffffffffffffffffffffffffffffffffffffffff1673ffffffffffffffffffffffffffffffffffffffff168152602001908152602001600020604051806080016040529081600082015481526020016001820160009054906101000a900473ffffffffffffffffffffffffffffffffffffffff1673ffffffffffffffffffffffffffffffffffffffff1673ffffffffffffffffffffffffffffffffffffffff1681526020016001820160149054906101000a900460ff1615151515815260200160028201805462000769906200219e565b80601f016020809104026020016040519081016040528092919081815260200182805462000797906200219e565b8015620007e85780601f10620007bc57610100808354040283529160200191620007e8565b820191906000526020600020905b815481529060010190602001808311620007ca57829003601f168201915b5050505050815250509050919050565b6000620008096000801b3362000e11565b6200084b576040517f08c379a0000000000000000000000000000000000000000000000000000000008152600401620008429062001f01565b60405180910390fd5b600360009054906101000a900460ff166200089d576040517f08c379a0000000000000000000000000000000000000000000000000000000008152600401620008949062001f23565b60405180910390fd5b60008383604051620008af9062001753565b620008bc92919062001d96565b604051809103906000f080158015620008d9573d6000803e3d6000fd5b509050600081905080600160008373ffffffffffffffffffffffffffffffffffffffff1673ffffffffffffffffffffffffffffffffffffffff16815260200190815260200160002060010160006101000a81548173ffffffffffffffffffffffffffffffffffffffff021916908373ffffffffffffffffffffffffffffffffffffffff16021790555060018060008373ffffffffffffffffffffffffffffffffffffffff1673ffffffffffffffffffffffffffffffffffffffff16815260200190815260200160002060010160146101000a81548160ff02191690831515021790555083600160008373ffffffffffffffffffffffffffffffffffffffff1673ffffffffffffffffffffffffffffffffffffffff168152602001908152602001600020600201908051906020019062000a1492919062001761565b506002819080600181540180825580915050600190039060005260206000200160009091909190916101000a81548173ffffffffffffffffffffffffffffffffffffffff021916908373ffffffffffffffffffffffffffffffffffffffff1602179055506000600160028054905062000a8e9190620020ca565b905080600160008473ffffffffffffffffffffffffffffffffffffffff1673ffffffffffffffffffffffffffffffffffffffff1681526020019081526020016000206000018190555060008690508073ffffffffffffffffffffffffffffffffffffffff16632f2ff15d6000801b856040518363ffffffff1660e01b815260040162000b1c92919062001e28565b600060405180830381600087803b15801562000b3757600080fd5b505af115801562000b4c573d6000803e3d6000fd5b505050508273ffffffffffffffffffffffffffffffffffffffff167f19593ab970a97e30b1488866dc5490452380f3bffb1be271efb0577b1ad734968760405162000b98919062001e55565b60405180910390a28294505050505092915050565b600062000bbe6000801b3362000e11565b62000c00576040517f08c379a000000000000000000000000000000000000000000000000000000000815260040162000bf79062001f01565b60405180910390fd5b600360009054906101000a900460ff1662000c52576040517f08c379a000000000000000000000000000000000000000000000000000000000815260040162000c499062001f23565b60405180910390fd5b62000c5d8262000ed4565b1562000ca0576040517f08c379a000000000000000000000000000000000000000000000000000000000815260040162000c979062001ebd565b60405180910390fd5b600160008373ffffffffffffffffffffffffffffffffffffffff1673ffffffffffffffffffffffffffffffffffffffff16815260200190815260200160002060010160149054906101000a900460ff1615600160008473ffffffffffffffffffffffffffffffffffffffff1673ffffffffffffffffffffffffffffffffffffffff16815260200190815260200160002060010160146101000a81548160ff02191690831515021790555060008290508073ffffffffffffffffffffffffffffffffffffffff1663ff2e27956040518163ffffffff1660e01b8152600401602060405180830381600087803b15801562000d9857600080fd5b505af115801562000dad573d6000803e3d6000fd5b505050506040513d601f19601f8201168201806040525081019062000dd39190620019a6565b506001915050919050565b600062000e0982600080868152602001908152602001600020600001620013a190919063ffffffff16565b905092915050565b600062000e3c82600080868152602001908152602001600020600001620013bd90919063ffffffff16565b905092915050565b6060600280548060200260200160405190810160405280929190818152602001828054801562000eca57602002820191906000526020600020905b8160009054906101000a900473ffffffffffffffffffffffffffffffffffffffff1673ffffffffffffffffffffffffffffffffffffffff168152602001906001019080831162000e7f575b5050505050905090565b600080600280549050141562000eee576000905062000fc7565b8173ffffffffffffffffffffffffffffffffffffffff166002600160008573ffffffffffffffffffffffffffffffffffffffff1673ffffffffffffffffffffffffffffffffffffffff168152602001908152602001600020600001548154811062000f82577f4e487b7100000000000000000000000000000000000000000000000000000000600052603260045260246000fd5b9060005260206000200160009054906101000a900473ffffffffffffffffffffffffffffffffffffffff1673ffffffffffffffffffffffffffffffffffffffff161490505b919050565b6000801b81565b600062000fe46000801b3362000e11565b62001026576040517f08c379a00000000000000000000000000000000000000000000000000000000081526004016200101d9062001f01565b60405180910390fd5b600360009054906101000a900460ff1615600360006101000a81548160ff021916908315150217905550600360009054906101000a900460ff16905090565b600062001086600080848152602001908152602001600020600001620013ef565b9050919050565b620010b760008084815260200190815260200160002060020154620010b162001269565b62000e11565b620010f9576040517f08c379a0000000000000000000000000000000000000000000000000000000008152600401620010f09062001edf565b60405180910390fd5b62001105828262001309565b5050565b6000600280549050905090565b620011256000801b3362000e11565b62001167576040517f08c379a00000000000000000000000000000000000000000000000000000000081526004016200115e9062001f01565b60405180910390fd5b600360009054906101000a900460ff16620011b9576040517f08c379a0000000000000000000000000000000000000000000000000000000008152600401620011b09062001f23565b60405180910390fd5b60008190508073ffffffffffffffffffffffffffffffffffffffff16632f2ff15d6000801b856040518363ffffffff1660e01b8152600401620011fe92919062001e28565b600060405180830381600087803b1580156200121957600080fd5b505af11580156200122e573d6000803e3d6000fd5b50505050505050565b600062001261836000018373ffffffffffffffffffffffffffffffffffffffff1660001b62001406565b905092915050565b600033905090565b6200129a816000808581526020019081526020016000206000016200123790919063ffffffff16565b156200130557620012aa62001269565b73ffffffffffffffffffffffffffffffffffffffff168173ffffffffffffffffffffffffffffffffffffffff16837f2f8788117e7eff1d82e926ec794901d17c78024a50270940304540a733656f0d60405160405180910390a45b5050565b62001332816000808581526020019081526020016000206000016200147a90919063ffffffff16565b156200139d576200134262001269565b73ffffffffffffffffffffffffffffffffffffffff168173ffffffffffffffffffffffffffffffffffffffff16837ff6391f5c32d9c69d2a47ea670b442974b53935d1edc7fd64eb21e047a839171b60405160405180910390a45b5050565b6000620013b28360000183620014ac565b60001c905092915050565b6000620013e7836000018373ffffffffffffffffffffffffffffffffffffffff1660001b6200154a565b905092915050565b6000620013ff826000016200156d565b9050919050565b60006200141483836200154a565b6200146f57826000018290806001815401808255809150506001900390600052602060002001600090919091909150558260000180549050836001016000848152602001908152602001600020819055506001905062001474565b600090505b92915050565b6000620014a4836000018373ffffffffffffffffffffffffffffffffffffffff1660001b6200157e565b905092915050565b600081836000018054905011620014fa576040517f08c379a0000000000000000000000000000000000000000000000000000000008152600401620014f19062001e79565b60405180910390fd5b82600001828154811062001537577f4e487b7100000000000000000000000000000000000000000000000000000000600052603260045260246000fd5b9060005260206000200154905092915050565b600080836001016000848152602001908152602001600020541415905092915050565b600081600001805490509050919050565b6000808360010160008481526020019081526020016000205490506000811462001707576000600182620015b39190620020ca565b9050600060018660000180549050620015cd9190620020ca565b905060008660000182815481106200160e577f4e487b7100000000000000000000000000000000000000000000000000000000600052603260045260246000fd5b906000526020600020015490508087600001848154811062001659577f4e487b7100000000000000000000000000000000000000000000000000000000600052603260045260246000fd5b90600052602060002001819055506001836200167691906200206d565b8760010160008381526020019081526020016000208190555086600001805480620016ca577f4e487b7100000000000000000000000000000000000000000000000000000000600052603160045260246000fd5b600190038181906000526020600020016000905590558660010160008781526020019081526020016000206000905560019450505050506200170d565b60009150505b92915050565b604051806080016040528060008152602001600073ffffffffffffffffffffffffffffffffffffffff168152602001600015158152602001606081525090565b612c7b80620024c883390190565b8280546200176f906200219e565b90600052602060002090601f016020900481019282620017935760008555620017df565b82601f10620017ae57805160ff1916838001178555620017df565b82800160010185558215620017df579182015b82811115620017de578251825591602001919060010190620017c1565b5b509050620017ee9190620017f2565b5090565b5b808211156200180d576000816000905550600101620017f3565b5090565b600062001828620018228462001fd1565b62001fa8565b9050828152602081018484840111156200184157600080fd5b6200184e84828562002159565b509392505050565b60008135905062001867816200245f565b92915050565b6000815190506200187e8162002479565b92915050565b600081359050620018958162002493565b92915050565b600082601f830112620018ad57600080fd5b8135620018bf84826020860162001811565b91505092915050565b600081359050620018d981620024ad565b92915050565b600060208284031215620018f257600080fd5b6000620019028482850162001856565b91505092915050565b600080604083850312156200191f57600080fd5b60006200192f8582860162001856565b9250506020620019428582860162001856565b9150509250929050565b600080604083850312156200196057600080fd5b6000620019708582860162001856565b925050602083013567ffffffffffffffff8111156200198e57600080fd5b6200199c858286016200189b565b9150509250929050565b600060208284031215620019b957600080fd5b6000620019c9848285016200186d565b91505092915050565b600060208284031215620019e557600080fd5b6000620019f58482850162001884565b91505092915050565b6000806040838503121562001a1257600080fd5b600062001a228582860162001884565b925050602062001a358582860162001856565b9150509250929050565b6000806040838503121562001a5357600080fd5b600062001a638582860162001884565b925050602062001a7685828601620018c8565b9150509250929050565b600062001a8e838362001a9a565b60208301905092915050565b62001aa58162002105565b82525050565b62001ab68162002105565b82525050565b600062001ac98262002017565b62001ad581856200203a565b935062001ae28362002007565b8060005b8381101562001b1957815162001afd888262001a80565b975062001b0a836200202d565b92505060018101905062001ae6565b5085935050505092915050565b62001b318162002119565b82525050565b62001b428162002119565b82525050565b62001b538162002125565b82525050565b600062001b668262002022565b62001b7281856200204b565b935062001b8481856020860162002168565b62001b8f8162002297565b840191505092915050565b600062001ba78262002022565b62001bb381856200205c565b935062001bc581856020860162002168565b62001bd08162002297565b840191505092915050565b600062001bea6022836200205c565b915062001bf782620022a8565b604082019050919050565b600062001c11602f836200205c565b915062001c1e82620022f7565b604082019050919050565b600062001c386010836200205c565b915062001c458262002346565b602082019050919050565b600062001c5f6030836200205c565b915062001c6c826200236f565b604082019050919050565b600062001c86601c836200205c565b915062001c9382620023be565b602082019050919050565b600062001cad601c836200205c565b915062001cba82620023e7565b602082019050919050565b600062001cd4602f836200205c565b915062001ce18262002410565b604082019050919050565b600060808301600083015162001d06600086018262001d57565b50602083015162001d1b602086018262001a9a565b50604083015162001d30604086018262001b26565b506060830151848203606086015262001d4a828262001b59565b9150508091505092915050565b62001d62816200214f565b82525050565b62001d73816200214f565b82525050565b600060208201905062001d90600083018462001aab565b92915050565b600060408201905062001dad600083018562001aab565b818103602083015262001dc1818462001b9a565b90509392505050565b6000602082019050818103600083015262001de6818462001abc565b905092915050565b600060208201905062001e05600083018462001b37565b92915050565b600060208201905062001e22600083018462001b48565b92915050565b600060408201905062001e3f600083018562001b48565b62001e4e602083018462001aab565b9392505050565b6000602082019050818103600083015262001e71818462001b9a565b905092915050565b6000602082019050818103600083015262001e948162001bdb565b9050919050565b6000602082019050818103600083015262001eb68162001c02565b9050919050565b6000602082019050818103600083015262001ed88162001c29565b9050919050565b6000602082019050818103600083015262001efa8162001c50565b9050919050565b6000602082019050818103600083015262001f1c8162001c77565b9050919050565b6000602082019050818103600083015262001f3e8162001c9e565b9050919050565b6000602082019050818103600083015262001f608162001cc5565b9050919050565b6000602082019050818103600083015262001f83818462001cec565b905092915050565b600060208201905062001fa2600083018462001d68565b92915050565b600062001fb462001fc7565b905062001fc28282620021d4565b919050565b6000604051905090565b600067ffffffffffffffff82111562001fef5762001fee62002268565b5b62001ffa8262002297565b9050602081019050919050565b6000819050602082019050919050565b600081519050919050565b600081519050919050565b6000602082019050919050565b600082825260208201905092915050565b600082825260208201905092915050565b600082825260208201905092915050565b60006200207a826200214f565b915062002087836200214f565b9250827fffffffffffffffffffffffffffffffffffffffffffffffffffffffffffffffff03821115620020bf57620020be6200220a565b5b828201905092915050565b6000620020d7826200214f565b9150620020e4836200214f565b925082821015620020fa57620020f96200220a565b5b828203905092915050565b600062002112826200212f565b9050919050565b60008115159050919050565b6000819050919050565b600073ffffffffffffffffffffffffffffffffffffffff82169050919050565b6000819050919050565b82818337600083830152505050565b60005b83811015620021885780820151818401526020810190506200216b565b8381111562002198576000848401525b50505050565b60006002820490506001821680620021b757607f821691505b60208210811415620021ce57620021cd62002239565b5b50919050565b620021df8262002297565b810181811067ffffffffffffffff8211171562002201576200220062002268565b5b80604052505050565b7f4e487b7100000000000000000000000000000000000000000000000000000000600052601160045260246000fd5b7f4e487b7100000000000000000000000000000000000000000000000000000000600052602260045260246000fd5b7f4e487b7100000000000000000000000000000000000000000000000000000000600052604160045260246000fd5b6000601f19601f8301169050919050565b7f456e756d657261626c655365743a20696e646578206f7574206f6620626f756e60008201527f6473000000000000000000000000000000000000000000000000000000000000602082015250565b7f416363657373436f6e74726f6c3a2073656e646572206d75737420626520616e60008201527f2061646d696e20746f206772616e740000000000000000000000000000000000602082015250565b7f636c617373206e6f742065786973747300000000000000000000000000000000600082015250565b7f416363657373436f6e74726f6c3a2073656e646572206d75737420626520616e60008201527f2061646d696e20746f207265766f6b6500000000000000000000000000000000602082015250565b7f41636164656d79436c6173734c6973743a206f6e6c79206f776e657200000000600082015250565b7f41636164656d79436c6173734c6973743a206e6f742061637469766500000000600082015250565b7f416363657373436f6e74726f6c3a2063616e206f6e6c792072656e6f756e636560008201527f20726f6c657320666f722073656c660000000000000000000000000000000000602082015250565b6200246a8162002105565b81146200247657600080fd5b50565b620024848162002119565b81146200249057600080fd5b50565b6200249e8162002125565b8114620024aa57600080fd5b50565b620024b8816200214f565b8114620024c457600080fd5b5056fe60806040523480156200001157600080fd5b5060405162002c7b38038062002c7b833981810160405281019062000037919062000398565b6200004c6000801b33620000c960201b60201c565b8060019080519060200190620000649291906200025f565b506001600260006101000a81548160ff02191690831515021790555081600260016101000a81548173ffffffffffffffffffffffffffffffffffffffff021916908373ffffffffffffffffffffffffffffffffffffffff1602179055505050620005b0565b620000db8282620000df60201b60201c565b5050565b6200010d816000808581526020019081526020016000206000016200018260201b62000ce91790919060201c565b156200017e5762000123620001ba60201b60201c565b73ffffffffffffffffffffffffffffffffffffffff168173ffffffffffffffffffffffffffffffffffffffff16837f2f8788117e7eff1d82e926ec794901d17c78024a50270940304540a733656f0d60405160405180910390a45b5050565b6000620001b2836000018373ffffffffffffffffffffffffffffffffffffffff1660001b620001c260201b60201c565b905092915050565b600033905090565b6000620001d683836200023c60201b60201c565b6200023157826000018290806001815401808255809150506001900390600052602060002001600090919091909150558260000180549050836001016000848152602001908152602001600020819055506001905062000236565b600090505b92915050565b600080836001016000848152602001908152602001600020541415905092915050565b8280546200026d90620004bb565b90600052602060002090601f016020900481019282620002915760008555620002dd565b82601f10620002ac57805160ff1916838001178555620002dd565b82800160010185558215620002dd579182015b82811115620002dc578251825591602001919060010190620002bf565b5b509050620002ec9190620002f0565b5090565b5b808211156200030b576000816000905550600101620002f1565b5090565b60006200032662000320846200041b565b620003f2565b9050828152602081018484840111156200033f57600080fd5b6200034c84828562000485565b509392505050565b600081519050620003658162000596565b92915050565b600082601f8301126200037d57600080fd5b81516200038f8482602086016200030f565b91505092915050565b60008060408385031215620003ac57600080fd5b6000620003bc8582860162000354565b925050602083015167ffffffffffffffff811115620003da57600080fd5b620003e8858286016200036b565b9150509250929050565b6000620003fe62000411565b90506200040c8282620004f1565b919050565b6000604051905090565b600067ffffffffffffffff82111562000439576200043862000556565b5b620004448262000585565b9050602081019050919050565b60006200045e8262000465565b9050919050565b600073ffffffffffffffffffffffffffffffffffffffff82169050919050565b60005b83811015620004a557808201518184015260208101905062000488565b83811115620004b5576000848401525b50505050565b60006002820490506001821680620004d457607f821691505b60208210811415620004eb57620004ea62000527565b5b50919050565b620004fc8262000585565b810181811067ffffffffffffffff821117156200051e576200051d62000556565b5b80604052505050565b7f4e487b7100000000000000000000000000000000000000000000000000000000600052602260045260246000fd5b7f4e487b7100000000000000000000000000000000000000000000000000000000600052604160045260246000fd5b6000601f19601f8301169050919050565b620005a18162000451565b8114620005ad57600080fd5b50565b6126bb80620005c06000396000f3fe608060405234801561001057600080fd5b50600436106101365760003560e01c80639010d07c116100b8578063bd06ea191161007c578063bd06ea1914610377578063ca15c873146103a7578063d43e001a146103d7578063d547741f146103f5578063fcae448414610411578063ff2e27951461042f57610136565b80639010d07c1461029957806391d14854146102c95780639aa8e722146102f95780639f3da5cc14610329578063a217fddf1461035957610136565b806336568abe116100ff57806336568abe146101e1578063477f5a69146101fd578063733d09d21461021b57806382f7d3921461024b5780638f449a051461027b57610136565b8062c51f8c1461013b57806302fb0c5e14610159578063035410f614610177578063248a9ca3146101955780632f2ff15d146101c5575b600080fd5b61014361044d565b6040516101509190611f5f565b60405180910390f35b6101616104db565b60405161016e9190611ef3565b60405180910390f35b61017f6104ee565b60405161018c9190611ed1565b60405180910390f35b6101af60048036038101906101aa9190611aca565b61057c565b6040516101bc9190611f0e565b60405180910390f35b6101df60048036038101906101da9190611af3565b61059b565b005b6101fb60048036038101906101f69190611af3565b61060e565b005b610205610691565b60405161021291906120fc565b60405180910390f35b61023560048036038101906102309190611a78565b61069e565b6040516102429190611ef3565b60405180910390f35b61026560048036038101906102609190611a78565b6108b3565b6040516102729190611ef3565b60405180910390f35b610283610912565b6040516102909190611ef3565b60405180910390f35b6102b360048036038101906102ae9190611b2f565b610925565b6040516102c09190611e8d565b60405180910390f35b6102e360048036038101906102de9190611af3565b610956565b6040516102f09190611ef3565b60405180910390f35b610313600480360381019061030e9190611a78565b610987565b6040516103209190611ef3565b60405180910390f35b610343600480360381019061033e9190611a78565b6109e7565b60405161035091906120e1565b60405180910390f35b610361610b23565b60405161036e9190611f0e565b60405180910390f35b610391600480360381019061038c9190611a78565b610b2a565b60405161039e9190611ef3565b60405180910390f35b6103c160048036038101906103bc9190611aca565b610b8b565b6040516103ce91906120fc565b60405180910390f35b6103df610bb1565b6040516103ec9190611f29565b60405180910390f35b61040f600480360381019061040a9190611af3565b610bd7565b005b610419610c4a565b6040516104269190611ef3565b60405180910390f35b610437610c5c565b6040516104449190611ef3565b60405180910390f35b6001805461045a906122c4565b80601f0160208091040260200160405190810160405280929190818152602001828054610486906122c4565b80156104d35780601f106104a8576101008083540402835291602001916104d3565b820191906000526020600020905b8154815290600101906020018083116104b657829003601f168201915b505050505081565b600260009054906101000a900460ff1681565b6060600480548060200260200160405190810160405280929190818152602001828054801561057257602002820191906000526020600020905b8160009054906101000a900473ffffffffffffffffffffffffffffffffffffffff1673ffffffffffffffffffffffffffffffffffffffff1681526020019060010190808311610528575b5050505050905090565b6000806000838152602001908152602001600020600201549050919050565b6105c1600080848152602001908152602001600020600201546105bc610d19565b610956565b610600576040517f08c379a00000000000000000000000000000000000000000000000000000000081526004016105f790611fa1565b60405180910390fd5b61060a8282610d21565b5050565b610616610d19565b73ffffffffffffffffffffffffffffffffffffffff168173ffffffffffffffffffffffffffffffffffffffff1614610683576040517f08c379a000000000000000000000000000000000000000000000000000000000815260040161067a906120c1565b60405180910390fd5b61068d8282610db4565b5050565b6000600480549050905090565b60006106ad6000801b33610956565b6106ec576040517f08c379a00000000000000000000000000000000000000000000000000000000081526004016106e390612021565b60405180910390fd5b600260009054906101000a900460ff1661073b576040517f08c379a000000000000000000000000000000000000000000000000000000000815260040161073290612001565b60405180910390fd5b610744826108b3565b610783576040517f08c379a000000000000000000000000000000000000000000000000000000000815260040161077a90612041565b60405180910390fd5b6002600360008473ffffffffffffffffffffffffffffffffffffffff1673ffffffffffffffffffffffffffffffffffffffff16815260200190815260200160002060000160006101000a81548160ff0219169083600281111561080f577f4e487b7100000000000000000000000000000000000000000000000000000000600052602160045260246000fd5b021790555042600360008473ffffffffffffffffffffffffffffffffffffffff1673ffffffffffffffffffffffffffffffffffffffff168152602001908152602001600020600201819055508173ffffffffffffffffffffffffffffffffffffffff167ffcac4ad276b3d596f594dd2e15d40999195593dfd3631982e5d8f03e9b62042b60026040516108a29190611f44565b60405180910390a260019050919050565b600080600360008473ffffffffffffffffffffffffffffffffffffffff1673ffffffffffffffffffffffffffffffffffffffff168152602001908152602001600020600101541115610908576001905061090d565b600090505b919050565b600061091d33610e47565b506001905090565b600061094e8260008086815260200190815260200160002060000161149e90919063ffffffff16565b905092915050565b600061097f826000808681526020019081526020016000206000016114b890919063ffffffff16565b905092915050565b60006109966000801b33610956565b6109d5576040517f08c379a00000000000000000000000000000000000000000000000000000000081526004016109cc90612021565b60405180910390fd5b6109de826114e8565b60019050919050565b6109ef6119b6565b6109f8826108b3565b610a37576040517f08c379a0000000000000000000000000000000000000000000000000000000008152600401610a2e90611fe1565b60405180910390fd5b600360008373ffffffffffffffffffffffffffffffffffffffff1673ffffffffffffffffffffffffffffffffffffffff1681526020019081526020016000206040518060600160405290816000820160009054906101000a900460ff166002811115610acc577f4e487b7100000000000000000000000000000000000000000000000000000000600052602160045260246000fd5b6002811115610b04577f4e487b7100000000000000000000000000000000000000000000000000000000600052602160045260246000fd5b8152602001600182015481526020016002820154815250509050919050565b6000801b81565b6000610b396000801b33610956565b610b78576040517f08c379a0000000000000000000000000000000000000000000000000000000008152600401610b6f90612021565b60405180910390fd5b610b8182610e47565b5060019050919050565b6000610baa6000808481526020019081526020016000206000016116a9565b9050919050565b600260019054906101000a900473ffffffffffffffffffffffffffffffffffffffff1681565b610bfd60008084815260200190815260200160002060020154610bf8610d19565b610956565b610c3c576040517f08c379a0000000000000000000000000000000000000000000000000000000008152600401610c3390612061565b60405180910390fd5b610c468282610db4565b5050565b6000610c55336114e8565b6001905090565b6000610c6b6000801b33610956565b610caa576040517f08c379a0000000000000000000000000000000000000000000000000000000008152600401610ca190612021565b60405180910390fd5b600260009054906101000a900460ff1615600260006101000a81548160ff021916908315150217905550600260009054906101000a900460ff16905090565b6000610d11836000018373ffffffffffffffffffffffffffffffffffffffff1660001b6116be565b905092915050565b600033905090565b610d4881600080858152602001908152602001600020600001610ce990919063ffffffff16565b15610db057610d55610d19565b73ffffffffffffffffffffffffffffffffffffffff168173ffffffffffffffffffffffffffffffffffffffff16837f2f8788117e7eff1d82e926ec794901d17c78024a50270940304540a733656f0d60405160405180910390a45b5050565b610ddb8160008085815260200190815260200160002060000161172e90919063ffffffff16565b15610e4357610de8610d19565b73ffffffffffffffffffffffffffffffffffffffff168173ffffffffffffffffffffffffffffffffffffffff16837ff6391f5c32d9c69d2a47ea670b442974b53935d1edc7fd64eb21e047a839171b60405160405180910390a45b5050565b6000600260009054906101000a900460ff16610e98576040517f08c379a0000000000000000000000000000000000000000000000000000000008152600401610e8f90612001565b60405180910390fd5b610ea1826108b3565b15610ee1576040517f08c379a0000000000000000000000000000000000000000000000000000000008152600401610ed8906120a1565b60405180910390fd5b60006001600360008573ffffffffffffffffffffffffffffffffffffffff1673ffffffffffffffffffffffffffffffffffffffff16815260200190815260200160002060000160006101000a81548160ff02191690836002811115610f6f577f4e487b7100000000000000000000000000000000000000000000000000000000600052602160045260246000fd5b021790555042600360008573ffffffffffffffffffffffffffffffffffffffff1673ffffffffffffffffffffffffffffffffffffffff168152602001908152602001600020600101819055506004839080600181540180825580915050600190039060005260206000200160009091909190916101000a81548173ffffffffffffffffffffffffffffffffffffffff021916908373ffffffffffffffffffffffffffffffffffffffff160217905550600260019054906101000a900473ffffffffffffffffffffffffffffffffffffffff1673ffffffffffffffffffffffffffffffffffffffff166382f7d392846040518263ffffffff1660e01b81526004016110799190611e8d565b60206040518083038186803b15801561109157600080fd5b505afa1580156110a5573d6000803e3d6000fd5b505050506040513d601f19601f820116820180604052508101906110c99190611aa1565b61118157600260019054906101000a900473ffffffffffffffffffffffffffffffffffffffff1673ffffffffffffffffffffffffffffffffffffffff1663bd06ea19846040518263ffffffff1660e01b81526004016111289190611e8d565b602060405180830381600087803b15801561114257600080fd5b505af1158015611156573d6000803e3d6000fd5b505050506040513d601f19601f8201168201806040525081019061117a9190611b6b565b9050611182565b5b6000309050600260019054906101000a900473ffffffffffffffffffffffffffffffffffffffff1673ffffffffffffffffffffffffffffffffffffffff16630c78a97485836040518363ffffffff1660e01b81526004016111e4929190611ea8565b602060405180830381600087803b1580156111fe57600080fd5b505af1158015611212573d6000803e3d6000fd5b505050506040513d601f19601f820116820180604052508101906112369190611aa1565b611275576040517f08c379a000000000000000000000000000000000000000000000000000000000815260040161126c90611fc1565b60405180910390fd5b600260019054906101000a900473ffffffffffffffffffffffffffffffffffffffff1673ffffffffffffffffffffffffffffffffffffffff16636cd3fedf85836040518363ffffffff1660e01b81526004016112d2929190611ea8565b602060405180830381600087803b1580156112ec57600080fd5b505af1158015611300573d6000803e3d6000fd5b505050506040513d601f19601f820116820180604052508101906113249190611aa1565b611363576040517f08c379a000000000000000000000000000000000000000000000000000000000815260040161135a90612081565b60405180910390fd5b600260019054906101000a900473ffffffffffffffffffffffffffffffffffffffff1673ffffffffffffffffffffffffffffffffffffffff16636cd3fedf85836040518363ffffffff1660e01b81526004016113c0929190611ea8565b602060405180830381600087803b1580156113da57600080fd5b505af11580156113ee573d6000803e3d6000fd5b505050506040513d601f19601f820116820180604052508101906114129190611aa1565b611451576040517f08c379a000000000000000000000000000000000000000000000000000000000815260040161144890612081565b60405180910390fd5b8373ffffffffffffffffffffffffffffffffffffffff167fc2cd73f6970f5e40dce13d5b14924b73bf1a89d678b30618a3135716213a2c6560405160405180910390a28192505050919050565b60006114ad836000018361175e565b60001c905092915050565b60006114e0836000018373ffffffffffffffffffffffffffffffffffffffff1660001b6117f8565b905092915050565b600260009054906101000a900460ff16611537576040517f08c379a000000000000000000000000000000000000000000000000000000000815260040161152e90612001565b60405180910390fd5b611540816108b3565b61157f576040517f08c379a000000000000000000000000000000000000000000000000000000000815260040161157690612041565b60405180910390fd5b6000600360008373ffffffffffffffffffffffffffffffffffffffff1673ffffffffffffffffffffffffffffffffffffffff16815260200190815260200160002060000160006101000a81548160ff0219169083600281111561160b577f4e487b7100000000000000000000000000000000000000000000000000000000600052602160045260246000fd5b021790555042600360008373ffffffffffffffffffffffffffffffffffffffff1673ffffffffffffffffffffffffffffffffffffffff168152602001908152602001600020600201819055508073ffffffffffffffffffffffffffffffffffffffff167ffcac4ad276b3d596f594dd2e15d40999195593dfd3631982e5d8f03e9b62042b600060405161169e9190611f44565b60405180910390a250565b60006116b78260000161181b565b9050919050565b60006116ca83836117f8565b611723578260000182908060018154018082558091505060019003906000526020600020016000909190919091505582600001805490508360010160008481526020019081526020016000208190555060019050611728565b600090505b92915050565b6000611756836000018373ffffffffffffffffffffffffffffffffffffffff1660001b61182c565b905092915050565b6000818360000180549050116117a9576040517f08c379a00000000000000000000000000000000000000000000000000000000081526004016117a090611f81565b60405180910390fd5b8260000182815481106117e5577f4e487b7100000000000000000000000000000000000000000000000000000000600052603260045260246000fd5b9060005260206000200154905092915050565b600080836001016000848152602001908152602001600020541415905092915050565b600081600001805490509050919050565b600080836001016000848152602001908152602001600020549050600081146119aa57600060018261185e91906121c2565b905060006001866000018054905061187691906121c2565b905060008660000182815481106118b6577f4e487b7100000000000000000000000000000000000000000000000000000000600052603260045260246000fd5b9060005260206000200154905080876000018481548110611900577f4e487b7100000000000000000000000000000000000000000000000000000000600052603260045260246000fd5b906000526020600020018190555060018361191b919061216c565b876001016000838152602001908152602001600020819055508660000180548061196e577f4e487b7100000000000000000000000000000000000000000000000000000000600052603160045260246000fd5b600190038181906000526020600020016000905590558660010160008781526020019081526020016000206000905560019450505050506119b0565b60009150505b92915050565b6040518060600160405280600060028111156119fb577f4e487b7100000000000000000000000000000000000000000000000000000000600052602160045260246000fd5b815260200160008152602001600081525090565b600081359050611a1e81612629565b92915050565b600081519050611a3381612640565b92915050565b600081359050611a4881612657565b92915050565b600081359050611a5d8161266e565b92915050565b600081519050611a728161266e565b92915050565b600060208284031215611a8a57600080fd5b6000611a9884828501611a0f565b91505092915050565b600060208284031215611ab357600080fd5b6000611ac184828501611a24565b91505092915050565b600060208284031215611adc57600080fd5b6000611aea84828501611a39565b91505092915050565b60008060408385031215611b0657600080fd5b6000611b1485828601611a39565b9250506020611b2585828601611a0f565b9150509250929050565b60008060408385031215611b4257600080fd5b6000611b5085828601611a39565b9250506020611b6185828601611a4e565b9150509250929050565b600060208284031215611b7d57600080fd5b6000611b8b84828501611a63565b91505092915050565b6000611ba08383611bac565b60208301905092915050565b611bb5816121f6565b82525050565b611bc4816121f6565b82525050565b6000611bd582612127565b611bdf818561214a565b9350611bea83612117565b8060005b83811015611c1b578151611c028882611b94565b9750611c0d8361213d565b925050600181019050611bee565b5085935050505092915050565b611c3181612208565b82525050565b611c4081612214565b82525050565b611c4f8161225b565b82525050565b611c5e8161227f565b82525050565b611c6d8161227f565b82525050565b6000611c7e82612132565b611c88818561215b565b9350611c98818560208601612291565b611ca181612383565b840191505092915050565b6000611cb960228361215b565b9150611cc482612394565b604082019050919050565b6000611cdc602f8361215b565b9150611ce7826123e3565b604082019050919050565b6000611cff602d8361215b565b9150611d0a82612432565b604082019050919050565b6000611d22600b8361215b565b9150611d2d82612481565b602082019050919050565b6000611d4560188361215b565b9150611d50826124aa565b602082019050919050565b6000611d6860188361215b565b9150611d73826124d3565b602082019050919050565b6000611d8b60128361215b565b9150611d96826124fc565b602082019050919050565b6000611dae60308361215b565b9150611db982612525565b604082019050919050565b6000611dd1601d8361215b565b9150611ddc82612574565b602082019050919050565b6000611df460168361215b565b9150611dff8261259d565b602082019050919050565b6000611e17602f8361215b565b9150611e22826125c6565b604082019050919050565b606082016000820151611e436000850182611c55565b506020820151611e566020850182611e6f565b506040820151611e696040850182611e6f565b50505050565b611e7881612251565b82525050565b611e8781612251565b82525050565b6000602082019050611ea26000830184611bbb565b92915050565b6000604082019050611ebd6000830185611bbb565b611eca6020830184611bbb565b9392505050565b60006020820190508181036000830152611eeb8184611bca565b905092915050565b6000602082019050611f086000830184611c28565b92915050565b6000602082019050611f236000830184611c37565b92915050565b6000602082019050611f3e6000830184611c46565b92915050565b6000602082019050611f596000830184611c64565b92915050565b60006020820190508181036000830152611f798184611c73565b905092915050565b60006020820190508181036000830152611f9a81611cac565b9050919050565b60006020820190508181036000830152611fba81611ccf565b9050919050565b60006020820190508181036000830152611fda81611cf2565b9050919050565b60006020820190508181036000830152611ffa81611d15565b9050919050565b6000602082019050818103600083015261201a81611d38565b9050919050565b6000602082019050818103600083015261203a81611d5b565b9050919050565b6000602082019050818103600083015261205a81611d7e565b9050919050565b6000602082019050818103600083015261207a81611da1565b9050919050565b6000602082019050818103600083015261209a81611dc4565b9050919050565b600060208201905081810360008301526120ba81611de7565b9050919050565b600060208201905081810360008301526120da81611e0a565b9050919050565b60006060820190506120f66000830184611e2d565b92915050565b60006020820190506121116000830184611e7e565b92915050565b6000819050602082019050919050565b600081519050919050565b600081519050919050565b6000602082019050919050565b600082825260208201905092915050565b600082825260208201905092915050565b600061217782612251565b915061218283612251565b9250827fffffffffffffffffffffffffffffffffffffffffffffffffffffffffffffffff038211156121b7576121b66122f6565b5b828201905092915050565b60006121cd82612251565b91506121d883612251565b9250828210156121eb576121ea6122f6565b5b828203905092915050565b600061220182612231565b9050919050565b60008115159050919050565b6000819050919050565b600081905061222c82612615565b919050565b600073ffffffffffffffffffffffffffffffffffffffff82169050919050565b6000819050919050565b60006122668261226d565b9050919050565b600061227882612231565b9050919050565b600061228a8261221e565b9050919050565b60005b838110156122af578082015181840152602081019050612294565b838111156122be576000848401525b50505050565b600060028204905060018216806122dc57607f821691505b602082108114156122f0576122ef612354565b5b50919050565b7f4e487b7100000000000000000000000000000000000000000000000000000000600052601160045260246000fd5b7f4e487b7100000000000000000000000000000000000000000000000000000000600052602160045260246000fd5b7f4e487b7100000000000000000000000000000000000000000000000000000000600052602260045260246000fd5b6000601f19601f8301169050919050565b7f456e756d657261626c655365743a20696e646578206f7574206f6620626f756e60008201527f6473000000000000000000000000000000000000000000000000000000000000602082015250565b7f416363657373436f6e74726f6c3a2073656e646572206d75737420626520616e60008201527f2061646d696e20746f206772616e740000000000000000000000000000000000602082015250565b7f4572726f7220696e2073747564656e744c6973742e757064617465537475646560008201527f6e74416374697665436c61737300000000000000000000000000000000000000602082015250565b7f6e6f742073747564656e74000000000000000000000000000000000000000000600082015250565b7f41636164656d79436c6173733a206e6f74206163746976650000000000000000600082015250565b7f41636164656d79436c6173733a206f6e6c79206f776e65720000000000000000600082015250565b7f73747564656e74206e6f74206578697374730000000000000000000000000000600082015250565b7f416363657373436f6e74726f6c3a2073656e646572206d75737420626520616e60008201527f2061646d696e20746f207265766f6b6500000000000000000000000000000000602082015250565b7f4572726f7220696e2073747564656e744c6973742e616464436c617373000000600082015250565b7f73747564656e7420616c72656164792065786973747300000000000000000000600082015250565b7f416363657373436f6e74726f6c3a2063616e206f6e6c792072656e6f756e636560008201527f20726f6c657320666f722073656c660000000000000000000000000000000000602082015250565b6003811061262657612625612325565b5b50565b612632816121f6565b811461263d57600080fd5b50565b61264981612208565b811461265457600080fd5b50565b61266081612214565b811461266b57600080fd5b50565b61267781612251565b811461268257600080fd5b5056fea264697066735822122008b799982f3e367ad649dd31306d860642673a858ab2d1d47e45b5f82b93a3a564736f6c63430008010033a26469706673582212200bc53c5826936a1c6ec1ae99b71ada52816ef15ff25a5c58727bc7006a31c72764736f6c63430008010033",
  "immutableReferences": {},
  "source": "// SPDX-License-Identifier: MIT\r\npragma solidity 0.8.1;\r\n\r\n//import \"https://github.com/OpenZeppelin/openzeppelin-contracts/blob/master/contracts/access/AccessControl.sol\";\r\n//import '@openzeppelin/contracts/access/AccessControl.sol';\r\nimport './oz-contracts/access/AccessControl.sol';\r\n\r\nstruct ClassStruct {\r\n    uint index;\r\n    address classAddress;\r\n    bool active;\r\n    string name;\r\n}\r\n\r\n//enum studentStatus {Canceled = 0, InProgress = 1, Completed = 2}\r\nenum StudentStatus {Canceled, InProgress, Completed}\r\n\r\nstruct StudentInClass {\r\n    StudentStatus status;\r\n    uint start;         // UNIX timestamp when the student enrolled\r\n    uint end;           // UNIX timestamp when the student ended\r\n}\r\n\r\ninterface iAcademyStudents {\r\n    function isStudent(address account) external view returns (bool);\r\n    function addStudent (address account) external returns (uint256);\r\n    function addClass (address account, address classAddress) external returns (bool);\r\n    function updateStudentActiveClass (address account, address classAddress) external returns (bool);\r\n    function grantRole (bytes32 role, address account) external;\r\n    \r\n    //function delStudent (address account) external returns (bool);\r\n    //function updateName (address account, address scAddress, string memory name_) external returns (bool);\r\n    //function updatePortfolio (address account, address portfolioAddress) external returns (bool);\r\n}\r\n\r\n\r\ncontract AcademyClassList is AccessControl {\r\n    //Factory de AcademyClass\r\n    \r\n    mapping(address => ClassStruct) private classInfo;\r\n    address[] private classAddressIndex;\r\n\r\n    bool public active;\r\n\r\n    constructor() {\r\n        _setupRole(DEFAULT_ADMIN_ROLE, msg.sender);\r\n        active = true;\r\n    }\r\n\r\n    event AcademyClassCreated(address indexed classAddress, string className);\r\n\r\n    modifier onlyOwner() {\r\n        require(hasRole(DEFAULT_ADMIN_ROLE, msg.sender), \"AcademyClassList: only owner\");\r\n        _;\r\n    }\r\n    \r\n    modifier onlyActive() {\r\n        require(active, \"AcademyClassList: not active\");\r\n        _;\r\n    } \r\n\r\n    function createAcademyClass(address addressStudentList, string memory className) public onlyOwner onlyActive returns (address) {\r\n        //className = \"Devs 2021-01\";\r\n        //Pode ter className repetido? SIM\r\n        \r\n        AcademyClass ac = new AcademyClass(addressStudentList, className);\r\n        address classAddress = address(ac);\r\n        \r\n        classInfo[classAddress].classAddress = classAddress;\r\n        classInfo[classAddress].active = true;\r\n        classInfo[classAddress].name = className;\r\n        classAddressIndex.push(classAddress);\r\n        uint256 index = classAddressIndex.length - 1;\r\n        classInfo[classAddress].index = index;\r\n        \r\n        iAcademyStudents studentList = iAcademyStudents(addressStudentList);\r\n        studentList.grantRole(DEFAULT_ADMIN_ROLE, classAddress);\r\n\r\n        emit AcademyClassCreated (classAddress, className);\r\n        return classAddress;\r\n    }\r\n    \r\n    function changeActiveClass(address classAddress) public onlyOwner onlyActive returns (bool) {\r\n        require (!isAcademyClass(classAddress), \"class not exists\");\r\n        classInfo[classAddress].active = !classInfo[classAddress].active;\r\n        AcademyClass c = AcademyClass(classAddress);\r\n        c.changeClassStatus();\r\n        return true;\r\n    }\r\n\r\n    function addClassOwner(address account, address classAddress) public onlyOwner onlyActive {\r\n        AcademyClass c = AcademyClass(classAddress);\r\n        c.grantRole(DEFAULT_ADMIN_ROLE, account);\r\n    }\r\n    \r\n    function delClassOwner(address account, address classAddress) public onlyOwner onlyActive {\r\n        AcademyClass c = AcademyClass(classAddress);\r\n        c.revokeRole(DEFAULT_ADMIN_ROLE, account);\r\n    }    \r\n    \r\n    function changeActive () public onlyOwner returns (bool) {\r\n        active = !active;\r\n        return active;\r\n    }\r\n    \r\n    function isAcademyClass(address classAddress) public view returns (bool) {\r\n        if(classAddressIndex.length == 0) return false;\r\n        return (classAddressIndex[classInfo[classAddress].index] == classAddress);\r\n    }\r\n\r\n    function getAcademyClass (address classAddress) public view returns (ClassStruct memory) {\r\n        return classInfo[classAddress];\r\n    }    \r\n    \r\n    function countAcademyClasses () public view returns (uint) {\r\n        return (classAddressIndex.length);\r\n    }\r\n    \r\n    function listAcademyClasses () public view returns (address[] memory) {\r\n        return classAddressIndex;\r\n    } \r\n\r\n}\r\n\r\n\r\ncontract AcademyClass is AccessControl {\r\n    \r\n    string public className;\r\n    bool public active;    // If NOT active, can't add students\r\n    iAcademyStudents public studentList;\r\n\r\n    mapping(address => StudentInClass) private studentInClassInfo;\r\n    address[] private studentAddressList;\r\n\r\n    constructor(address addressStudentList, string memory className_) {\r\n        _setupRole(DEFAULT_ADMIN_ROLE, msg.sender);\r\n        className = className_;\r\n        active = true;\r\n        studentList = iAcademyStudents(addressStudentList);\r\n    }\r\n\r\n    event StudentAddedInClass(address indexed _studentAddress);\r\n    event StudentStatusChanged(address indexed _studentAddress, StudentStatus _status);\r\n\r\n    modifier onlyOwner() {\r\n        require(hasRole(DEFAULT_ADMIN_ROLE, msg.sender), \"AcademyClass: only owner\");\r\n        _;\r\n    }\r\n    \r\n    modifier onlyActive() {\r\n        require(active, \"AcademyClass: not active\");\r\n        _;\r\n    }\r\n\r\n    function subscribe () public returns (bool) {\r\n        _addStudent(msg.sender);\r\n        return true;\r\n    }\r\n    \r\n    function addStudent (address account) public onlyOwner returns (bool) {\r\n        _addStudent(account);\r\n        return true;\r\n    }    \r\n    \r\n    function _addStudent (address account) private onlyActive returns (uint256) {\r\n        require (!isStudent(account), \"student already exists\");\r\n        uint256 indexStudent = 0;\r\n\r\n        studentInClassInfo[account].status = StudentStatus.InProgress;\r\n        studentInClassInfo[account].start = block.timestamp;\r\n        studentAddressList.push(account);\r\n        \r\n        //In AcademyStudents?\r\n        if (!studentList.isStudent(account)) {\r\n            indexStudent = studentList.addStudent(account);\r\n        }\r\n        else {\r\n            //getStudent\r\n        }\r\n        \r\n        address classAddress = address(this);\r\n        require (studentList.updateStudentActiveClass(account, classAddress), \"Error in studentList.updateStudentActiveClass\");\r\n\r\n        require (studentList.addClass(account, classAddress), \"Error in studentList.addClass\");\r\n        require (studentList.addClass(account, classAddress), \"Error in studentList.addClass\");\r\n        /*\r\n        address classAddress = 0x427dfB843b6164AF4bc2D121F778aEA3bB4e0A20;        \r\n        require (studentList.addClass(account, classAddress), \"Error in studentList.addClass\");        \r\n        studentList.updateStudentActiveClass(account, classAddress);\r\n        */\r\n        \r\n\r\n        emit StudentAddedInClass(account);\r\n        return indexStudent;\r\n    }\r\n\r\n    function courseComplete (address account) onlyOwner onlyActive public returns (bool) {\r\n        require (isStudent(account), \"student not exists\");\r\n        studentInClassInfo[account].status = StudentStatus.Completed;\r\n        studentInClassInfo[account].end = block.timestamp;\r\n        emit StudentStatusChanged (account, StudentStatus.Completed);\r\n        return true;\r\n    }\r\n    \r\n    function unsubscribe () public returns (bool) {\r\n        //require (account == msg.sender, \"only himself\");\r\n        _cancelStudent(msg.sender);\r\n        return true;\r\n    }    \r\n    \r\n    function cancelStudent (address account) onlyOwner public returns (bool) {\r\n        _cancelStudent(account);\r\n        return true;\r\n    }    \r\n\r\n    function _cancelStudent (address account) private onlyActive {\r\n        require (isStudent(account), \"student not exists\");\r\n        studentInClassInfo[account].status = StudentStatus.Canceled;\r\n        studentInClassInfo[account].end = block.timestamp;\r\n        emit StudentStatusChanged (account, StudentStatus.Canceled);\r\n    }\r\n    \r\n    function changeClassStatus () public onlyOwner returns (bool) {\r\n        active = !active;\r\n        return active;\r\n    }\r\n    \r\n    function isStudent (address account) public view returns (bool) {\r\n        //if (!compareStrings(studentInfo[account].name, \"\"))\r\n        if (studentInClassInfo[account].start > 0)\r\n            return true;\r\n        else\r\n            return false;\r\n    }\r\n\r\n    function getStudentByAddress (address account) public view returns (StudentInClass memory) {\r\n        require(isStudent(account), \"not student\");\r\n        return studentInClassInfo[account];\r\n    }\r\n\r\n    function listStudentsByAddress () public view returns (address[] memory) {\r\n        return studentAddressList;\r\n    }\r\n\r\n    function countStudents () public view returns (uint) {\r\n        return (studentAddressList.length);\r\n    }\r\n    \r\n    function compareStrings(string memory a, string memory b) private pure returns (bool) {\r\n        return (keccak256(abi.encodePacked((a))) == keccak256(abi.encodePacked((b))));\r\n    }\r\n\r\n}\r\n\r\n",
  "sourcePath": "C:/ACADEMY/GITHUB/rsk-academy-dapp/contracts/AcademyClassList.sol",
  "compiler": {
    "name": "solc",
    "version": "0.8.1+commit.df193b15.Emscripten.clang"
  },
  "schemaVersion": "3.3.4",
  "updatedAt": "2021-02-20T18:47:10.935Z",
  "networkType": "ethereum",
  "devdoc": {
    "kind": "dev",
    "methods": {
      "getRoleAdmin(bytes32)": {
        "details": "Returns the admin role that controls `role`. See {grantRole} and {revokeRole}. To change a role's admin, use {_setRoleAdmin}."
      },
      "getRoleMember(bytes32,uint256)": {
        "details": "Returns one of the accounts that have `role`. `index` must be a value between 0 and {getRoleMemberCount}, non-inclusive. Role bearers are not sorted in any particular way, and their ordering may change at any point. WARNING: When using {getRoleMember} and {getRoleMemberCount}, make sure you perform all queries on the same block. See the following https://forum.openzeppelin.com/t/iterating-over-elements-on-enumerableset-in-openzeppelin-contracts/2296[forum post] for more information."
      },
      "getRoleMemberCount(bytes32)": {
        "details": "Returns the number of accounts that have `role`. Can be used together with {getRoleMember} to enumerate all bearers of a role."
      },
      "grantRole(bytes32,address)": {
        "details": "Grants `role` to `account`. If `account` had not been already granted `role`, emits a {RoleGranted} event. Requirements: - the caller must have ``role``'s admin role."
      },
      "hasRole(bytes32,address)": {
        "details": "Returns `true` if `account` has been granted `role`."
      },
      "renounceRole(bytes32,address)": {
        "details": "Revokes `role` from the calling account. Roles are often managed via {grantRole} and {revokeRole}: this function's purpose is to provide a mechanism for accounts to lose their privileges if they are compromised (such as when a trusted device is misplaced). If the calling account had been granted `role`, emits a {RoleRevoked} event. Requirements: - the caller must be `account`."
      },
      "revokeRole(bytes32,address)": {
        "details": "Revokes `role` from `account`. If `account` had been granted `role`, emits a {RoleRevoked} event. Requirements: - the caller must have ``role``'s admin role."
      }
    },
    "version": 1
  },
  "userdoc": {
    "kind": "user",
    "methods": {},
    "version": 1
  }
}