{
  "contractName": "AcademyStudents",
  "abi": [
    {
      "inputs": [
        {
          "internalType": "address",
          "name": "addressProjectList",
          "type": "address"
        }
      ],
      "stateMutability": "nonpayable",
      "type": "constructor"
    },
    {
      "anonymous": false,
      "inputs": [
        {
          "indexed": true,
          "internalType": "bytes32",
          "name": "role",
          "type": "bytes32"
        },
        {
          "indexed": true,
          "internalType": "bytes32",
          "name": "previousAdminRole",
          "type": "bytes32"
        },
        {
          "indexed": true,
          "internalType": "bytes32",
          "name": "newAdminRole",
          "type": "bytes32"
        }
      ],
      "name": "RoleAdminChanged",
      "type": "event"
    },
    {
      "anonymous": false,
      "inputs": [
        {
          "indexed": true,
          "internalType": "bytes32",
          "name": "role",
          "type": "bytes32"
        },
        {
          "indexed": true,
          "internalType": "address",
          "name": "account",
          "type": "address"
        },
        {
          "indexed": true,
          "internalType": "address",
          "name": "sender",
          "type": "address"
        }
      ],
      "name": "RoleGranted",
      "type": "event"
    },
    {
      "anonymous": false,
      "inputs": [
        {
          "indexed": true,
          "internalType": "bytes32",
          "name": "role",
          "type": "bytes32"
        },
        {
          "indexed": true,
          "internalType": "address",
          "name": "account",
          "type": "address"
        },
        {
          "indexed": true,
          "internalType": "address",
          "name": "sender",
          "type": "address"
        }
      ],
      "name": "RoleRevoked",
      "type": "event"
    },
    {
      "anonymous": false,
      "inputs": [
        {
          "indexed": true,
          "internalType": "address",
          "name": "classAddress",
          "type": "address"
        },
        {
          "indexed": true,
          "internalType": "address",
          "name": "studentAddress",
          "type": "address"
        }
      ],
      "name": "StudentClassSelected",
      "type": "event"
    },
    {
      "anonymous": false,
      "inputs": [
        {
          "indexed": true,
          "internalType": "address",
          "name": "studentAddress",
          "type": "address"
        }
      ],
      "name": "StudentCreated",
      "type": "event"
    },
    {
      "anonymous": false,
      "inputs": [
        {
          "indexed": true,
          "internalType": "address",
          "name": "studentAddress",
          "type": "address"
        }
      ],
      "name": "StudentRemoved",
      "type": "event"
    },
    {
      "anonymous": false,
      "inputs": [
        {
          "indexed": true,
          "internalType": "address",
          "name": "classAddress",
          "type": "address"
        },
        {
          "indexed": true,
          "internalType": "address",
          "name": "studentAddress",
          "type": "address"
        }
      ],
      "name": "StudentSubscribed",
      "type": "event"
    },
    {
      "inputs": [],
      "name": "DEFAULT_ADMIN_ROLE",
      "outputs": [
        {
          "internalType": "bytes32",
          "name": "",
          "type": "bytes32"
        }
      ],
      "stateMutability": "view",
      "type": "function",
      "constant": true
    },
    {
      "inputs": [
        {
          "internalType": "bytes32",
          "name": "role",
          "type": "bytes32"
        }
      ],
      "name": "getRoleAdmin",
      "outputs": [
        {
          "internalType": "bytes32",
          "name": "",
          "type": "bytes32"
        }
      ],
      "stateMutability": "view",
      "type": "function",
      "constant": true
    },
    {
      "inputs": [
        {
          "internalType": "bytes32",
          "name": "role",
          "type": "bytes32"
        },
        {
          "internalType": "uint256",
          "name": "index",
          "type": "uint256"
        }
      ],
      "name": "getRoleMember",
      "outputs": [
        {
          "internalType": "address",
          "name": "",
          "type": "address"
        }
      ],
      "stateMutability": "view",
      "type": "function",
      "constant": true
    },
    {
      "inputs": [
        {
          "internalType": "bytes32",
          "name": "role",
          "type": "bytes32"
        }
      ],
      "name": "getRoleMemberCount",
      "outputs": [
        {
          "internalType": "uint256",
          "name": "",
          "type": "uint256"
        }
      ],
      "stateMutability": "view",
      "type": "function",
      "constant": true
    },
    {
      "inputs": [
        {
          "internalType": "bytes32",
          "name": "role",
          "type": "bytes32"
        },
        {
          "internalType": "address",
          "name": "account",
          "type": "address"
        }
      ],
      "name": "grantRole",
      "outputs": [],
      "stateMutability": "nonpayable",
      "type": "function"
    },
    {
      "inputs": [
        {
          "internalType": "bytes32",
          "name": "role",
          "type": "bytes32"
        },
        {
          "internalType": "address",
          "name": "account",
          "type": "address"
        }
      ],
      "name": "hasRole",
      "outputs": [
        {
          "internalType": "bool",
          "name": "",
          "type": "bool"
        }
      ],
      "stateMutability": "view",
      "type": "function",
      "constant": true
    },
    {
      "inputs": [],
      "name": "projectListAddress",
      "outputs": [
        {
          "internalType": "address",
          "name": "",
          "type": "address"
        }
      ],
      "stateMutability": "view",
      "type": "function",
      "constant": true
    },
    {
      "inputs": [
        {
          "internalType": "bytes32",
          "name": "role",
          "type": "bytes32"
        },
        {
          "internalType": "address",
          "name": "account",
          "type": "address"
        }
      ],
      "name": "renounceRole",
      "outputs": [],
      "stateMutability": "nonpayable",
      "type": "function"
    },
    {
      "inputs": [
        {
          "internalType": "bytes32",
          "name": "role",
          "type": "bytes32"
        },
        {
          "internalType": "address",
          "name": "account",
          "type": "address"
        }
      ],
      "name": "revokeRole",
      "outputs": [],
      "stateMutability": "nonpayable",
      "type": "function"
    },
    {
      "inputs": [
        {
          "internalType": "address",
          "name": "account",
          "type": "address"
        }
      ],
      "name": "addStudent",
      "outputs": [
        {
          "internalType": "uint256",
          "name": "",
          "type": "uint256"
        }
      ],
      "stateMutability": "nonpayable",
      "type": "function"
    },
    {
      "inputs": [
        {
          "internalType": "address",
          "name": "account",
          "type": "address"
        }
      ],
      "name": "delStudent",
      "outputs": [
        {
          "internalType": "bool",
          "name": "",
          "type": "bool"
        }
      ],
      "stateMutability": "nonpayable",
      "type": "function"
    },
    {
      "inputs": [
        {
          "internalType": "address",
          "name": "account",
          "type": "address"
        },
        {
          "internalType": "address",
          "name": "classAddress",
          "type": "address"
        }
      ],
      "name": "addClass",
      "outputs": [
        {
          "internalType": "bool",
          "name": "",
          "type": "bool"
        }
      ],
      "stateMutability": "nonpayable",
      "type": "function"
    },
    {
      "inputs": [
        {
          "internalType": "address",
          "name": "classAddress",
          "type": "address"
        }
      ],
      "name": "updateActiveClass",
      "outputs": [
        {
          "internalType": "bool",
          "name": "",
          "type": "bool"
        }
      ],
      "stateMutability": "nonpayable",
      "type": "function"
    },
    {
      "inputs": [
        {
          "internalType": "address",
          "name": "account",
          "type": "address"
        },
        {
          "internalType": "address",
          "name": "classAddress",
          "type": "address"
        }
      ],
      "name": "updateStudentActiveClass",
      "outputs": [
        {
          "internalType": "bool",
          "name": "",
          "type": "bool"
        }
      ],
      "stateMutability": "nonpayable",
      "type": "function"
    },
    {
      "inputs": [
        {
          "internalType": "address",
          "name": "account",
          "type": "address"
        },
        {
          "internalType": "address",
          "name": "classAddress",
          "type": "address"
        }
      ],
      "name": "_updateActiveClass",
      "outputs": [
        {
          "internalType": "bool",
          "name": "",
          "type": "bool"
        }
      ],
      "stateMutability": "nonpayable",
      "type": "function"
    },
    {
      "inputs": [],
      "name": "changeActive",
      "outputs": [
        {
          "internalType": "bool",
          "name": "",
          "type": "bool"
        }
      ],
      "stateMutability": "nonpayable",
      "type": "function"
    },
    {
      "inputs": [
        {
          "internalType": "address",
          "name": "addressProjectList",
          "type": "address"
        }
      ],
      "name": "updateProjectListAddress",
      "outputs": [
        {
          "internalType": "bool",
          "name": "",
          "type": "bool"
        }
      ],
      "stateMutability": "nonpayable",
      "type": "function"
    },
    {
      "inputs": [
        {
          "internalType": "address",
          "name": "account",
          "type": "address"
        }
      ],
      "name": "isStudent",
      "outputs": [
        {
          "internalType": "bool",
          "name": "",
          "type": "bool"
        }
      ],
      "stateMutability": "view",
      "type": "function",
      "constant": true
    },
    {
      "inputs": [
        {
          "internalType": "address",
          "name": "account",
          "type": "address"
        }
      ],
      "name": "getStudentByAddress",
      "outputs": [
        {
          "components": [
            {
              "internalType": "uint256",
              "name": "index",
              "type": "uint256"
            },
            {
              "internalType": "address",
              "name": "ownerAddress",
              "type": "address"
            },
            {
              "internalType": "address",
              "name": "portfolioAddress",
              "type": "address"
            },
            {
              "internalType": "address",
              "name": "activeClass",
              "type": "address"
            },
            {
              "internalType": "address[]",
              "name": "studentClasses",
              "type": "address[]"
            }
          ],
          "internalType": "struct StudentStruct",
          "name": "",
          "type": "tuple"
        }
      ],
      "stateMutability": "view",
      "type": "function",
      "constant": true
    },
    {
      "inputs": [],
      "name": "countStudents",
      "outputs": [
        {
          "internalType": "uint256",
          "name": "",
          "type": "uint256"
        }
      ],
      "stateMutability": "view",
      "type": "function",
      "constant": true
    },
    {
      "inputs": [],
      "name": "listStudents",
      "outputs": [
        {
          "internalType": "address[]",
          "name": "",
          "type": "address[]"
        }
      ],
      "stateMutability": "view",
      "type": "function",
      "constant": true
    }
  ],
  "bytecode": "0x60806040523480156200001157600080fd5b506040516200602a3803806200602a83398181016040528101906200003791906200025b565b6200004c6000801b33620000ae60201b60201c565b60018060146101000a81548160ff02191690831515021790555080600160006101000a81548173ffffffffffffffffffffffffffffffffffffffff021916908373ffffffffffffffffffffffffffffffffffffffff16021790555050620002d5565b620000c08282620000c460201b60201c565b5050565b620000f2816000808581526020019081526020016000206000016200016760201b620013841790919060201c565b156200016357620001086200019f60201b60201c565b73ffffffffffffffffffffffffffffffffffffffff168173ffffffffffffffffffffffffffffffffffffffff16837f2f8788117e7eff1d82e926ec794901d17c78024a50270940304540a733656f0d60405160405180910390a45b5050565b600062000197836000018373ffffffffffffffffffffffffffffffffffffffff1660001b620001a760201b60201c565b905092915050565b600033905090565b6000620001bb83836200022160201b60201c565b620002165782600001829080600181540180825580915050600190039060005260206000200160009091909190915055826000018054905083600101600084815260200190815260200160002081905550600190506200021b565b600090505b92915050565b600080836001016000848152602001908152602001600020541415905092915050565b6000815190506200025581620002bb565b92915050565b6000602082840312156200026e57600080fd5b60006200027e8482850162000244565b91505092915050565b600062000294826200029b565b9050919050565b600073ffffffffffffffffffffffffffffffffffffffff82169050919050565b620002c68162000287565b8114620002d257600080fd5b50565b615d4580620002e56000396000f3fe60806040523480156200001157600080fd5b5060043610620001545760003560e01c80639010d07c11620000c9578063b4ac0dfc1162000087578063b4ac0dfc146200041b578063bd06ea19146200043d578063ca15c8731462000473578063d547741f14620004a9578063d5df1ec114620004c9578063e3738e3414620004ff5762000154565b80639010d07c146200032157806391d1485414620003575780639f3da5cc146200038d578063a217fddf14620003c3578063aa0ccf2114620003e55762000154565b806336568abe116200011757806336568abe1462000251578063477f5a6914620002715780636cd3fedf14620002935780636f33fdaf14620002c957806382f7d39214620002eb5762000154565b80630c78a9741462000159578063103af6f8146200018f57806310c498c714620001c5578063248a9ca314620001fb5780632f2ff15d1462000231575b600080fd5b62000177600480360381019062000171919062001e78565b62000521565b60405162000186919062002293565b60405180910390f35b620001ad6004803603810190620001a7919062001e4c565b62000588565b604051620001bc919062002293565b60405180910390f35b620001e36004803603810190620001dd919062001e4c565b6200059d565b604051620001f2919062002293565b60405180910390f35b62000219600480360381019062000213919062001eb9565b6200063a565b604051620002289190620022b0565b60405180910390f35b6200024f600480360381019062000249919062001ee5565b62000659565b005b6200026f600480360381019062000269919062001ee5565b620006d5565b005b6200027b6200075f565b6040516200028a9190620023bd565b60405180910390f35b620002b16004803603810190620002ab919062001e78565b6200076c565b604051620002c0919062002293565b60405180910390f35b620002d362000a58565b604051620002e291906200226f565b60405180910390f35b62000309600480360381019062000303919062001e4c565b62000ae8565b60405162000318919062002293565b60405180910390f35b6200033f600480360381019062000339919062001f26565b62000be0565b6040516200034e919062002225565b60405180910390f35b6200037560048036038101906200036f919062001ee5565b62000c13565b60405162000384919062002293565b60405180910390f35b620003ab6004803603810190620003a5919062001e4c565b62000c46565b604051620003ba919062002399565b60405180910390f35b620003cd62000e62565b604051620003dc9190620022b0565b60405180910390f35b620004036004803603810190620003fd919062001e4c565b62000e69565b60405162000412919062002293565b60405180910390f35b6200042562000f23565b60405162000434919062002293565b60405180910390f35b6200045b600480360381019062000455919062001e4c565b62000fb5565b6040516200046a9190620023bd565b60405180910390f35b6200049160048036038101906200048b919062001eb9565b62001166565b604051620004a09190620023bd565b60405180910390f35b620004c76004803603810190620004c1919062001ee5565b6200118e565b005b620004e76004803603810190620004e1919062001e78565b6200120a565b604051620004f6919062002293565b60405180910390f35b620005096200135e565b60405162000518919062002225565b60405180910390f35b6000620005326000801b3362000c13565b62000574576040517f08c379a00000000000000000000000000000000000000000000000000000000081526004016200056b9062002333565b60405180910390fd5b6200058083836200120a565b905092915050565b60006200059633836200120a565b9050919050565b6000620005ae6000801b3362000c13565b620005f0576040517f08c379a0000000000000000000000000000000000000000000000000000000008152600401620005e79062002333565b60405180910390fd5b81600160006101000a81548173ffffffffffffffffffffffffffffffffffffffff021916908373ffffffffffffffffffffffffffffffffffffffff16021790555060019050919050565b6000806000838152602001908152602001600020600201549050919050565b62000683600080848152602001908152602001600020600201546200067d620013b6565b62000c13565b620006c5576040517f08c379a0000000000000000000000000000000000000000000000000000000008152600401620006bc90620022ef565b60405180910390fd5b620006d18282620013be565b5050565b620006df620013b6565b73ffffffffffffffffffffffffffffffffffffffff168173ffffffffffffffffffffffffffffffffffffffff16146200074f576040517f08c379a0000000000000000000000000000000000000000000000000000000008152600401620007469062002377565b60405180910390fd5b6200075b828262001456565b5050565b6000600380549050905090565b60006200077d6000801b3362000c13565b620007bf576040517f08c379a0000000000000000000000000000000000000000000000000000000008152600401620007b69062002333565b60405180910390fd5b600160149054906101000a900460ff1662000811576040517f08c379a0000000000000000000000000000000000000000000000000000000008152600401620008089062002311565b60405180910390fd5b6200081c8362000ae8565b6200082b576000905062000a52565b600460008473ffffffffffffffffffffffffffffffffffffffff1673ffffffffffffffffffffffffffffffffffffffff16815260200190815260200160002060008373ffffffffffffffffffffffffffffffffffffffff1673ffffffffffffffffffffffffffffffffffffffff16815260200190815260200160002060009054906101000a900460ff16620009f357600260008473ffffffffffffffffffffffffffffffffffffffff1673ffffffffffffffffffffffffffffffffffffffff168152602001908152602001600020600401829080600181540180825580915050600190039060005260206000200160009091909190916101000a81548173ffffffffffffffffffffffffffffffffffffffff021916908373ffffffffffffffffffffffffffffffffffffffff1602179055506001600460008573ffffffffffffffffffffffffffffffffffffffff1673ffffffffffffffffffffffffffffffffffffffff16815260200190815260200160002060008473ffffffffffffffffffffffffffffffffffffffff1673ffffffffffffffffffffffffffffffffffffffff16815260200190815260200160002060006101000a81548160ff0219169083151502179055505b8273ffffffffffffffffffffffffffffffffffffffff168273ffffffffffffffffffffffffffffffffffffffff167fa83a836cb37b2e19a8bda8040e2b8e18046612e65f0d12a31978e46aa832f65560405160405180910390a3600190505b92915050565b6060600380548060200260200160405190810160405280929190818152602001828054801562000ade57602002820191906000526020600020905b8160009054906101000a900473ffffffffffffffffffffffffffffffffffffffff1673ffffffffffffffffffffffffffffffffffffffff168152602001906001019080831162000a93575b5050505050905090565b600080600380549050141562000b02576000905062000bdb565b8173ffffffffffffffffffffffffffffffffffffffff166003600260008573ffffffffffffffffffffffffffffffffffffffff1673ffffffffffffffffffffffffffffffffffffffff168152602001908152602001600020600001548154811062000b96577f4e487b7100000000000000000000000000000000000000000000000000000000600052603260045260246000fd5b9060005260206000200160009054906101000a900473ffffffffffffffffffffffffffffffffffffffff1673ffffffffffffffffffffffffffffffffffffffff161490505b919050565b600062000c0b82600080868152602001908152602001600020600001620014ee90919063ffffffff16565b905092915050565b600062000c3e826000808681526020019081526020016000206000016200150a90919063ffffffff16565b905092915050565b62000c5062001d46565b62000c5b8262000ae8565b62000c745762000c6a62001d46565b8091505062000e5d565b600260008373ffffffffffffffffffffffffffffffffffffffff1673ffffffffffffffffffffffffffffffffffffffff1681526020019081526020016000206040518060a0016040529081600082015481526020016001820160009054906101000a900473ffffffffffffffffffffffffffffffffffffffff1673ffffffffffffffffffffffffffffffffffffffff1673ffffffffffffffffffffffffffffffffffffffff1681526020016002820160009054906101000a900473ffffffffffffffffffffffffffffffffffffffff1673ffffffffffffffffffffffffffffffffffffffff1673ffffffffffffffffffffffffffffffffffffffff1681526020016003820160009054906101000a900473ffffffffffffffffffffffffffffffffffffffff1673ffffffffffffffffffffffffffffffffffffffff1673ffffffffffffffffffffffffffffffffffffffff1681526020016004820180548060200260200160405190810160405280929190818152602001828054801562000e5157602002820191906000526020600020905b8160009054906101000a900473ffffffffffffffffffffffffffffffffffffffff1673ffffffffffffffffffffffffffffffffffffffff168152602001906001019080831162000e06575b50505050508152505090505b919050565b6000801b81565b600062000e7a6000801b3362000c13565b62000ebc576040517f08c379a000000000000000000000000000000000000000000000000000000000815260040162000eb39062002333565b60405180910390fd5b600160149054906101000a900460ff1662000f0e576040517f08c379a000000000000000000000000000000000000000000000000000000000815260040162000f059062002311565b60405180910390fd5b62000f19826200153c565b5060019050919050565b600062000f346000801b3362000c13565b62000f76576040517f08c379a000000000000000000000000000000000000000000000000000000000815260040162000f6d9062002333565b60405180910390fd5b600160149054906101000a900460ff1615600160146101000a81548160ff021916908315150217905550600160149054906101000a900460ff16905090565b600062000fc66000801b3362000c13565b62001008576040517f08c379a000000000000000000000000000000000000000000000000000000000815260040162000fff9062002333565b60405180910390fd5b600160149054906101000a900460ff166200105a576040517f08c379a0000000000000000000000000000000000000000000000000000000008152600401620010519062002311565b60405180910390fd5b6000620010678362000ae8565b6200107a57620010778362001875565b90505b600083600160009054906101000a900473ffffffffffffffffffffffffffffffffffffffff16604051620010ae9062001db7565b620010bb92919062002242565b604051809103906000f080158015620010d8573d6000803e3d6000fd5b50905080600260008673ffffffffffffffffffffffffffffffffffffffff1673ffffffffffffffffffffffffffffffffffffffff16815260200190815260200160002060020160006101000a81548173ffffffffffffffffffffffffffffffffffffffff021916908373ffffffffffffffffffffffffffffffffffffffff1602179055508192505050919050565b60006200118760008084815260200190815260200160002060000162001a22565b9050919050565b620011b860008084815260200190815260200160002060020154620011b2620013b6565b62000c13565b620011fa576040517f08c379a0000000000000000000000000000000000000000000000000000000008152600401620011f19062002355565b60405180910390fd5b62001206828262001456565b5050565b6000600160149054906101000a900460ff166200125e576040517f08c379a0000000000000000000000000000000000000000000000000000000008152600401620012559062002311565b60405180910390fd5b620012698362000ae8565b62001278576000905062001358565b81600260008573ffffffffffffffffffffffffffffffffffffffff1673ffffffffffffffffffffffffffffffffffffffff16815260200190815260200160002060030160006101000a81548173ffffffffffffffffffffffffffffffffffffffff021916908373ffffffffffffffffffffffffffffffffffffffff1602179055508273ffffffffffffffffffffffffffffffffffffffff168273ffffffffffffffffffffffffffffffffffffffff167f32ae1e15433e98cb8f7822b8d5647884e8776c0a7cccbedc03ad096b37a47cf560405160405180910390a3600190505b92915050565b600160009054906101000a900473ffffffffffffffffffffffffffffffffffffffff1681565b6000620013ae836000018373ffffffffffffffffffffffffffffffffffffffff1660001b62001a39565b905092915050565b600033905090565b620013e7816000808581526020019081526020016000206000016200138490919063ffffffff16565b156200145257620013f7620013b6565b73ffffffffffffffffffffffffffffffffffffffff168173ffffffffffffffffffffffffffffffffffffffff16837f2f8788117e7eff1d82e926ec794901d17c78024a50270940304540a733656f0d60405160405180910390a45b5050565b6200147f8160008085815260200190815260200160002060000162001aad90919063ffffffff16565b15620014ea576200148f620013b6565b73ffffffffffffffffffffffffffffffffffffffff168173ffffffffffffffffffffffffffffffffffffffff16837ff6391f5c32d9c69d2a47ea670b442974b53935d1edc7fd64eb21e047a839171b60405160405180910390a45b5050565b6000620014ff836000018362001adf565b60001c905092915050565b600062001534836000018373ffffffffffffffffffffffffffffffffffffffff1660001b62001b7d565b905092915050565b6000620015498262000ae8565b62001558576000905062001870565b6000600260008473ffffffffffffffffffffffffffffffffffffffff1673ffffffffffffffffffffffffffffffffffffffff168152602001908152602001600020600001549050600060036001600380549050620015b7919062002492565b81548110620015ef577f4e487b7100000000000000000000000000000000000000000000000000000000600052603260045260246000fd5b9060005260206000200160009054906101000a900473ffffffffffffffffffffffffffffffffffffffff169050806003838154811062001658577f4e487b7100000000000000000000000000000000000000000000000000000000600052603260045260246000fd5b9060005260206000200160006101000a81548173ffffffffffffffffffffffffffffffffffffffff021916908373ffffffffffffffffffffffffffffffffffffffff16021790555081600260008373ffffffffffffffffffffffffffffffffffffffff1673ffffffffffffffffffffffffffffffffffffffff16815260200190815260200160002060000181905550600260008573ffffffffffffffffffffffffffffffffffffffff1673ffffffffffffffffffffffffffffffffffffffff1681526020019081526020016000206000808201600090556001820160006101000a81549073ffffffffffffffffffffffffffffffffffffffff02191690556002820160006101000a81549073ffffffffffffffffffffffffffffffffffffffff02191690556003820160006101000a81549073ffffffffffffffffffffffffffffffffffffffff0219169055600482016000620017b6919062001dc5565b50506003805480620017f1577f4e487b7100000000000000000000000000000000000000000000000000000000600052603160045260246000fd5b6001900381819060005260206000200160006101000a81549073ffffffffffffffffffffffffffffffffffffffff021916905590558373ffffffffffffffffffffffffffffffffffffffff167f090f8580c9984c072634e9bba0570c10e0478d3a652adb16d8c73528a2ab513c60405160405180910390a26001925050505b919050565b6000620018828262000ae8565b1562001892576000905062001a1d565b81600260008473ffffffffffffffffffffffffffffffffffffffff1673ffffffffffffffffffffffffffffffffffffffff16815260200190815260200160002060010160006101000a81548173ffffffffffffffffffffffffffffffffffffffff021916908373ffffffffffffffffffffffffffffffffffffffff1602179055506003829080600181540180825580915050600190039060005260206000200160009091909190916101000a81548173ffffffffffffffffffffffffffffffffffffffff021916908373ffffffffffffffffffffffffffffffffffffffff160217905550600060016003805490506200198c919062002492565b905080600260008573ffffffffffffffffffffffffffffffffffffffff1673ffffffffffffffffffffffffffffffffffffffff168152602001908152602001600020600001819055508273ffffffffffffffffffffffffffffffffffffffff167fa2da132766d374e1a5a81ba24686b4d3c079d9e5441a8e25e2258f8a55e2180560405160405180910390a2809150505b919050565b600062001a328260000162001ba0565b9050919050565b600062001a47838362001b7d565b62001aa257826000018290806001815401808255809150506001900390600052602060002001600090919091909150558260000180549050836001016000848152602001908152602001600020819055506001905062001aa7565b600090505b92915050565b600062001ad7836000018373ffffffffffffffffffffffffffffffffffffffff1660001b62001bb1565b905092915050565b60008183600001805490501162001b2d576040517f08c379a000000000000000000000000000000000000000000000000000000000815260040162001b2490620022cd565b60405180910390fd5b82600001828154811062001b6a577f4e487b7100000000000000000000000000000000000000000000000000000000600052603260045260246000fd5b9060005260206000200154905092915050565b600080836001016000848152602001908152602001600020541415905092915050565b600081600001805490509050919050565b6000808360010160008481526020019081526020016000205490506000811462001d3a57600060018262001be6919062002492565b905060006001866000018054905062001c00919062002492565b9050600086600001828154811062001c41577f4e487b7100000000000000000000000000000000000000000000000000000000600052603260045260246000fd5b906000526020600020015490508087600001848154811062001c8c577f4e487b7100000000000000000000000000000000000000000000000000000000600052603260045260246000fd5b906000526020600020018190555060018362001ca9919062002435565b876001016000838152602001908152602001600020819055508660000180548062001cfd577f4e487b7100000000000000000000000000000000000000000000000000000000600052603160045260246000fd5b6001900381819060005260206000200160009055905586600101600087815260200190815260200160002060009055600194505050505062001d40565b60009150505b92915050565b6040518060a0016040528060008152602001600073ffffffffffffffffffffffffffffffffffffffff168152602001600073ffffffffffffffffffffffffffffffffffffffff168152602001600073ffffffffffffffffffffffffffffffffffffffff168152602001606081525090565b6135e3806200272d83390190565b508054600082559060005260206000209081019062001de5919062001de8565b50565b5b8082111562001e0357600081600090555060010162001de9565b5090565b60008135905062001e1881620026de565b92915050565b60008135905062001e2f81620026f8565b92915050565b60008135905062001e468162002712565b92915050565b60006020828403121562001e5f57600080fd5b600062001e6f8482850162001e07565b91505092915050565b6000806040838503121562001e8c57600080fd5b600062001e9c8582860162001e07565b925050602062001eaf8582860162001e07565b9150509250929050565b60006020828403121562001ecc57600080fd5b600062001edc8482850162001e1e565b91505092915050565b6000806040838503121562001ef957600080fd5b600062001f098582860162001e1e565b925050602062001f1c8582860162001e07565b9150509250929050565b6000806040838503121562001f3a57600080fd5b600062001f4a8582860162001e1e565b925050602062001f5d8582860162001e35565b9150509250929050565b600062001f75838362001f81565b60208301905092915050565b62001f8c81620024cd565b82525050565b62001f9d81620024cd565b82525050565b600062001fb082620023ea565b62001fbc818562002402565b935062001fc983620023da565b8060005b838110156200200057815162001fe4888262001f67565b975062001ff183620023f5565b92505060018101905062001fcd565b5085935050505092915050565b60006200201a82620023ea565b62002026818562002413565b93506200203383620023da565b8060005b838110156200206a5781516200204e888262001f67565b97506200205b83620023f5565b92505060018101905062002037565b5085935050505092915050565b6200208281620024e1565b82525050565b6200209381620024ed565b82525050565b6000620020a860228362002424565b9150620020b58262002550565b604082019050919050565b6000620020cf602f8362002424565b9150620020dc826200259f565b604082019050919050565b6000620020f6601b8362002424565b91506200210382620025ee565b602082019050919050565b60006200211d601b8362002424565b91506200212a8262002617565b602082019050919050565b60006200214460308362002424565b9150620021518262002640565b604082019050919050565b60006200216b602f8362002424565b915062002178826200268f565b604082019050919050565b600060a0830160008301516200219d600086018262002203565b506020830151620021b2602086018262001f81565b506040830151620021c7604086018262001f81565b506060830151620021dc606086018262001f81565b5060808301518482036080860152620021f6828262001fa3565b9150508091505092915050565b6200220e8162002517565b82525050565b6200221f8162002517565b82525050565b60006020820190506200223c600083018462001f92565b92915050565b600060408201905062002259600083018562001f92565b62002268602083018462001f92565b9392505050565b600060208201905081810360008301526200228b81846200200d565b905092915050565b6000602082019050620022aa600083018462002077565b92915050565b6000602082019050620022c7600083018462002088565b92915050565b60006020820190508181036000830152620022e88162002099565b9050919050565b600060208201905081810360008301526200230a81620020c0565b9050919050565b600060208201905081810360008301526200232c81620020e7565b9050919050565b600060208201905081810360008301526200234e816200210e565b9050919050565b60006020820190508181036000830152620023708162002135565b9050919050565b6000602082019050818103600083015262002392816200215c565b9050919050565b60006020820190508181036000830152620023b5818462002183565b905092915050565b6000602082019050620023d4600083018462002214565b92915050565b6000819050602082019050919050565b600081519050919050565b6000602082019050919050565b600082825260208201905092915050565b600082825260208201905092915050565b600082825260208201905092915050565b6000620024428262002517565b91506200244f8362002517565b9250827fffffffffffffffffffffffffffffffffffffffffffffffffffffffffffffffff0382111562002487576200248662002521565b5b828201905092915050565b60006200249f8262002517565b9150620024ac8362002517565b925082821015620024c257620024c162002521565b5b828203905092915050565b6000620024da82620024f7565b9050919050565b60008115159050919050565b6000819050919050565b600073ffffffffffffffffffffffffffffffffffffffff82169050919050565b6000819050919050565b7f4e487b7100000000000000000000000000000000000000000000000000000000600052601160045260246000fd5b7f456e756d657261626c655365743a20696e646578206f7574206f6620626f756e60008201527f6473000000000000000000000000000000000000000000000000000000000000602082015250565b7f416363657373436f6e74726f6c3a2073656e646572206d75737420626520616e60008201527f2061646d696e20746f206772616e740000000000000000000000000000000000602082015250565b7f41636164656d7953747564656e74733a206e6f74206163746976650000000000600082015250565b7f41636164656d7953747564656e74733a206f6e6c79206f776e65720000000000600082015250565b7f416363657373436f6e74726f6c3a2073656e646572206d75737420626520616e60008201527f2061646d696e20746f207265766f6b6500000000000000000000000000000000602082015250565b7f416363657373436f6e74726f6c3a2063616e206f6e6c792072656e6f756e636560008201527f20726f6c657320666f722073656c660000000000000000000000000000000000602082015250565b620026e981620024cd565b8114620026f557600080fd5b50565b6200270381620024ed565b81146200270f57600080fd5b50565b6200271d8162002517565b81146200272957600080fd5b5056fe60806040523480156200001157600080fd5b50604051620035e3380380620035e3833981810160405281019062000037919062000283565b6200004c6000801b33620000d660201b60201c565b81600460006101000a81548173ffffffffffffffffffffffffffffffffffffffff021916908373ffffffffffffffffffffffffffffffffffffffff16021790555080600560006101000a81548173ffffffffffffffffffffffffffffffffffffffff021916908373ffffffffffffffffffffffffffffffffffffffff160217905550505062000312565b620000e88282620000ec60201b60201c565b5050565b6200011a816000808581526020019081526020016000206000016200018f60201b62001b411790919060201c565b156200018b5762000130620001c760201b60201c565b73ffffffffffffffffffffffffffffffffffffffff168173ffffffffffffffffffffffffffffffffffffffff16837f2f8788117e7eff1d82e926ec794901d17c78024a50270940304540a733656f0d60405160405180910390a45b5050565b6000620001bf836000018373ffffffffffffffffffffffffffffffffffffffff1660001b620001cf60201b60201c565b905092915050565b600033905090565b6000620001e383836200024960201b60201c565b6200023e57826000018290806001815401808255809150506001900390600052602060002001600090919091909150558260000180549050836001016000848152602001908152602001600020819055506001905062000243565b600090505b92915050565b600080836001016000848152602001908152602001600020541415905092915050565b6000815190506200027d81620002f8565b92915050565b600080604083850312156200029757600080fd5b6000620002a7858286016200026c565b9250506020620002ba858286016200026c565b9150509250929050565b6000620002d182620002d8565b9050919050565b600073ffffffffffffffffffffffffffffffffffffffff82169050919050565b6200030381620002c4565b81146200030f57600080fd5b50565b6132c180620003226000396000f3fe608060405234801561001057600080fd5b50600436106101375760003560e01c806391d14854116100b8578063d547741f1161007c578063d547741f146103c0578063e4440b99146103dc578063ec77f8301461040c578063f4a496b71461042a578063f7e0123a1461045a578063fefd6e761461047857610137565b806391d14854146102e2578063a217fddf14610312578063a84224bc14610330578063ca15c87314610360578063d46e1c4a1461039057610137565b806336568abe116100ff57806336568abe14610218578063699450e8146102345780637201ac1e146102525780638a06d20b146102825780639010d07c146102b257610137565b80631734109a1461013c5780632289367f1461016c578063248a9ca31461019c5780632727737d146101cc5780632f2ff15d146101fc575b600080fd5b610156600480360381019061015191906122c0565b610496565b60405161016391906129cb565b60405180910390f35b610186600480360381019061018191906122c0565b61052e565b60405161019391906129cb565b60405180910390f35b6101b660048036038101906101b1919061238f565b61058a565b6040516101c391906129e6565b60405180910390f35b6101e660048036038101906101e191906122c0565b6105a9565b6040516101f39190612c00565b60405180910390f35b610216600480360381019061021191906123b8565b61073d565b005b610232600480360381019061022d91906123b8565b6107b0565b005b61023c610833565b604051610249919061298e565b60405180910390f35b61026c60048036038101906102679190612430565b610859565b6040516102799190612c00565b60405180910390f35b61029c60048036038101906102979190612312565b6109cc565b6040516102a99190612c22565b60405180910390f35b6102cc60048036038101906102c791906123f4565b610fba565b6040516102d9919061298e565b60405180910390f35b6102fc60048036038101906102f791906123b8565b610feb565b60405161030991906129cb565b60405180910390f35b61031a61101c565b60405161032791906129e6565b60405180910390f35b61034a60048036038101906103459190612430565b611023565b60405161035791906129cb565b60405180910390f35b61037a6004803603810190610375919061238f565b61105e565b6040516103879190612c22565b60405180910390f35b6103aa60048036038101906103a591906122c0565b611084565b6040516103b79190612c22565b60405180910390f35b6103da60048036038101906103d591906123b8565b6110cd565b005b6103f660048036038101906103f19190612471565b611140565b6040516104039190612c00565b60405180910390f35b610414611295565b6040516104219190612c22565b60405180910390f35b610444600480360381019061043f91906122c0565b6112a2565b60405161045191906129cb565b60405180910390f35b6104626119d4565b60405161046f91906129a9565b60405180910390f35b610480611b1b565b60405161048d9190612a01565b60405180910390f35b60006104a56000801b33610feb565b6104e4576040517f08c379a00000000000000000000000000000000000000000000000000000000081526004016104db90612b60565b60405180910390fd5b81600560006101000a81548173ffffffffffffffffffffffffffffffffffffffff021916908373ffffffffffffffffffffffffffffffffffffffff16021790555060019050919050565b600080600260008473ffffffffffffffffffffffffffffffffffffffff1673ffffffffffffffffffffffffffffffffffffffff1681526020019081526020016000205414156105805760009050610585565b600190505b919050565b6000806000838152602001908152602001600020600201549050919050565b6105b161204f565b600180600260008573ffffffffffffffffffffffffffffffffffffffff1673ffffffffffffffffffffffffffffffffffffffff168152602001908152602001600020546105fe9190612d6f565b81548110610635577f4e487b7100000000000000000000000000000000000000000000000000000000600052603260045260246000fd5b90600052602060002090600202016040518060400160405290816000820160009054906101000a900473ffffffffffffffffffffffffffffffffffffffff1673ffffffffffffffffffffffffffffffffffffffff1673ffffffffffffffffffffffffffffffffffffffff1681526020016001820180546106b490612e5b565b80601f01602080910402602001604051908101604052809291908181526020018280546106e090612e5b565b801561072d5780601f106107025761010080835404028352916020019161072d565b820191906000526020600020905b81548152906001019060200180831161071057829003601f168201915b5050505050815250509050919050565b6107636000808481526020019081526020016000206002015461075e611b71565b610feb565b6107a2576040517f08c379a000000000000000000000000000000000000000000000000000000000815260040161079990612a80565b60405180910390fd5b6107ac8282611b79565b5050565b6107b8611b71565b73ffffffffffffffffffffffffffffffffffffffff168173ffffffffffffffffffffffffffffffffffffffff1614610825576040517f08c379a000000000000000000000000000000000000000000000000000000000815260040161081c90612be0565b60405180910390fd5b61082f8282611c0c565b5050565b600460009054906101000a900473ffffffffffffffffffffffffffffffffffffffff1681565b61086161204f565b6001806003846040516108749190612960565b90815260200160405180910390205461088d9190612d6f565b815481106108c4577f4e487b7100000000000000000000000000000000000000000000000000000000600052603260045260246000fd5b90600052602060002090600202016040518060400160405290816000820160009054906101000a900473ffffffffffffffffffffffffffffffffffffffff1673ffffffffffffffffffffffffffffffffffffffff1673ffffffffffffffffffffffffffffffffffffffff16815260200160018201805461094390612e5b565b80601f016020809104026020016040519081016040528092919081815260200182805461096f90612e5b565b80156109bc5780601f10610991576101008083540402835291602001916109bc565b820191906000526020600020905b81548152906001019060200180831161099f57829003601f168201915b5050505050815250509050919050565b60006109e78260405180602001604052806000815250611c9f565b15610a27576040517f08c379a0000000000000000000000000000000000000000000000000000000008152600401610a1e90612bc0565b60405180910390fd5b600073ffffffffffffffffffffffffffffffffffffffff168373ffffffffffffffffffffffffffffffffffffffff161415610a97576040517f08c379a0000000000000000000000000000000000000000000000000000000008152600401610a8e90612ac0565b60405180910390fd5b600560009054906101000a900473ffffffffffffffffffffffffffffffffffffffff1673ffffffffffffffffffffffffffffffffffffffff1663261a323e836040518263ffffffff1660e01b8152600401610af29190612a1c565b60206040518083038186803b158015610b0a57600080fd5b505afa158015610b1e573d6000803e3d6000fd5b505050506040513d601f19601f82011682018060405250810190610b429190612366565b610b81576040517f08c379a0000000000000000000000000000000000000000000000000000000008152600401610b7890612b20565b60405180910390fd5b600560009054906101000a900473ffffffffffffffffffffffffffffffffffffffff1673ffffffffffffffffffffffffffffffffffffffff1663c8902a21836040518263ffffffff1660e01b8152600401610bdc9190612a1c565b60206040518083038186803b158015610bf457600080fd5b505afa158015610c08573d6000803e3d6000fd5b505050506040513d601f19601f82011682018060405250810190610c2c9190612366565b610c6b576040517f08c379a0000000000000000000000000000000000000000000000000000000008152600401610c6290612ae0565b60405180910390fd5b600560009054906101000a900473ffffffffffffffffffffffffffffffffffffffff1673ffffffffffffffffffffffffffffffffffffffff16634f491152836040518263ffffffff1660e01b8152600401610cc69190612a1c565b60206040518083038186803b158015610cde57600080fd5b505afa158015610cf2573d6000803e3d6000fd5b505050506040513d601f19601f82011682018060405250810190610d1691906122e9565b73ffffffffffffffffffffffffffffffffffffffff163373ffffffffffffffffffffffffffffffffffffffff1614610d83576040517f08c379a0000000000000000000000000000000000000000000000000000000008152600401610d7a90612ba0565b60405180910390fd5b610d8c8361052e565b15610dcc576040517f08c379a0000000000000000000000000000000000000000000000000000000008152600401610dc390612b80565b60405180910390fd5b610dd582611023565b15610e15576040517f08c379a0000000000000000000000000000000000000000000000000000000008152600401610e0c90612b40565b60405180910390fd5b610e1d61204f565b83816000019073ffffffffffffffffffffffffffffffffffffffff16908173ffffffffffffffffffffffffffffffffffffffff1681525050828160200181905250600181908060018154018082558091505060019003906000526020600020906002020160009091909190915060008201518160000160006101000a81548173ffffffffffffffffffffffffffffffffffffffff021916908373ffffffffffffffffffffffffffffffffffffffff1602179055506020820151816001019080519060200190610eed92919061207f565b5050506000600180549050905080600260008773ffffffffffffffffffffffffffffffffffffffff1673ffffffffffffffffffffffffffffffffffffffff1681526020019081526020016000208190555080600385604051610f4f9190612960565b9081526020016040518091039020819055508473ffffffffffffffffffffffffffffffffffffffff167f5f72ee8f126edb9517a308b63a1840bbade7cc7d2406cf0df01e0b0f2071e45385604051610fa79190612a1c565b60405180910390a2809250505092915050565b6000610fe382600080868152602001908152602001600020600001611cf890919063ffffffff16565b905092915050565b600061101482600080868152602001908152602001600020600001611d1290919063ffffffff16565b905092915050565b6000801b81565b6000806003836040516110369190612960565b90815260200160405180910390205414156110545760009050611059565b600190505b919050565b600061107d600080848152602001908152602001600020600001611d42565b9050919050565b6000600260008373ffffffffffffffffffffffffffffffffffffffff1673ffffffffffffffffffffffffffffffffffffffff168152602001908152602001600020549050919050565b6110f3600080848152602001908152602001600020600201546110ee611b71565b610feb565b611132576040517f08c379a000000000000000000000000000000000000000000000000000000000815260040161112990612aa0565b60405180910390fd5b61113c8282611c0c565b5050565b61114861204f565b600180836111569190612d6f565b8154811061118d577f4e487b7100000000000000000000000000000000000000000000000000000000600052603260045260246000fd5b90600052602060002090600202016040518060400160405290816000820160009054906101000a900473ffffffffffffffffffffffffffffffffffffffff1673ffffffffffffffffffffffffffffffffffffffff1673ffffffffffffffffffffffffffffffffffffffff16815260200160018201805461120c90612e5b565b80601f016020809104026020016040519081016040528092919081815260200182805461123890612e5b565b80156112855780601f1061125a57610100808354040283529160200191611285565b820191906000526020600020905b81548152906001019060200180831161126857829003601f168201915b5050505050815250509050919050565b6000600180549050905090565b60008073ffffffffffffffffffffffffffffffffffffffff168273ffffffffffffffffffffffffffffffffffffffff161415611313576040517f08c379a000000000000000000000000000000000000000000000000000000000815260040161130a90612ac0565b60405180910390fd5b61131c8261052e565b61135b576040517f08c379a000000000000000000000000000000000000000000000000000000000815260040161135290612b00565b60405180910390fd5b600560009054906101000a900473ffffffffffffffffffffffffffffffffffffffff1673ffffffffffffffffffffffffffffffffffffffff16634f4911526001600260008673ffffffffffffffffffffffffffffffffffffffff1673ffffffffffffffffffffffffffffffffffffffff1681526020019081526020016000205481548110611412577f4e487b7100000000000000000000000000000000000000000000000000000000600052603260045260246000fd5b90600052602060002090600202016001016040518263ffffffff1660e01b815260040161143f9190612a3e565b60206040518083038186803b15801561145757600080fd5b505afa15801561146b573d6000803e3d6000fd5b505050506040513d601f19601f8201168201806040525081019061148f91906122e9565b73ffffffffffffffffffffffffffffffffffffffff163373ffffffffffffffffffffffffffffffffffffffff16146114fc576040517f08c379a00000000000000000000000000000000000000000000000000000000081526004016114f390612ba0565b60405180910390fd5b60006001600260008573ffffffffffffffffffffffffffffffffffffffff1673ffffffffffffffffffffffffffffffffffffffff1681526020019081526020016000205461154a9190612d6f565b9050600060018281548110611588577f4e487b7100000000000000000000000000000000000000000000000000000000600052603260045260246000fd5b906000526020600020906002020160010180546115a490612e5b565b80601f01602080910402602001604051908101604052809291908181526020018280546115d090612e5b565b801561161d5780601f106115f25761010080835404028352916020019161161d565b820191906000526020600020905b81548152906001019060200180831161160057829003601f168201915b50505050509050600260008573ffffffffffffffffffffffffffffffffffffffff1673ffffffffffffffffffffffffffffffffffffffff168152602001908152602001600020600090556003816040516116779190612960565b90815260200160405180910390206000905560006001808054905061169c9190612d6f565b90506000600182815481106116da577f4e487b7100000000000000000000000000000000000000000000000000000000600052603260045260246000fd5b906000526020600020906002020160000160009054906101000a900473ffffffffffffffffffffffffffffffffffffffff16905060018281548110611748577f4e487b7100000000000000000000000000000000000000000000000000000000600052603260045260246000fd5b906000526020600020906002020160018581548110611790577f4e487b7100000000000000000000000000000000000000000000000000000000600052603260045260246000fd5b90600052602060002090600202016000820160009054906101000a900473ffffffffffffffffffffffffffffffffffffffff168160000160006101000a81548173ffffffffffffffffffffffffffffffffffffffff021916908373ffffffffffffffffffffffffffffffffffffffff160217905550600182018160010190805461181990612e5b565b611824929190612105565b509050506001846118359190612d19565b600260008373ffffffffffffffffffffffffffffffffffffffff1673ffffffffffffffffffffffffffffffffffffffff168152602001908152602001600020819055506001846118859190612d19565b6003600184815481106118c1577f4e487b7100000000000000000000000000000000000000000000000000000000600052603260045260246000fd5b90600052602060002090600202016001016040516118df9190612977565b9081526020016040518091039020819055506001805480611929577f4e487b7100000000000000000000000000000000000000000000000000000000600052603160045260246000fd5b6001900381819060005260206000209060020201600080820160006101000a81549073ffffffffffffffffffffffffffffffffffffffff02191690556001820160006119759190612192565b505090558573ffffffffffffffffffffffffffffffffffffffff167f28396d1fabed6609301bc39be12fb83c36ef88bb22fd01e7e40882caea308bf3846040516119bf9190612a1c565b60405180910390a26001945050505050919050565b60606001805480602002602001604051908101604052809291908181526020016000905b82821015611b1257838290600052602060002090600202016040518060400160405290816000820160009054906101000a900473ffffffffffffffffffffffffffffffffffffffff1673ffffffffffffffffffffffffffffffffffffffff1673ffffffffffffffffffffffffffffffffffffffff168152602001600182018054611a8190612e5b565b80601f0160208091040260200160405190810160405280929190818152602001828054611aad90612e5b565b8015611afa5780601f10611acf57610100808354040283529160200191611afa565b820191906000526020600020905b815481529060010190602001808311611add57829003601f168201915b505050505081525050815260200190600101906119f8565b50505050905090565b600560009054906101000a900473ffffffffffffffffffffffffffffffffffffffff1681565b6000611b69836000018373ffffffffffffffffffffffffffffffffffffffff1660001b611d57565b905092915050565b600033905090565b611ba081600080858152602001908152602001600020600001611b4190919063ffffffff16565b15611c0857611bad611b71565b73ffffffffffffffffffffffffffffffffffffffff168173ffffffffffffffffffffffffffffffffffffffff16837f2f8788117e7eff1d82e926ec794901d17c78024a50270940304540a733656f0d60405160405180910390a45b5050565b611c3381600080858152602001908152602001600020600001611dc790919063ffffffff16565b15611c9b57611c40611b71565b73ffffffffffffffffffffffffffffffffffffffff168173ffffffffffffffffffffffffffffffffffffffff16837ff6391f5c32d9c69d2a47ea670b442974b53935d1edc7fd64eb21e047a839171b60405160405180910390a45b5050565b600081604051602001611cb29190612960565b6040516020818303038152906040528051906020012083604051602001611cd99190612960565b6040516020818303038152906040528051906020012014905092915050565b6000611d078360000183611df7565b60001c905092915050565b6000611d3a836000018373ffffffffffffffffffffffffffffffffffffffff1660001b611e91565b905092915050565b6000611d5082600001611eb4565b9050919050565b6000611d638383611e91565b611dbc578260000182908060018154018082558091505060019003906000526020600020016000909190919091505582600001805490508360010160008481526020019081526020016000208190555060019050611dc1565b600090505b92915050565b6000611def836000018373ffffffffffffffffffffffffffffffffffffffff1660001b611ec5565b905092915050565b600081836000018054905011611e42576040517f08c379a0000000000000000000000000000000000000000000000000000000008152600401611e3990612a60565b60405180910390fd5b826000018281548110611e7e577f4e487b7100000000000000000000000000000000000000000000000000000000600052603260045260246000fd5b9060005260206000200154905092915050565b600080836001016000848152602001908152602001600020541415905092915050565b600081600001805490509050919050565b60008083600101600084815260200190815260200160002054905060008114612043576000600182611ef79190612d6f565b9050600060018660000180549050611f0f9190612d6f565b90506000866000018281548110611f4f577f4e487b7100000000000000000000000000000000000000000000000000000000600052603260045260246000fd5b9060005260206000200154905080876000018481548110611f99577f4e487b7100000000000000000000000000000000000000000000000000000000600052603260045260246000fd5b9060005260206000200181905550600183611fb49190612d19565b8760010160008381526020019081526020016000208190555086600001805480612007577f4e487b7100000000000000000000000000000000000000000000000000000000600052603160045260246000fd5b60019003818190600052602060002001600090559055866001016000878152602001908152602001600020600090556001945050505050612049565b60009150505b92915050565b6040518060400160405280600073ffffffffffffffffffffffffffffffffffffffff168152602001606081525090565b82805461208b90612e5b565b90600052602060002090601f0160209004810192826120ad57600085556120f4565b82601f106120c657805160ff19168380011785556120f4565b828001600101855582156120f4579182015b828111156120f35782518255916020019190600101906120d8565b5b50905061210191906121d2565b5090565b82805461211190612e5b565b90600052602060002090601f0160209004810192826121335760008555612181565b82601f106121445780548555612181565b8280016001018555821561218157600052602060002091601f016020900482015b82811115612180578254825591600101919060010190612165565b5b50905061218e91906121d2565b5090565b50805461219e90612e5b565b6000825580601f106121b057506121cf565b601f0160209004906000526020600020908101906121ce91906121d2565b5b50565b5b808211156121eb5760008160009055506001016121d3565b5090565b60006122026121fd84612c62565b612c3d565b90508281526020810184848401111561221a57600080fd5b612225848285612e19565b509392505050565b60008135905061223c8161322f565b92915050565b6000815190506122518161322f565b92915050565b60008151905061226681613246565b92915050565b60008135905061227b8161325d565b92915050565b600082601f83011261229257600080fd5b81356122a28482602086016121ef565b91505092915050565b6000813590506122ba81613274565b92915050565b6000602082840312156122d257600080fd5b60006122e08482850161222d565b91505092915050565b6000602082840312156122fb57600080fd5b600061230984828501612242565b91505092915050565b6000806040838503121561232557600080fd5b60006123338582860161222d565b925050602083013567ffffffffffffffff81111561235057600080fd5b61235c85828601612281565b9150509250929050565b60006020828403121561237857600080fd5b600061238684828501612257565b91505092915050565b6000602082840312156123a157600080fd5b60006123af8482850161226c565b91505092915050565b600080604083850312156123cb57600080fd5b60006123d98582860161226c565b92505060206123ea8582860161222d565b9150509250929050565b6000806040838503121561240757600080fd5b60006124158582860161226c565b9250506020612426858286016122ab565b9150509250929050565b60006020828403121561244257600080fd5b600082013567ffffffffffffffff81111561245c57600080fd5b61246884828501612281565b91505092915050565b60006020828403121561248357600080fd5b6000612491848285016122ab565b91505092915050565b60006124a683836128d7565b905092915050565b6124b781612da3565b82525050565b6124c681612da3565b82525050565b60006124d782612cb8565b6124e18185612cdb565b9350836020820285016124f385612c93565b8060005b8581101561252f5784840389528151612510858261249a565b945061251b83612cce565b925060208a019950506001810190506124f7565b50829750879550505050505092915050565b61254a81612db5565b82525050565b61255981612dc1565b82525050565b61256881612df5565b82525050565b600061257982612cc3565b6125838185612cec565b9350612593818560208601612e28565b61259c81612f4b565b840191505092915050565b60006125b282612cc3565b6125bc8185612cfd565b93506125cc818560208601612e28565b6125d581612f4b565b840191505092915050565b60006125eb82612cc3565b6125f58185612d0e565b9350612605818560208601612e28565b80840191505092915050565b6000815461261e81612e5b565b6126288186612cfd565b94506001821660008114612643576001811461265557612688565b60ff1983168652602086019350612688565b61265e85612ca3565b60005b8381101561268057815481890152600182019150602081019050612661565b808801955050505b50505092915050565b6000815461269e81612e5b565b6126a88186612d0e565b945060018216600081146126c357600181146126d457612707565b60ff19831686528186019350612707565b6126dd85612ca3565b60005b838110156126ff578154818901526001820191506020810190506126e0565b838801955050505b50505092915050565b600061271d602283612cfd565b915061272882612f5c565b604082019050919050565b6000612740602f83612cfd565b915061274b82612fab565b604082019050919050565b6000612763603083612cfd565b915061276e82612ffa565b604082019050919050565b6000612786600f83612cfd565b915061279182613049565b602082019050919050565b60006127a9601283612cfd565b91506127b482613072565b602082019050919050565b60006127cc601283612cfd565b91506127d78261309b565b602082019050919050565b60006127ef601283612cfd565b91506127fa826130c4565b602082019050919050565b6000612812600e83612cfd565b915061281d826130ed565b602082019050919050565b6000612835601c83612cfd565b915061284082613116565b602082019050919050565b6000612858600e83612cfd565b91506128638261313f565b602082019050919050565b600061287b602883612cfd565b915061288682613168565b604082019050919050565b600061289e600c83612cfd565b91506128a9826131b7565b602082019050919050565b60006128c1602f83612cfd565b91506128cc826131e0565b604082019050919050565b60006040830160008301516128ef60008601826124ae565b5060208301518482036020860152612907828261256e565b9150508091505092915050565b600060408301600083015161292c60008601826124ae565b5060208301518482036020860152612944828261256e565b9150508091505092915050565b61295a81612deb565b82525050565b600061296c82846125e0565b915081905092915050565b60006129838284612691565b915081905092915050565b60006020820190506129a360008301846124bd565b92915050565b600060208201905081810360008301526129c381846124cc565b905092915050565b60006020820190506129e06000830184612541565b92915050565b60006020820190506129fb6000830184612550565b92915050565b6000602082019050612a16600083018461255f565b92915050565b60006020820190508181036000830152612a3681846125a7565b905092915050565b60006020820190508181036000830152612a588184612611565b905092915050565b60006020820190508181036000830152612a7981612710565b9050919050565b60006020820190508181036000830152612a9981612733565b9050919050565b60006020820190508181036000830152612ab981612756565b9050919050565b60006020820190508181036000830152612ad981612779565b9050919050565b60006020820190508181036000830152612af98161279c565b9050919050565b60006020820190508181036000830152612b19816127bf565b9050919050565b60006020820190508181036000830152612b39816127e2565b9050919050565b60006020820190508181036000830152612b5981612805565b9050919050565b60006020820190508181036000830152612b7981612828565b9050919050565b60006020820190508181036000830152612b998161284b565b9050919050565b60006020820190508181036000830152612bb98161286e565b9050919050565b60006020820190508181036000830152612bd981612891565b9050919050565b60006020820190508181036000830152612bf9816128b4565b9050919050565b60006020820190508181036000830152612c1a8184612914565b905092915050565b6000602082019050612c376000830184612951565b92915050565b6000612c47612c58565b9050612c538282612e8d565b919050565b6000604051905090565b600067ffffffffffffffff821115612c7d57612c7c612f1c565b5b612c8682612f4b565b9050602081019050919050565b6000819050602082019050919050565b60008190508160005260206000209050919050565b600081519050919050565b600081519050919050565b6000602082019050919050565b600082825260208201905092915050565b600082825260208201905092915050565b600082825260208201905092915050565b600081905092915050565b6000612d2482612deb565b9150612d2f83612deb565b9250827fffffffffffffffffffffffffffffffffffffffffffffffffffffffffffffffff03821115612d6457612d63612ebe565b5b828201905092915050565b6000612d7a82612deb565b9150612d8583612deb565b925082821015612d9857612d97612ebe565b5b828203905092915050565b6000612dae82612dcb565b9050919050565b60008115159050919050565b6000819050919050565b600073ffffffffffffffffffffffffffffffffffffffff82169050919050565b6000819050919050565b6000612e0082612e07565b9050919050565b6000612e1282612dcb565b9050919050565b82818337600083830152505050565b60005b83811015612e46578082015181840152602081019050612e2b565b83811115612e55576000848401525b50505050565b60006002820490506001821680612e7357607f821691505b60208210811415612e8757612e86612eed565b5b50919050565b612e9682612f4b565b810181811067ffffffffffffffff82111715612eb557612eb4612f1c565b5b80604052505050565b7f4e487b7100000000000000000000000000000000000000000000000000000000600052601160045260246000fd5b7f4e487b7100000000000000000000000000000000000000000000000000000000600052602260045260246000fd5b7f4e487b7100000000000000000000000000000000000000000000000000000000600052604160045260246000fd5b6000601f19601f8301169050919050565b7f456e756d657261626c655365743a20696e646578206f7574206f6620626f756e60008201527f6473000000000000000000000000000000000000000000000000000000000000602082015250565b7f416363657373436f6e74726f6c3a2073656e646572206d75737420626520616e60008201527f2061646d696e20746f206772616e740000000000000000000000000000000000602082015250565b7f416363657373436f6e74726f6c3a2073656e646572206d75737420626520616e60008201527f2061646d696e20746f207265766f6b6500000000000000000000000000000000602082015250565b7f696e76616c696420616464726573730000000000000000000000000000000000600082015250565b7f70726f6a656374206e6f74206163746976650000000000000000000000000000600082015250565b7f61646472657373206e6f74206578697374730000000000000000000000000000600082015250565b7f70726f6a656374206e6f74206578697374730000000000000000000000000000600082015250565b7f70726f6a65637420657869737473000000000000000000000000000000000000600082015250565b7f53747564656e74506f7274666f6c696f3a206f6e6c79206f776e657200000000600082015250565b7f6164647265737320657869737473000000000000000000000000000000000000600082015250565b7f4f6e6c79204d61737465722063616e206164642070726f6a65637420696e207060008201527f6f7274666f6c696f000000000000000000000000000000000000000000000000602082015250565b7f696e76616c6964206e616d650000000000000000000000000000000000000000600082015250565b7f416363657373436f6e74726f6c3a2063616e206f6e6c792072656e6f756e636560008201527f20726f6c657320666f722073656c660000000000000000000000000000000000602082015250565b61323881612da3565b811461324357600080fd5b50565b61324f81612db5565b811461325a57600080fd5b50565b61326681612dc1565b811461327157600080fd5b50565b61327d81612deb565b811461328857600080fd5b5056fea26469706673582212209f10f061cb41dd17c5eb9f05a11f8ce4f61428b2372d606f6c37a7d144ca5b5064736f6c63430008010033a2646970667358221220d347debc3e02fb6feeb5dc9696f58f8855da54bbe4b27ef0462b7a884b145c2964736f6c63430008010033",
  "immutableReferences": {},
  "source": "// SPDX-License-Identifier: MIT\r\npragma solidity 0.8.1;\r\n\r\n//import \"https://github.com/OpenZeppelin/openzeppelin-contracts/blob/master/contracts/access/AccessControl.sol\";\r\n//import '@openzeppelin/contracts/access/AccessControl.sol';\r\nimport './oz-contracts/access/AccessControl.sol';\r\n\r\n\r\nstruct StudentStruct {\r\n    uint index;\r\n    address ownerAddress;\r\n    address portfolioAddress;\r\n    address activeClass;\r\n    address[] studentClasses;\r\n}\r\n\r\nstruct ProjectStruct {\r\n    bool active;\r\n    address master;\r\n    string name;\r\n    string description;\r\n    string ABI;\r\n    string sourceCode;\r\n}\r\n\r\ninterface iName {\r\n    //function owner() external returns (address);\r\n    //function getName() external view returns (string memory);\r\n}\r\n\r\ninterface iAcademyClass {\r\n    function addStudent (address account) external returns (bool);\r\n    function isStudent (address account) external view returns (bool);\r\n}\r\n\r\ninterface iAcademyProjectList {\r\n   function exists(string memory name) external view returns (bool);\r\n    function isActive(string memory name) external view returns (bool);\r\n    function getProjectByName (string memory name_) external view returns (ProjectStruct memory);\r\n    function getMasterAddressByName (string memory name_) external view returns (address);\r\n}\r\n\r\n\r\ncontract AcademyStudents is AccessControl {\r\n\r\n    address public projectListAddress;\r\n    bool active;\r\n\r\n    mapping(address => StudentStruct) private studentInfo;\r\n    address[] private studentIndex;\r\n    mapping(address => mapping (address=>bool) ) private studentClassSubscribed;\r\n    \r\n    constructor(address addressProjectList) {\r\n        _setupRole(DEFAULT_ADMIN_ROLE, msg.sender);\r\n        active = true;\r\n        projectListAddress = addressProjectList;\r\n    }\r\n\r\n    event StudentCreated(address indexed studentAddress);\r\n    event StudentRemoved(address indexed studentAddress);\r\n    event StudentSubscribed(address indexed classAddress, address indexed studentAddress);\r\n    event StudentClassSelected(address indexed classAddress, address indexed studentAddress);\r\n    \r\n    modifier onlyOwner() {\r\n        require(hasRole(DEFAULT_ADMIN_ROLE, msg.sender), \"AcademyStudents: only owner\");\r\n        _;\r\n    }\r\n    \r\n    modifier onlyActive() {\r\n        require(active, \"AcademyStudents: not active\");\r\n        _;\r\n    } \r\n\r\n    function addStudent (address account) public onlyOwner onlyActive returns (uint256) {\r\n        uint256 indexStudent;\r\n        if (!isStudent(account)) {\r\n            indexStudent = _addStudent(account);\r\n        }\r\n        \r\n        //Portfolio created for each student\r\n        StudentPortfolio p = new StudentPortfolio (account, projectListAddress);\r\n        studentInfo[account].portfolioAddress = address(p);\r\n        \r\n        return indexStudent;\r\n    }\r\n    \r\n    function _addStudent (address account) private returns (uint256) {\r\n        if (isStudent(account))\r\n            return 0;\r\n        //require (!isStudent(account), \"student already exists\");\r\n        \r\n        studentInfo[account].ownerAddress = account;\r\n        studentIndex.push(account);\r\n        uint256 index = studentIndex.length - 1;\r\n        studentInfo[account].index = index;\r\n        \r\n        emit StudentCreated(account);\r\n        return index;\r\n    }\r\n    \r\n    function delStudent (address account) public onlyOwner onlyActive returns (bool) {\r\n        _delStudent(account);\r\n        return true;\r\n    }\r\n    \r\n    function _delStudent (address account) private returns (bool) {\r\n        if (!isStudent(account))\r\n            return false;\r\n        //require (isStudent(account), \"student not exists\");\r\n        \r\n        uint indexToDelete = studentInfo[account].index;\r\n        address keyToMove = studentIndex[studentIndex.length-1];\r\n        studentIndex[indexToDelete] = keyToMove;\r\n        studentInfo[keyToMove].index = indexToDelete;\r\n        \r\n        delete studentInfo[account];\r\n        studentIndex.pop();\r\n        \r\n        //Mantm o Portfolio do estudante?\r\n\r\n        emit StudentRemoved(account);\r\n        return true;\r\n    }\r\n\r\n    function addClass (address account, address classAddress) public onlyOwner onlyActive returns (bool) {\r\n        if (!isStudent(account)) \r\n            return false;\r\n\r\n        //Verificar se ele j est inscrito nesta classe\r\n        if (!studentClassSubscribed[account][classAddress]) {\r\n            studentInfo[account].studentClasses.push(classAddress);\r\n            studentClassSubscribed[account][classAddress] = true;\r\n        }\r\n        \r\n        emit StudentSubscribed(classAddress, account);\r\n        return true;\r\n    }\r\n\r\n    function updateActiveClass (address classAddress) public returns (bool) {\r\n        return _updateActiveClass(msg.sender, classAddress);\r\n    }\r\n    \r\n    function updateStudentActiveClass (address account, address classAddress) public onlyOwner returns (bool) {\r\n        return _updateActiveClass(account, classAddress);\r\n    }\r\n\r\n    function _updateActiveClass (address account, address classAddress) public onlyActive returns (bool) {\r\n        if (!isStudent(account))\r\n            return false;\r\n        studentInfo[account].activeClass = classAddress;\r\n        emit StudentClassSelected(classAddress, account);\r\n        return true;\r\n    }\r\n\r\n    function changeActive () public onlyOwner returns (bool) {\r\n        active = !active;\r\n        return active;\r\n    }\r\n\r\n    function updateProjectListAddress (address addressProjectList) public onlyOwner returns (bool) {\r\n        projectListAddress = addressProjectList;\r\n        return true;\r\n    }\r\n    \r\n    function isStudent(address account) public view returns (bool) {\r\n        if(studentIndex.length == 0) return false;\r\n        return (studentIndex[studentInfo[account].index] == account);\r\n    }\r\n    \r\n    function getStudentByAddress (address account) public view returns (StudentStruct memory) {\r\n        if (!isStudent(account)) {\r\n            StudentStruct memory s;\r\n            return s;\r\n        }\r\n        else \r\n            return studentInfo[account];\r\n    }\r\n\r\n    function countStudents () public view returns (uint256) {\r\n        return studentIndex.length;\r\n    }\r\n    \r\n    function listStudents () public view returns (address[] memory) {\r\n        return studentIndex;\r\n    }\r\n\r\n    function compareStrings(string memory a, string memory b) private pure returns (bool) {\r\n        return (keccak256(abi.encodePacked((a))) == keccak256(abi.encodePacked((b))));\r\n    }\r\n\r\n}\r\n\r\n\r\ncontract StudentPortfolio is AccessControl {\r\n    //One StudentPortfolio per Student\r\n    \r\n    struct PortfolioStruct {\r\n        address projectAddress; // Key\r\n        //iAcademyProjects.ProjectStruct name;\r\n        string name;    // Key for iAcademyProjects.ProjectStruct\r\n    }\r\n    PortfolioStruct[] private portfolioProjects;\r\n    \r\n    mapping(address => uint256) private addressIndex;\r\n    mapping(string => uint256) private nameIndex;\r\n\r\n    address public student;\r\n    //address public projectList;\r\n    iAcademyProjectList public projectList;\r\n    \r\n    constructor(address account, address addressProjectList) {\r\n        _setupRole(DEFAULT_ADMIN_ROLE, msg.sender);\r\n        student = account;\r\n        //projectList = addressProjectList;\r\n        projectList = iAcademyProjectList(addressProjectList);\r\n        \r\n        //addProject(0xAb8483F64d9C6d1EcF9b849Ae677dD3315835cb2,\"P1\");\r\n    }\r\n\r\n    event PortfolioProjectAdded(address indexed projectAddress, string projectName);\r\n    event PortfolioProjectDeleted(address indexed projectAddress, string projectName);\r\n\r\n    modifier onlyOwner() {\r\n        require(hasRole(DEFAULT_ADMIN_ROLE, msg.sender), \"StudentPortfolio: only owner\");\r\n        _;\r\n    }\r\n    \r\n    modifier onlyOwnerOrStudent() {\r\n        require(hasRole(DEFAULT_ADMIN_ROLE, msg.sender) || (msg.sender == student), \"StudentPortfolio: only student or owner\");\r\n        _;\r\n    }\r\n\r\n    function addProject (address projectAddress, string memory projectName) public returns(uint256) {\r\n        //Owners sero os Masters ou Academy. Somente eles podem adicionar projetos, porque validam cada projeto antes de adicionar.\r\n        //melhor somente Academy pode adicionar, Masters chamam Academy\r\n        require (!compareStrings(projectName, \"\"), \"invalid name\");\r\n        require (!(projectAddress == address(0x0)), \"invalid address\");\r\n        require (projectList.exists(projectName), \"project not exists\");\r\n        require (projectList.isActive(projectName), \"project not active\");\r\n        require(msg.sender == projectList.getMasterAddressByName(projectName), \"Only Master can add project in portfolio\");\r\n        \r\n        // O estudante pode ter mais de um address por projeto? NO\r\n        require (!addressInPortfolio(projectAddress), \"address exists\");\r\n        require (!nameInPortfolio(projectName), \"project exists\");\r\n\r\n        PortfolioStruct memory p;\r\n        p.projectAddress = projectAddress;\r\n        p.name = projectName;\r\n\r\n        portfolioProjects.push(p);\r\n        uint256 index = portfolioProjects.length; \r\n        addressIndex[projectAddress] = index;\r\n        nameIndex[projectName] = index;\r\n\r\n        emit PortfolioProjectAdded(projectAddress, projectName);\r\n        return index;\r\n    }\r\n    \r\n    function deleteProjectByAddress (address projectAddress) public returns (bool) {\r\n        //Se o estudante no gostar do seu projeto, pode apag-lo para submete-lo novamente.\r\n        //onlyOwnerOrStudent\r\n        require (!(projectAddress == address(0x0)), \"invalid address\");\r\n        require (addressInPortfolio(projectAddress), \"address not exists\");\r\n\r\n        //Porm, dependendo do projeto, ele ter que apagar no MasterProject.\r\n        //Definir que um projeto s pode ser apagado em seu MasterProject? SIM!        \r\n        require(msg.sender == projectList.getMasterAddressByName(portfolioProjects[addressIndex[projectAddress]].name), \r\n            \"Only Master can add project in portfolio\");\r\n\r\n        \r\n        uint256 indexToDelete = addressIndex[projectAddress]-1;\r\n        string memory nameToDelete =  portfolioProjects[indexToDelete].name;\r\n        delete addressIndex[projectAddress];\r\n        delete nameIndex[nameToDelete];\r\n        \r\n        uint256 indexToMove = portfolioProjects.length-1;\r\n        address keyToMove = portfolioProjects[indexToMove].projectAddress;\r\n        portfolioProjects[indexToDelete] = portfolioProjects[indexToMove];\r\n        addressIndex[keyToMove] = indexToDelete+1;\r\n        nameIndex[portfolioProjects[indexToMove].name] = indexToDelete+1;\r\n        portfolioProjects.pop();\r\n\r\n        emit PortfolioProjectDeleted(projectAddress, nameToDelete);\r\n        return true;\r\n    }\r\n \r\n    function updateProjectList (address addressProjectList) public onlyOwner returns (bool) {\r\n        projectList = iAcademyProjectList(addressProjectList);\r\n        return true;\r\n    }\r\n\r\n    function addressInPortfolio (address projectAddress) public view returns (bool) {\r\n        //if(portfolioProjects.length == 0) return false;\r\n        \r\n        if (addressIndex[projectAddress] == 0)\r\n            return false;\r\n        else\r\n            return true;\r\n    }\r\n\r\n    function nameInPortfolio (string memory projectName) public view returns (bool) {\r\n        if (nameIndex[projectName] == 0)\r\n            return false;\r\n        else\r\n            return true;\r\n    }\r\n    \r\n    function listPortfolio () public view returns (PortfolioStruct[] memory) {\r\n        return (portfolioProjects);\r\n    }\r\n    \r\n    function countPortfolio () public view returns (uint) {\r\n        return (portfolioProjects.length);\r\n    }\r\n\r\n    function projectByName (string memory projectName) public view returns (PortfolioStruct memory) {\r\n        return portfolioProjects[nameIndex[projectName]-1];\r\n    }\r\n    \r\n    function projectByAddress (address projectAddress) public view returns (PortfolioStruct memory) {\r\n        return portfolioProjects[addressIndex[projectAddress]-1];\r\n    }\r\n    \r\n    function projectByIndex (uint256 index) public view returns (PortfolioStruct memory) {\r\n        return portfolioProjects[index-1];\r\n    }    \r\n\r\n    function indexOfProject (address projectAddress) public view returns (uint) {\r\n        return addressIndex[projectAddress];\r\n    }\r\n    \r\n    function compareStrings(string memory a, string memory b) private pure returns (bool) {\r\n        return (keccak256(abi.encodePacked((a))) == keccak256(abi.encodePacked((b))));\r\n    }\r\n    \r\n}\r\n\r\n",
  "sourcePath": "C:/ACADEMY/GITHUB/rsk-academy-dapp/contracts/AcademyStudents.sol",
  "compiler": {
    "name": "solc",
    "version": "0.8.1+commit.df193b15.Emscripten.clang"
  },
  "schemaVersion": "3.3.4",
  "updatedAt": "2021-02-19T18:39:16.448Z",
  "networkType": "ethereum",
  "devdoc": {
    "kind": "dev",
    "methods": {
      "getRoleAdmin(bytes32)": {
        "details": "Returns the admin role that controls `role`. See {grantRole} and {revokeRole}. To change a role's admin, use {_setRoleAdmin}."
      },
      "getRoleMember(bytes32,uint256)": {
        "details": "Returns one of the accounts that have `role`. `index` must be a value between 0 and {getRoleMemberCount}, non-inclusive. Role bearers are not sorted in any particular way, and their ordering may change at any point. WARNING: When using {getRoleMember} and {getRoleMemberCount}, make sure you perform all queries on the same block. See the following https://forum.openzeppelin.com/t/iterating-over-elements-on-enumerableset-in-openzeppelin-contracts/2296[forum post] for more information."
      },
      "getRoleMemberCount(bytes32)": {
        "details": "Returns the number of accounts that have `role`. Can be used together with {getRoleMember} to enumerate all bearers of a role."
      },
      "grantRole(bytes32,address)": {
        "details": "Grants `role` to `account`. If `account` had not been already granted `role`, emits a {RoleGranted} event. Requirements: - the caller must have ``role``'s admin role."
      },
      "hasRole(bytes32,address)": {
        "details": "Returns `true` if `account` has been granted `role`."
      },
      "renounceRole(bytes32,address)": {
        "details": "Revokes `role` from the calling account. Roles are often managed via {grantRole} and {revokeRole}: this function's purpose is to provide a mechanism for accounts to lose their privileges if they are compromised (such as when a trusted device is misplaced). If the calling account had been granted `role`, emits a {RoleRevoked} event. Requirements: - the caller must be `account`."
      },
      "revokeRole(bytes32,address)": {
        "details": "Revokes `role` from `account`. If `account` had been granted `role`, emits a {RoleRevoked} event. Requirements: - the caller must have ``role``'s admin role."
      }
    },
    "version": 1
  },
  "userdoc": {
    "kind": "user",
    "methods": {},
    "version": 1
  }
}