{
  "contractName": "AcademyProjectList",
  "abi": [
    {
      "inputs": [],
      "stateMutability": "nonpayable",
      "type": "constructor"
    },
    {
      "anonymous": false,
      "inputs": [
        {
          "indexed": false,
          "internalType": "string",
          "name": "name",
          "type": "string"
        },
        {
          "indexed": false,
          "internalType": "string",
          "name": "description",
          "type": "string"
        }
      ],
      "name": "ProjectAdded",
      "type": "event"
    },
    {
      "anonymous": false,
      "inputs": [
        {
          "indexed": false,
          "internalType": "string",
          "name": "name",
          "type": "string"
        }
      ],
      "name": "ProjectDeleted",
      "type": "event"
    },
    {
      "anonymous": false,
      "inputs": [
        {
          "indexed": false,
          "internalType": "string",
          "name": "name",
          "type": "string"
        },
        {
          "indexed": false,
          "internalType": "string",
          "name": "description",
          "type": "string"
        },
        {
          "indexed": true,
          "internalType": "address",
          "name": "master",
          "type": "address"
        },
        {
          "indexed": false,
          "internalType": "bool",
          "name": "active",
          "type": "bool"
        }
      ],
      "name": "ProjectUpdated",
      "type": "event"
    },
    {
      "anonymous": false,
      "inputs": [
        {
          "indexed": true,
          "internalType": "bytes32",
          "name": "role",
          "type": "bytes32"
        },
        {
          "indexed": true,
          "internalType": "bytes32",
          "name": "previousAdminRole",
          "type": "bytes32"
        },
        {
          "indexed": true,
          "internalType": "bytes32",
          "name": "newAdminRole",
          "type": "bytes32"
        }
      ],
      "name": "RoleAdminChanged",
      "type": "event"
    },
    {
      "anonymous": false,
      "inputs": [
        {
          "indexed": true,
          "internalType": "bytes32",
          "name": "role",
          "type": "bytes32"
        },
        {
          "indexed": true,
          "internalType": "address",
          "name": "account",
          "type": "address"
        },
        {
          "indexed": true,
          "internalType": "address",
          "name": "sender",
          "type": "address"
        }
      ],
      "name": "RoleGranted",
      "type": "event"
    },
    {
      "anonymous": false,
      "inputs": [
        {
          "indexed": true,
          "internalType": "bytes32",
          "name": "role",
          "type": "bytes32"
        },
        {
          "indexed": true,
          "internalType": "address",
          "name": "account",
          "type": "address"
        },
        {
          "indexed": true,
          "internalType": "address",
          "name": "sender",
          "type": "address"
        }
      ],
      "name": "RoleRevoked",
      "type": "event"
    },
    {
      "inputs": [],
      "name": "DEFAULT_ADMIN_ROLE",
      "outputs": [
        {
          "internalType": "bytes32",
          "name": "",
          "type": "bytes32"
        }
      ],
      "stateMutability": "view",
      "type": "function",
      "constant": true
    },
    {
      "inputs": [
        {
          "internalType": "bytes32",
          "name": "role",
          "type": "bytes32"
        }
      ],
      "name": "getRoleAdmin",
      "outputs": [
        {
          "internalType": "bytes32",
          "name": "",
          "type": "bytes32"
        }
      ],
      "stateMutability": "view",
      "type": "function",
      "constant": true
    },
    {
      "inputs": [
        {
          "internalType": "bytes32",
          "name": "role",
          "type": "bytes32"
        },
        {
          "internalType": "uint256",
          "name": "index",
          "type": "uint256"
        }
      ],
      "name": "getRoleMember",
      "outputs": [
        {
          "internalType": "address",
          "name": "",
          "type": "address"
        }
      ],
      "stateMutability": "view",
      "type": "function",
      "constant": true
    },
    {
      "inputs": [
        {
          "internalType": "bytes32",
          "name": "role",
          "type": "bytes32"
        }
      ],
      "name": "getRoleMemberCount",
      "outputs": [
        {
          "internalType": "uint256",
          "name": "",
          "type": "uint256"
        }
      ],
      "stateMutability": "view",
      "type": "function",
      "constant": true
    },
    {
      "inputs": [
        {
          "internalType": "bytes32",
          "name": "role",
          "type": "bytes32"
        },
        {
          "internalType": "address",
          "name": "account",
          "type": "address"
        }
      ],
      "name": "grantRole",
      "outputs": [],
      "stateMutability": "nonpayable",
      "type": "function"
    },
    {
      "inputs": [
        {
          "internalType": "bytes32",
          "name": "role",
          "type": "bytes32"
        },
        {
          "internalType": "address",
          "name": "account",
          "type": "address"
        }
      ],
      "name": "hasRole",
      "outputs": [
        {
          "internalType": "bool",
          "name": "",
          "type": "bool"
        }
      ],
      "stateMutability": "view",
      "type": "function",
      "constant": true
    },
    {
      "inputs": [
        {
          "internalType": "bytes32",
          "name": "role",
          "type": "bytes32"
        },
        {
          "internalType": "address",
          "name": "account",
          "type": "address"
        }
      ],
      "name": "renounceRole",
      "outputs": [],
      "stateMutability": "nonpayable",
      "type": "function"
    },
    {
      "inputs": [
        {
          "internalType": "bytes32",
          "name": "role",
          "type": "bytes32"
        },
        {
          "internalType": "address",
          "name": "account",
          "type": "address"
        }
      ],
      "name": "revokeRole",
      "outputs": [],
      "stateMutability": "nonpayable",
      "type": "function"
    },
    {
      "inputs": [
        {
          "internalType": "string",
          "name": "name",
          "type": "string"
        },
        {
          "internalType": "string",
          "name": "description",
          "type": "string"
        }
      ],
      "name": "addProject",
      "outputs": [
        {
          "internalType": "uint256",
          "name": "",
          "type": "uint256"
        }
      ],
      "stateMutability": "nonpayable",
      "type": "function"
    },
    {
      "inputs": [
        {
          "internalType": "string",
          "name": "name",
          "type": "string"
        }
      ],
      "name": "delProject",
      "outputs": [
        {
          "internalType": "bool",
          "name": "",
          "type": "bool"
        }
      ],
      "stateMutability": "nonpayable",
      "type": "function"
    },
    {
      "inputs": [
        {
          "internalType": "string",
          "name": "name",
          "type": "string"
        },
        {
          "internalType": "bool",
          "name": "activeProject",
          "type": "bool"
        },
        {
          "internalType": "address",
          "name": "master",
          "type": "address"
        },
        {
          "internalType": "string",
          "name": "description",
          "type": "string"
        },
        {
          "internalType": "string",
          "name": "ABI",
          "type": "string"
        },
        {
          "internalType": "string",
          "name": "sourceCode",
          "type": "string"
        },
        {
          "internalType": "string",
          "name": "image",
          "type": "string"
        }
      ],
      "name": "updateProjectByName",
      "outputs": [
        {
          "internalType": "bool",
          "name": "",
          "type": "bool"
        }
      ],
      "stateMutability": "nonpayable",
      "type": "function"
    },
    {
      "inputs": [],
      "name": "changeActive",
      "outputs": [
        {
          "internalType": "bool",
          "name": "",
          "type": "bool"
        }
      ],
      "stateMutability": "nonpayable",
      "type": "function"
    },
    {
      "inputs": [
        {
          "internalType": "string",
          "name": "name",
          "type": "string"
        }
      ],
      "name": "exists",
      "outputs": [
        {
          "internalType": "bool",
          "name": "",
          "type": "bool"
        }
      ],
      "stateMutability": "view",
      "type": "function",
      "constant": true
    },
    {
      "inputs": [
        {
          "internalType": "string",
          "name": "name",
          "type": "string"
        }
      ],
      "name": "isActive",
      "outputs": [
        {
          "internalType": "bool",
          "name": "",
          "type": "bool"
        }
      ],
      "stateMutability": "view",
      "type": "function",
      "constant": true
    },
    {
      "inputs": [
        {
          "internalType": "string",
          "name": "name_",
          "type": "string"
        }
      ],
      "name": "getProjectByName",
      "outputs": [
        {
          "components": [
            {
              "internalType": "address",
              "name": "master",
              "type": "address"
            },
            {
              "internalType": "bool",
              "name": "active",
              "type": "bool"
            },
            {
              "internalType": "string",
              "name": "name",
              "type": "string"
            },
            {
              "internalType": "string",
              "name": "description",
              "type": "string"
            },
            {
              "internalType": "string",
              "name": "ABI",
              "type": "string"
            },
            {
              "internalType": "string",
              "name": "sourceCode",
              "type": "string"
            },
            {
              "internalType": "string",
              "name": "image",
              "type": "string"
            }
          ],
          "internalType": "struct ProjectStruct",
          "name": "",
          "type": "tuple"
        }
      ],
      "stateMutability": "view",
      "type": "function",
      "constant": true
    },
    {
      "inputs": [
        {
          "internalType": "string",
          "name": "name_",
          "type": "string"
        }
      ],
      "name": "getMasterAddressByName",
      "outputs": [
        {
          "internalType": "address",
          "name": "",
          "type": "address"
        }
      ],
      "stateMutability": "view",
      "type": "function",
      "constant": true
    },
    {
      "inputs": [
        {
          "internalType": "uint256",
          "name": "index",
          "type": "uint256"
        }
      ],
      "name": "getProjectByIndex",
      "outputs": [
        {
          "components": [
            {
              "internalType": "address",
              "name": "master",
              "type": "address"
            },
            {
              "internalType": "bool",
              "name": "active",
              "type": "bool"
            },
            {
              "internalType": "string",
              "name": "name",
              "type": "string"
            },
            {
              "internalType": "string",
              "name": "description",
              "type": "string"
            },
            {
              "internalType": "string",
              "name": "ABI",
              "type": "string"
            },
            {
              "internalType": "string",
              "name": "sourceCode",
              "type": "string"
            },
            {
              "internalType": "string",
              "name": "image",
              "type": "string"
            }
          ],
          "internalType": "struct ProjectStruct",
          "name": "",
          "type": "tuple"
        }
      ],
      "stateMutability": "view",
      "type": "function",
      "constant": true
    },
    {
      "inputs": [
        {
          "internalType": "string",
          "name": "name_",
          "type": "string"
        }
      ],
      "name": "getIndexByName",
      "outputs": [
        {
          "internalType": "uint256",
          "name": "",
          "type": "uint256"
        }
      ],
      "stateMutability": "view",
      "type": "function",
      "constant": true
    },
    {
      "inputs": [],
      "name": "countProjects",
      "outputs": [
        {
          "internalType": "uint256",
          "name": "",
          "type": "uint256"
        }
      ],
      "stateMutability": "view",
      "type": "function",
      "constant": true
    },
    {
      "inputs": [],
      "name": "listProjects",
      "outputs": [
        {
          "components": [
            {
              "internalType": "address",
              "name": "master",
              "type": "address"
            },
            {
              "internalType": "bool",
              "name": "active",
              "type": "bool"
            },
            {
              "internalType": "string",
              "name": "name",
              "type": "string"
            },
            {
              "internalType": "string",
              "name": "description",
              "type": "string"
            },
            {
              "internalType": "string",
              "name": "ABI",
              "type": "string"
            },
            {
              "internalType": "string",
              "name": "sourceCode",
              "type": "string"
            },
            {
              "internalType": "string",
              "name": "image",
              "type": "string"
            }
          ],
          "internalType": "struct ProjectStruct[]",
          "name": "",
          "type": "tuple[]"
        }
      ],
      "stateMutability": "view",
      "type": "function",
      "constant": true
    }
  ],
  "bytecode": "0x60806040523480156200001157600080fd5b50620000276000801b336200026560201b60201c565b6001600360006101000a81548160ff021916908315150217905550620000a26040518060400160405280600481526020017f4e616d6500000000000000000000000000000000000000000000000000000000815250604051806060016040528060248152602001620040e6602491396200027b60201b60201c565b506200011f6040518060400160405280600881526020017f5069672042616e6b0000000000000000000000000000000000000000000000008152506040518060400160405280602081526020017f736d61727420636f6e747261637420746f20736176652065636f6e6f6d6965738152506200027b60201b60201c565b506200019c6040518060400160405280600581526020017f546f6b656e0000000000000000000000000000000000000000000000000000008152506040518060400160405280601481526020017f4d696e7461626c6520746f6b656e2045524332300000000000000000000000008152506200027b60201b60201c565b50620001fd6040518060400160405280600b81526020017f50686f746f20416c62756d000000000000000000000000000000000000000000815250604051806060016040528060348152602001620040b2603491396200027b60201b60201c565b506200025e6040518060400160405280600481526020017f43525544000000000000000000000000000000000000000000000000000000008152506040518060600160405280602d81526020016200410a602d91396200027b60201b60201c565b5062000af0565b6200027782826200053960201b60201c565b5050565b6000620002926000801b33620005dc60201b60201c565b620002d4576040517f08c379a0000000000000000000000000000000000000000000000000000000008152600401620002cb9062000987565b60405180910390fd5b600360009054906101000a900460ff1662000326576040517f08c379a00000000000000000000000000000000000000000000000000000000081526004016200031d90620009a9565b60405180910390fd5b62000337836200061460201b60201c565b1562000366576002836040516200034f919062000933565b908152602001604051809103902054905062000533565b6200037062000768565b8381604001819052508281606001819052506001816020019015159081151581525050600181908060018154018082558091505060019003906000526020600020906006020160009091909190915060008201518160000160006101000a81548173ffffffffffffffffffffffffffffffffffffffff021916908373ffffffffffffffffffffffffffffffffffffffff16021790555060208201518160000160146101000a81548160ff021916908315150217905550604082015181600101908051906020019062000444929190620007bd565b50606082015181600201908051906020019062000463929190620007bd565b50608082015181600301908051906020019062000482929190620007bd565b5060a0820151816004019080519060200190620004a1929190620007bd565b5060c0820151816005019080519060200190620004c0929190620007bd565b5050506000600180549050905080600286604051620004e0919062000933565b9081526020016040518091039020819055507feb5d6000a362475be9d9b16beddc148b7004850daf2e69325a403d613567769e8585604051620005259291906200094c565b60405180910390a180925050505b92915050565b62000567816000808581526020019081526020016000206000016200065360201b620020241790919060201c565b15620005d8576200057d6200068b60201b60201c565b73ffffffffffffffffffffffffffffffffffffffff168173ffffffffffffffffffffffffffffffffffffffff16837f2f8788117e7eff1d82e926ec794901d17c78024a50270940304540a733656f0d60405160405180910390a45b5050565b60006200060c826000808681526020019081526020016000206000016200069360201b620020541790919060201c565b905092915050565b60008060028360405162000629919062000933565b90815260200160405180910390205414156200064957600090506200064e565b600190505b919050565b600062000683836000018373ffffffffffffffffffffffffffffffffffffffff1660001b620006cb60201b60201c565b905092915050565b600033905090565b6000620006c3836000018373ffffffffffffffffffffffffffffffffffffffff1660001b6200074560201b60201c565b905092915050565b6000620006df83836200074560201b60201c565b6200073a5782600001829080600181540180825580915050600190039060005260206000200160009091909190915055826000018054905083600101600084815260200190815260200160002081905550600190506200073f565b600090505b92915050565b600080836001016000848152602001908152602001600020541415905092915050565b6040518060e00160405280600073ffffffffffffffffffffffffffffffffffffffff16815260200160001515815260200160608152602001606081526020016060815260200160608152602001606081525090565b828054620007cb9062000a28565b90600052602060002090601f016020900481019282620007ef57600085556200083b565b82601f106200080a57805160ff19168380011785556200083b565b828001600101855582156200083b579182015b828111156200083a5782518255916020019190600101906200081d565b5b5090506200084a91906200084e565b5090565b5b80821115620008695760008160009055506001016200084f565b5090565b60006200087a82620009cb565b620008868185620009d6565b935062000898818560208601620009f2565b620008a38162000a8d565b840191505092915050565b6000620008bb82620009cb565b620008c78185620009e7565b9350620008d9818560208601620009f2565b80840191505092915050565b6000620008f4601e83620009d6565b9150620009018262000a9e565b602082019050919050565b60006200091b601e83620009d6565b9150620009288262000ac7565b602082019050919050565b6000620009418284620008ae565b915081905092915050565b600060408201905081810360008301526200096881856200086d565b905081810360208301526200097e81846200086d565b90509392505050565b60006020820190508181036000830152620009a281620008e5565b9050919050565b60006020820190508181036000830152620009c4816200090c565b9050919050565b600081519050919050565b600082825260208201905092915050565b600081905092915050565b60005b8381101562000a12578082015181840152602081019050620009f5565b8381111562000a22576000848401525b50505050565b6000600282049050600182168062000a4157607f821691505b6020821081141562000a585762000a5762000a5e565b5b50919050565b7f4e487b7100000000000000000000000000000000000000000000000000000000600052602260045260246000fd5b6000601f19601f8301169050919050565b7f41636164656d7950726f6a6563744c6973743a206f6e6c79206f776e65720000600082015250565b7f41636164656d7950726f6a6563744c6973743a206e6f74206163746976650000600082015250565b6135b28062000b006000396000f3fe608060405234801561001057600080fd5b506004361061012c5760003560e01c8063980c308d116100ad578063ca15c87311610071578063ca15c873146103a3578063d547741f146103d3578063d7ce9131146103ef578063ecff58df1461041f578063fdab9c901461043d5761012c565b8063980c308d146102d7578063a217fddf14610307578063b4ac0dfc14610325578063c0af858214610343578063c8902a21146103735761012c565b80634b77f269116100f45780634b77f269146101f95780634c962f40146102295780634f491152146102475780639010d07c1461027757806391d14854146102a75761012c565b8063248a9ca314610131578063261a323e146101615780632b7e328a146101915780632f2ff15d146101c157806336568abe146101dd575b600080fd5b61014b6004803603810190610146919061275a565b61046d565b6040516101589190612e64565b60405180910390f35b61017b600480360381019061017691906127fb565b61048c565b6040516101889190612e49565b60405180910390f35b6101ab60048036038101906101a691906129be565b6104c7565b6040516101b8919061301d565b60405180910390f35b6101db60048036038101906101d69190612783565b6108c7565b005b6101f760048036038101906101f29190612783565b61093a565b005b610213600480360381019061020e91906127fb565b6109bd565b604051610220919061301d565b60405180910390f35b610231610de2565b60405161023e9190612e27565b60405180910390f35b610261600480360381019061025c91906127fb565b61118c565b60405161026e9190612e0c565b60405180910390f35b610291600480360381019061028c91906127bf565b611279565b60405161029e9190612e0c565b60405180910390f35b6102c160048036038101906102bc9190612783565b6112aa565b6040516102ce9190612e49565b60405180910390f35b6102f160048036038101906102ec9190612952565b6112db565b6040516102fe919061303f565b60405180910390f35b61030f61156f565b60405161031c9190612e64565b60405180910390f35b61032d611576565b60405161033a9190612e49565b60405180910390f35b61035d600480360381019061035891906127fb565b611603565b60405161036a919061303f565b60405180910390f35b61038d600480360381019061038891906127fb565b61162b565b60405161039a9190612e49565b60405180910390f35b6103bd60048036038101906103b8919061275a565b6116b6565b6040516103ca919061303f565b60405180910390f35b6103ed60048036038101906103e89190612783565b6116dc565b005b610409600480360381019061040491906127fb565b61174f565b6040516104169190612e49565b60405180910390f35b610427611c56565b604051610434919061303f565b60405180910390f35b6104576004803603810190610452919061283c565b611c63565b6040516104649190612e49565b60405180910390f35b6000806000838152602001908152602001600020600201549050919050565b60008060028360405161049f9190612df5565b90815260200160405180910390205414156104bd57600090506104c2565b600190505b919050565b6104cf6124d9565b600180549050821115610517576040517f08c379a000000000000000000000000000000000000000000000000000000000815260040161050e90612f5d565b60405180910390fd5b600180836105259190613177565b8154811061055c577f4e487b7100000000000000000000000000000000000000000000000000000000600052603260045260246000fd5b90600052602060002090600602016040518060e00160405290816000820160009054906101000a900473ffffffffffffffffffffffffffffffffffffffff1673ffffffffffffffffffffffffffffffffffffffff1673ffffffffffffffffffffffffffffffffffffffff1681526020016000820160149054906101000a900460ff161515151581526020016001820180546105f69061323f565b80601f01602080910402602001604051908101604052809291908181526020018280546106229061323f565b801561066f5780601f106106445761010080835404028352916020019161066f565b820191906000526020600020905b81548152906001019060200180831161065257829003601f168201915b505050505081526020016002820180546106889061323f565b80601f01602080910402602001604051908101604052809291908181526020018280546106b49061323f565b80156107015780601f106106d657610100808354040283529160200191610701565b820191906000526020600020905b8154815290600101906020018083116106e457829003601f168201915b5050505050815260200160038201805461071a9061323f565b80601f01602080910402602001604051908101604052809291908181526020018280546107469061323f565b80156107935780601f1061076857610100808354040283529160200191610793565b820191906000526020600020905b81548152906001019060200180831161077657829003601f168201915b505050505081526020016004820180546107ac9061323f565b80601f01602080910402602001604051908101604052809291908181526020018280546107d89061323f565b80156108255780601f106107fa57610100808354040283529160200191610825565b820191906000526020600020905b81548152906001019060200180831161080857829003601f168201915b5050505050815260200160058201805461083e9061323f565b80601f016020809104026020016040519081016040528092919081815260200182805461086a9061323f565b80156108b75780601f1061088c576101008083540402835291602001916108b7565b820191906000526020600020905b81548152906001019060200180831161089a57829003601f168201915b5050505050815250509050919050565b6108ed600080848152602001908152602001600020600201546108e8612084565b6112aa565b61092c576040517f08c379a000000000000000000000000000000000000000000000000000000000815260040161092390612f3d565b60405180910390fd5b610936828261208c565b5050565b610942612084565b73ffffffffffffffffffffffffffffffffffffffff168173ffffffffffffffffffffffffffffffffffffffff16146109af576040517f08c379a00000000000000000000000000000000000000000000000000000000081526004016109a690612ffd565b60405180910390fd5b6109b9828261211f565b5050565b6109c56124d9565b6109ce8261048c565b610a0d576040517f08c379a0000000000000000000000000000000000000000000000000000000008152600401610a0490612fbd565b60405180910390fd5b60006001600284604051610a219190612df5565b908152602001604051809103902054610a3a9190613177565b905060018181548110610a76577f4e487b7100000000000000000000000000000000000000000000000000000000600052603260045260246000fd5b90600052602060002090600602016040518060e00160405290816000820160009054906101000a900473ffffffffffffffffffffffffffffffffffffffff1673ffffffffffffffffffffffffffffffffffffffff1673ffffffffffffffffffffffffffffffffffffffff1681526020016000820160149054906101000a900460ff16151515158152602001600182018054610b109061323f565b80601f0160208091040260200160405190810160405280929190818152602001828054610b3c9061323f565b8015610b895780601f10610b5e57610100808354040283529160200191610b89565b820191906000526020600020905b815481529060010190602001808311610b6c57829003601f168201915b50505050508152602001600282018054610ba29061323f565b80601f0160208091040260200160405190810160405280929190818152602001828054610bce9061323f565b8015610c1b5780601f10610bf057610100808354040283529160200191610c1b565b820191906000526020600020905b815481529060010190602001808311610bfe57829003601f168201915b50505050508152602001600382018054610c349061323f565b80601f0160208091040260200160405190810160405280929190818152602001828054610c609061323f565b8015610cad5780601f10610c8257610100808354040283529160200191610cad565b820191906000526020600020905b815481529060010190602001808311610c9057829003601f168201915b50505050508152602001600482018054610cc69061323f565b80601f0160208091040260200160405190810160405280929190818152602001828054610cf29061323f565b8015610d3f5780601f10610d1457610100808354040283529160200191610d3f565b820191906000526020600020905b815481529060010190602001808311610d2257829003601f168201915b50505050508152602001600582018054610d589061323f565b80601f0160208091040260200160405190810160405280929190818152602001828054610d849061323f565b8015610dd15780601f10610da657610100808354040283529160200191610dd1565b820191906000526020600020905b815481529060010190602001808311610db457829003601f168201915b505050505081525050915050919050565b60606001805480602002602001604051908101604052809291908181526020016000905b8282101561118357838290600052602060002090600602016040518060e00160405290816000820160009054906101000a900473ffffffffffffffffffffffffffffffffffffffff1673ffffffffffffffffffffffffffffffffffffffff1673ffffffffffffffffffffffffffffffffffffffff1681526020016000820160149054906101000a900460ff16151515158152602001600182018054610eaa9061323f565b80601f0160208091040260200160405190810160405280929190818152602001828054610ed69061323f565b8015610f235780601f10610ef857610100808354040283529160200191610f23565b820191906000526020600020905b815481529060010190602001808311610f0657829003601f168201915b50505050508152602001600282018054610f3c9061323f565b80601f0160208091040260200160405190810160405280929190818152602001828054610f689061323f565b8015610fb55780601f10610f8a57610100808354040283529160200191610fb5565b820191906000526020600020905b815481529060010190602001808311610f9857829003601f168201915b50505050508152602001600382018054610fce9061323f565b80601f0160208091040260200160405190810160405280929190818152602001828054610ffa9061323f565b80156110475780601f1061101c57610100808354040283529160200191611047565b820191906000526020600020905b81548152906001019060200180831161102a57829003601f168201915b505050505081526020016004820180546110609061323f565b80601f016020809104026020016040519081016040528092919081815260200182805461108c9061323f565b80156110d95780601f106110ae576101008083540402835291602001916110d9565b820191906000526020600020905b8154815290600101906020018083116110bc57829003601f168201915b505050505081526020016005820180546110f29061323f565b80601f016020809104026020016040519081016040528092919081815260200182805461111e9061323f565b801561116b5780601f106111405761010080835404028352916020019161116b565b820191906000526020600020905b81548152906001019060200180831161114e57829003601f168201915b50505050508152505081526020019060010190610e06565b50505050905090565b60006111978261048c565b6111d6576040517f08c379a00000000000000000000000000000000000000000000000000000000081526004016111cd90612fbd565b60405180910390fd5b600060016002846040516111ea9190612df5565b9081526020016040518091039020546112039190613177565b90506001818154811061123f577f4e487b7100000000000000000000000000000000000000000000000000000000600052603260045260246000fd5b906000526020600020906006020160000160009054906101000a900473ffffffffffffffffffffffffffffffffffffffff16915050919050565b60006112a2826000808681526020019081526020016000206000016121b290919063ffffffff16565b905092915050565b60006112d38260008086815260200190815260200160002060000161205490919063ffffffff16565b905092915050565b60006112ea6000801b336112aa565b611329576040517f08c379a000000000000000000000000000000000000000000000000000000000815260040161132090612f7d565b60405180910390fd5b600360009054906101000a900460ff16611378576040517f08c379a000000000000000000000000000000000000000000000000000000000815260040161136f90612fdd565b60405180910390fd5b6113818361048c565b156113ac576002836040516113969190612df5565b9081526020016040518091039020549050611569565b6113b46124d9565b8381604001819052508281606001819052506001816020019015159081151581525050600181908060018154018082558091505060019003906000526020600020906006020160009091909190915060008201518160000160006101000a81548173ffffffffffffffffffffffffffffffffffffffff021916908373ffffffffffffffffffffffffffffffffffffffff16021790555060208201518160000160146101000a81548160ff021916908315150217905550604082015181600101908051906020019061148692919061252e565b5060608201518160020190805190602001906114a392919061252e565b5060808201518160030190805190602001906114c092919061252e565b5060a08201518160040190805190602001906114dd92919061252e565b5060c08201518160050190805190602001906114fa92919061252e565b50505060006001805490509050806002866040516115189190612df5565b9081526020016040518091039020819055507feb5d6000a362475be9d9b16beddc148b7004850daf2e69325a403d613567769e858560405161155b929190612ea1565b60405180910390a180925050505b92915050565b6000801b81565b60006115856000801b336112aa565b6115c4576040517f08c379a00000000000000000000000000000000000000000000000000000000081526004016115bb90612f7d565b60405180910390fd5b600360009054906101000a900460ff1615600360006101000a81548160ff021916908315150217905550600360009054906101000a900460ff16905090565b60006002826040516116159190612df5565b9081526020016040518091039020549050919050565b60006001806002846040516116409190612df5565b9081526020016040518091039020546116599190613177565b81548110611690577f4e487b7100000000000000000000000000000000000000000000000000000000600052603260045260246000fd5b906000526020600020906006020160000160149054906101000a900460ff169050919050565b60006116d56000808481526020019081526020016000206000016121cc565b9050919050565b611702600080848152602001908152602001600020600201546116fd612084565b6112aa565b611741576040517f08c379a000000000000000000000000000000000000000000000000000000000815260040161173890612f9d565b60405180910390fd5b61174b828261211f565b5050565b600061175e6000801b336112aa565b61179d576040517f08c379a000000000000000000000000000000000000000000000000000000000815260040161179490612f7d565b60405180910390fd5b600360009054906101000a900460ff166117ec576040517f08c379a00000000000000000000000000000000000000000000000000000000081526004016117e390612fdd565b60405180910390fd5b6117f58261048c565b6118025760009050611c51565b600060016002846040516118169190612df5565b90815260200160405180910390205461182f9190613177565b90506000600180805490506118449190613177565b9050600060018281548110611882577f4e487b7100000000000000000000000000000000000000000000000000000000600052603260045260246000fd5b9060005260206000209060060201600101805461189e9061323f565b80601f01602080910402602001604051908101604052809291908181526020018280546118ca9061323f565b80156119175780601f106118ec57610100808354040283529160200191611917565b820191906000526020600020905b8154815290600101906020018083116118fa57829003601f168201915b5050505050905060018281548110611958577f4e487b7100000000000000000000000000000000000000000000000000000000600052603260045260246000fd5b9060005260206000209060060201600184815481106119a0577f4e487b7100000000000000000000000000000000000000000000000000000000600052603260045260246000fd5b90600052602060002090600602016000820160009054906101000a900473ffffffffffffffffffffffffffffffffffffffff168160000160006101000a81548173ffffffffffffffffffffffffffffffffffffffff021916908373ffffffffffffffffffffffffffffffffffffffff1602179055506000820160149054906101000a900460ff168160000160146101000a81548160ff0219169083151502179055506001820181600101908054611a569061323f565b611a619291906125b4565b506002820181600201908054611a769061323f565b611a819291906125b4565b506003820181600301908054611a969061323f565b611aa19291906125b4565b506004820181600401908054611ab69061323f565b611ac19291906125b4565b506005820181600501908054611ad69061323f565b611ae19291906125b4565b50905050600183611af29190613121565b600282604051611b029190612df5565b908152602001604051809103902081905550600285604051611b249190612df5565b9081526020016040518091039020600090556001805480611b6e577f4e487b7100000000000000000000000000000000000000000000000000000000600052603160045260246000fd5b6001900381819060005260206000209060060201600080820160006101000a81549073ffffffffffffffffffffffffffffffffffffffff02191690556000820160146101000a81549060ff0219169055600182016000611bce9190612641565b600282016000611bde9190612641565b600382016000611bee9190612641565b600482016000611bfe9190612641565b600582016000611c0e9190612641565b505090557fff0a52f1426ab03161133396bf3b3a194ea51f4603fb09e8af8abf1817e6eec985604051611c419190612e7f565b60405180910390a1600193505050505b919050565b6000600180549050905090565b6000611c726000801b336112aa565b611cb1576040517f08c379a0000000000000000000000000000000000000000000000000000000008152600401611ca890612f7d565b60405180910390fd5b600360009054906101000a900460ff16611d00576040517f08c379a0000000000000000000000000000000000000000000000000000000008152600401611cf790612fdd565b60405180910390fd5b611d098861048c565b611d165760009050612019565b6000600160028a604051611d2a9190612df5565b908152602001604051809103902054611d439190613177565b90508760018281548110611d80577f4e487b7100000000000000000000000000000000000000000000000000000000600052603260045260246000fd5b906000526020600020906006020160000160146101000a81548160ff0219169083151502179055508660018281548110611de3577f4e487b7100000000000000000000000000000000000000000000000000000000600052603260045260246000fd5b906000526020600020906006020160000160006101000a81548173ffffffffffffffffffffffffffffffffffffffff021916908373ffffffffffffffffffffffffffffffffffffffff1602179055508560018281548110611e6d577f4e487b7100000000000000000000000000000000000000000000000000000000600052603260045260246000fd5b90600052602060002090600602016002019080519060200190611e9192919061252e565b508460018281548110611ecd577f4e487b7100000000000000000000000000000000000000000000000000000000600052603260045260246000fd5b90600052602060002090600602016003019080519060200190611ef192919061252e565b508360018281548110611f2d577f4e487b7100000000000000000000000000000000000000000000000000000000600052603260045260246000fd5b90600052602060002090600602016004019080519060200190611f5192919061252e565b508260018281548110611f8d577f4e487b7100000000000000000000000000000000000000000000000000000000600052603260045260246000fd5b90600052602060002090600602016005019080519060200190611fb192919061252e565b508673ffffffffffffffffffffffffffffffffffffffff167f7db9e37783b4fafc957eea3210d357bd899d88da3c4af21a9a29bebcac042ebb8a88600360009054906101000a900460ff1660405161200b93929190612ed8565b60405180910390a260019150505b979650505050505050565b600061204c836000018373ffffffffffffffffffffffffffffffffffffffff1660001b6121e1565b905092915050565b600061207c836000018373ffffffffffffffffffffffffffffffffffffffff1660001b612251565b905092915050565b600033905090565b6120b38160008085815260200190815260200160002060000161202490919063ffffffff16565b1561211b576120c0612084565b73ffffffffffffffffffffffffffffffffffffffff168173ffffffffffffffffffffffffffffffffffffffff16837f2f8788117e7eff1d82e926ec794901d17c78024a50270940304540a733656f0d60405160405180910390a45b5050565b6121468160008085815260200190815260200160002060000161227490919063ffffffff16565b156121ae57612153612084565b73ffffffffffffffffffffffffffffffffffffffff168173ffffffffffffffffffffffffffffffffffffffff16837ff6391f5c32d9c69d2a47ea670b442974b53935d1edc7fd64eb21e047a839171b60405160405180910390a45b5050565b60006121c183600001836122a4565b60001c905092915050565b60006121da8260000161233e565b9050919050565b60006121ed8383612251565b61224657826000018290806001815401808255809150506001900390600052602060002001600090919091909150558260000180549050836001016000848152602001908152602001600020819055506001905061224b565b600090505b92915050565b600080836001016000848152602001908152602001600020541415905092915050565b600061229c836000018373ffffffffffffffffffffffffffffffffffffffff1660001b61234f565b905092915050565b6000818360000180549050116122ef576040517f08c379a00000000000000000000000000000000000000000000000000000000081526004016122e690612f1d565b60405180910390fd5b82600001828154811061232b577f4e487b7100000000000000000000000000000000000000000000000000000000600052603260045260246000fd5b9060005260206000200154905092915050565b600081600001805490509050919050565b600080836001016000848152602001908152602001600020549050600081146124cd5760006001826123819190613177565b90506000600186600001805490506123999190613177565b905060008660000182815481106123d9577f4e487b7100000000000000000000000000000000000000000000000000000000600052603260045260246000fd5b9060005260206000200154905080876000018481548110612423577f4e487b7100000000000000000000000000000000000000000000000000000000600052603260045260246000fd5b906000526020600020018190555060018361243e9190613121565b8760010160008381526020019081526020016000208190555086600001805480612491577f4e487b7100000000000000000000000000000000000000000000000000000000600052603160045260246000fd5b600190038181906000526020600020016000905590558660010160008781526020019081526020016000206000905560019450505050506124d3565b60009150505b92915050565b6040518060e00160405280600073ffffffffffffffffffffffffffffffffffffffff16815260200160001515815260200160608152602001606081526020016060815260200160608152602001606081525090565b82805461253a9061323f565b90600052602060002090601f01602090048101928261255c57600085556125a3565b82601f1061257557805160ff19168380011785556125a3565b828001600101855582156125a3579182015b828111156125a2578251825591602001919060010190612587565b5b5090506125b09190612681565b5090565b8280546125c09061323f565b90600052602060002090601f0160209004810192826125e25760008555612630565b82601f106125f35780548555612630565b8280016001018555821561263057600052602060002091601f016020900482015b8281111561262f578254825591600101919060010190612614565b5b50905061263d9190612681565b5090565b50805461264d9061323f565b6000825580601f1061265f575061267e565b601f01602090049060005260206000209081019061267d9190612681565b5b50565b5b8082111561269a576000816000905550600101612682565b5090565b60006126b16126ac8461307f565b61305a565b9050828152602081018484840111156126c957600080fd5b6126d48482856131fd565b509392505050565b6000813590506126eb81613520565b92915050565b60008135905061270081613537565b92915050565b6000813590506127158161354e565b92915050565b600082601f83011261272c57600080fd5b813561273c84826020860161269e565b91505092915050565b60008135905061275481613565565b92915050565b60006020828403121561276c57600080fd5b600061277a84828501612706565b91505092915050565b6000806040838503121561279657600080fd5b60006127a485828601612706565b92505060206127b5858286016126dc565b9150509250929050565b600080604083850312156127d257600080fd5b60006127e085828601612706565b92505060206127f185828601612745565b9150509250929050565b60006020828403121561280d57600080fd5b600082013567ffffffffffffffff81111561282757600080fd5b6128338482850161271b565b91505092915050565b600080600080600080600060e0888a03121561285757600080fd5b600088013567ffffffffffffffff81111561287157600080fd5b61287d8a828b0161271b565b975050602061288e8a828b016126f1565b965050604061289f8a828b016126dc565b955050606088013567ffffffffffffffff8111156128bc57600080fd5b6128c88a828b0161271b565b945050608088013567ffffffffffffffff8111156128e557600080fd5b6128f18a828b0161271b565b93505060a088013567ffffffffffffffff81111561290e57600080fd5b61291a8a828b0161271b565b92505060c088013567ffffffffffffffff81111561293757600080fd5b6129438a828b0161271b565b91505092959891949750929550565b6000806040838503121561296557600080fd5b600083013567ffffffffffffffff81111561297f57600080fd5b61298b8582860161271b565b925050602083013567ffffffffffffffff8111156129a857600080fd5b6129b48582860161271b565b9150509250929050565b6000602082840312156129d057600080fd5b60006129de84828501612745565b91505092915050565b60006129f38383612c76565b905092915050565b612a04816131ab565b82525050565b612a13816131ab565b82525050565b6000612a24826130c0565b612a2e81856130e3565b935083602082028501612a40856130b0565b8060005b85811015612a7c5784840389528151612a5d85826129e7565b9450612a68836130d6565b925060208a01995050600181019050612a44565b50829750879550505050505092915050565b612a97816131bd565b82525050565b612aa6816131bd565b82525050565b612ab5816131c9565b82525050565b6000612ac6826130cb565b612ad081856130f4565b9350612ae081856020860161320c565b612ae98161332f565b840191505092915050565b6000612aff826130cb565b612b098185613105565b9350612b1981856020860161320c565b612b228161332f565b840191505092915050565b6000612b38826130cb565b612b428185613116565b9350612b5281856020860161320c565b80840191505092915050565b6000612b6b602283613105565b9150612b7682613340565b604082019050919050565b6000612b8e602f83613105565b9150612b998261338f565b604082019050919050565b6000612bb1600c83613105565b9150612bbc826133de565b602082019050919050565b6000612bd4601e83613105565b9150612bdf82613407565b602082019050919050565b6000612bf7603083613105565b9150612c0282613430565b604082019050919050565b6000612c1a600a83613105565b9150612c258261347f565b602082019050919050565b6000612c3d601e83613105565b9150612c48826134a8565b602082019050919050565b6000612c60602f83613105565b9150612c6b826134d1565b604082019050919050565b600060e083016000830151612c8e60008601826129fb565b506020830151612ca16020860182612a8e565b5060408301518482036040860152612cb98282612abb565b91505060608301518482036060860152612cd38282612abb565b91505060808301518482036080860152612ced8282612abb565b91505060a083015184820360a0860152612d078282612abb565b91505060c083015184820360c0860152612d218282612abb565b9150508091505092915050565b600060e083016000830151612d4660008601826129fb565b506020830151612d596020860182612a8e565b5060408301518482036040860152612d718282612abb565b91505060608301518482036060860152612d8b8282612abb565b91505060808301518482036080860152612da58282612abb565b91505060a083015184820360a0860152612dbf8282612abb565b91505060c083015184820360c0860152612dd98282612abb565b9150508091505092915050565b612def816131f3565b82525050565b6000612e018284612b2d565b915081905092915050565b6000602082019050612e216000830184612a0a565b92915050565b60006020820190508181036000830152612e418184612a19565b905092915050565b6000602082019050612e5e6000830184612a9d565b92915050565b6000602082019050612e796000830184612aac565b92915050565b60006020820190508181036000830152612e998184612af4565b905092915050565b60006040820190508181036000830152612ebb8185612af4565b90508181036020830152612ecf8184612af4565b90509392505050565b60006060820190508181036000830152612ef28186612af4565b90508181036020830152612f068185612af4565b9050612f156040830184612a9d565b949350505050565b60006020820190508181036000830152612f3681612b5e565b9050919050565b60006020820190508181036000830152612f5681612b81565b9050919050565b60006020820190508181036000830152612f7681612ba4565b9050919050565b60006020820190508181036000830152612f9681612bc7565b9050919050565b60006020820190508181036000830152612fb681612bea565b9050919050565b60006020820190508181036000830152612fd681612c0d565b9050919050565b60006020820190508181036000830152612ff681612c30565b9050919050565b6000602082019050818103600083015261301681612c53565b9050919050565b600060208201905081810360008301526130378184612d2e565b905092915050565b60006020820190506130546000830184612de6565b92915050565b6000613064613075565b90506130708282613271565b919050565b6000604051905090565b600067ffffffffffffffff82111561309a57613099613300565b5b6130a38261332f565b9050602081019050919050565b6000819050602082019050919050565b600081519050919050565b600081519050919050565b6000602082019050919050565b600082825260208201905092915050565b600082825260208201905092915050565b600082825260208201905092915050565b600081905092915050565b600061312c826131f3565b9150613137836131f3565b9250827fffffffffffffffffffffffffffffffffffffffffffffffffffffffffffffffff0382111561316c5761316b6132a2565b5b828201905092915050565b6000613182826131f3565b915061318d836131f3565b9250828210156131a05761319f6132a2565b5b828203905092915050565b60006131b6826131d3565b9050919050565b60008115159050919050565b6000819050919050565b600073ffffffffffffffffffffffffffffffffffffffff82169050919050565b6000819050919050565b82818337600083830152505050565b60005b8381101561322a57808201518184015260208101905061320f565b83811115613239576000848401525b50505050565b6000600282049050600182168061325757607f821691505b6020821081141561326b5761326a6132d1565b5b50919050565b61327a8261332f565b810181811067ffffffffffffffff8211171561329957613298613300565b5b80604052505050565b7f4e487b7100000000000000000000000000000000000000000000000000000000600052601160045260246000fd5b7f4e487b7100000000000000000000000000000000000000000000000000000000600052602260045260246000fd5b7f4e487b7100000000000000000000000000000000000000000000000000000000600052604160045260246000fd5b6000601f19601f8301169050919050565b7f456e756d657261626c655365743a20696e646578206f7574206f6620626f756e60008201527f6473000000000000000000000000000000000000000000000000000000000000602082015250565b7f416363657373436f6e74726f6c3a2073656e646572206d75737420626520616e60008201527f2061646d696e20746f206772616e740000000000000000000000000000000000602082015250565b7f6f7574206f662072616e67650000000000000000000000000000000000000000600082015250565b7f41636164656d7950726f6a6563744c6973743a206f6e6c79206f776e65720000600082015250565b7f416363657373436f6e74726f6c3a2073656e646572206d75737420626520616e60008201527f2061646d696e20746f207265766f6b6500000000000000000000000000000000602082015250565b7f6e6f742065786973747300000000000000000000000000000000000000000000600082015250565b7f41636164656d7950726f6a6563744c6973743a206e6f74206163746976650000600082015250565b7f416363657373436f6e74726f6c3a2063616e206f6e6c792072656e6f756e636560008201527f20726f6c657320666f722073656c660000000000000000000000000000000000602082015250565b613529816131ab565b811461353457600080fd5b50565b613540816131bd565b811461354b57600080fd5b50565b613557816131c9565b811461356257600080fd5b50565b61356e816131f3565b811461357957600080fd5b5056fea26469706673582212201284111e480b149d90fc61e9d02e3959ded3c9ec8cdd858d29b99d9a89ff696864736f6c6343000801003350686f746f732073746f72656420696e204950465320616e642068617368657320696e206120736d61727420636f6e7472616374596f7572206e616d652073746f72656420696e206120736d61727420636f6e74726163744120626173696320646174616261736520746f204372656174652052656164205570646174652044656c657465",
  "immutableReferences": {},
  "source": "// SPDX-License-Identifier: MIT\r\npragma solidity 0.8.1;\r\n\r\n//import \"https://github.com/OpenZeppelin/openzeppelin-contracts/blob/master/contracts/access/AccessControl.sol\";\r\n//import '@openzeppelin/contracts/access/AccessControl.sol';\r\nimport './oz-contracts/access/AccessControl.sol';\r\n\r\n\r\nstruct ProjectStruct {\r\n    address master;\r\n    bool active;\r\n    string name;\r\n    string description;\r\n    string ABI;\r\n    string sourceCode;\r\n    string image;\r\n}\r\n    \r\ncontract AcademyProjectList is AccessControl {\r\n\r\n    ProjectStruct[] private projectInfo;\r\n    \r\n    //Project name is the index, can't be changed after created.\r\n    mapping(string => uint256) private projectIndexName;\r\n    //mapping(string => ProjectStruct) public projects;\r\n    \r\n    bool active;\r\n    \r\n    constructor() {\r\n        _setupRole(DEFAULT_ADMIN_ROLE, msg.sender);\r\n        active = true;\r\n        addProject(\"Name\",\"Your name stored in a smart contract\");\r\n        addProject(\"Pig Bank\",\"smart contract to save economies\");\r\n        addProject(\"Token\",\"Mintable token ERC20\");\r\n        addProject(\"Photo Album\",\"Photos stored in IPFS and hashes in a smart contract\");\r\n        addProject(\"CRUD\",\"A basic database to Create Read Update Delete\");\r\n    } \r\n    \r\n    event ProjectAdded(string name, string description);\r\n    event ProjectUpdated(string name, string description, address indexed master, bool active);\r\n    event ProjectDeleted(string name);\r\n    \r\n    modifier onlyOwner() {\r\n        require(hasRole(DEFAULT_ADMIN_ROLE, msg.sender), \"AcademyProjectList: only owner\");\r\n        _;\r\n    }\r\n    \r\n    modifier onlyActive() {\r\n        require(active, \"AcademyProjectList: not active\");\r\n        _;\r\n    }    \r\n\r\n    function addProject (string memory name, string memory description) public onlyOwner onlyActive returns(uint256) {\r\n        if (exists(name))\r\n            return projectIndexName[name];\r\n            \r\n        ProjectStruct memory p;\r\n        p.name = name;\r\n        p.description = description;\r\n        p.active = true;\r\n        \r\n        projectInfo.push(p);\r\n        uint256 index = projectInfo.length;\r\n        projectIndexName[name] = index;\r\n        emit ProjectAdded(name, description);\r\n        return index;\r\n    }\r\n    \r\n    function delProject (string memory name) public onlyOwner onlyActive returns (bool) {\r\n        if (!exists(name))\r\n            return false;\r\n\r\n        uint256 indexToDelete = projectIndexName[name]-1;\r\n        uint256 indexToMove = projectInfo.length-1;\r\n        string memory keyToMove = projectInfo[indexToMove].name;\r\n        \r\n        projectInfo[indexToDelete] = projectInfo[indexToMove];\r\n        projectIndexName[keyToMove] = indexToDelete+1;\r\n\r\n        delete projectIndexName[name];\r\n        projectInfo.pop();\r\n\r\n        emit ProjectDeleted(name);\r\n        return true;\r\n    }\r\n    \r\n    function updateProjectByName (string memory name,\r\n        bool activeProject, address master, \r\n        string memory description, string memory ABI, string memory sourceCode, string memory image\r\n    ) public onlyOwner onlyActive returns (bool) {\r\n        if (!exists(name))\r\n            return false;\r\n        \r\n        uint256 index = projectIndexName[name]-1;\r\n        projectInfo[index].active = activeProject;\r\n        projectInfo[index].master = master;\r\n        projectInfo[index].description = description;\r\n        projectInfo[index].ABI = ABI;\r\n        projectInfo[index].sourceCode = sourceCode;\r\n        projectInfo[index].image = image;\r\n        emit ProjectUpdated(name, description, master, active);\r\n        return true;\r\n    }\r\n    \r\n    function changeActive () public onlyOwner returns (bool) {\r\n        active = !active;\r\n        return active;\r\n    }\r\n    \r\n    function exists(string memory name) public view returns (bool) {\r\n        if (projectIndexName[name] == 0)\r\n            return false;\r\n        else\r\n            return true;\r\n    }\r\n    \r\n    function isActive(string memory name) public view returns (bool) {\r\n        return projectInfo[projectIndexName[name]-1].active;\r\n    }\r\n    \r\n    function getProjectByName (string memory name_) public view returns (ProjectStruct memory) {\r\n        require (exists(name_), \"not exists\");\r\n        uint256 index = projectIndexName[name_]-1;\r\n        return projectInfo[index];\r\n    }\r\n    \r\n    function getMasterAddressByName (string memory name_) public view returns (address) {\r\n        require (exists(name_), \"not exists\");\r\n        uint256 index = projectIndexName[name_]-1;\r\n        return projectInfo[index].master;\r\n    }    \r\n\r\n    function getProjectByIndex (uint256 index) public view returns (ProjectStruct memory) {\r\n        require (index <= projectInfo.length, \"out of range\");\r\n        return projectInfo[index-1];\r\n    }\r\n    \r\n    function getIndexByName (string memory name_) public view returns (uint256) {\r\n        return projectIndexName[name_];\r\n    }    \r\n \r\n    function countProjects () public view returns (uint256) {\r\n        return projectInfo.length;\r\n    }\r\n     \r\n    function listProjects () public view returns (ProjectStruct[] memory) {\r\n        return projectInfo;\r\n    }\r\n    \r\n    function compareStrings(string memory a, string memory b) private pure returns (bool) {\r\n        return (keccak256(abi.encodePacked((a))) == keccak256(abi.encodePacked((b))));\r\n    }\r\n    \r\n}\r\n",
  "sourcePath": "C:/ACADEMY/GITHUB/rsk-academy-dapp/contracts/AcademyProjectList.sol",
  "compiler": {
    "name": "solc",
    "version": "0.8.1+commit.df193b15.Emscripten.clang"
  },
  "schemaVersion": "3.3.4",
  "updatedAt": "2021-02-19T18:39:16.339Z",
  "networkType": "ethereum",
  "devdoc": {
    "kind": "dev",
    "methods": {
      "getRoleAdmin(bytes32)": {
        "details": "Returns the admin role that controls `role`. See {grantRole} and {revokeRole}. To change a role's admin, use {_setRoleAdmin}."
      },
      "getRoleMember(bytes32,uint256)": {
        "details": "Returns one of the accounts that have `role`. `index` must be a value between 0 and {getRoleMemberCount}, non-inclusive. Role bearers are not sorted in any particular way, and their ordering may change at any point. WARNING: When using {getRoleMember} and {getRoleMemberCount}, make sure you perform all queries on the same block. See the following https://forum.openzeppelin.com/t/iterating-over-elements-on-enumerableset-in-openzeppelin-contracts/2296[forum post] for more information."
      },
      "getRoleMemberCount(bytes32)": {
        "details": "Returns the number of accounts that have `role`. Can be used together with {getRoleMember} to enumerate all bearers of a role."
      },
      "grantRole(bytes32,address)": {
        "details": "Grants `role` to `account`. If `account` had not been already granted `role`, emits a {RoleGranted} event. Requirements: - the caller must have ``role``'s admin role."
      },
      "hasRole(bytes32,address)": {
        "details": "Returns `true` if `account` has been granted `role`."
      },
      "renounceRole(bytes32,address)": {
        "details": "Revokes `role` from the calling account. Roles are often managed via {grantRole} and {revokeRole}: this function's purpose is to provide a mechanism for accounts to lose their privileges if they are compromised (such as when a trusted device is misplaced). If the calling account had been granted `role`, emits a {RoleRevoked} event. Requirements: - the caller must be `account`."
      },
      "revokeRole(bytes32,address)": {
        "details": "Revokes `role` from `account`. If `account` had been granted `role`, emits a {RoleRevoked} event. Requirements: - the caller must have ``role``'s admin role."
      }
    },
    "version": 1
  },
  "userdoc": {
    "kind": "user",
    "methods": {},
    "version": 1
  }
}