{
  "contractName": "AcademyCertification",
  "abi": [
    {
      "inputs": [
        {
          "internalType": "address",
          "name": "addressAcademyStudentQuiz",
          "type": "address"
        },
        {
          "internalType": "address",
          "name": "addressMasterName",
          "type": "address"
        }
      ],
      "stateMutability": "nonpayable",
      "type": "constructor"
    },
    {
      "anonymous": false,
      "inputs": [
        {
          "indexed": true,
          "internalType": "bytes32",
          "name": "role",
          "type": "bytes32"
        },
        {
          "indexed": true,
          "internalType": "bytes32",
          "name": "previousAdminRole",
          "type": "bytes32"
        },
        {
          "indexed": true,
          "internalType": "bytes32",
          "name": "newAdminRole",
          "type": "bytes32"
        }
      ],
      "name": "RoleAdminChanged",
      "type": "event"
    },
    {
      "anonymous": false,
      "inputs": [
        {
          "indexed": true,
          "internalType": "bytes32",
          "name": "role",
          "type": "bytes32"
        },
        {
          "indexed": true,
          "internalType": "address",
          "name": "account",
          "type": "address"
        },
        {
          "indexed": true,
          "internalType": "address",
          "name": "sender",
          "type": "address"
        }
      ],
      "name": "RoleGranted",
      "type": "event"
    },
    {
      "anonymous": false,
      "inputs": [
        {
          "indexed": true,
          "internalType": "bytes32",
          "name": "role",
          "type": "bytes32"
        },
        {
          "indexed": true,
          "internalType": "address",
          "name": "account",
          "type": "address"
        },
        {
          "indexed": true,
          "internalType": "address",
          "name": "sender",
          "type": "address"
        }
      ],
      "name": "RoleRevoked",
      "type": "event"
    },
    {
      "inputs": [],
      "name": "DEFAULT_ADMIN_ROLE",
      "outputs": [
        {
          "internalType": "bytes32",
          "name": "",
          "type": "bytes32"
        }
      ],
      "stateMutability": "view",
      "type": "function",
      "constant": true
    },
    {
      "inputs": [],
      "name": "academyStudentQuiz",
      "outputs": [
        {
          "internalType": "contract iAcademyStudentQuiz",
          "name": "",
          "type": "address"
        }
      ],
      "stateMutability": "view",
      "type": "function",
      "constant": true
    },
    {
      "inputs": [
        {
          "internalType": "address",
          "name": "",
          "type": "address"
        },
        {
          "internalType": "string",
          "name": "",
          "type": "string"
        }
      ],
      "name": "certificateIndex",
      "outputs": [
        {
          "internalType": "uint256",
          "name": "",
          "type": "uint256"
        }
      ],
      "stateMutability": "view",
      "type": "function",
      "constant": true
    },
    {
      "inputs": [
        {
          "internalType": "uint256",
          "name": "",
          "type": "uint256"
        }
      ],
      "name": "certificateInfo",
      "outputs": [
        {
          "internalType": "address",
          "name": "studentAddress",
          "type": "address"
        },
        {
          "internalType": "string",
          "name": "studentName",
          "type": "string"
        },
        {
          "internalType": "string",
          "name": "courseName",
          "type": "string"
        }
      ],
      "stateMutability": "view",
      "type": "function",
      "constant": true
    },
    {
      "inputs": [],
      "name": "decimalpercent",
      "outputs": [
        {
          "internalType": "uint256",
          "name": "",
          "type": "uint256"
        }
      ],
      "stateMutability": "view",
      "type": "function",
      "constant": true
    },
    {
      "inputs": [
        {
          "internalType": "bytes32",
          "name": "role",
          "type": "bytes32"
        }
      ],
      "name": "getRoleAdmin",
      "outputs": [
        {
          "internalType": "bytes32",
          "name": "",
          "type": "bytes32"
        }
      ],
      "stateMutability": "view",
      "type": "function",
      "constant": true
    },
    {
      "inputs": [
        {
          "internalType": "bytes32",
          "name": "role",
          "type": "bytes32"
        },
        {
          "internalType": "uint256",
          "name": "index",
          "type": "uint256"
        }
      ],
      "name": "getRoleMember",
      "outputs": [
        {
          "internalType": "address",
          "name": "",
          "type": "address"
        }
      ],
      "stateMutability": "view",
      "type": "function",
      "constant": true
    },
    {
      "inputs": [
        {
          "internalType": "bytes32",
          "name": "role",
          "type": "bytes32"
        }
      ],
      "name": "getRoleMemberCount",
      "outputs": [
        {
          "internalType": "uint256",
          "name": "",
          "type": "uint256"
        }
      ],
      "stateMutability": "view",
      "type": "function",
      "constant": true
    },
    {
      "inputs": [
        {
          "internalType": "bytes32",
          "name": "role",
          "type": "bytes32"
        },
        {
          "internalType": "address",
          "name": "account",
          "type": "address"
        }
      ],
      "name": "grantRole",
      "outputs": [],
      "stateMutability": "nonpayable",
      "type": "function"
    },
    {
      "inputs": [
        {
          "internalType": "bytes32",
          "name": "role",
          "type": "bytes32"
        },
        {
          "internalType": "address",
          "name": "account",
          "type": "address"
        }
      ],
      "name": "hasRole",
      "outputs": [
        {
          "internalType": "bool",
          "name": "",
          "type": "bool"
        }
      ],
      "stateMutability": "view",
      "type": "function",
      "constant": true
    },
    {
      "inputs": [],
      "name": "masterName",
      "outputs": [
        {
          "internalType": "contract iMasterName",
          "name": "",
          "type": "address"
        }
      ],
      "stateMutability": "view",
      "type": "function",
      "constant": true
    },
    {
      "inputs": [
        {
          "internalType": "uint256",
          "name": "",
          "type": "uint256"
        }
      ],
      "name": "quizList",
      "outputs": [
        {
          "internalType": "string",
          "name": "",
          "type": "string"
        }
      ],
      "stateMutability": "view",
      "type": "function",
      "constant": true
    },
    {
      "inputs": [
        {
          "internalType": "string",
          "name": "",
          "type": "string"
        }
      ],
      "name": "quizListIndex",
      "outputs": [
        {
          "internalType": "uint256",
          "name": "",
          "type": "uint256"
        }
      ],
      "stateMutability": "view",
      "type": "function",
      "constant": true
    },
    {
      "inputs": [],
      "name": "quizMinimum",
      "outputs": [
        {
          "internalType": "uint256",
          "name": "",
          "type": "uint256"
        }
      ],
      "stateMutability": "view",
      "type": "function",
      "constant": true
    },
    {
      "inputs": [
        {
          "internalType": "bytes32",
          "name": "role",
          "type": "bytes32"
        },
        {
          "internalType": "address",
          "name": "account",
          "type": "address"
        }
      ],
      "name": "renounceRole",
      "outputs": [],
      "stateMutability": "nonpayable",
      "type": "function"
    },
    {
      "inputs": [
        {
          "internalType": "bytes32",
          "name": "role",
          "type": "bytes32"
        },
        {
          "internalType": "address",
          "name": "account",
          "type": "address"
        }
      ],
      "name": "revokeRole",
      "outputs": [],
      "stateMutability": "nonpayable",
      "type": "function"
    },
    {
      "inputs": [
        {
          "internalType": "string",
          "name": "name",
          "type": "string"
        }
      ],
      "name": "addQuiz",
      "outputs": [
        {
          "internalType": "uint256",
          "name": "",
          "type": "uint256"
        }
      ],
      "stateMutability": "nonpayable",
      "type": "function"
    },
    {
      "inputs": [
        {
          "internalType": "string",
          "name": "name",
          "type": "string"
        }
      ],
      "name": "delQuiz",
      "outputs": [
        {
          "internalType": "bool",
          "name": "",
          "type": "bool"
        }
      ],
      "stateMutability": "nonpayable",
      "type": "function"
    },
    {
      "inputs": [
        {
          "internalType": "address",
          "name": "studentAddress",
          "type": "address"
        }
      ],
      "name": "validateStudent",
      "outputs": [
        {
          "internalType": "bool",
          "name": "",
          "type": "bool"
        }
      ],
      "stateMutability": "view",
      "type": "function",
      "constant": true
    },
    {
      "inputs": [
        {
          "internalType": "address",
          "name": "studentAddress",
          "type": "address"
        },
        {
          "internalType": "string",
          "name": "studentName",
          "type": "string"
        },
        {
          "internalType": "string",
          "name": "course",
          "type": "string"
        }
      ],
      "name": "registerCertificate",
      "outputs": [
        {
          "internalType": "bool",
          "name": "",
          "type": "bool"
        }
      ],
      "stateMutability": "nonpayable",
      "type": "function"
    },
    {
      "inputs": [
        {
          "internalType": "uint256",
          "name": "value",
          "type": "uint256"
        }
      ],
      "name": "updateQuizMinimum",
      "outputs": [
        {
          "internalType": "bool",
          "name": "",
          "type": "bool"
        }
      ],
      "stateMutability": "nonpayable",
      "type": "function"
    },
    {
      "inputs": [
        {
          "internalType": "address",
          "name": "studentAddress",
          "type": "address"
        },
        {
          "internalType": "string",
          "name": "course",
          "type": "string"
        }
      ],
      "name": "existCertificate",
      "outputs": [
        {
          "internalType": "bool",
          "name": "",
          "type": "bool"
        }
      ],
      "stateMutability": "view",
      "type": "function",
      "constant": true
    },
    {
      "inputs": [
        {
          "internalType": "string",
          "name": "name",
          "type": "string"
        }
      ],
      "name": "existQuiz",
      "outputs": [
        {
          "internalType": "bool",
          "name": "",
          "type": "bool"
        }
      ],
      "stateMutability": "view",
      "type": "function",
      "constant": true
    },
    {
      "inputs": [],
      "name": "countQuiz",
      "outputs": [
        {
          "internalType": "uint256",
          "name": "",
          "type": "uint256"
        }
      ],
      "stateMutability": "view",
      "type": "function",
      "constant": true
    },
    {
      "inputs": [],
      "name": "listQuiz",
      "outputs": [
        {
          "internalType": "string[]",
          "name": "",
          "type": "string[]"
        }
      ],
      "stateMutability": "view",
      "type": "function",
      "constant": true
    },
    {
      "inputs": [
        {
          "internalType": "address",
          "name": "studentAddress",
          "type": "address"
        },
        {
          "internalType": "string",
          "name": "course",
          "type": "string"
        }
      ],
      "name": "getCertificate",
      "outputs": [
        {
          "components": [
            {
              "internalType": "address",
              "name": "studentAddress",
              "type": "address"
            },
            {
              "internalType": "string",
              "name": "studentName",
              "type": "string"
            },
            {
              "internalType": "string",
              "name": "courseName",
              "type": "string"
            }
          ],
          "internalType": "struct CertificateStruct",
          "name": "",
          "type": "tuple"
        }
      ],
      "stateMutability": "view",
      "type": "function",
      "constant": true
    }
  ],
  "bytecode": "0x60806040523480156200001157600080fd5b50604051620033ec380380620033ec83398181016040528101906200003791906200028b565b6200004c6000801b33620000de60201b60201c565b81600360006101000a81548173ffffffffffffffffffffffffffffffffffffffff021916908373ffffffffffffffffffffffffffffffffffffffff16021790555080600460006101000a81548173ffffffffffffffffffffffffffffffffffffffff021916908373ffffffffffffffffffffffffffffffffffffffff160217905550603c60078190555050506200031a565b620000f08282620000f460201b60201c565b5050565b62000122816000808581526020019081526020016000206000016200019760201b620016971790919060201c565b15620001935762000138620001cf60201b60201c565b73ffffffffffffffffffffffffffffffffffffffff168173ffffffffffffffffffffffffffffffffffffffff16837f2f8788117e7eff1d82e926ec794901d17c78024a50270940304540a733656f0d60405160405180910390a45b5050565b6000620001c7836000018373ffffffffffffffffffffffffffffffffffffffff1660001b620001d760201b60201c565b905092915050565b600033905090565b6000620001eb83836200025160201b60201c565b620002465782600001829080600181540180825580915050600190039060005260206000200160009091909190915055826000018054905083600101600084815260200190815260200160002081905550600190506200024b565b600090505b92915050565b600080836001016000848152602001908152602001600020541415905092915050565b600081519050620002858162000300565b92915050565b600080604083850312156200029f57600080fd5b6000620002af8582860162000274565b9250506020620002c28582860162000274565b9150509250929050565b6000620002d982620002e0565b9050919050565b600073ffffffffffffffffffffffffffffffffffffffff82169050919050565b6200030b81620002cc565b81146200031757600080fd5b50565b6130c2806200032a6000396000f3fe608060405234801561001057600080fd5b506004361061018e5760003560e01c806389c05c13116100de578063c84c972411610097578063e10ebf5211610071578063e10ebf521461050d578063f067d8401461052b578063f3ab34941461055b578063f4bfccd31461058b5761018e565b8063c84c972414610491578063ca15c873146104c1578063d547741f146104f15761018e565b806389c05c13146103815780639010d07c146103b157806391d14854146103e1578063a217fddf14610411578063b3f7c3731461042f578063ba0a9f501461045f5761018e565b806343e33aee1161014b578063573279bb11610125578063573279bb146102f7578063581e41bd146103155780636b2b4588146103335780638723ddcd146103635761018e565b806343e33aee146102795780635446d503146102975780635702bc58146102c75761018e565b8063101c623914610193578063248a9ca3146101b157806326bf0f03146101e15780632f2ff15d1461021157806334512f9e1461022d57806336568abe1461025d575b600080fd5b61019b6105bb565b6040516101a891906127d3565b60405180910390f35b6101cb60048036038101906101c69190612233565b610694565b6040516101d89190612810565b60405180910390f35b6101fb60048036038101906101f69190612137565b6106b3565b6040516102089190612983565b60405180910390f35b61022b6004803603810190610226919061225c565b610912565b005b61024760048036038101906102429190612137565b610985565b60405161025491906127f5565b60405180910390f35b6102776004803603810190610272919061225c565b6109fe565b005b610281610a81565b60405161028e91906129a5565b60405180910390f35b6102b160048036038101906102ac91906122d4565b610a87565b6040516102be91906129a5565b60405180910390f35b6102e160048036038101906102dc91906122d4565b610ab5565b6040516102ee91906127f5565b60405180910390f35b6102ff610af0565b60405161030c91906129a5565b60405180910390f35b61031d610afd565b60405161032a919061282b565b60405180910390f35b61034d60048036038101906103489190612356565b610b23565b60405161035a9190612861565b60405180910390f35b61036b610bcf565b6040516103789190612846565b60405180910390f35b61039b600480360381019061039691906122d4565b610bf5565b6040516103a891906127f5565b60405180910390f35b6103cb60048036038101906103c69190612298565b610ec3565b6040516103d89190612743565b60405180910390f35b6103fb60048036038101906103f6919061225c565b610ef4565b60405161040891906127f5565b60405180910390f35b610419610f25565b6040516104269190612810565b60405180910390f35b61044960048036038101906104449190612356565b610f2c565b60405161045691906127f5565b60405180910390f35b61047960048036038101906104749190612356565b610fce565b6040516104889392919061275e565b60405180910390f35b6104ab60048036038101906104a69190612137565b611138565b6040516104b891906129a5565b60405180910390f35b6104db60048036038101906104d69190612233565b611173565b6040516104e891906129a5565b60405180910390f35b61050b6004803603810190610506919061225c565b611199565b005b61051561120c565b60405161052291906129a5565b60405180910390f35b610545600480360381019061054091906122d4565b611211565b60405161055291906129a5565b60405180910390f35b6105756004803603810190610570919061218b565b611306565b60405161058291906127f5565b60405180910390f35b6105a560048036038101906105a0919061210e565b611469565b6040516105b291906127f5565b60405180910390f35b60606005805480602002602001604051908101604052809291908181526020016000905b8282101561068b5783829060005260206000200180546105fe90612c9a565b80601f016020809104026020016040519081016040528092919081815260200182805461062a90612c9a565b80156106775780601f1061064c57610100808354040283529160200191610677565b820191906000526020600020905b81548152906001019060200180831161065a57829003601f168201915b5050505050815260200190600101906105df565b50505050905090565b6000806000838152602001908152602001600020600201549050919050565b6106bb611d38565b6106c3611d38565b6000600260008673ffffffffffffffffffffffffffffffffffffffff1673ffffffffffffffffffffffffffffffffffffffff16815260200190815260200160002084604051610712919061272c565b90815260200160405180910390205490506000811115610907576001808261073a9190612b7d565b81548110610771577f4e487b7100000000000000000000000000000000000000000000000000000000600052603260045260246000fd5b90600052602060002090600302016040518060600160405290816000820160009054906101000a900473ffffffffffffffffffffffffffffffffffffffff1673ffffffffffffffffffffffffffffffffffffffff1673ffffffffffffffffffffffffffffffffffffffff1681526020016001820180546107f090612c9a565b80601f016020809104026020016040519081016040528092919081815260200182805461081c90612c9a565b80156108695780601f1061083e57610100808354040283529160200191610869565b820191906000526020600020905b81548152906001019060200180831161084c57829003601f168201915b5050505050815260200160028201805461088290612c9a565b80601f01602080910402602001604051908101604052809291908181526020018280546108ae90612c9a565b80156108fb5780601f106108d0576101008083540402835291602001916108fb565b820191906000526020600020905b8154815290600101906020018083116108de57829003601f168201915b50505050508152505091505b819250505092915050565b610938600080848152602001908152602001600020600201546109336116c7565b610ef4565b610977576040517f08c379a000000000000000000000000000000000000000000000000000000000815260040161096e906128a3565b60405180910390fd5b61098182826116cf565b5050565b600080600260008573ffffffffffffffffffffffffffffffffffffffff1673ffffffffffffffffffffffffffffffffffffffff168152602001908152602001600020836040516109d5919061272c565b90815260200160405180910390205414156109f357600090506109f8565b600190505b92915050565b610a066116c7565b73ffffffffffffffffffffffffffffffffffffffff168173ffffffffffffffffffffffffffffffffffffffff1614610a73576040517f08c379a0000000000000000000000000000000000000000000000000000000008152600401610a6a90612963565b60405180910390fd5b610a7d8282611762565b5050565b60075481565b6006818051602081018201805184825260208301602085012081835280955050505050506000915090505481565b600080600683604051610ac8919061272c565b9081526020016040518091039020541415610ae65760009050610aeb565b600190505b919050565b6000600580549050905090565b600360009054906101000a900473ffffffffffffffffffffffffffffffffffffffff1681565b60058181548110610b3357600080fd5b906000526020600020016000915090508054610b4e90612c9a565b80601f0160208091040260200160405190810160405280929190818152602001828054610b7a90612c9a565b8015610bc75780601f10610b9c57610100808354040283529160200191610bc7565b820191906000526020600020905b815481529060010190602001808311610baa57829003601f168201915b505050505081565b600460009054906101000a900473ffffffffffffffffffffffffffffffffffffffff1681565b6000610c046000801b33610ef4565b610c43576040517f08c379a0000000000000000000000000000000000000000000000000000000008152600401610c3a906128e3565b60405180910390fd5b610c4c82610ab5565b610c595760009050610ebe565b60006001600684604051610c6d919061272c565b908152602001604051809103902054610c869190612b7d565b905060006001600580549050610c9c9190612b7d565b9050600060058281548110610cda577f4e487b7100000000000000000000000000000000000000000000000000000000600052603260045260246000fd5b906000526020600020018054610cef90612c9a565b80601f0160208091040260200160405190810160405280929190818152602001828054610d1b90612c9a565b8015610d685780601f10610d3d57610100808354040283529160200191610d68565b820191906000526020600020905b815481529060010190602001808311610d4b57829003601f168201915b5050505050905060058281548110610da9577f4e487b7100000000000000000000000000000000000000000000000000000000600052603260045260246000fd5b9060005260206000200160058481548110610ded577f4e487b7100000000000000000000000000000000000000000000000000000000600052603260045260246000fd5b90600052602060002001908054610e0390612c9a565b610e0e929190611d6f565b50600183610e1c9190612a9c565b600682604051610e2c919061272c565b908152602001604051809103902081905550600685604051610e4e919061272c565b9081526020016040518091039020600090556005805480610e98577f4e487b7100000000000000000000000000000000000000000000000000000000600052603160045260246000fd5b600190038181906000526020600020016000610eb49190611dfc565b9055600193505050505b919050565b6000610eec826000808681526020019081526020016000206000016117f590919063ffffffff16565b905092915050565b6000610f1d8260008086815260200190815260200160002060000161180f90919063ffffffff16565b905092915050565b6000801b81565b6000610f3b6000801b33610ef4565b610f7a576040517f08c379a0000000000000000000000000000000000000000000000000000000008152600401610f71906128e3565b60405180910390fd5b6064821115610fbe576040517f08c379a0000000000000000000000000000000000000000000000000000000008152600401610fb590612943565b60405180910390fd5b8160078190555060019050919050565b60018181548110610fde57600080fd5b90600052602060002090600302016000915090508060000160009054906101000a900473ffffffffffffffffffffffffffffffffffffffff169080600101805461102790612c9a565b80601f016020809104026020016040519081016040528092919081815260200182805461105390612c9a565b80156110a05780601f10611075576101008083540402835291602001916110a0565b820191906000526020600020905b81548152906001019060200180831161108357829003601f168201915b5050505050908060020180546110b590612c9a565b80601f01602080910402602001604051908101604052809291908181526020018280546110e190612c9a565b801561112e5780601f106111035761010080835404028352916020019161112e565b820191906000526020600020905b81548152906001019060200180831161111157829003601f168201915b5050505050905083565b600260205281600052604060002081805160208101820180518482526020830160208501208183528095505050505050600091509150505481565b600061119260008084815260200190815260200160002060000161183f565b9050919050565b6111bf600080848152602001908152602001600020600201546111ba6116c7565b610ef4565b6111fe576040517f08c379a00000000000000000000000000000000000000000000000000000000081526004016111f590612903565b60405180910390fd5b6112088282611762565b5050565b606481565b60006112206000801b33610ef4565b61125f576040517f08c379a0000000000000000000000000000000000000000000000000000000008152600401611256906128e3565b60405180910390fd5b61126882610ab5565b156112935760068260405161127d919061272c565b9081526020016040518091039020549050611301565b6005829080600181540180825580915050600190039060005260206000200160009091909190915090805190602001906112ce929190611e3c565b5060006005805490509050806006846040516112ea919061272c565b908152602001604051809103902081905550809150505b919050565b6000600460009054906101000a900473ffffffffffffffffffffffffffffffffffffffff1673ffffffffffffffffffffffffffffffffffffffff16638f1b8293856040518263ffffffff1660e01b81526004016113639190612743565b60206040518083038186803b15801561137b57600080fd5b505afa15801561138f573d6000803e3d6000fd5b505050506040513d601f19601f820116820180604052508101906113b3919061220a565b6113f2576040517f08c379a00000000000000000000000000000000000000000000000000000000081526004016113e9906128c3565b60405180910390fd5b6113fb84611469565b61143a576040517f08c379a000000000000000000000000000000000000000000000000000000000815260040161143190612923565b60405180910390fd5b6000611447858585611854565b9050600081111561145c576001915050611462565b60009150505b9392505050565b6000806001905060008060005b60058054905081101561168b57600360009054906101000a900473ffffffffffffffffffffffffffffffffffffffff1673ffffffffffffffffffffffffffffffffffffffff16632ab6219887600584815481106114fc577f4e487b7100000000000000000000000000000000000000000000000000000000600052603260045260246000fd5b906000526020600020016040518363ffffffff1660e01b81526004016115239291906127a3565b60206040518083038186803b15801561153b57600080fd5b505afa15801561154f573d6000803e3d6000fd5b505050506040513d601f19601f82011682018060405250810190611573919061237f565b92506000831415611587576000935061168b565b6000600360009054906101000a900473ffffffffffffffffffffffffffffffffffffffff1673ffffffffffffffffffffffffffffffffffffffff16635c2c7390856040518263ffffffff1660e01b81526004016115e491906129a5565b60006040518083038186803b1580156115fc57600080fd5b505afa158015611610573d6000803e3d6000fd5b505050506040513d6000823e3d601f19601f820116820180604052508101906116399190612315565b9050806020015160ff166064826040015160ff166116579190612b23565b6116619190612af2565b925060075483101561167757600094505061168b565b50808061168390612cfd565b915050611476565b50829350505050919050565b60006116bf836000018373ffffffffffffffffffffffffffffffffffffffff1660001b611a40565b905092915050565b600033905090565b6116f68160008085815260200190815260200160002060000161169790919063ffffffff16565b1561175e576117036116c7565b73ffffffffffffffffffffffffffffffffffffffff168173ffffffffffffffffffffffffffffffffffffffff16837f2f8788117e7eff1d82e926ec794901d17c78024a50270940304540a733656f0d60405160405180910390a45b5050565b61178981600080858152602001908152602001600020600001611ab090919063ffffffff16565b156117f1576117966116c7565b73ffffffffffffffffffffffffffffffffffffffff168173ffffffffffffffffffffffffffffffffffffffff16837ff6391f5c32d9c69d2a47ea670b442974b53935d1edc7fd64eb21e047a839171b60405160405180910390a45b5050565b60006118048360000183611ae0565b60001c905092915050565b6000611837836000018373ffffffffffffffffffffffffffffffffffffffff1660001b611b7a565b905092915050565b600061184d82600001611b9d565b9050919050565b60006118608483610985565b156118c857600260008573ffffffffffffffffffffffffffffffffffffffff1673ffffffffffffffffffffffffffffffffffffffff168152602001908152602001600020826040516118b2919061272c565b9081526020016040518091039020549050611a39565b6118d0611d38565b84816000019073ffffffffffffffffffffffffffffffffffffffff16908173ffffffffffffffffffffffffffffffffffffffff1681525050838160200181905250828160400181905250600181908060018154018082558091505060019003906000526020600020906003020160009091909190915060008201518160000160006101000a81548173ffffffffffffffffffffffffffffffffffffffff021916908373ffffffffffffffffffffffffffffffffffffffff16021790555060208201518160010190805190602001906119a9929190611e3c565b5060408201518160020190805190602001906119c6929190611e3c565b5050506000600180549050905080600260008873ffffffffffffffffffffffffffffffffffffffff1673ffffffffffffffffffffffffffffffffffffffff16815260200190815260200160002085604051611a21919061272c565b90815260200160405180910390208190555080925050505b9392505050565b6000611a4c8383611b7a565b611aa5578260000182908060018154018082558091505060019003906000526020600020016000909190919091505582600001805490508360010160008481526020019081526020016000208190555060019050611aaa565b600090505b92915050565b6000611ad8836000018373ffffffffffffffffffffffffffffffffffffffff1660001b611bae565b905092915050565b600081836000018054905011611b2b576040517f08c379a0000000000000000000000000000000000000000000000000000000008152600401611b2290612883565b60405180910390fd5b826000018281548110611b67577f4e487b7100000000000000000000000000000000000000000000000000000000600052603260045260246000fd5b9060005260206000200154905092915050565b600080836001016000848152602001908152602001600020541415905092915050565b600081600001805490509050919050565b60008083600101600084815260200190815260200160002054905060008114611d2c576000600182611be09190612b7d565b9050600060018660000180549050611bf89190612b7d565b90506000866000018281548110611c38577f4e487b7100000000000000000000000000000000000000000000000000000000600052603260045260246000fd5b9060005260206000200154905080876000018481548110611c82577f4e487b7100000000000000000000000000000000000000000000000000000000600052603260045260246000fd5b9060005260206000200181905550600183611c9d9190612a9c565b8760010160008381526020019081526020016000208190555086600001805480611cf0577f4e487b7100000000000000000000000000000000000000000000000000000000600052603160045260246000fd5b60019003818190600052602060002001600090559055866001016000878152602001908152602001600020600090556001945050505050611d32565b60009150505b92915050565b6040518060600160405280600073ffffffffffffffffffffffffffffffffffffffff16815260200160608152602001606081525090565b828054611d7b90612c9a565b90600052602060002090601f016020900481019282611d9d5760008555611deb565b82601f10611dae5780548555611deb565b82800160010185558215611deb57600052602060002091601f016020900482015b82811115611dea578254825591600101919060010190611dcf565b5b509050611df89190611ec2565b5090565b508054611e0890612c9a565b6000825580601f10611e1a5750611e39565b601f016020900490600052602060002090810190611e389190611ec2565b5b50565b828054611e4890612c9a565b90600052602060002090601f016020900481019282611e6a5760008555611eb1565b82601f10611e8357805160ff1916838001178555611eb1565b82800160010185558215611eb1579182015b82811115611eb0578251825591602001919060010190611e95565b5b509050611ebe9190611ec2565b5090565b5b80821115611edb576000816000905550600101611ec3565b5090565b6000611ef2611eed846129e5565b6129c0565b905082815260208101848484011115611f0a57600080fd5b611f15848285612c58565b509392505050565b6000611f30611f2b846129e5565b6129c0565b905082815260208101848484011115611f4857600080fd5b611f53848285612c67565b509392505050565b600081359050611f6a81613019565b92915050565b600081519050611f7f81613019565b92915050565b600081519050611f9481613030565b92915050565b600081359050611fa981613047565b92915050565b600082601f830112611fc057600080fd5b8135611fd0848260208601611edf565b91505092915050565b600082601f830112611fea57600080fd5b8151611ffa848260208601611f1d565b91505092915050565b600060c0828403121561201557600080fd5b61201f60c06129c0565b9050600061202f84828501611f70565b6000830152506020612043848285016120f9565b6020830152506040612057848285016120f9565b604083015250606061206b848285016120f9565b606083015250608082015167ffffffffffffffff81111561208b57600080fd5b61209784828501611fd9565b60808301525060a082015167ffffffffffffffff8111156120b757600080fd5b6120c384828501611fd9565b60a08301525092915050565b6000813590506120de8161305e565b92915050565b6000815190506120f38161305e565b92915050565b60008151905061210881613075565b92915050565b60006020828403121561212057600080fd5b600061212e84828501611f5b565b91505092915050565b6000806040838503121561214a57600080fd5b600061215885828601611f5b565b925050602083013567ffffffffffffffff81111561217557600080fd5b61218185828601611faf565b9150509250929050565b6000806000606084860312156121a057600080fd5b60006121ae86828701611f5b565b935050602084013567ffffffffffffffff8111156121cb57600080fd5b6121d786828701611faf565b925050604084013567ffffffffffffffff8111156121f457600080fd5b61220086828701611faf565b9150509250925092565b60006020828403121561221c57600080fd5b600061222a84828501611f85565b91505092915050565b60006020828403121561224557600080fd5b600061225384828501611f9a565b91505092915050565b6000806040838503121561226f57600080fd5b600061227d85828601611f9a565b925050602061228e85828601611f5b565b9150509250929050565b600080604083850312156122ab57600080fd5b60006122b985828601611f9a565b92505060206122ca858286016120cf565b9150509250929050565b6000602082840312156122e657600080fd5b600082013567ffffffffffffffff81111561230057600080fd5b61230c84828501611faf565b91505092915050565b60006020828403121561232757600080fd5b600082015167ffffffffffffffff81111561234157600080fd5b61234d84828501612003565b91505092915050565b60006020828403121561236857600080fd5b6000612376848285016120cf565b91505092915050565b60006020828403121561239157600080fd5b600061239f848285016120e4565b91505092915050565b60006123b4838361248b565b905092915050565b6123c581612bb1565b82525050565b6123d481612bb1565b82525050565b60006123e582612a3b565b6123ef8185612a5e565b93508360208202850161240185612a16565b8060005b8581101561243d578484038952815161241e85826123a8565b945061242983612a51565b925060208a01995050600181019050612405565b50829750879550505050505092915050565b61245881612bc3565b82525050565b61246781612bcf565b82525050565b61247681612c10565b82525050565b61248581612c34565b82525050565b600061249682612a46565b6124a08185612a6f565b93506124b0818560208601612c67565b6124b981612e02565b840191505092915050565b60006124cf82612a46565b6124d98185612a80565b93506124e9818560208601612c67565b6124f281612e02565b840191505092915050565b600061250882612a46565b6125128185612a91565b9350612522818560208601612c67565b80840191505092915050565b6000815461253b81612c9a565b6125458186612a80565b945060018216600081146125605760018114612572576125a5565b60ff19831686526020860193506125a5565b61257b85612a26565b60005b8381101561259d5781548189015260018201915060208101905061257e565b808801955050505b50505092915050565b60006125bb602283612a80565b91506125c682612e13565b604082019050919050565b60006125de602f83612a80565b91506125e982612e62565b604082019050919050565b6000612601602183612a80565b915061260c82612eb1565b604082019050919050565b6000612624602083612a80565b915061262f82612f00565b602082019050919050565b6000612647603083612a80565b915061265282612f29565b604082019050919050565b600061266a601483612a80565b915061267582612f78565b602082019050919050565b600061268d601383612a80565b915061269882612fa1565b602082019050919050565b60006126b0602f83612a80565b91506126bb82612fca565b604082019050919050565b60006060830160008301516126de60008601826123bc565b50602083015184820360208601526126f6828261248b565b91505060408301518482036040860152612710828261248b565b9150508091505092915050565b61272681612bf9565b82525050565b600061273882846124fd565b915081905092915050565b600060208201905061275860008301846123cb565b92915050565b600060608201905061277360008301866123cb565b818103602083015261278581856124c4565b9050818103604083015261279981846124c4565b9050949350505050565b60006040820190506127b860008301856123cb565b81810360208301526127ca818461252e565b90509392505050565b600060208201905081810360008301526127ed81846123da565b905092915050565b600060208201905061280a600083018461244f565b92915050565b6000602082019050612825600083018461245e565b92915050565b6000602082019050612840600083018461246d565b92915050565b600060208201905061285b600083018461247c565b92915050565b6000602082019050818103600083015261287b81846124c4565b905092915050565b6000602082019050818103600083015261289c816125ae565b9050919050565b600060208201905081810360008301526128bc816125d1565b9050919050565b600060208201905081810360008301526128dc816125f4565b9050919050565b600060208201905081810360008301526128fc81612617565b9050919050565b6000602082019050818103600083015261291c8161263a565b9050919050565b6000602082019050818103600083015261293c8161265d565b9050919050565b6000602082019050818103600083015261295c81612680565b9050919050565b6000602082019050818103600083015261297c816126a3565b9050919050565b6000602082019050818103600083015261299d81846126c6565b905092915050565b60006020820190506129ba600083018461271d565b92915050565b60006129ca6129db565b90506129d68282612ccc565b919050565b6000604051905090565b600067ffffffffffffffff821115612a00576129ff612dd3565b5b612a0982612e02565b9050602081019050919050565b6000819050602082019050919050565b60008190508160005260206000209050919050565b600081519050919050565b600081519050919050565b6000602082019050919050565b600082825260208201905092915050565b600082825260208201905092915050565b600082825260208201905092915050565b600081905092915050565b6000612aa782612bf9565b9150612ab283612bf9565b9250827fffffffffffffffffffffffffffffffffffffffffffffffffffffffffffffffff03821115612ae757612ae6612d46565b5b828201905092915050565b6000612afd82612bf9565b9150612b0883612bf9565b925082612b1857612b17612d75565b5b828204905092915050565b6000612b2e82612bf9565b9150612b3983612bf9565b9250817fffffffffffffffffffffffffffffffffffffffffffffffffffffffffffffffff0483118215151615612b7257612b71612d46565b5b828202905092915050565b6000612b8882612bf9565b9150612b9383612bf9565b925082821015612ba657612ba5612d46565b5b828203905092915050565b6000612bbc82612bd9565b9050919050565b60008115159050919050565b6000819050919050565b600073ffffffffffffffffffffffffffffffffffffffff82169050919050565b6000819050919050565b600060ff82169050919050565b6000612c1b82612c22565b9050919050565b6000612c2d82612bd9565b9050919050565b6000612c3f82612c46565b9050919050565b6000612c5182612bd9565b9050919050565b82818337600083830152505050565b60005b83811015612c85578082015181840152602081019050612c6a565b83811115612c94576000848401525b50505050565b60006002820490506001821680612cb257607f821691505b60208210811415612cc657612cc5612da4565b5b50919050565b612cd582612e02565b810181811067ffffffffffffffff82111715612cf457612cf3612dd3565b5b80604052505050565b6000612d0882612bf9565b91507fffffffffffffffffffffffffffffffffffffffffffffffffffffffffffffffff821415612d3b57612d3a612d46565b5b600182019050919050565b7f4e487b7100000000000000000000000000000000000000000000000000000000600052601160045260246000fd5b7f4e487b7100000000000000000000000000000000000000000000000000000000600052601260045260246000fd5b7f4e487b7100000000000000000000000000000000000000000000000000000000600052602260045260246000fd5b7f4e487b7100000000000000000000000000000000000000000000000000000000600052604160045260246000fd5b6000601f19601f8301169050919050565b7f456e756d657261626c655365743a20696e646578206f7574206f6620626f756e60008201527f6473000000000000000000000000000000000000000000000000000000000000602082015250565b7f416363657373436f6e74726f6c3a2073656e646572206d75737420626520616e60008201527f2061646d696e20746f206772616e740000000000000000000000000000000000602082015250565b7f73747564656e74206d75737420686176652061206e616d6520636f6e7472616360008201527f7400000000000000000000000000000000000000000000000000000000000000602082015250565b7f41636164656d7943657274696669636174696f6e3a206f6e6c79206f776e6572600082015250565b7f416363657373436f6e74726f6c3a2073656e646572206d75737420626520616e60008201527f2061646d696e20746f207265766f6b6500000000000000000000000000000000602082015250565b7f73747564656e74206e6f7420617070726f766564000000000000000000000000600082015250565b7f496e76616c6964207175697a4d696e696d756d00000000000000000000000000600082015250565b7f416363657373436f6e74726f6c3a2063616e206f6e6c792072656e6f756e636560008201527f20726f6c657320666f722073656c660000000000000000000000000000000000602082015250565b61302281612bb1565b811461302d57600080fd5b50565b61303981612bc3565b811461304457600080fd5b50565b61305081612bcf565b811461305b57600080fd5b50565b61306781612bf9565b811461307257600080fd5b50565b61307e81612c03565b811461308957600080fd5b5056fea2646970667358221220ff7073f1582dc202368f2eeca6587ed69934bd038ca1aec45d755ac05011c9dc64736f6c63430008010033",
  "immutableReferences": {},
  "source": "// SPDX-License-Identifier: MIT\r\npragma solidity 0.8.1;\r\n\r\n//import \"https://github.com/OpenZeppelin/openzeppelin-contracts/blob/master/contracts/access/AccessControl.sol\";\r\n//import '@openzeppelin/contracts/access/AccessControl.sol';\r\nimport './oz-contracts/access/AccessControl.sol';\r\nimport \"./oz-contracts/utils/math/SafeMath.sol\";\r\n\r\nimport './iAcademyStudentQuiz.sol';\r\nimport './iName.sol';\r\n\r\nstruct CertificateStruct {\r\n    address studentAddress;\r\n    string studentName;\r\n    string courseName;\r\n}\r\n\r\n// This certification is exclusive for course Devs 2021-01!\r\n// I found an error retrieving names from MasterName, so this certification is solving this too\r\n\r\ncontract AcademyCertification is AccessControl {\r\n  using SafeMath for uint256;\r\n\r\n  uint256 public constant decimalpercent = 100; //100 = 100%\r\n\r\n  CertificateStruct[] public certificateInfo;    \r\n  mapping(address => mapping(string => uint256)) public certificateIndex;  //By studentAddress, course\r\n\r\n  iAcademyStudentQuiz public academyStudentQuiz;\r\n  iMasterName public masterName;\r\n\r\n  string[] public quizList;\r\n  mapping(string => uint256) public quizListIndex;\r\n  uint256 public quizMinimum;   // In percent  \r\n\r\n  constructor(address addressAcademyStudentQuiz, address addressMasterName) {\r\n      _setupRole(DEFAULT_ADMIN_ROLE, msg.sender);\r\n      academyStudentQuiz = iAcademyStudentQuiz(addressAcademyStudentQuiz);\r\n      masterName = iMasterName(addressMasterName);\r\n      quizMinimum = 60;\r\n  }\r\n\r\n  modifier onlyOwner() {\r\n      require(hasRole(DEFAULT_ADMIN_ROLE, msg.sender), \"AcademyCertification: only owner\");\r\n      _;\r\n  }\r\n\r\n  function addQuiz (string memory name) public onlyOwner returns(uint256) {\r\n    if (existQuiz(name))\r\n        return quizListIndex[name];\r\n\r\n    quizList.push(name);\r\n    uint256 index = quizList.length;\r\n    quizListIndex[name] = index;\r\n    return index;\r\n  }\r\n  \r\n  function delQuiz (string memory name) public onlyOwner returns (bool) {\r\n    if (!existQuiz(name))\r\n        return false;\r\n\r\n    uint256 indexToDelete = quizListIndex[name]-1;\r\n    uint256 indexToMove = quizList.length-1;\r\n    string memory keyToMove = quizList[indexToMove];        \r\n    quizList[indexToDelete] = quizList[indexToMove];\r\n    quizListIndex[keyToMove] = indexToDelete+1;\r\n    delete quizListIndex[name];\r\n    quizList.pop();\r\n    return true;\r\n  }\r\n\r\n  function validateStudent(address studentAddress) public view returns (bool) {\r\n    \r\n    bool pass = true;\r\n    uint256 index;\r\n    uint256 perc;\r\n\r\n    for (uint i = 0; i < quizList.length; i++) {\r\n      index = academyStudentQuiz.indexOf (studentAddress, quizList[i]);\r\n      if (index == 0) {\r\n        pass = false;\r\n        break;\r\n      }\r\n\r\n      StudentQuizStruct memory info = academyStudentQuiz.getStudentQuiz(index);\r\n      perc = info.grade * decimalpercent / info.total;\r\n\r\n      if (perc <  quizMinimum) {\r\n        pass = false;\r\n        break;        \r\n      }\r\n    }\r\n      \r\n    return pass;    \r\n  }\r\n\r\n  function addCertificate (address studentAddress, string memory studentName, string memory course) private returns(uint256) {\r\n    if (existCertificate(studentAddress, course))\r\n      return certificateIndex[studentAddress][course];\r\n\r\n    CertificateStruct memory c;\r\n    c.studentAddress = studentAddress;\r\n    c.studentName = studentName;\r\n    c.courseName = course;\r\n\r\n    certificateInfo.push(c);\r\n    uint256 index = certificateInfo.length;\r\n    certificateIndex[studentAddress][course] = index;\r\n    return index;\r\n  }\r\n  \r\n  function registerCertificate(address studentAddress, string memory studentName, string memory course) public returns (bool) {\r\n    require (masterName.existsOwner(studentAddress), \"student must have a name contract\");\r\n    require (validateStudent(studentAddress), \"student not approved\");\r\n\r\n    uint256 index = addCertificate(studentAddress, studentName, course);\r\n    if (index > 0)\r\n      return true;\r\n    else\r\n      return false;\r\n  }\r\n\r\n  function updateQuizMinimum(uint256 value) public onlyOwner returns (bool) {\r\n    require(value <= decimalpercent, \"Invalid quizMinimum\");\r\n    quizMinimum = value;\r\n    return true;\r\n  }\r\n\r\n  function existCertificate(address studentAddress, string memory course) public view returns (bool) {\r\n    if (certificateIndex[studentAddress][course] == 0)\r\n      return false;\r\n    else\r\n      return true;\r\n  }\r\n\r\n  function existQuiz(string memory name) public view returns (bool) {\r\n      if (quizListIndex[name] == 0)\r\n          return false;\r\n      else\r\n          return true;\r\n  }\r\n\r\n  function countQuiz() public view returns (uint256) {\r\n      return quizList.length;\r\n  }\r\n    \r\n  function listQuiz() public view returns (string[] memory) {\r\n      return quizList;\r\n  }\r\n\r\n  function getCertificate(address studentAddress, string memory course) public view returns (CertificateStruct memory) {\r\n    CertificateStruct memory certificate;\r\n    uint256 index = certificateIndex[studentAddress][course];\r\n    if (index > 0) {\r\n      certificate = certificateInfo[index-1];      \r\n    }\r\n    //return certificateInfo[certificateIndex[studentAddress][course]-1];\r\n    return certificate;\r\n  }\r\n  \r\n  function compareStrings(string memory a, string memory b) private pure returns (bool) {\r\n      return (keccak256(abi.encodePacked((a))) == keccak256(abi.encodePacked((b))));\r\n  }\r\n      \r\n}",
  "sourcePath": "C:/ACADEMY/GITHUB/rsk-academy-dapp/contracts/AcademyCertification.sol",
  "compiler": {
    "name": "solc",
    "version": "0.8.1+commit.df193b15.Emscripten.clang"
  },
  "schemaVersion": "3.4.1",
  "updatedAt": "2021-07-08T14:11:26.752Z",
  "networkType": "ethereum",
  "devdoc": {
    "kind": "dev",
    "methods": {
      "getRoleAdmin(bytes32)": {
        "details": "Returns the admin role that controls `role`. See {grantRole} and {revokeRole}. To change a role's admin, use {_setRoleAdmin}."
      },
      "getRoleMember(bytes32,uint256)": {
        "details": "Returns one of the accounts that have `role`. `index` must be a value between 0 and {getRoleMemberCount}, non-inclusive. Role bearers are not sorted in any particular way, and their ordering may change at any point. WARNING: When using {getRoleMember} and {getRoleMemberCount}, make sure you perform all queries on the same block. See the following https://forum.openzeppelin.com/t/iterating-over-elements-on-enumerableset-in-openzeppelin-contracts/2296[forum post] for more information."
      },
      "getRoleMemberCount(bytes32)": {
        "details": "Returns the number of accounts that have `role`. Can be used together with {getRoleMember} to enumerate all bearers of a role."
      },
      "grantRole(bytes32,address)": {
        "details": "Grants `role` to `account`. If `account` had not been already granted `role`, emits a {RoleGranted} event. Requirements: - the caller must have ``role``'s admin role."
      },
      "hasRole(bytes32,address)": {
        "details": "Returns `true` if `account` has been granted `role`."
      },
      "renounceRole(bytes32,address)": {
        "details": "Revokes `role` from the calling account. Roles are often managed via {grantRole} and {revokeRole}: this function's purpose is to provide a mechanism for accounts to lose their privileges if they are compromised (such as when a trusted device is misplaced). If the calling account had been granted `role`, emits a {RoleRevoked} event. Requirements: - the caller must be `account`."
      },
      "revokeRole(bytes32,address)": {
        "details": "Revokes `role` from `account`. If `account` had been granted `role`, emits a {RoleRevoked} event. Requirements: - the caller must have ``role``'s admin role."
      }
    },
    "version": 1
  },
  "userdoc": {
    "kind": "user",
    "methods": {},
    "version": 1
  }
}