{
  "contractName": "Classes",
  "abi": [
    {
      "constant": true,
      "inputs": [
        {
          "name": "",
          "type": "uint256"
        }
      ],
      "name": "classDates",
      "outputs": [
        {
          "name": "",
          "type": "string"
        }
      ],
      "payable": false,
      "stateMutability": "view",
      "type": "function"
    },
    {
      "constant": true,
      "inputs": [],
      "name": "owner",
      "outputs": [
        {
          "name": "",
          "type": "address"
        }
      ],
      "payable": false,
      "stateMutability": "view",
      "type": "function"
    },
    {
      "constant": true,
      "inputs": [
        {
          "name": "",
          "type": "uint256"
        }
      ],
      "name": "studentAddresses",
      "outputs": [
        {
          "name": "",
          "type": "address"
        }
      ],
      "payable": false,
      "stateMutability": "view",
      "type": "function"
    },
    {
      "inputs": [],
      "payable": false,
      "stateMutability": "nonpayable",
      "type": "constructor"
    },
    {
      "constant": false,
      "inputs": [
        {
          "name": "_date",
          "type": "string"
        }
      ],
      "name": "addClass",
      "outputs": [
        {
          "name": "",
          "type": "bool"
        }
      ],
      "payable": false,
      "stateMutability": "nonpayable",
      "type": "function"
    },
    {
      "constant": false,
      "inputs": [
        {
          "name": "_date",
          "type": "string"
        }
      ],
      "name": "addAttendance",
      "outputs": [
        {
          "name": "",
          "type": "bool"
        }
      ],
      "payable": false,
      "stateMutability": "nonpayable",
      "type": "function"
    },
    {
      "constant": true,
      "inputs": [
        {
          "name": "_date",
          "type": "string"
        }
      ],
      "name": "getAttendanceByDate",
      "outputs": [
        {
          "name": "",
          "type": "address[]"
        }
      ],
      "payable": false,
      "stateMutability": "view",
      "type": "function"
    },
    {
      "constant": true,
      "inputs": [
        {
          "name": "_student",
          "type": "address"
        }
      ],
      "name": "getAttendanceByStudent",
      "outputs": [
        {
          "name": "",
          "type": "string[]"
        }
      ],
      "payable": false,
      "stateMutability": "view",
      "type": "function"
    },
    {
      "constant": true,
      "inputs": [],
      "name": "listClassDates",
      "outputs": [
        {
          "name": "",
          "type": "string[]"
        }
      ],
      "payable": false,
      "stateMutability": "view",
      "type": "function"
    },
    {
      "constant": true,
      "inputs": [],
      "name": "listStudentAddresses",
      "outputs": [
        {
          "name": "",
          "type": "address[]"
        }
      ],
      "payable": false,
      "stateMutability": "view",
      "type": "function"
    }
  ],
  "bytecode": "0x608060405234801561001057600080fd5b50336000806101000a81548173ffffffffffffffffffffffffffffffffffffffff021916908373ffffffffffffffffffffffffffffffffffffffff160217905550610f1b806100606000396000f3fe608060405234801561001057600080fd5b50600436106100b0576000357c0100000000000000000000000000000000000000000000000000000000900480638da5cb5b116100835780638da5cb5b14610151578063b5ab682d1461016f578063c2abb40a1461019f578063f459f538146101cf578063f53a18db146101ff576100b0565b806316161cf1146100b55780631bd3d5ec146100e557806349972871146101035780635518311014610133575b600080fd5b6100cf60048036036100ca9190810190610a09565b61022f565b6040516100dc9190610cca565b60405180910390f35b6100ed6102ea565b6040516100fa9190610c8d565b60405180910390f35b61011d6004803603610118919081019061099f565b6103d3565b60405161012a9190610c8d565b60405180910390f35b61013b6104fb565b6040516101489190610c6b565b60405180910390f35b610159610589565b6040516101669190610c50565b60405180910390f35b61018960048036036101849190810190610a09565b6105ae565b6040516101969190610c50565b60405180910390f35b6101b960048036036101b491908101906109c8565b6105ec565b6040516101c69190610caf565b60405180910390f35b6101e960048036036101e491908101906109c8565b6106c7565b6040516101f69190610caf565b60405180910390f35b610219600480360361021491908101906109c8565b6107d0565b6040516102269190610c6b565b60405180910390f35b60028181548110151561023e57fe5b906000526020600020016000915090508054600181600116156101000203166002900480601f0160208091040260200160405190810160405280929190818152602001828054600181600116156101000203166002900480156102e25780601f106102b7576101008083540402835291602001916102e2565b820191906000526020600020905b8154815290600101906020018083116102c557829003601f168201915b505050505081565b60606002805480602002602001604051908101604052809291908181526020016000905b828210156103ca578382906000526020600020018054600181600116156101000203166002900480601f0160208091040260200160405190810160405280929190818152602001828054600181600116156101000203166002900480156103b65780601f1061038b576101008083540402835291602001916103b6565b820191906000526020600020905b81548152906001019060200180831161039957829003601f168201915b50505050508152602001906001019061030e565b50505050905090565b6060600460008373ffffffffffffffffffffffffffffffffffffffff1673ffffffffffffffffffffffffffffffffffffffff168152602001908152602001600020805480602002602001604051908101604052809291908181526020016000905b828210156104f0578382906000526020600020018054600181600116156101000203166002900480601f0160208091040260200160405190810160405280929190818152602001828054600181600116156101000203166002900480156104dc5780601f106104b1576101008083540402835291602001916104dc565b820191906000526020600020905b8154815290600101906020018083116104bf57829003601f168201915b505050505081526020019060010190610434565b505050509050919050565b6060600180548060200260200160405190810160405280929190818152602001828054801561057f57602002820191906000526020600020905b8160009054906101000a900473ffffffffffffffffffffffffffffffffffffffff1673ffffffffffffffffffffffffffffffffffffffff1681526020019060010190808311610535575b5050505050905090565b6000809054906101000a900473ffffffffffffffffffffffffffffffffffffffff1681565b6001818154811015156105bd57fe5b906000526020600020016000915054906101000a900473ffffffffffffffffffffffffffffffffffffffff1681565b60008060009054906101000a900473ffffffffffffffffffffffffffffffffffffffff1673ffffffffffffffffffffffffffffffffffffffff163373ffffffffffffffffffffffffffffffffffffffff1614151561067f576040517f08c379a000000000000000000000000000000000000000000000000000000000815260040161067690610cec565b60405180910390fd5b60028290806001815401808255809150509060018203906000526020600020016000909192909190915090805190602001906106bc92919061087c565b505060019050919050565b60006003826040516106d99190610c39565b90815260200160405180910390203390806001815401808255809150509060018203906000526020600020016000909192909190916101000a81548173ffffffffffffffffffffffffffffffffffffffff021916908373ffffffffffffffffffffffffffffffffffffffff16021790555050600460003373ffffffffffffffffffffffffffffffffffffffff1673ffffffffffffffffffffffffffffffffffffffff1681526020019081526020016000208290806001815401808255809150509060018203906000526020600020016000909192909190915090805190602001906107c592919061087c565b505060019050919050565b60606003826040516107e29190610c39565b908152602001604051809103902080548060200260200160405190810160405280929190818152602001828054801561087057602002820191906000526020600020905b8160009054906101000a900473ffffffffffffffffffffffffffffffffffffffff1673ffffffffffffffffffffffffffffffffffffffff1681526020019060010190808311610826575b50505050509050919050565b828054600181600116156101000203166002900490600052602060002090601f016020900481019282601f106108bd57805160ff19168380011785556108eb565b828001600101855582156108eb579182015b828111156108ea5782518255916020019190600101906108cf565b5b5090506108f891906108fc565b5090565b61091e91905b8082111561091a576000816000905550600101610902565b5090565b90565b600061092d8235610e52565b905092915050565b600082601f830112151561094857600080fd5b813561095b61095682610d39565b610d0c565b9150808252602083016020830185838301111561097757600080fd5b610982838284610e8e565b50505092915050565b60006109978235610e84565b905092915050565b6000602082840312156109b157600080fd5b60006109bf84828501610921565b91505092915050565b6000602082840312156109da57600080fd5b600082013567ffffffffffffffff8111156109f457600080fd5b610a0084828501610935565b91505092915050565b600060208284031215610a1b57600080fd5b6000610a298482850161098b565b91505092915050565b6000610a3e8383610a5e565b60208301905092915050565b6000610a568383610b87565b905092915050565b610a6781610e14565b82525050565b610a7681610e14565b82525050565b6000610a8782610d7f565b610a918185610dc5565b9350610a9c83610d65565b60005b82811015610aca57610ab2868351610a32565b9550610abd82610dab565b9150600181019050610a9f565b50849250505092915050565b6000610ae182610d8a565b610aeb8185610dd6565b935083602082028501610afd85610d72565b60005b84811015610b36578383038852610b18838351610a4a565b9250610b2382610db8565b9150602088019750600181019050610b00565b508196508694505050505092915050565b610b5081610e26565b82525050565b6000610b6182610da0565b610b6b8185610e09565b9350610b7b818560208601610e9d565b80840191505092915050565b6000610b9282610d95565b610b9c8185610de7565b9350610bac818560208601610e9d565b610bb581610ed0565b840191505092915050565b6000610bcb82610d95565b610bd58185610df8565b9350610be5818560208601610e9d565b610bee81610ed0565b840191505092915050565b6000610c06600a83610df8565b91507f6f6e6c79206f776e6572000000000000000000000000000000000000000000006000830152602082019050919050565b6000610c458284610b56565b915081905092915050565b6000602082019050610c656000830184610a6d565b92915050565b60006020820190508181036000830152610c858184610a7c565b905092915050565b60006020820190508181036000830152610ca78184610ad6565b905092915050565b6000602082019050610cc46000830184610b47565b92915050565b60006020820190508181036000830152610ce48184610bc0565b905092915050565b60006020820190508181036000830152610d0581610bf9565b9050919050565b6000604051905081810181811067ffffffffffffffff82111715610d2f57600080fd5b8060405250919050565b600067ffffffffffffffff821115610d5057600080fd5b601f19601f8301169050602081019050919050565b6000602082019050919050565b6000602082019050919050565b600081519050919050565b600081519050919050565b600081519050919050565b600081519050919050565b6000602082019050919050565b6000602082019050919050565b600082825260208201905092915050565b600082825260208201905092915050565b600082825260208201905092915050565b600082825260208201905092915050565b600081905092915050565b6000610e1f82610e32565b9050919050565b60008115159050919050565b600073ffffffffffffffffffffffffffffffffffffffff82169050919050565b6000610e5d82610e64565b9050919050565b600073ffffffffffffffffffffffffffffffffffffffff82169050919050565b6000819050919050565b82818337600083830152505050565b60005b83811015610ebb578082015181840152602081019050610ea0565b83811115610eca576000848401525b50505050565b6000601f19601f830116905091905056fea265627a7a72305820b029f0b69adbb7aef1379a7e609b170498dcc97322fc644d7da68907b31649116c6578706572696d656e74616cf50037",
  "source": "pragma solidity 0.5.4;\r\npragma experimental ABIEncoderV2;\r\n\r\ncontract Classes {\r\n    address public owner;\r\n    address[] public studentAddresses;\r\n    \r\n    string[] public classDates;                     //Format: year-month-day\r\n    mapping(string => address[]) classAttendance;\r\n    mapping(address => string[]) studentAttendance;\r\n\r\n    constructor() public {\r\n        owner = msg.sender;\r\n    }\r\n\r\n    modifier onlyOwner() {\r\n        require(msg.sender == owner, \"only owner\");\r\n        _;\r\n    }    \r\n\r\n    function addClass(string memory _date) public onlyOwner returns (bool) {\r\n        classDates.push(_date);\r\n        return true;\r\n    }\r\n\r\n    function addAttendance(string memory _date) public returns (bool) {\r\n        classAttendance[_date].push(msg.sender);\r\n        studentAttendance[msg.sender].push(_date);\r\n        return true;\r\n    }\r\n\r\n    function getAttendanceByDate(string memory _date) public view returns (address[] memory) {\r\n        return classAttendance[_date];\r\n    }\r\n    \r\n    function getAttendanceByStudent(address _student) public view returns (string[] memory) {\r\n        return studentAttendance[_student];\r\n    }\r\n    \r\n    function listClassDates () public view returns (string[] memory) {\r\n        return classDates;\r\n    }\r\n    \r\n    function listStudentAddresses () public view returns (address[] memory) {\r\n        return studentAddresses;\r\n    }\r\n    \r\n}\r\n",
  "sourcePath": "C:/ETH/classes/contracts/Classes.sol",
  "compiler": {
    "name": "solc",
    "version": "0.5.4+commit.9549d8ff.Emscripten.clang"
  },
  "schemaVersion": "3.3.2",
  "updatedAt": "2020-12-08T13:56:37.767Z",
  "devdoc": {
    "methods": {}
  },
  "userdoc": {
    "methods": {}
  }
}