{
  "contractName": "MasterName",
  "abi": [
    {
      "inputs": [
        {
          "internalType": "address",
          "name": "addressStudentList",
          "type": "address"
        }
      ],
      "stateMutability": "nonpayable",
      "type": "constructor"
    },
    {
      "anonymous": false,
      "inputs": [
        {
          "indexed": true,
          "internalType": "address",
          "name": "owner",
          "type": "address"
        },
        {
          "indexed": true,
          "internalType": "address",
          "name": "scName",
          "type": "address"
        },
        {
          "indexed": false,
          "internalType": "string",
          "name": "name",
          "type": "string"
        }
      ],
      "name": "NameAdded",
      "type": "event"
    },
    {
      "anonymous": false,
      "inputs": [
        {
          "indexed": true,
          "internalType": "address",
          "name": "owner",
          "type": "address"
        },
        {
          "indexed": true,
          "internalType": "address",
          "name": "scName",
          "type": "address"
        },
        {
          "indexed": false,
          "internalType": "string",
          "name": "name",
          "type": "string"
        }
      ],
      "name": "NameDeleted",
      "type": "event"
    },
    {
      "anonymous": false,
      "inputs": [
        {
          "indexed": true,
          "internalType": "bytes32",
          "name": "role",
          "type": "bytes32"
        },
        {
          "indexed": true,
          "internalType": "bytes32",
          "name": "previousAdminRole",
          "type": "bytes32"
        },
        {
          "indexed": true,
          "internalType": "bytes32",
          "name": "newAdminRole",
          "type": "bytes32"
        }
      ],
      "name": "RoleAdminChanged",
      "type": "event"
    },
    {
      "anonymous": false,
      "inputs": [
        {
          "indexed": true,
          "internalType": "bytes32",
          "name": "role",
          "type": "bytes32"
        },
        {
          "indexed": true,
          "internalType": "address",
          "name": "account",
          "type": "address"
        },
        {
          "indexed": true,
          "internalType": "address",
          "name": "sender",
          "type": "address"
        }
      ],
      "name": "RoleGranted",
      "type": "event"
    },
    {
      "anonymous": false,
      "inputs": [
        {
          "indexed": true,
          "internalType": "bytes32",
          "name": "role",
          "type": "bytes32"
        },
        {
          "indexed": true,
          "internalType": "address",
          "name": "account",
          "type": "address"
        },
        {
          "indexed": true,
          "internalType": "address",
          "name": "sender",
          "type": "address"
        }
      ],
      "name": "RoleRevoked",
      "type": "event"
    },
    {
      "inputs": [],
      "name": "DEFAULT_ADMIN_ROLE",
      "outputs": [
        {
          "internalType": "bytes32",
          "name": "",
          "type": "bytes32"
        }
      ],
      "stateMutability": "view",
      "type": "function",
      "constant": true
    },
    {
      "inputs": [
        {
          "internalType": "bytes32",
          "name": "role",
          "type": "bytes32"
        }
      ],
      "name": "getRoleAdmin",
      "outputs": [
        {
          "internalType": "bytes32",
          "name": "",
          "type": "bytes32"
        }
      ],
      "stateMutability": "view",
      "type": "function",
      "constant": true
    },
    {
      "inputs": [
        {
          "internalType": "bytes32",
          "name": "role",
          "type": "bytes32"
        },
        {
          "internalType": "uint256",
          "name": "index",
          "type": "uint256"
        }
      ],
      "name": "getRoleMember",
      "outputs": [
        {
          "internalType": "address",
          "name": "",
          "type": "address"
        }
      ],
      "stateMutability": "view",
      "type": "function",
      "constant": true
    },
    {
      "inputs": [
        {
          "internalType": "bytes32",
          "name": "role",
          "type": "bytes32"
        }
      ],
      "name": "getRoleMemberCount",
      "outputs": [
        {
          "internalType": "uint256",
          "name": "",
          "type": "uint256"
        }
      ],
      "stateMutability": "view",
      "type": "function",
      "constant": true
    },
    {
      "inputs": [
        {
          "internalType": "bytes32",
          "name": "role",
          "type": "bytes32"
        },
        {
          "internalType": "address",
          "name": "account",
          "type": "address"
        }
      ],
      "name": "grantRole",
      "outputs": [],
      "stateMutability": "nonpayable",
      "type": "function"
    },
    {
      "inputs": [
        {
          "internalType": "bytes32",
          "name": "role",
          "type": "bytes32"
        },
        {
          "internalType": "address",
          "name": "account",
          "type": "address"
        }
      ],
      "name": "hasRole",
      "outputs": [
        {
          "internalType": "bool",
          "name": "",
          "type": "bool"
        }
      ],
      "stateMutability": "view",
      "type": "function",
      "constant": true
    },
    {
      "inputs": [
        {
          "internalType": "bytes32",
          "name": "role",
          "type": "bytes32"
        },
        {
          "internalType": "address",
          "name": "account",
          "type": "address"
        }
      ],
      "name": "renounceRole",
      "outputs": [],
      "stateMutability": "nonpayable",
      "type": "function"
    },
    {
      "inputs": [
        {
          "internalType": "bytes32",
          "name": "role",
          "type": "bytes32"
        },
        {
          "internalType": "address",
          "name": "account",
          "type": "address"
        }
      ],
      "name": "revokeRole",
      "outputs": [],
      "stateMutability": "nonpayable",
      "type": "function"
    },
    {
      "inputs": [],
      "name": "studentList",
      "outputs": [
        {
          "internalType": "contract iAcademyStudents",
          "name": "",
          "type": "address"
        }
      ],
      "stateMutability": "view",
      "type": "function",
      "constant": true
    },
    {
      "inputs": [
        {
          "internalType": "address",
          "name": "scNameAddress",
          "type": "address"
        },
        {
          "internalType": "string",
          "name": "name",
          "type": "string"
        }
      ],
      "name": "addName",
      "outputs": [
        {
          "internalType": "bool",
          "name": "",
          "type": "bool"
        }
      ],
      "stateMutability": "nonpayable",
      "type": "function"
    },
    {
      "inputs": [
        {
          "internalType": "address",
          "name": "scOwner",
          "type": "address"
        },
        {
          "internalType": "address",
          "name": "scNameAddress",
          "type": "address"
        },
        {
          "internalType": "string",
          "name": "name",
          "type": "string"
        }
      ],
      "name": "addNameBySC",
      "outputs": [
        {
          "internalType": "bool",
          "name": "",
          "type": "bool"
        }
      ],
      "stateMutability": "nonpayable",
      "type": "function"
    },
    {
      "inputs": [],
      "name": "deleteName",
      "outputs": [
        {
          "internalType": "bool",
          "name": "",
          "type": "bool"
        }
      ],
      "stateMutability": "nonpayable",
      "type": "function"
    },
    {
      "inputs": [
        {
          "internalType": "address",
          "name": "scOwner",
          "type": "address"
        }
      ],
      "name": "deleteNameBySC",
      "outputs": [
        {
          "internalType": "bool",
          "name": "",
          "type": "bool"
        }
      ],
      "stateMutability": "nonpayable",
      "type": "function"
    },
    {
      "inputs": [
        {
          "internalType": "address",
          "name": "addressStudentList",
          "type": "address"
        }
      ],
      "name": "updateStudentList",
      "outputs": [
        {
          "internalType": "bool",
          "name": "",
          "type": "bool"
        }
      ],
      "stateMutability": "nonpayable",
      "type": "function"
    },
    {
      "inputs": [
        {
          "internalType": "address",
          "name": "account",
          "type": "address"
        }
      ],
      "name": "existsOwner",
      "outputs": [
        {
          "internalType": "bool",
          "name": "",
          "type": "bool"
        }
      ],
      "stateMutability": "view",
      "type": "function",
      "constant": true
    },
    {
      "inputs": [
        {
          "internalType": "address",
          "name": "scAddress",
          "type": "address"
        }
      ],
      "name": "existsSCName",
      "outputs": [
        {
          "internalType": "bool",
          "name": "",
          "type": "bool"
        }
      ],
      "stateMutability": "view",
      "type": "function",
      "constant": true
    },
    {
      "inputs": [
        {
          "internalType": "address",
          "name": "scNameAddress",
          "type": "address"
        },
        {
          "internalType": "string",
          "name": "name_",
          "type": "string"
        }
      ],
      "name": "checkName",
      "outputs": [
        {
          "internalType": "bool",
          "name": "",
          "type": "bool"
        }
      ],
      "stateMutability": "view",
      "type": "function",
      "constant": true
    },
    {
      "inputs": [],
      "name": "listNameInfo",
      "outputs": [
        {
          "components": [
            {
              "internalType": "address",
              "name": "owner",
              "type": "address"
            },
            {
              "internalType": "address",
              "name": "scName",
              "type": "address"
            },
            {
              "internalType": "string",
              "name": "name",
              "type": "string"
            }
          ],
          "internalType": "struct MasterName.NameStruct[]",
          "name": "",
          "type": "tuple[]"
        }
      ],
      "stateMutability": "view",
      "type": "function",
      "constant": true
    },
    {
      "inputs": [],
      "name": "countNames",
      "outputs": [
        {
          "internalType": "uint256",
          "name": "",
          "type": "uint256"
        }
      ],
      "stateMutability": "view",
      "type": "function",
      "constant": true
    },
    {
      "inputs": [
        {
          "internalType": "address",
          "name": "scNameAddress",
          "type": "address"
        }
      ],
      "name": "getOwnerSC",
      "outputs": [
        {
          "internalType": "address",
          "name": "",
          "type": "address"
        }
      ],
      "stateMutability": "view",
      "type": "function",
      "constant": true
    },
    {
      "inputs": [
        {
          "internalType": "address",
          "name": "scNameAddress",
          "type": "address"
        }
      ],
      "name": "getName",
      "outputs": [
        {
          "internalType": "string",
          "name": "",
          "type": "string"
        }
      ],
      "stateMutability": "view",
      "type": "function",
      "constant": true
    }
  ],
  "bytecode": "0x60806040523480156200001157600080fd5b5060405162002f7738038062002f77833981810160405281019062000037919062000241565b6200004c6000801b336200009460201b60201c565b80600460006101000a81548173ffffffffffffffffffffffffffffffffffffffff021916908373ffffffffffffffffffffffffffffffffffffffff16021790555050620002bb565b620000a68282620000aa60201b60201c565b5050565b620000d8816000808581526020019081526020016000206000016200014d60201b62000cca1790919060201c565b156200014957620000ee6200018560201b60201c565b73ffffffffffffffffffffffffffffffffffffffff168173ffffffffffffffffffffffffffffffffffffffff16837f2f8788117e7eff1d82e926ec794901d17c78024a50270940304540a733656f0d60405160405180910390a45b5050565b60006200017d836000018373ffffffffffffffffffffffffffffffffffffffff1660001b6200018d60201b60201c565b905092915050565b600033905090565b6000620001a183836200020760201b60201c565b620001fc57826000018290806001815401808255809150506001900390600052602060002001600090919091909150558260000180549050836001016000848152602001908152602001600020819055506001905062000201565b600090505b92915050565b600080836001016000848152602001908152602001600020541415905092915050565b6000815190506200023b81620002a1565b92915050565b6000602082840312156200025457600080fd5b600062000264848285016200022a565b91505092915050565b60006200027a8262000281565b9050919050565b600073ffffffffffffffffffffffffffffffffffffffff82169050919050565b620002ac816200026d565b8114620002b857600080fd5b50565b612cac80620002cb6000396000f3fe608060405234801561001057600080fd5b50600436106101375760003560e01c8063939678bb116100b8578063ca15c8731161007c578063ca15c8731461039c578063d0aab3fd146103cc578063d43e001a146103fc578063d547741f1461041a578063d5f22ec214610436578063e8330ac71461046657610137565b8063939678bb146102d0578063a217fddf14610300578063a9cad5b31461031e578063ad36e0c91461034e578063bf16fd451461036c57610137565b80636738acf7116100ff5780636738acf7146101f25780638edb4a43146102105780638f1b8293146102405780639010d07c1461027057806391d14854146102a057610137565b8063248a9ca31461013c5780632f2ff15d1461016c5780633209207e1461018857806336568abe146101a65780635fd4b08a146101c2575b600080fd5b61015660048036038101906101519190611f95565b610496565b6040516101639190612511565b60405180910390f35b61018660048036038101906101819190611fbe565b6104b5565b005b610190610528565b60405161019d91906124f6565b60405180910390f35b6101c060048036038101906101bb9190611fbe565b610575565b005b6101dc60048036038101906101d79190611e5f565b6105f8565b6040516101e99190612547565b60405180910390f35b6101fa61068a565b60405161020791906124d4565b60405180910390f35b61022a60048036038101906102259190611e5f565b610827565b60405161023791906124f6565b60405180910390f35b61025a60048036038101906102559190611e5f565b6108bf565b60405161026791906124f6565b60405180910390f35b61028a60048036038101906102859190611ffa565b61091b565b6040516102979190612489565b60405180910390f35b6102ba60048036038101906102b59190611fbe565b61094c565b6040516102c791906124f6565b60405180910390f35b6102ea60048036038101906102e59190611e5f565b61097d565b6040516102f791906124f6565b60405180910390f35b6103086109d9565b6040516103159190612511565b60405180910390f35b61033860048036038101906103339190611e5f565b6109e0565b6040516103459190612489565b60405180910390f35b610356610a6c565b60405161036391906126ab565b60405180910390f35b61038660048036038101906103819190611e5f565b610a79565b60405161039391906124f6565b60405180910390f35b6103b660048036038101906103b19190611f95565b610ada565b6040516103c391906126ab565b60405180910390f35b6103e660048036038101906103e19190611f18565b610b00565b6040516103f391906124f6565b60405180910390f35b610404610b18565b604051610411919061252c565b60405180910390f35b610434600480360381019061042f9190611fbe565b610b3e565b005b610450600480360381019061044b9190611eb1565b610bb1565b60405161045d91906124f6565b60405180910390f35b610480600480360381019061047b9190611f18565b610c16565b60405161048d91906124f6565b60405180910390f35b6000806000838152602001908152602001600020600201549050919050565b6104db600080848152602001908152602001600020600201546104d6610cfa565b61094c565b61051a576040517f08c379a0000000000000000000000000000000000000000000000000000000008152600401610511906125cb565b60405180910390fd5b6105248282610d02565b5050565b600080600260003373ffffffffffffffffffffffffffffffffffffffff1673ffffffffffffffffffffffffffffffffffffffff168152602001908152602001600020549050600191505090565b61057d610cfa565b73ffffffffffffffffffffffffffffffffffffffff168173ffffffffffffffffffffffffffffffffffffffff16146105ea576040517f08c379a00000000000000000000000000000000000000000000000000000000081526004016105e19061268b565b60405180910390fd5b6105f48282610d95565b5050565b606060008290508073ffffffffffffffffffffffffffffffffffffffff166317d7de7c6040518163ffffffff1660e01b815260040160006040518083038186803b15801561064557600080fd5b505afa158015610659573d6000803e3d6000fd5b505050506040513d6000823e3d601f19601f820116820180604052508101906106829190612036565b915050919050565b60606001805480602002602001604051908101604052809291908181526020016000905b8282101561081e57838290600052602060002090600302016040518060600160405290816000820160009054906101000a900473ffffffffffffffffffffffffffffffffffffffff1673ffffffffffffffffffffffffffffffffffffffff1673ffffffffffffffffffffffffffffffffffffffff1681526020016001820160009054906101000a900473ffffffffffffffffffffffffffffffffffffffff1673ffffffffffffffffffffffffffffffffffffffff1673ffffffffffffffffffffffffffffffffffffffff16815260200160028201805461078d90612910565b80601f01602080910402602001604051908101604052809291908181526020018280546107b990612910565b80156108065780601f106107db57610100808354040283529160200191610806565b820191906000526020600020905b8154815290600101906020018083116107e957829003601f168201915b505050505081525050815260200190600101906106ae565b50505050905090565b60006108366000801b3361094c565b610875576040517f08c379a000000000000000000000000000000000000000000000000000000000815260040161086c9061260b565b60405180910390fd5b81600460006101000a81548173ffffffffffffffffffffffffffffffffffffffff021916908373ffffffffffffffffffffffffffffffffffffffff16021790555060019050919050565b600080600260008473ffffffffffffffffffffffffffffffffffffffff1673ffffffffffffffffffffffffffffffffffffffff1681526020019081526020016000205414156109115760009050610916565b600190505b919050565b600061094482600080868152602001908152602001600020600001610e2890919063ffffffff16565b905092915050565b600061097582600080868152602001908152602001600020600001610e4290919063ffffffff16565b905092915050565b600080600360008473ffffffffffffffffffffffffffffffffffffffff1673ffffffffffffffffffffffffffffffffffffffff1681526020019081526020016000205414156109cf57600090506109d4565b600190505b919050565b6000801b81565b6000808290508073ffffffffffffffffffffffffffffffffffffffff16638da5cb5b6040518163ffffffff1660e01b815260040160206040518083038186803b158015610a2c57600080fd5b505afa158015610a40573d6000803e3d6000fd5b505050506040513d601f19601f82011682018060405250810190610a649190611e88565b915050919050565b6000600180549050905090565b6000610a886000801b3361094c565b610ac7576040517f08c379a0000000000000000000000000000000000000000000000000000000008152600401610abe9061260b565b60405180910390fd5b610ad082610e72565b5060019050919050565b6000610af960008084815260200190815260200160002060000161104c565b9050919050565b6000610b0d338484611061565b506001905092915050565b600460009054906101000a900473ffffffffffffffffffffffffffffffffffffffff1681565b610b6460008084815260200190815260200160002060020154610b5f610cfa565b61094c565b610ba3576040517f08c379a0000000000000000000000000000000000000000000000000000000008152600401610b9a906125eb565b60405180910390fd5b610bad8282610d95565b5050565b6000610bc06000801b3361094c565b610bff576040517f08c379a0000000000000000000000000000000000000000000000000000000008152600401610bf69061260b565b60405180910390fd5b610c0a848484611061565b50600190509392505050565b60008083905060008173ffffffffffffffffffffffffffffffffffffffff166317d7de7c6040518163ffffffff1660e01b815260040160006040518083038186803b158015610c6457600080fd5b505afa158015610c78573d6000803e3d6000fd5b505050506040513d6000823e3d601f19601f82011682018060405250810190610ca19190612036565b9050610cad818561151a565b15610cbd57600192505050610cc4565b6000925050505b92915050565b6000610cf2836000018373ffffffffffffffffffffffffffffffffffffffff1660001b611573565b905092915050565b600033905090565b610d2981600080858152602001908152602001600020600001610cca90919063ffffffff16565b15610d9157610d36610cfa565b73ffffffffffffffffffffffffffffffffffffffff168173ffffffffffffffffffffffffffffffffffffffff16837f2f8788117e7eff1d82e926ec794901d17c78024a50270940304540a733656f0d60405160405180910390a45b5050565b610dbc816000808581526020019081526020016000206000016115e390919063ffffffff16565b15610e2457610dc9610cfa565b73ffffffffffffffffffffffffffffffffffffffff168173ffffffffffffffffffffffffffffffffffffffff16837ff6391f5c32d9c69d2a47ea670b442974b53935d1edc7fd64eb21e047a839171b60405160405180910390a45b5050565b6000610e378360000183611613565b60001c905092915050565b6000610e6a836000018373ffffffffffffffffffffffffffffffffffffffff1660001b6116ad565b905092915050565b600080600260008473ffffffffffffffffffffffffffffffffffffffff1673ffffffffffffffffffffffffffffffffffffffff168152602001908152602001600020549050600060018281548110610ef3577f4e487b7100000000000000000000000000000000000000000000000000000000600052603260045260246000fd5b906000526020600020906003020160010160009054906101000a900473ffffffffffffffffffffffffffffffffffffffff16905060018281548110610f61577f4e487b7100000000000000000000000000000000000000000000000000000000600052603260045260246000fd5b906000526020600020906003020160010160009054906101000a900473ffffffffffffffffffffffffffffffffffffffff1673ffffffffffffffffffffffffffffffffffffffff168473ffffffffffffffffffffffffffffffffffffffff167fa11e4637eb6bbd01e1e2dd6627636f85c66e95e4621a9178b27bcbad7562b9ee6001858154811061101b577f4e487b7100000000000000000000000000000000000000000000000000000000600052603260045260246000fd5b90600052602060002090600302016002016040516110399190612569565b60405180910390a3600192505050919050565b600061105a826000016116d0565b9050919050565b600061106c8361097d565b156110ac576040517f08c379a00000000000000000000000000000000000000000000000000000000081526004016110a3906125ab565b60405180910390fd5b6110b5846108bf565b156110f5576040517f08c379a00000000000000000000000000000000000000000000000000000000081526004016110ec9061264b565b60405180910390fd5b60008390506111868173ffffffffffffffffffffffffffffffffffffffff166317d7de7c6040518163ffffffff1660e01b815260040160006040518083038186803b15801561114357600080fd5b505afa158015611157573d6000803e3d6000fd5b505050506040513d6000823e3d601f19601f820116820180604052508101906111809190612036565b8461151a565b6111c5576040517f08c379a00000000000000000000000000000000000000000000000000000000081526004016111bc9061266b565b60405180910390fd5b8473ffffffffffffffffffffffffffffffffffffffff168173ffffffffffffffffffffffffffffffffffffffff16638da5cb5b6040518163ffffffff1660e01b815260040160206040518083038186803b15801561122257600080fd5b505afa158015611236573d6000803e3d6000fd5b505050506040513d601f19601f8201168201806040525081019061125a9190611e88565b73ffffffffffffffffffffffffffffffffffffffff16146112b0576040517f08c379a00000000000000000000000000000000000000000000000000000000081526004016112a79061262b565b60405180910390fd5b6112b8611aeb565b85816000019073ffffffffffffffffffffffffffffffffffffffff16908173ffffffffffffffffffffffffffffffffffffffff168152505084816020019073ffffffffffffffffffffffffffffffffffffffff16908173ffffffffffffffffffffffffffffffffffffffff1681525050838160400181905250600181908060018154018082558091505060019003906000526020600020906003020160009091909190915060008201518160000160006101000a81548173ffffffffffffffffffffffffffffffffffffffff021916908373ffffffffffffffffffffffffffffffffffffffff16021790555060208201518160010160006101000a81548173ffffffffffffffffffffffffffffffffffffffff021916908373ffffffffffffffffffffffffffffffffffffffff1602179055506040820151816002019080519060200190611407929190611b38565b5050506000600180549050905080600260008973ffffffffffffffffffffffffffffffffffffffff1673ffffffffffffffffffffffffffffffffffffffff1681526020019081526020016000208190555080600360008873ffffffffffffffffffffffffffffffffffffffff1673ffffffffffffffffffffffffffffffffffffffff168152602001908152602001600020819055506114a687876116e1565b508673ffffffffffffffffffffffffffffffffffffffff168673ffffffffffffffffffffffffffffffffffffffff167f2b824af0f727954b97daea8fcd4ca48fb52a488e8853e716f5b48faa3cd1a2f4876040516115049190612547565b60405180910390a3600193505050509392505050565b60008160405160200161152d9190612472565b60405160208183030381529060405280519060200120836040516020016115549190612472565b6040516020818303038152906040528051906020012014905092915050565b600061157f83836116ad565b6115d85782600001829080600181540180825580915050600190039060005260206000200160009091909190915055826000018054905083600101600084815260200190815260200160002081905550600190506115dd565b600090505b92915050565b600061160b836000018373ffffffffffffffffffffffffffffffffffffffff1660001b611961565b905092915050565b60008183600001805490501161165e576040517f08c379a00000000000000000000000000000000000000000000000000000000081526004016116559061258b565b60405180910390fd5b82600001828154811061169a577f4e487b7100000000000000000000000000000000000000000000000000000000600052603260045260246000fd5b9060005260206000200154905092915050565b600080836001016000848152602001908152602001600020541415905092915050565b600081600001805490509050919050565b6000600460009054906101000a900473ffffffffffffffffffffffffffffffffffffffff1673ffffffffffffffffffffffffffffffffffffffff166382f7d392846040518263ffffffff1660e01b815260040161173e9190612489565b60206040518083038186803b15801561175657600080fd5b505afa15801561176a573d6000803e3d6000fd5b505050506040513d601f19601f8201168201806040525081019061178e9190611f6c565b61179b576000905061195b565b6000600460009054906101000a900473ffffffffffffffffffffffffffffffffffffffff1673ffffffffffffffffffffffffffffffffffffffff16639f3da5cc856040518263ffffffff1660e01b81526004016117f89190612489565b60006040518083038186803b15801561181057600080fd5b505afa158015611824573d6000803e3d6000fd5b505050506040513d6000823e3d601f19601f8201168201806040525081019061184d9190612077565b9050600073ffffffffffffffffffffffffffffffffffffffff16816040015173ffffffffffffffffffffffffffffffffffffffff1614611955576000816040015190508073ffffffffffffffffffffffffffffffffffffffff16638a06d20b856040518060400160405280600481526020017f4e616d65000000000000000000000000000000000000000000000000000000008152506040518363ffffffff1660e01b81526004016119009291906124a4565b602060405180830381600087803b15801561191a57600080fd5b505af115801561192e573d6000803e3d6000fd5b505050506040513d601f19601f8201168201806040525081019061195291906120b8565b50505b60019150505b92915050565b60008083600101600084815260200190815260200160002054905060008114611adf5760006001826119939190612824565b90506000600186600001805490506119ab9190612824565b905060008660000182815481106119eb577f4e487b7100000000000000000000000000000000000000000000000000000000600052603260045260246000fd5b9060005260206000200154905080876000018481548110611a35577f4e487b7100000000000000000000000000000000000000000000000000000000600052603260045260246000fd5b9060005260206000200181905550600183611a5091906127ce565b8760010160008381526020019081526020016000208190555086600001805480611aa3577f4e487b7100000000000000000000000000000000000000000000000000000000600052603160045260246000fd5b60019003818190600052602060002001600090559055866001016000878152602001908152602001600020600090556001945050505050611ae5565b60009150505b92915050565b6040518060600160405280600073ffffffffffffffffffffffffffffffffffffffff168152602001600073ffffffffffffffffffffffffffffffffffffffff168152602001606081525090565b828054611b4490612910565b90600052602060002090601f016020900481019282611b665760008555611bad565b82601f10611b7f57805160ff1916838001178555611bad565b82800160010185558215611bad579182015b82811115611bac578251825591602001919060010190611b91565b5b509050611bba9190611bbe565b5090565b5b80821115611bd7576000816000905550600101611bbf565b5090565b6000611bee611be9846126eb565b6126c6565b90508083825260208201905082856020860282011115611c0d57600080fd5b60005b85811015611c3d5781611c238882611cd8565b845260208401935060208301925050600181019050611c10565b5050509392505050565b6000611c5a611c5584612717565b6126c6565b905082815260208101848484011115611c7257600080fd5b611c7d8482856128ce565b509392505050565b6000611c98611c9384612717565b6126c6565b905082815260208101848484011115611cb057600080fd5b611cbb8482856128dd565b509392505050565b600081359050611cd281612c1a565b92915050565b600081519050611ce781612c1a565b92915050565b600082601f830112611cfe57600080fd5b8151611d0e848260208601611bdb565b91505092915050565b600081519050611d2681612c31565b92915050565b600081359050611d3b81612c48565b92915050565b600082601f830112611d5257600080fd5b8135611d62848260208601611c47565b91505092915050565b600082601f830112611d7c57600080fd5b8151611d8c848260208601611c85565b91505092915050565b600060a08284031215611da757600080fd5b611db160a06126c6565b90506000611dc184828501611e4a565b6000830152506020611dd584828501611cd8565b6020830152506040611de984828501611cd8565b6040830152506060611dfd84828501611cd8565b606083015250608082015167ffffffffffffffff811115611e1d57600080fd5b611e2984828501611ced565b60808301525092915050565b600081359050611e4481612c5f565b92915050565b600081519050611e5981612c5f565b92915050565b600060208284031215611e7157600080fd5b6000611e7f84828501611cc3565b91505092915050565b600060208284031215611e9a57600080fd5b6000611ea884828501611cd8565b91505092915050565b600080600060608486031215611ec657600080fd5b6000611ed486828701611cc3565b9350506020611ee586828701611cc3565b925050604084013567ffffffffffffffff811115611f0257600080fd5b611f0e86828701611d41565b9150509250925092565b60008060408385031215611f2b57600080fd5b6000611f3985828601611cc3565b925050602083013567ffffffffffffffff811115611f5657600080fd5b611f6285828601611d41565b9150509250929050565b600060208284031215611f7e57600080fd5b6000611f8c84828501611d17565b91505092915050565b600060208284031215611fa757600080fd5b6000611fb584828501611d2c565b91505092915050565b60008060408385031215611fd157600080fd5b6000611fdf85828601611d2c565b9250506020611ff085828601611cc3565b9150509250929050565b6000806040838503121561200d57600080fd5b600061201b85828601611d2c565b925050602061202c85828601611e35565b9150509250929050565b60006020828403121561204857600080fd5b600082015167ffffffffffffffff81111561206257600080fd5b61206e84828501611d6b565b91505092915050565b60006020828403121561208957600080fd5b600082015167ffffffffffffffff8111156120a357600080fd5b6120af84828501611d95565b91505092915050565b6000602082840312156120ca57600080fd5b60006120d884828501611e4a565b91505092915050565b60006120ed8383612413565b905092915050565b6120fe81612858565b82525050565b61210d81612858565b82525050565b600061211e8261276d565b6121288185612790565b93508360208202850161213a85612748565b8060005b85811015612176578484038952815161215785826120e1565b945061216283612783565b925060208a0199505060018101905061213e565b50829750879550505050505092915050565b6121918161286a565b82525050565b6121a081612876565b82525050565b6121af816128aa565b82525050565b60006121c082612778565b6121ca81856127a1565b93506121da8185602086016128dd565b6121e381612a00565b840191505092915050565b60006121f982612778565b61220381856127b2565b93506122138185602086016128dd565b61221c81612a00565b840191505092915050565b600061223282612778565b61223c81856127c3565b935061224c8185602086016128dd565b80840191505092915050565b6000815461226581612910565b61226f81866127b2565b9450600182166000811461228a576001811461229c576122cf565b60ff19831686526020860193506122cf565b6122a585612758565b60005b838110156122c7578154818901526001820191506020810190506122a8565b808801955050505b50505092915050565b60006122e56022836127b2565b91506122f082612a11565b604082019050919050565b6000612308600d836127b2565b915061231382612a60565b602082019050919050565b600061232b602f836127b2565b915061233682612a89565b604082019050919050565b600061234e6030836127b2565b915061235982612ad8565b604082019050919050565b60006123716016836127b2565b915061237c82612b27565b602082019050919050565b6000612394600d836127b2565b915061239f82612b50565b602082019050919050565b60006123b7600c836127b2565b91506123c282612b79565b602082019050919050565b60006123da600e836127b2565b91506123e582612ba2565b602082019050919050565b60006123fd602f836127b2565b915061240882612bcb565b604082019050919050565b600060608301600083015161242b60008601826120f5565b50602083015161243e60208601826120f5565b506040830151848203604086015261245682826121b5565b9150508091505092915050565b61246c816128a0565b82525050565b600061247e8284612227565b915081905092915050565b600060208201905061249e6000830184612104565b92915050565b60006040820190506124b96000830185612104565b81810360208301526124cb81846121ee565b90509392505050565b600060208201905081810360008301526124ee8184612113565b905092915050565b600060208201905061250b6000830184612188565b92915050565b60006020820190506125266000830184612197565b92915050565b600060208201905061254160008301846121a6565b92915050565b6000602082019050818103600083015261256181846121ee565b905092915050565b600060208201905081810360008301526125838184612258565b905092915050565b600060208201905081810360008301526125a4816122d8565b9050919050565b600060208201905081810360008301526125c4816122fb565b9050919050565b600060208201905081810360008301526125e48161231e565b9050919050565b6000602082019050818103600083015261260481612341565b9050919050565b6000602082019050818103600083015261262481612364565b9050919050565b6000602082019050818103600083015261264481612387565b9050919050565b60006020820190508181036000830152612664816123aa565b9050919050565b60006020820190508181036000830152612684816123cd565b9050919050565b600060208201905081810360008301526126a4816123f0565b9050919050565b60006020820190506126c06000830184612463565b92915050565b60006126d06126e1565b90506126dc8282612942565b919050565b6000604051905090565b600067ffffffffffffffff821115612706576127056129d1565b5b602082029050602081019050919050565b600067ffffffffffffffff821115612732576127316129d1565b5b61273b82612a00565b9050602081019050919050565b6000819050602082019050919050565b60008190508160005260206000209050919050565b600081519050919050565b600081519050919050565b6000602082019050919050565b600082825260208201905092915050565b600082825260208201905092915050565b600082825260208201905092915050565b600081905092915050565b60006127d9826128a0565b91506127e4836128a0565b9250827fffffffffffffffffffffffffffffffffffffffffffffffffffffffffffffffff0382111561281957612818612973565b5b828201905092915050565b600061282f826128a0565b915061283a836128a0565b92508282101561284d5761284c612973565b5b828203905092915050565b600061286382612880565b9050919050565b60008115159050919050565b6000819050919050565b600073ffffffffffffffffffffffffffffffffffffffff82169050919050565b6000819050919050565b60006128b5826128bc565b9050919050565b60006128c782612880565b9050919050565b82818337600083830152505050565b60005b838110156128fb5780820151818401526020810190506128e0565b8381111561290a576000848401525b50505050565b6000600282049050600182168061292857607f821691505b6020821081141561293c5761293b6129a2565b5b50919050565b61294b82612a00565b810181811067ffffffffffffffff8211171561296a576129696129d1565b5b80604052505050565b7f4e487b7100000000000000000000000000000000000000000000000000000000600052601160045260246000fd5b7f4e487b7100000000000000000000000000000000000000000000000000000000600052602260045260246000fd5b7f4e487b7100000000000000000000000000000000000000000000000000000000600052604160045260246000fd5b6000601f19601f8301169050919050565b7f456e756d657261626c655365743a20696e646578206f7574206f6620626f756e60008201527f6473000000000000000000000000000000000000000000000000000000000000602082015250565b7f73634e616d652065786973747300000000000000000000000000000000000000600082015250565b7f416363657373436f6e74726f6c3a2073656e646572206d75737420626520616e60008201527f2061646d696e20746f206772616e740000000000000000000000000000000000602082015250565b7f416363657373436f6e74726f6c3a2073656e646572206d75737420626520616e60008201527f2061646d696e20746f207265766f6b6500000000000000000000000000000000602082015250565b7f4d61737465724e616d653a206f6e6c79206f776e657200000000000000000000600082015250565b7f6f6e6c79207363206f776e657200000000000000000000000000000000000000600082015250565b7f6f776e6572206578697374730000000000000000000000000000000000000000600082015250565b7f646966666572656e74206e616d65000000000000000000000000000000000000600082015250565b7f416363657373436f6e74726f6c3a2063616e206f6e6c792072656e6f756e636560008201527f20726f6c657320666f722073656c660000000000000000000000000000000000602082015250565b612c2381612858565b8114612c2e57600080fd5b50565b612c3a8161286a565b8114612c4557600080fd5b50565b612c5181612876565b8114612c5c57600080fd5b50565b612c68816128a0565b8114612c7357600080fd5b5056fea2646970667358221220dfa734af57b18590c2b5b94d1921f41ab1a4cbbc92b35cdfedc3a581f2b8a01364736f6c63430008010033",
  "immutableReferences": {},
  "source": "// SPDX-License-Identifier: MIT\r\npragma solidity 0.8.1;\r\n\r\n//import \"https://github.com/OpenZeppelin/openzeppelin-contracts/blob/master/contracts/access/AccessControl.sol\";\r\n//import '@openzeppelin/contracts/access/AccessControl.sol';\r\nimport './oz-contracts/access/AccessControl.sol';\r\n\r\n\r\nstruct StudentStruct {\r\n    uint index;\r\n    address ownerAddress;\r\n    address portfolioAddress;\r\n    address activeClass;\r\n    address[] studentClasses;\r\n}\r\n    \r\ninterface iName {\r\n    function owner() external view returns (address);\r\n    function getName() external view returns (string memory);\r\n}\r\n\r\ninterface iAcademyStudents {\r\n    function isStudent(address account) external view returns (bool);\r\n    function getStudentByAddress (address account) external view returns (StudentStruct memory);\r\n}\r\n\r\ninterface iStudentPortfolio {\r\n    function addProject (address projectAddress, string memory projectName) external returns (uint256);\r\n    function deleteProjectByAddress (address projectAddress) external returns (bool);\r\n}    \r\n\r\n\r\n/*\r\n    Precisa existir um Project para ter um Master que valide este project.\r\n    \r\n    Todo Master deve ter um PROJECT_NAME como o nome do project associado.\r\n    O Master est associado a addressAcademy e addressStudentList\r\n    Aps criar um Master:\r\n        seus address deve ser atualizado na ProjectList\r\n        seu address deve ser autorizado em Academy\r\n        \r\n    O Master tem a lista dos estudantes que submeteram este projeto.\r\n*/\r\n\r\n// MasterName valida Name e acrescenta no Portfolio\r\n// Lista do MasterName = Lista de Estudantes!\r\n\r\ncontract MasterName is AccessControl {\r\n\r\n    string constant PROJECT_NAME = \"Name\";\r\n    struct NameStruct {\r\n        address owner;\r\n        address scName;\r\n        string name;\r\n    }\r\n    NameStruct[] private nameInfo;\r\n    mapping(address => uint256) private ownerIndex;\r\n    mapping(address => uint256) private scNameIndex;\r\n    \r\n    iAcademyStudents public studentList;\r\n\r\n    constructor(address addressStudentList) {\r\n        _setupRole(DEFAULT_ADMIN_ROLE, msg.sender);\r\n        studentList = iAcademyStudents(addressStudentList);\r\n    }\r\n    \r\n    event NameAdded (address indexed owner, address indexed scName, string name);\r\n    event NameDeleted (address indexed owner, address indexed scName, string name);\r\n\r\n    modifier onlyOwner() {\r\n        require(hasRole(DEFAULT_ADMIN_ROLE, msg.sender), \"MasterName: only owner\");\r\n        _;\r\n    }\r\n\r\n    function addName (address scNameAddress, string memory name) public returns (bool) {\r\n        _addName (msg.sender, scNameAddress, name);\r\n        return true;\r\n    }\r\n    \r\n    function addNameBySC (address scOwner, address scNameAddress, string memory name) public onlyOwner returns (bool) {\r\n        _addName (scOwner, scNameAddress, name);\r\n        return true;\r\n    }\r\n    \r\n    function _addName (address scOwner, address scNameAddress,  string memory name) private returns (bool) {\r\n        //Verificar se ja existe\r\n        require (!existsSCName(scNameAddress), \"scName exists\");\r\n        require (!existsOwner(scOwner), \"owner exists\");\r\n        \r\n        iName scName = iName(scNameAddress);\r\n        //string memory name = scName.getName();\r\n        require (compareStrings(scName.getName(), name), \"different name\");\r\n        \r\n        //Only owner's sc can add\r\n        require (scName.owner() == scOwner, \"only sc owner\");\r\n        \r\n        NameStruct memory n;\r\n        n.owner = scOwner;\r\n        n.scName = scNameAddress;\r\n        n.name = name;\r\n\r\n        nameInfo.push(n);\r\n        uint256 index = nameInfo.length;\r\n        ownerIndex[scOwner] = index;\r\n        scNameIndex[scNameAddress] = index;\r\n        \r\n        _addInPortfolio(scOwner, scNameAddress);\r\n\r\n        emit NameAdded(scNameAddress, scOwner, name);\r\n        return true;\r\n    }    \r\n\r\n    function _addInPortfolio(address scOwner, address scNameAddress) private returns (bool) {\r\n        if (!studentList.isStudent(scOwner))\r\n            return false;\r\n\r\n        /* */\r\n        StudentStruct memory s = studentList.getStudentByAddress(scOwner);        \r\n        if (s.portfolioAddress != address(0x0)) {\r\n            //Only AcademyStudents is allowed to adds projects\r\n\r\n            iStudentPortfolio p = iStudentPortfolio(s.portfolioAddress);\r\n            p.addProject(scNameAddress, PROJECT_NAME);\r\n        }\r\n        \r\n        return true;\r\n    }\r\n\r\n    function deleteName () public returns (bool) {\r\n\r\n        uint256 indexToDelete = ownerIndex[msg.sender];\r\n        //address scNameToDelete = nameInfo[indexToDelete].scName;\r\n        //emit NameDeleted (msg.sender, nameInfo[indexToDelete].scName, nameInfo[indexToDelete].name);\r\n\r\n        //_deleteName (msg.sender);\r\n        return true;        \r\n    }\r\n\r\n    function deleteNameBySC (address scOwner) public onlyOwner returns (bool) {\r\n        _deleteName (scOwner);\r\n        return true;        \r\n    }\r\n\r\n    function _deleteName (address scOwner) private returns (bool) {\r\n        //require (existsOwner(scOwner), \"owner not exists\");\r\n\r\n        uint256 indexToDelete = ownerIndex[scOwner];\r\n        address scNameToDelete = nameInfo[indexToDelete].scName;\r\n\r\n        emit NameDeleted (scOwner, nameInfo[indexToDelete].scName, nameInfo[indexToDelete].name);\r\n\r\n        /*\r\n        uint256 indexToMove = nameInfo.length-1;\r\n        address ownerToMove = nameInfo[indexToMove].owner;\r\n        address scNameToMove = nameInfo[indexToMove].scName;\r\n        \r\n\r\n        StudentStruct memory s = studentList.getStudentByAddress(scOwner); \r\n        if (s.portfolioAddress != address(0x0)) {\r\n            //Only AcademyStudents is allowed to adds projects\r\n\r\n            iStudentPortfolio p = iStudentPortfolio(s.portfolioAddress);\r\n            p.deleteProjectByAddress(nameInfo[indexToDelete].scName);\r\n        }\r\n        */\r\n\r\n        //emit NameDeleted (scOwner, scNameToDelete, nameInfo[indexToDelete].name);\r\n\r\n        /*\r\n\r\n        nameInfo[indexToDelete] = nameInfo[indexToMove];\r\n        ownerIndex[ownerToMove] = indexToDelete;\r\n        scNameIndex[scNameToMove] = indexToDelete;\r\n    \r\n        delete ownerIndex[scOwner];\r\n        delete scNameIndex[scNameToDelete];\r\n        nameInfo.pop();\r\n        */\r\n\r\n        return true;\r\n    }\r\n    \r\n    function updateStudentList(address addressStudentList) public onlyOwner returns (bool) {\r\n        studentList = iAcademyStudents(addressStudentList);\r\n        return true;\r\n    }\r\n    \r\n    //Owner pode ter mais de um SCName? NO\r\n    function existsOwner(address account) public view returns (bool) {\r\n        if (ownerIndex[account] == 0)\r\n            return false;\r\n        else\r\n            return true;\r\n    }\r\n    \r\n    function existsSCName(address scAddress) public view returns (bool) {\r\n        if (scNameIndex[scAddress] == 0)\r\n            return false;\r\n        else\r\n            return true;\r\n    }\r\n    \r\n    function checkName (address scNameAddress, string memory name_) public view returns (bool) {\r\n        //Name stored in scName equal name_\r\n        iName scName = iName(scNameAddress);\r\n        string memory name = scName.getName();\r\n        if (compareStrings(name, name_)) {\r\n            return true;\r\n        }\r\n        return false;\r\n    }\r\n    \r\n    function listNameInfo () public view returns (NameStruct[] memory) {\r\n        return nameInfo;\r\n    }\r\n    \r\n    function countNames () public view returns (uint) {\r\n        return (nameInfo.length);\r\n    }\r\n\r\n    function getOwnerSC (address scNameAddress) public view returns (address) {\r\n        iName scName = iName(scNameAddress);\r\n        return scName.owner();\r\n    }\r\n    \r\n    function getName (address scNameAddress) public view returns (string memory) {\r\n        iName scName = iName(scNameAddress);\r\n        return scName.getName();\r\n    }\r\n\r\n    function compareStrings(string memory a, string memory b) private pure returns (bool) {\r\n        return (keccak256(abi.encodePacked((a))) == keccak256(abi.encodePacked((b))));\r\n    }    \r\n}\r\n",
  "sourcePath": "C:/ACADEMY/GITHUB/rsk-academy-dapp/contracts/MasterName.sol",
  "compiler": {
    "name": "solc",
    "version": "0.8.1+commit.df193b15.Emscripten.clang"
  },
  "schemaVersion": "3.3.4",
  "updatedAt": "2021-02-19T18:39:16.544Z",
  "networkType": "ethereum",
  "devdoc": {
    "kind": "dev",
    "methods": {
      "getRoleAdmin(bytes32)": {
        "details": "Returns the admin role that controls `role`. See {grantRole} and {revokeRole}. To change a role's admin, use {_setRoleAdmin}."
      },
      "getRoleMember(bytes32,uint256)": {
        "details": "Returns one of the accounts that have `role`. `index` must be a value between 0 and {getRoleMemberCount}, non-inclusive. Role bearers are not sorted in any particular way, and their ordering may change at any point. WARNING: When using {getRoleMember} and {getRoleMemberCount}, make sure you perform all queries on the same block. See the following https://forum.openzeppelin.com/t/iterating-over-elements-on-enumerableset-in-openzeppelin-contracts/2296[forum post] for more information."
      },
      "getRoleMemberCount(bytes32)": {
        "details": "Returns the number of accounts that have `role`. Can be used together with {getRoleMember} to enumerate all bearers of a role."
      },
      "grantRole(bytes32,address)": {
        "details": "Grants `role` to `account`. If `account` had not been already granted `role`, emits a {RoleGranted} event. Requirements: - the caller must have ``role``'s admin role."
      },
      "hasRole(bytes32,address)": {
        "details": "Returns `true` if `account` has been granted `role`."
      },
      "renounceRole(bytes32,address)": {
        "details": "Revokes `role` from the calling account. Roles are often managed via {grantRole} and {revokeRole}: this function's purpose is to provide a mechanism for accounts to lose their privileges if they are compromised (such as when a trusted device is misplaced). If the calling account had been granted `role`, emits a {RoleRevoked} event. Requirements: - the caller must be `account`."
      },
      "revokeRole(bytes32,address)": {
        "details": "Revokes `role` from `account`. If `account` had been granted `role`, emits a {RoleRevoked} event. Requirements: - the caller must have ``role``'s admin role."
      }
    },
    "version": 1
  },
  "userdoc": {
    "kind": "user",
    "methods": {},
    "version": 1
  }
}