{
  "contractName": "MasterName",
  "abi": [
    {
      "inputs": [
        {
          "internalType": "address",
          "name": "addressStudentList",
          "type": "address"
        }
      ],
      "stateMutability": "nonpayable",
      "type": "constructor"
    },
    {
      "anonymous": false,
      "inputs": [
        {
          "indexed": true,
          "internalType": "address",
          "name": "owner",
          "type": "address"
        },
        {
          "indexed": true,
          "internalType": "address",
          "name": "scName",
          "type": "address"
        },
        {
          "indexed": false,
          "internalType": "string",
          "name": "name",
          "type": "string"
        }
      ],
      "name": "NameAdded",
      "type": "event"
    },
    {
      "anonymous": false,
      "inputs": [
        {
          "indexed": true,
          "internalType": "address",
          "name": "owner",
          "type": "address"
        },
        {
          "indexed": true,
          "internalType": "address",
          "name": "scName",
          "type": "address"
        }
      ],
      "name": "NameDeleted",
      "type": "event"
    },
    {
      "anonymous": false,
      "inputs": [
        {
          "indexed": true,
          "internalType": "address",
          "name": "owner",
          "type": "address"
        },
        {
          "indexed": false,
          "internalType": "uint256",
          "name": "nameIndex",
          "type": "uint256"
        }
      ],
      "name": "NameDeleted1",
      "type": "event"
    },
    {
      "anonymous": false,
      "inputs": [
        {
          "indexed": true,
          "internalType": "bytes32",
          "name": "role",
          "type": "bytes32"
        },
        {
          "indexed": true,
          "internalType": "bytes32",
          "name": "previousAdminRole",
          "type": "bytes32"
        },
        {
          "indexed": true,
          "internalType": "bytes32",
          "name": "newAdminRole",
          "type": "bytes32"
        }
      ],
      "name": "RoleAdminChanged",
      "type": "event"
    },
    {
      "anonymous": false,
      "inputs": [
        {
          "indexed": true,
          "internalType": "bytes32",
          "name": "role",
          "type": "bytes32"
        },
        {
          "indexed": true,
          "internalType": "address",
          "name": "account",
          "type": "address"
        },
        {
          "indexed": true,
          "internalType": "address",
          "name": "sender",
          "type": "address"
        }
      ],
      "name": "RoleGranted",
      "type": "event"
    },
    {
      "anonymous": false,
      "inputs": [
        {
          "indexed": true,
          "internalType": "bytes32",
          "name": "role",
          "type": "bytes32"
        },
        {
          "indexed": true,
          "internalType": "address",
          "name": "account",
          "type": "address"
        },
        {
          "indexed": true,
          "internalType": "address",
          "name": "sender",
          "type": "address"
        }
      ],
      "name": "RoleRevoked",
      "type": "event"
    },
    {
      "inputs": [],
      "name": "DEFAULT_ADMIN_ROLE",
      "outputs": [
        {
          "internalType": "bytes32",
          "name": "",
          "type": "bytes32"
        }
      ],
      "stateMutability": "view",
      "type": "function",
      "constant": true
    },
    {
      "inputs": [
        {
          "internalType": "bytes32",
          "name": "role",
          "type": "bytes32"
        }
      ],
      "name": "getRoleAdmin",
      "outputs": [
        {
          "internalType": "bytes32",
          "name": "",
          "type": "bytes32"
        }
      ],
      "stateMutability": "view",
      "type": "function",
      "constant": true
    },
    {
      "inputs": [
        {
          "internalType": "bytes32",
          "name": "role",
          "type": "bytes32"
        },
        {
          "internalType": "uint256",
          "name": "index",
          "type": "uint256"
        }
      ],
      "name": "getRoleMember",
      "outputs": [
        {
          "internalType": "address",
          "name": "",
          "type": "address"
        }
      ],
      "stateMutability": "view",
      "type": "function",
      "constant": true
    },
    {
      "inputs": [
        {
          "internalType": "bytes32",
          "name": "role",
          "type": "bytes32"
        }
      ],
      "name": "getRoleMemberCount",
      "outputs": [
        {
          "internalType": "uint256",
          "name": "",
          "type": "uint256"
        }
      ],
      "stateMutability": "view",
      "type": "function",
      "constant": true
    },
    {
      "inputs": [
        {
          "internalType": "bytes32",
          "name": "role",
          "type": "bytes32"
        },
        {
          "internalType": "address",
          "name": "account",
          "type": "address"
        }
      ],
      "name": "grantRole",
      "outputs": [],
      "stateMutability": "nonpayable",
      "type": "function"
    },
    {
      "inputs": [
        {
          "internalType": "bytes32",
          "name": "role",
          "type": "bytes32"
        },
        {
          "internalType": "address",
          "name": "account",
          "type": "address"
        }
      ],
      "name": "hasRole",
      "outputs": [
        {
          "internalType": "bool",
          "name": "",
          "type": "bool"
        }
      ],
      "stateMutability": "view",
      "type": "function",
      "constant": true
    },
    {
      "inputs": [
        {
          "internalType": "bytes32",
          "name": "role",
          "type": "bytes32"
        },
        {
          "internalType": "address",
          "name": "account",
          "type": "address"
        }
      ],
      "name": "renounceRole",
      "outputs": [],
      "stateMutability": "nonpayable",
      "type": "function"
    },
    {
      "inputs": [
        {
          "internalType": "bytes32",
          "name": "role",
          "type": "bytes32"
        },
        {
          "internalType": "address",
          "name": "account",
          "type": "address"
        }
      ],
      "name": "revokeRole",
      "outputs": [],
      "stateMutability": "nonpayable",
      "type": "function"
    },
    {
      "inputs": [],
      "name": "studentList",
      "outputs": [
        {
          "internalType": "contract iAcademyStudents",
          "name": "",
          "type": "address"
        }
      ],
      "stateMutability": "view",
      "type": "function",
      "constant": true
    },
    {
      "inputs": [
        {
          "internalType": "address",
          "name": "scNameAddress",
          "type": "address"
        },
        {
          "internalType": "string",
          "name": "name",
          "type": "string"
        }
      ],
      "name": "addName",
      "outputs": [
        {
          "internalType": "bool",
          "name": "",
          "type": "bool"
        }
      ],
      "stateMutability": "nonpayable",
      "type": "function"
    },
    {
      "inputs": [
        {
          "internalType": "address",
          "name": "scOwner",
          "type": "address"
        },
        {
          "internalType": "address",
          "name": "scNameAddress",
          "type": "address"
        },
        {
          "internalType": "string",
          "name": "name",
          "type": "string"
        }
      ],
      "name": "addNameBySC",
      "outputs": [
        {
          "internalType": "bool",
          "name": "",
          "type": "bool"
        }
      ],
      "stateMutability": "nonpayable",
      "type": "function"
    },
    {
      "inputs": [],
      "name": "deleteName",
      "outputs": [
        {
          "internalType": "bool",
          "name": "",
          "type": "bool"
        }
      ],
      "stateMutability": "nonpayable",
      "type": "function"
    },
    {
      "inputs": [
        {
          "internalType": "address",
          "name": "scOwner",
          "type": "address"
        }
      ],
      "name": "deleteNameBySC",
      "outputs": [
        {
          "internalType": "bool",
          "name": "",
          "type": "bool"
        }
      ],
      "stateMutability": "nonpayable",
      "type": "function"
    },
    {
      "inputs": [
        {
          "internalType": "address",
          "name": "addressStudentList",
          "type": "address"
        }
      ],
      "name": "updateStudentList",
      "outputs": [
        {
          "internalType": "bool",
          "name": "",
          "type": "bool"
        }
      ],
      "stateMutability": "nonpayable",
      "type": "function"
    },
    {
      "inputs": [
        {
          "internalType": "address",
          "name": "account",
          "type": "address"
        }
      ],
      "name": "existsOwner",
      "outputs": [
        {
          "internalType": "bool",
          "name": "",
          "type": "bool"
        }
      ],
      "stateMutability": "view",
      "type": "function",
      "constant": true
    },
    {
      "inputs": [
        {
          "internalType": "address",
          "name": "scAddress",
          "type": "address"
        }
      ],
      "name": "existsSCName",
      "outputs": [
        {
          "internalType": "bool",
          "name": "",
          "type": "bool"
        }
      ],
      "stateMutability": "view",
      "type": "function",
      "constant": true
    },
    {
      "inputs": [
        {
          "internalType": "address",
          "name": "scNameAddress",
          "type": "address"
        },
        {
          "internalType": "string",
          "name": "name_",
          "type": "string"
        }
      ],
      "name": "checkName",
      "outputs": [
        {
          "internalType": "bool",
          "name": "",
          "type": "bool"
        }
      ],
      "stateMutability": "view",
      "type": "function",
      "constant": true
    },
    {
      "inputs": [],
      "name": "listNameInfo",
      "outputs": [
        {
          "components": [
            {
              "internalType": "address",
              "name": "owner",
              "type": "address"
            },
            {
              "internalType": "address",
              "name": "scName",
              "type": "address"
            },
            {
              "internalType": "string",
              "name": "name",
              "type": "string"
            }
          ],
          "internalType": "struct MasterName.NameStruct[]",
          "name": "",
          "type": "tuple[]"
        }
      ],
      "stateMutability": "view",
      "type": "function",
      "constant": true
    },
    {
      "inputs": [],
      "name": "countNames",
      "outputs": [
        {
          "internalType": "uint256",
          "name": "",
          "type": "uint256"
        }
      ],
      "stateMutability": "view",
      "type": "function",
      "constant": true
    },
    {
      "inputs": [
        {
          "internalType": "address",
          "name": "scNameAddress",
          "type": "address"
        }
      ],
      "name": "getOwnerSC",
      "outputs": [
        {
          "internalType": "address",
          "name": "",
          "type": "address"
        }
      ],
      "stateMutability": "view",
      "type": "function",
      "constant": true
    },
    {
      "inputs": [
        {
          "internalType": "address",
          "name": "scNameAddress",
          "type": "address"
        }
      ],
      "name": "getName",
      "outputs": [
        {
          "internalType": "string",
          "name": "",
          "type": "string"
        }
      ],
      "stateMutability": "view",
      "type": "function",
      "constant": true
    },
    {
      "inputs": [
        {
          "internalType": "address",
          "name": "account",
          "type": "address"
        }
      ],
      "name": "getNameInfoByOwner",
      "outputs": [
        {
          "components": [
            {
              "internalType": "address",
              "name": "owner",
              "type": "address"
            },
            {
              "internalType": "address",
              "name": "scName",
              "type": "address"
            },
            {
              "internalType": "string",
              "name": "name",
              "type": "string"
            }
          ],
          "internalType": "struct MasterName.NameStruct",
          "name": "",
          "type": "tuple"
        }
      ],
      "stateMutability": "view",
      "type": "function",
      "constant": true
    },
    {
      "inputs": [
        {
          "internalType": "address",
          "name": "scNameAddress",
          "type": "address"
        }
      ],
      "name": "getNameInfoByNameSC",
      "outputs": [
        {
          "components": [
            {
              "internalType": "address",
              "name": "owner",
              "type": "address"
            },
            {
              "internalType": "address",
              "name": "scName",
              "type": "address"
            },
            {
              "internalType": "string",
              "name": "name",
              "type": "string"
            }
          ],
          "internalType": "struct MasterName.NameStruct",
          "name": "",
          "type": "tuple"
        }
      ],
      "stateMutability": "view",
      "type": "function",
      "constant": true
    },
    {
      "inputs": [
        {
          "internalType": "uint256",
          "name": "index",
          "type": "uint256"
        }
      ],
      "name": "getNameInfoByIndex",
      "outputs": [
        {
          "components": [
            {
              "internalType": "address",
              "name": "owner",
              "type": "address"
            },
            {
              "internalType": "address",
              "name": "scName",
              "type": "address"
            },
            {
              "internalType": "string",
              "name": "name",
              "type": "string"
            }
          ],
          "internalType": "struct MasterName.NameStruct",
          "name": "",
          "type": "tuple"
        }
      ],
      "stateMutability": "view",
      "type": "function",
      "constant": true
    }
  ],
  "bytecode": "0x60806040523480156200001157600080fd5b5060405162003c2938038062003c29833981810160405281019062000037919062000241565b6200004c6000801b336200009460201b60201c565b80600460006101000a81548173ffffffffffffffffffffffffffffffffffffffff021916908373ffffffffffffffffffffffffffffffffffffffff16021790555050620002bb565b620000a68282620000aa60201b60201c565b5050565b620000d8816000808581526020019081526020016000206000016200014d60201b620012aa1790919060201c565b156200014957620000ee6200018560201b60201c565b73ffffffffffffffffffffffffffffffffffffffff168173ffffffffffffffffffffffffffffffffffffffff16837f2f8788117e7eff1d82e926ec794901d17c78024a50270940304540a733656f0d60405160405180910390a45b5050565b60006200017d836000018373ffffffffffffffffffffffffffffffffffffffff1660001b6200018d60201b60201c565b905092915050565b600033905090565b6000620001a183836200020760201b60201c565b620001fc57826000018290806001815401808255809150506001900390600052602060002001600090919091909150558260000180549050836001016000848152602001908152602001600020819055506001905062000201565b600090505b92915050565b600080836001016000848152602001908152602001600020541415905092915050565b6000815190506200023b81620002a1565b92915050565b6000602082840312156200025457600080fd5b600062000264848285016200022a565b91505092915050565b60006200027a8262000281565b9050919050565b600073ffffffffffffffffffffffffffffffffffffffff82169050919050565b620002ac816200026d565b8114620002b857600080fd5b50565b61395e80620002cb6000396000f3fe608060405234801561001057600080fd5b50600436106101585760003560e01c806391d14854116100c3578063ca15c8731161007c578063ca15c8731461044d578063d0aab3fd1461047d578063d43e001a146104ad578063d547741f146104cb578063d5f22ec2146104e7578063e8330ac71461051757610158565b806391d1485414610351578063939678bb14610381578063a217fddf146103b1578063a9cad5b3146103cf578063ad36e0c9146103ff578063bf16fd451461041d57610158565b8063556a1d2111610115578063556a1d21146102435780635fd4b08a146102735780636738acf7146102a35780638edb4a43146102c15780638f1b8293146102f15780639010d07c1461032157610158565b80630d17da9e1461015d578063248a9ca31461018d5780632f2ff15d146101bd5780633209207e146101d957806333e13233146101f757806336568abe14610227575b600080fd5b61017760048036038101906101729190612ac1565b610547565b6040516101849190613327565b60405180910390f35b6101a760048036038101906101a29190612bf7565b610726565b6040516101b4919061318f565b60405180910390f35b6101d760048036038101906101d29190612c20565b610745565b005b6101e16107b8565b6040516101ee9190613174565b60405180910390f35b610211600480360381019061020c9190612d1a565b6107cb565b60405161021e9190613327565b60405180910390f35b610241600480360381019061023c9190612c20565b610976565b005b61025d60048036038101906102589190612ac1565b6109f9565b60405161026a9190613327565b60405180910390f35b61028d60048036038101906102889190612ac1565b610bd8565b60405161029a91906131c5565b60405180910390f35b6102ab610c6a565b6040516102b89190613152565b60405180910390f35b6102db60048036038101906102d69190612ac1565b610e07565b6040516102e89190613174565b60405180910390f35b61030b60048036038101906103069190612ac1565b610e9f565b6040516103189190613174565b60405180910390f35b61033b60048036038101906103369190612c5c565b610efb565b6040516103489190613107565b60405180910390f35b61036b60048036038101906103669190612c20565b610f2c565b6040516103789190613174565b60405180910390f35b61039b60048036038101906103969190612ac1565b610f5d565b6040516103a89190613174565b60405180910390f35b6103b9610fb9565b6040516103c6919061318f565b60405180910390f35b6103e960048036038101906103e49190612ac1565b610fc0565b6040516103f69190613107565b60405180910390f35b61040761104c565b6040516104149190613349565b60405180910390f35b61043760048036038101906104329190612ac1565b611059565b6040516104449190613174565b60405180910390f35b61046760048036038101906104629190612bf7565b6110ba565b6040516104749190613349565b60405180910390f35b61049760048036038101906104929190612b7a565b6110e0565b6040516104a49190613174565b60405180910390f35b6104b56110f8565b6040516104c291906131aa565b60405180910390f35b6104e560048036038101906104e09190612c20565b61111e565b005b61050160048036038101906104fc9190612b13565b611191565b60405161050e9190613174565b60405180910390f35b610531600480360381019061052c9190612b7a565b6111f6565b60405161053e9190613174565b60405180910390f35b61054f612680565b6001600360008473ffffffffffffffffffffffffffffffffffffffff1673ffffffffffffffffffffffffffffffffffffffff16815260200190815260200160002054815481106105c8577f4e487b7100000000000000000000000000000000000000000000000000000000600052603260045260246000fd5b90600052602060002090600302016040518060600160405290816000820160009054906101000a900473ffffffffffffffffffffffffffffffffffffffff1673ffffffffffffffffffffffffffffffffffffffff1673ffffffffffffffffffffffffffffffffffffffff1681526020016001820160009054906101000a900473ffffffffffffffffffffffffffffffffffffffff1673ffffffffffffffffffffffffffffffffffffffff1673ffffffffffffffffffffffffffffffffffffffff16815260200160028201805461069d90613599565b80601f01602080910402602001604051908101604052809291908181526020018280546106c990613599565b80156107165780601f106106eb57610100808354040283529160200191610716565b820191906000526020600020905b8154815290600101906020018083116106f957829003601f168201915b5050505050815250509050919050565b6000806000838152602001908152602001600020600201549050919050565b61076b600080848152602001908152602001600020600201546107666112da565b610f2c565b6107aa576040517f08c379a00000000000000000000000000000000000000000000000000000000081526004016107a190613227565b60405180910390fd5b6107b482826112e2565b5050565b60006107c333611375565b506001905090565b6107d3612680565b600180836107e191906134ad565b81548110610818577f4e487b7100000000000000000000000000000000000000000000000000000000600052603260045260246000fd5b90600052602060002090600302016040518060600160405290816000820160009054906101000a900473ffffffffffffffffffffffffffffffffffffffff1673ffffffffffffffffffffffffffffffffffffffff1673ffffffffffffffffffffffffffffffffffffffff1681526020016001820160009054906101000a900473ffffffffffffffffffffffffffffffffffffffff1673ffffffffffffffffffffffffffffffffffffffff1673ffffffffffffffffffffffffffffffffffffffff1681526020016002820180546108ed90613599565b80601f016020809104026020016040519081016040528092919081815260200182805461091990613599565b80156109665780601f1061093b57610100808354040283529160200191610966565b820191906000526020600020905b81548152906001019060200180831161094957829003601f168201915b5050505050815250509050919050565b61097e6112da565b73ffffffffffffffffffffffffffffffffffffffff168173ffffffffffffffffffffffffffffffffffffffff16146109eb576040517f08c379a00000000000000000000000000000000000000000000000000000000081526004016109e290613307565b60405180910390fd5b6109f58282611b04565b5050565b610a01612680565b6001600260008473ffffffffffffffffffffffffffffffffffffffff1673ffffffffffffffffffffffffffffffffffffffff1681526020019081526020016000205481548110610a7a577f4e487b7100000000000000000000000000000000000000000000000000000000600052603260045260246000fd5b90600052602060002090600302016040518060600160405290816000820160009054906101000a900473ffffffffffffffffffffffffffffffffffffffff1673ffffffffffffffffffffffffffffffffffffffff1673ffffffffffffffffffffffffffffffffffffffff1681526020016001820160009054906101000a900473ffffffffffffffffffffffffffffffffffffffff1673ffffffffffffffffffffffffffffffffffffffff1673ffffffffffffffffffffffffffffffffffffffff168152602001600282018054610b4f90613599565b80601f0160208091040260200160405190810160405280929190818152602001828054610b7b90613599565b8015610bc85780601f10610b9d57610100808354040283529160200191610bc8565b820191906000526020600020905b815481529060010190602001808311610bab57829003601f168201915b5050505050815250509050919050565b606060008290508073ffffffffffffffffffffffffffffffffffffffff166317d7de7c6040518163ffffffff1660e01b815260040160006040518083038186803b158015610c2557600080fd5b505afa158015610c39573d6000803e3d6000fd5b505050506040513d6000823e3d601f19601f82011682018060405250810190610c629190612c98565b915050919050565b60606001805480602002602001604051908101604052809291908181526020016000905b82821015610dfe57838290600052602060002090600302016040518060600160405290816000820160009054906101000a900473ffffffffffffffffffffffffffffffffffffffff1673ffffffffffffffffffffffffffffffffffffffff1673ffffffffffffffffffffffffffffffffffffffff1681526020016001820160009054906101000a900473ffffffffffffffffffffffffffffffffffffffff1673ffffffffffffffffffffffffffffffffffffffff1673ffffffffffffffffffffffffffffffffffffffff168152602001600282018054610d6d90613599565b80601f0160208091040260200160405190810160405280929190818152602001828054610d9990613599565b8015610de65780601f10610dbb57610100808354040283529160200191610de6565b820191906000526020600020905b815481529060010190602001808311610dc957829003601f168201915b50505050508152505081526020019060010190610c8e565b50505050905090565b6000610e166000801b33610f2c565b610e55576040517f08c379a0000000000000000000000000000000000000000000000000000000008152600401610e4c90613267565b60405180910390fd5b81600460006101000a81548173ffffffffffffffffffffffffffffffffffffffff021916908373ffffffffffffffffffffffffffffffffffffffff16021790555060019050919050565b600080600260008473ffffffffffffffffffffffffffffffffffffffff1673ffffffffffffffffffffffffffffffffffffffff168152602001908152602001600020541415610ef15760009050610ef6565b600190505b919050565b6000610f2482600080868152602001908152602001600020600001611b9790919063ffffffff16565b905092915050565b6000610f5582600080868152602001908152602001600020600001611bb190919063ffffffff16565b905092915050565b600080600360008473ffffffffffffffffffffffffffffffffffffffff1673ffffffffffffffffffffffffffffffffffffffff168152602001908152602001600020541415610faf5760009050610fb4565b600190505b919050565b6000801b81565b6000808290508073ffffffffffffffffffffffffffffffffffffffff16638da5cb5b6040518163ffffffff1660e01b815260040160206040518083038186803b15801561100c57600080fd5b505afa158015611020573d6000803e3d6000fd5b505050506040513d601f19601f820116820180604052508101906110449190612aea565b915050919050565b6000600180549050905090565b60006110686000801b33610f2c565b6110a7576040517f08c379a000000000000000000000000000000000000000000000000000000000815260040161109e90613267565b60405180910390fd5b6110b082611375565b5060019050919050565b60006110d9600080848152602001908152602001600020600001611be1565b9050919050565b60006110ed338484611bf6565b506001905092915050565b600460009054906101000a900473ffffffffffffffffffffffffffffffffffffffff1681565b6111446000808481526020019081526020016000206002015461113f6112da565b610f2c565b611183576040517f08c379a000000000000000000000000000000000000000000000000000000000815260040161117a90613247565b60405180910390fd5b61118d8282611b04565b5050565b60006111a06000801b33610f2c565b6111df576040517f08c379a00000000000000000000000000000000000000000000000000000000081526004016111d690613267565b60405180910390fd5b6111ea848484611bf6565b50600190509392505050565b60008083905060008173ffffffffffffffffffffffffffffffffffffffff166317d7de7c6040518163ffffffff1660e01b815260040160006040518083038186803b15801561124457600080fd5b505afa158015611258573d6000803e3d6000fd5b505050506040513d6000823e3d601f19601f820116820180604052508101906112819190612c98565b905061128d81856120af565b1561129d576001925050506112a4565b6000925050505b92915050565b60006112d2836000018373ffffffffffffffffffffffffffffffffffffffff1660001b612108565b905092915050565b600033905090565b611309816000808581526020019081526020016000206000016112aa90919063ffffffff16565b15611371576113166112da565b73ffffffffffffffffffffffffffffffffffffffff168173ffffffffffffffffffffffffffffffffffffffff16837f2f8788117e7eff1d82e926ec794901d17c78024a50270940304540a733656f0d60405160405180910390a45b5050565b600061138082610e9f565b6113bf576040517f08c379a00000000000000000000000000000000000000000000000000000000081526004016113b6906132c7565b60405180910390fd5b60006001600260008573ffffffffffffffffffffffffffffffffffffffff1673ffffffffffffffffffffffffffffffffffffffff1681526020019081526020016000205461140d91906134ad565b90508273ffffffffffffffffffffffffffffffffffffffff167fd3328a61e9ee7e44ee09de69dac246a4fc5eee252a08f21bf24a15d03dfc64ce826040516114559190613349565b60405180910390a2600060018281548110611499577f4e487b7100000000000000000000000000000000000000000000000000000000600052603260045260246000fd5b906000526020600020906003020160010160009054906101000a900473ffffffffffffffffffffffffffffffffffffffff1690506000600180805490506114e091906134ad565b905060006001828154811061151e577f4e487b7100000000000000000000000000000000000000000000000000000000600052603260045260246000fd5b906000526020600020906003020160000160009054906101000a900473ffffffffffffffffffffffffffffffffffffffff16905060006001838154811061158e577f4e487b7100000000000000000000000000000000000000000000000000000000600052603260045260246000fd5b906000526020600020906003020160010160009054906101000a900473ffffffffffffffffffffffffffffffffffffffff169050600183815481106115fc577f4e487b7100000000000000000000000000000000000000000000000000000000600052603260045260246000fd5b906000526020600020906003020160018681548110611644577f4e487b7100000000000000000000000000000000000000000000000000000000600052603260045260246000fd5b90600052602060002090600302016000820160009054906101000a900473ffffffffffffffffffffffffffffffffffffffff168160000160006101000a81548173ffffffffffffffffffffffffffffffffffffffff021916908373ffffffffffffffffffffffffffffffffffffffff1602179055506001820160009054906101000a900473ffffffffffffffffffffffffffffffffffffffff168160010160006101000a81548173ffffffffffffffffffffffffffffffffffffffff021916908373ffffffffffffffffffffffffffffffffffffffff160217905550600282018160020190805461173490613599565b61173f9291906126cd565b509050506001856117509190613457565b600260008473ffffffffffffffffffffffffffffffffffffffff1673ffffffffffffffffffffffffffffffffffffffff168152602001908152602001600020819055506001856117a09190613457565b600360008373ffffffffffffffffffffffffffffffffffffffff1673ffffffffffffffffffffffffffffffffffffffff16815260200190815260200160002081905550600260008873ffffffffffffffffffffffffffffffffffffffff1673ffffffffffffffffffffffffffffffffffffffff16815260200190815260200160002060009055600360008573ffffffffffffffffffffffffffffffffffffffff1673ffffffffffffffffffffffffffffffffffffffff1681526020019081526020016000206000905560018054806118a1577f4e487b7100000000000000000000000000000000000000000000000000000000600052603160045260246000fd5b6001900381819060005260206000209060030201600080820160006101000a81549073ffffffffffffffffffffffffffffffffffffffff02191690556001820160006101000a81549073ffffffffffffffffffffffffffffffffffffffff0219169055600282016000611914919061275a565b505090556000600460009054906101000a900473ffffffffffffffffffffffffffffffffffffffff1673ffffffffffffffffffffffffffffffffffffffff16639f3da5cc896040518263ffffffff1660e01b81526004016119759190613107565b60006040518083038186803b15801561198d57600080fd5b505afa1580156119a1573d6000803e3d6000fd5b505050506040513d6000823e3d601f19601f820116820180604052508101906119ca9190612cd9565b9050600073ffffffffffffffffffffffffffffffffffffffff16816040015173ffffffffffffffffffffffffffffffffffffffff1614611a9b576000816040015190508073ffffffffffffffffffffffffffffffffffffffff1663f4a496b7876040518263ffffffff1660e01b8152600401611a469190613107565b602060405180830381600087803b158015611a6057600080fd5b505af1158015611a74573d6000803e3d6000fd5b505050506040513d601f19601f82011682018060405250810190611a989190612bce565b50505b8473ffffffffffffffffffffffffffffffffffffffff168873ffffffffffffffffffffffffffffffffffffffff167f3fafcd48c28ba1ae67f12f2c45df19bd1ddf8375c33d97042ad428b1d55026d660405160405180910390a360019650505050505050919050565b611b2b8160008085815260200190815260200160002060000161217890919063ffffffff16565b15611b9357611b386112da565b73ffffffffffffffffffffffffffffffffffffffff168173ffffffffffffffffffffffffffffffffffffffff16837ff6391f5c32d9c69d2a47ea670b442974b53935d1edc7fd64eb21e047a839171b60405160405180910390a45b5050565b6000611ba683600001836121a8565b60001c905092915050565b6000611bd9836000018373ffffffffffffffffffffffffffffffffffffffff1660001b612242565b905092915050565b6000611bef82600001612265565b9050919050565b6000611c0183610f5d565b15611c41576040517f08c379a0000000000000000000000000000000000000000000000000000000008152600401611c3890613207565b60405180910390fd5b611c4a84610e9f565b15611c8a576040517f08c379a0000000000000000000000000000000000000000000000000000000008152600401611c81906132a7565b60405180910390fd5b6000839050611d1b8173ffffffffffffffffffffffffffffffffffffffff166317d7de7c6040518163ffffffff1660e01b815260040160006040518083038186803b158015611cd857600080fd5b505afa158015611cec573d6000803e3d6000fd5b505050506040513d6000823e3d601f19601f82011682018060405250810190611d159190612c98565b846120af565b611d5a576040517f08c379a0000000000000000000000000000000000000000000000000000000008152600401611d51906132e7565b60405180910390fd5b8473ffffffffffffffffffffffffffffffffffffffff168173ffffffffffffffffffffffffffffffffffffffff16638da5cb5b6040518163ffffffff1660e01b815260040160206040518083038186803b158015611db757600080fd5b505afa158015611dcb573d6000803e3d6000fd5b505050506040513d601f19601f82011682018060405250810190611def9190612aea565b73ffffffffffffffffffffffffffffffffffffffff1614611e45576040517f08c379a0000000000000000000000000000000000000000000000000000000008152600401611e3c90613287565b60405180910390fd5b611e4d612680565b85816000019073ffffffffffffffffffffffffffffffffffffffff16908173ffffffffffffffffffffffffffffffffffffffff168152505084816020019073ffffffffffffffffffffffffffffffffffffffff16908173ffffffffffffffffffffffffffffffffffffffff1681525050838160400181905250600181908060018154018082558091505060019003906000526020600020906003020160009091909190915060008201518160000160006101000a81548173ffffffffffffffffffffffffffffffffffffffff021916908373ffffffffffffffffffffffffffffffffffffffff16021790555060208201518160010160006101000a81548173ffffffffffffffffffffffffffffffffffffffff021916908373ffffffffffffffffffffffffffffffffffffffff1602179055506040820151816002019080519060200190611f9c92919061279a565b5050506000600180549050905080600260008973ffffffffffffffffffffffffffffffffffffffff1673ffffffffffffffffffffffffffffffffffffffff1681526020019081526020016000208190555080600360008873ffffffffffffffffffffffffffffffffffffffff1673ffffffffffffffffffffffffffffffffffffffff1681526020019081526020016000208190555061203b8787612276565b508673ffffffffffffffffffffffffffffffffffffffff168673ffffffffffffffffffffffffffffffffffffffff167f2b824af0f727954b97daea8fcd4ca48fb52a488e8853e716f5b48faa3cd1a2f48760405161209991906131c5565b60405180910390a3600193505050509392505050565b6000816040516020016120c291906130f0565b60405160208183030381529060405280519060200120836040516020016120e991906130f0565b6040516020818303038152906040528051906020012014905092915050565b60006121148383612242565b61216d578260000182908060018154018082558091505060019003906000526020600020016000909190919091505582600001805490508360010160008481526020019081526020016000208190555060019050612172565b600090505b92915050565b60006121a0836000018373ffffffffffffffffffffffffffffffffffffffff1660001b6124f6565b905092915050565b6000818360000180549050116121f3576040517f08c379a00000000000000000000000000000000000000000000000000000000081526004016121ea906131e7565b60405180910390fd5b82600001828154811061222f577f4e487b7100000000000000000000000000000000000000000000000000000000600052603260045260246000fd5b9060005260206000200154905092915050565b600080836001016000848152602001908152602001600020541415905092915050565b600081600001805490509050919050565b6000600460009054906101000a900473ffffffffffffffffffffffffffffffffffffffff1673ffffffffffffffffffffffffffffffffffffffff166382f7d392846040518263ffffffff1660e01b81526004016122d39190613107565b60206040518083038186803b1580156122eb57600080fd5b505afa1580156122ff573d6000803e3d6000fd5b505050506040513d601f19601f820116820180604052508101906123239190612bce565b61233057600090506124f0565b6000600460009054906101000a900473ffffffffffffffffffffffffffffffffffffffff1673ffffffffffffffffffffffffffffffffffffffff16639f3da5cc856040518263ffffffff1660e01b815260040161238d9190613107565b60006040518083038186803b1580156123a557600080fd5b505afa1580156123b9573d6000803e3d6000fd5b505050506040513d6000823e3d601f19601f820116820180604052508101906123e29190612cd9565b9050600073ffffffffffffffffffffffffffffffffffffffff16816040015173ffffffffffffffffffffffffffffffffffffffff16146124ea576000816040015190508073ffffffffffffffffffffffffffffffffffffffff16638a06d20b856040518060400160405280600481526020017f4e616d65000000000000000000000000000000000000000000000000000000008152506040518363ffffffff1660e01b8152600401612495929190613122565b602060405180830381600087803b1580156124af57600080fd5b505af11580156124c3573d6000803e3d6000fd5b505050506040513d601f19601f820116820180604052508101906124e79190612d43565b50505b60019150505b92915050565b6000808360010160008481526020019081526020016000205490506000811461267457600060018261252891906134ad565b905060006001866000018054905061254091906134ad565b90506000866000018281548110612580577f4e487b7100000000000000000000000000000000000000000000000000000000600052603260045260246000fd5b90600052602060002001549050808760000184815481106125ca577f4e487b7100000000000000000000000000000000000000000000000000000000600052603260045260246000fd5b90600052602060002001819055506001836125e59190613457565b8760010160008381526020019081526020016000208190555086600001805480612638577f4e487b7100000000000000000000000000000000000000000000000000000000600052603160045260246000fd5b6001900381819060005260206000200160009055905586600101600087815260200190815260200160002060009055600194505050505061267a565b60009150505b92915050565b6040518060600160405280600073ffffffffffffffffffffffffffffffffffffffff168152602001600073ffffffffffffffffffffffffffffffffffffffff168152602001606081525090565b8280546126d990613599565b90600052602060002090601f0160209004810192826126fb5760008555612749565b82601f1061270c5780548555612749565b8280016001018555821561274957600052602060002091601f016020900482015b8281111561274857825482559160010191906001019061272d565b5b5090506127569190612820565b5090565b50805461276690613599565b6000825580601f106127785750612797565b601f0160209004906000526020600020908101906127969190612820565b5b50565b8280546127a690613599565b90600052602060002090601f0160209004810192826127c8576000855561280f565b82601f106127e157805160ff191683800117855561280f565b8280016001018555821561280f579182015b8281111561280e5782518255916020019190600101906127f3565b5b50905061281c9190612820565b5090565b5b80821115612839576000816000905550600101612821565b5090565b600061285061284b84613389565b613364565b9050808382526020820190508285602086028201111561286f57600080fd5b60005b8581101561289f5781612885888261293a565b845260208401935060208301925050600181019050612872565b5050509392505050565b60006128bc6128b7846133b5565b613364565b9050828152602081018484840111156128d457600080fd5b6128df848285613557565b509392505050565b60006128fa6128f5846133b5565b613364565b90508281526020810184848401111561291257600080fd5b61291d848285613566565b509392505050565b600081359050612934816138cc565b92915050565b600081519050612949816138cc565b92915050565b600082601f83011261296057600080fd5b815161297084826020860161283d565b91505092915050565b600081519050612988816138e3565b92915050565b60008135905061299d816138fa565b92915050565b600082601f8301126129b457600080fd5b81356129c48482602086016128a9565b91505092915050565b600082601f8301126129de57600080fd5b81516129ee8482602086016128e7565b91505092915050565b600060a08284031215612a0957600080fd5b612a1360a0613364565b90506000612a2384828501612aac565b6000830152506020612a378482850161293a565b6020830152506040612a4b8482850161293a565b6040830152506060612a5f8482850161293a565b606083015250608082015167ffffffffffffffff811115612a7f57600080fd5b612a8b8482850161294f565b60808301525092915050565b600081359050612aa681613911565b92915050565b600081519050612abb81613911565b92915050565b600060208284031215612ad357600080fd5b6000612ae184828501612925565b91505092915050565b600060208284031215612afc57600080fd5b6000612b0a8482850161293a565b91505092915050565b600080600060608486031215612b2857600080fd5b6000612b3686828701612925565b9350506020612b4786828701612925565b925050604084013567ffffffffffffffff811115612b6457600080fd5b612b70868287016129a3565b9150509250925092565b60008060408385031215612b8d57600080fd5b6000612b9b85828601612925565b925050602083013567ffffffffffffffff811115612bb857600080fd5b612bc4858286016129a3565b9150509250929050565b600060208284031215612be057600080fd5b6000612bee84828501612979565b91505092915050565b600060208284031215612c0957600080fd5b6000612c178482850161298e565b91505092915050565b60008060408385031215612c3357600080fd5b6000612c418582860161298e565b9250506020612c5285828601612925565b9150509250929050565b60008060408385031215612c6f57600080fd5b6000612c7d8582860161298e565b9250506020612c8e85828601612a97565b9150509250929050565b600060208284031215612caa57600080fd5b600082015167ffffffffffffffff811115612cc457600080fd5b612cd0848285016129cd565b91505092915050565b600060208284031215612ceb57600080fd5b600082015167ffffffffffffffff811115612d0557600080fd5b612d11848285016129f7565b91505092915050565b600060208284031215612d2c57600080fd5b6000612d3a84828501612a97565b91505092915050565b600060208284031215612d5557600080fd5b6000612d6384828501612aac565b91505092915050565b6000612d788383613041565b905092915050565b612d89816134e1565b82525050565b612d98816134e1565b82525050565b6000612da9826133f6565b612db38185613419565b935083602082028501612dc5856133e6565b8060005b85811015612e015784840389528151612de28582612d6c565b9450612ded8361340c565b925060208a01995050600181019050612dc9565b50829750879550505050505092915050565b612e1c816134f3565b82525050565b612e2b816134ff565b82525050565b612e3a81613533565b82525050565b6000612e4b82613401565b612e55818561342a565b9350612e65818560208601613566565b612e6e81613689565b840191505092915050565b6000612e8482613401565b612e8e818561343b565b9350612e9e818560208601613566565b612ea781613689565b840191505092915050565b6000612ebd82613401565b612ec7818561344c565b9350612ed7818560208601613566565b80840191505092915050565b6000612ef060228361343b565b9150612efb8261369a565b604082019050919050565b6000612f13600d8361343b565b9150612f1e826136e9565b602082019050919050565b6000612f36602f8361343b565b9150612f4182613712565b604082019050919050565b6000612f5960308361343b565b9150612f6482613761565b604082019050919050565b6000612f7c60168361343b565b9150612f87826137b0565b602082019050919050565b6000612f9f600d8361343b565b9150612faa826137d9565b602082019050919050565b6000612fc2600c8361343b565b9150612fcd82613802565b602082019050919050565b6000612fe560108361343b565b9150612ff08261382b565b602082019050919050565b6000613008600e8361343b565b915061301382613854565b602082019050919050565b600061302b602f8361343b565b91506130368261387d565b604082019050919050565b60006060830160008301516130596000860182612d80565b50602083015161306c6020860182612d80565b50604083015184820360408601526130848282612e40565b9150508091505092915050565b60006060830160008301516130a96000860182612d80565b5060208301516130bc6020860182612d80565b50604083015184820360408601526130d48282612e40565b9150508091505092915050565b6130ea81613529565b82525050565b60006130fc8284612eb2565b915081905092915050565b600060208201905061311c6000830184612d8f565b92915050565b60006040820190506131376000830185612d8f565b81810360208301526131498184612e79565b90509392505050565b6000602082019050818103600083015261316c8184612d9e565b905092915050565b60006020820190506131896000830184612e13565b92915050565b60006020820190506131a46000830184612e22565b92915050565b60006020820190506131bf6000830184612e31565b92915050565b600060208201905081810360008301526131df8184612e79565b905092915050565b6000602082019050818103600083015261320081612ee3565b9050919050565b6000602082019050818103600083015261322081612f06565b9050919050565b6000602082019050818103600083015261324081612f29565b9050919050565b6000602082019050818103600083015261326081612f4c565b9050919050565b6000602082019050818103600083015261328081612f6f565b9050919050565b600060208201905081810360008301526132a081612f92565b9050919050565b600060208201905081810360008301526132c081612fb5565b9050919050565b600060208201905081810360008301526132e081612fd8565b9050919050565b6000602082019050818103600083015261330081612ffb565b9050919050565b600060208201905081810360008301526133208161301e565b9050919050565b600060208201905081810360008301526133418184613091565b905092915050565b600060208201905061335e60008301846130e1565b92915050565b600061336e61337f565b905061337a82826135cb565b919050565b6000604051905090565b600067ffffffffffffffff8211156133a4576133a361365a565b5b602082029050602081019050919050565b600067ffffffffffffffff8211156133d0576133cf61365a565b5b6133d982613689565b9050602081019050919050565b6000819050602082019050919050565b600081519050919050565b600081519050919050565b6000602082019050919050565b600082825260208201905092915050565b600082825260208201905092915050565b600082825260208201905092915050565b600081905092915050565b600061346282613529565b915061346d83613529565b9250827fffffffffffffffffffffffffffffffffffffffffffffffffffffffffffffffff038211156134a2576134a16135fc565b5b828201905092915050565b60006134b882613529565b91506134c383613529565b9250828210156134d6576134d56135fc565b5b828203905092915050565b60006134ec82613509565b9050919050565b60008115159050919050565b6000819050919050565b600073ffffffffffffffffffffffffffffffffffffffff82169050919050565b6000819050919050565b600061353e82613545565b9050919050565b600061355082613509565b9050919050565b82818337600083830152505050565b60005b83811015613584578082015181840152602081019050613569565b83811115613593576000848401525b50505050565b600060028204905060018216806135b157607f821691505b602082108114156135c5576135c461362b565b5b50919050565b6135d482613689565b810181811067ffffffffffffffff821117156135f3576135f261365a565b5b80604052505050565b7f4e487b7100000000000000000000000000000000000000000000000000000000600052601160045260246000fd5b7f4e487b7100000000000000000000000000000000000000000000000000000000600052602260045260246000fd5b7f4e487b7100000000000000000000000000000000000000000000000000000000600052604160045260246000fd5b6000601f19601f8301169050919050565b7f456e756d657261626c655365743a20696e646578206f7574206f6620626f756e60008201527f6473000000000000000000000000000000000000000000000000000000000000602082015250565b7f73634e616d652065786973747300000000000000000000000000000000000000600082015250565b7f416363657373436f6e74726f6c3a2073656e646572206d75737420626520616e60008201527f2061646d696e20746f206772616e740000000000000000000000000000000000602082015250565b7f416363657373436f6e74726f6c3a2073656e646572206d75737420626520616e60008201527f2061646d696e20746f207265766f6b6500000000000000000000000000000000602082015250565b7f4d61737465724e616d653a206f6e6c79206f776e657200000000000000000000600082015250565b7f6f6e6c79207363206f776e657200000000000000000000000000000000000000600082015250565b7f6f776e6572206578697374730000000000000000000000000000000000000000600082015250565b7f6f776e6572206e6f742065786973747300000000000000000000000000000000600082015250565b7f646966666572656e74206e616d65000000000000000000000000000000000000600082015250565b7f416363657373436f6e74726f6c3a2063616e206f6e6c792072656e6f756e636560008201527f20726f6c657320666f722073656c660000000000000000000000000000000000602082015250565b6138d5816134e1565b81146138e057600080fd5b50565b6138ec816134f3565b81146138f757600080fd5b50565b613903816134ff565b811461390e57600080fd5b50565b61391a81613529565b811461392557600080fd5b5056fea26469706673582212200fa6bbbe52b298f6cd236a216380a57007e9b6f3dedc3ff02e1871216676750164736f6c63430008010033",
  "immutableReferences": {},
  "source": "// SPDX-License-Identifier: MIT\r\npragma solidity 0.8.1;\r\n\r\n//import \"https://github.com/OpenZeppelin/openzeppelin-contracts/blob/master/contracts/access/AccessControl.sol\";\r\n//import '@openzeppelin/contracts/access/AccessControl.sol';\r\nimport './oz-contracts/access/AccessControl.sol';\r\n\r\n\r\nstruct StudentStruct {\r\n    uint index;\r\n    address ownerAddress;\r\n    address portfolioAddress;\r\n    address activeClass;\r\n    address[] studentClasses;\r\n}\r\n    \r\ninterface iName {\r\n    function owner() external view returns (address);\r\n    function getName() external view returns (string memory);\r\n}\r\n\r\ninterface iAcademyStudents {\r\n    function isStudent(address account) external view returns (bool);\r\n    function getStudentByAddress (address account) external view returns (StudentStruct memory);\r\n}\r\n\r\ninterface iStudentPortfolio {\r\n    function addProject (address projectAddress, string memory projectName) external returns (uint256);\r\n    function deleteProjectByAddress (address projectAddress) external returns (bool);\r\n}    \r\n\r\n\r\n/*\r\n    Precisa existir um Project para ter um Master que valide este project.\r\n    \r\n    Todo Master deve ter um PROJECT_NAME como o nome do project associado.\r\n    O Master est associado a addressAcademy e addressStudentList\r\n    Aps criar um Master:\r\n        seus address deve ser atualizado na ProjectList\r\n        seu address deve ser autorizado em Academy\r\n        \r\n    O Master tem a lista dos estudantes que submeteram este projeto.\r\n*/\r\n\r\n// MasterName valida Name e acrescenta no Portfolio\r\n// Lista do MasterName = Lista de Estudantes!\r\n\r\ncontract MasterName is AccessControl {\r\n\r\n    string constant PROJECT_NAME = \"Name\";\r\n    struct NameStruct {\r\n        address owner;\r\n        address scName;\r\n        string name;\r\n    }\r\n    NameStruct[] private nameInfo;\r\n    mapping(address => uint256) private ownerIndex;\r\n    mapping(address => uint256) private scNameIndex;\r\n    \r\n    iAcademyStudents public studentList;\r\n\r\n    constructor(address addressStudentList) {\r\n        _setupRole(DEFAULT_ADMIN_ROLE, msg.sender);\r\n        studentList = iAcademyStudents(addressStudentList);\r\n    }\r\n    \r\n    event NameAdded (address indexed owner, address indexed scName, string name);\r\n    event NameDeleted (address indexed owner, address indexed scName);\r\n    event NameDeleted1 (address indexed owner, uint256 nameIndex);\r\n\r\n    modifier onlyOwner() {\r\n        require(hasRole(DEFAULT_ADMIN_ROLE, msg.sender), \"MasterName: only owner\");\r\n        _;\r\n    }\r\n\r\n    function addName (address scNameAddress, string memory name) public returns (bool) {\r\n        _addName (msg.sender, scNameAddress, name);\r\n        return true;\r\n    }\r\n    \r\n    function addNameBySC (address scOwner, address scNameAddress, string memory name) public onlyOwner returns (bool) {\r\n        _addName (scOwner, scNameAddress, name);\r\n        return true;\r\n    }\r\n    \r\n    function _addName (address scOwner, address scNameAddress,  string memory name) private returns (bool) {\r\n        //Verificar se ja existe\r\n        require (!existsSCName(scNameAddress), \"scName exists\");\r\n        require (!existsOwner(scOwner), \"owner exists\");\r\n        \r\n        iName scName = iName(scNameAddress);\r\n        //string memory name = scName.getName();\r\n        require (compareStrings(scName.getName(), name), \"different name\");\r\n        \r\n        //Only owner's sc can add\r\n        require (scName.owner() == scOwner, \"only sc owner\");\r\n        \r\n        NameStruct memory n;\r\n        n.owner = scOwner;\r\n        n.scName = scNameAddress;\r\n        n.name = name;\r\n\r\n        nameInfo.push(n);\r\n        uint256 index = nameInfo.length;    //Attention: real location is index-1!\r\n        ownerIndex[scOwner] = index;\r\n        scNameIndex[scNameAddress] = index;\r\n        \r\n        _addInPortfolio(scOwner, scNameAddress);\r\n\r\n        emit NameAdded(scNameAddress, scOwner, name);\r\n        return true;\r\n    }    \r\n\r\n    function _addInPortfolio(address scOwner, address scNameAddress) private returns (bool) {\r\n        if (!studentList.isStudent(scOwner))\r\n            return false;\r\n\r\n        /* */\r\n        StudentStruct memory s = studentList.getStudentByAddress(scOwner);        \r\n        if (s.portfolioAddress != address(0x0)) {\r\n            //Only AcademyStudents is allowed to adds projects\r\n\r\n            iStudentPortfolio p = iStudentPortfolio(s.portfolioAddress);\r\n            p.addProject(scNameAddress, PROJECT_NAME);\r\n        }\r\n        \r\n        return true;\r\n    }\r\n\r\n    function deleteName () public returns (bool) {\r\n        _deleteName (msg.sender);\r\n        return true;        \r\n    }\r\n\r\n    function deleteNameBySC (address scOwner) public onlyOwner returns (bool) {\r\n        _deleteName (scOwner);\r\n        return true;        \r\n    }\r\n\r\n    function _deleteName (address scOwner) private returns (bool) {\r\n        require (existsOwner(scOwner), \"owner not exists\");\r\n\r\n        uint256 indexToDelete = ownerIndex[scOwner] - 1;\r\n        emit NameDeleted1 (scOwner, indexToDelete);\r\n        address scNameToDelete = nameInfo[indexToDelete].scName;\r\n\r\n        uint256 indexToMove = nameInfo.length - 1;\r\n        address ownerToMove = nameInfo[indexToMove].owner;\r\n        address scNameToMove = nameInfo[indexToMove].scName;\r\n\r\n        nameInfo[indexToDelete] = nameInfo[indexToMove];\r\n        ownerIndex[ownerToMove] = indexToDelete + 1;\r\n        scNameIndex[scNameToMove] = indexToDelete + 1;\r\n\r\n        delete ownerIndex[scOwner];\r\n        delete scNameIndex[scNameToDelete];\r\n        nameInfo.pop();\r\n\r\n        \r\n        StudentStruct memory s = studentList.getStudentByAddress(scOwner); \r\n        if (s.portfolioAddress != address(0x0)) {\r\n            iStudentPortfolio p = iStudentPortfolio(s.portfolioAddress);\r\n            p.deleteProjectByAddress(scNameToDelete);\r\n        }\r\n        /*\r\n        */\r\n\r\n        emit NameDeleted (scOwner, scNameToDelete);\r\n        return true;\r\n    }\r\n    \r\n    function updateStudentList(address addressStudentList) public onlyOwner returns (bool) {\r\n        studentList = iAcademyStudents(addressStudentList);\r\n        return true;\r\n    }\r\n    \r\n    //Owner pode ter mais de um SCName? NO\r\n    function existsOwner(address account) public view returns (bool) {\r\n        if (ownerIndex[account] == 0)\r\n            return false;\r\n        else\r\n            return true;\r\n    }\r\n    \r\n    function existsSCName(address scAddress) public view returns (bool) {\r\n        if (scNameIndex[scAddress] == 0)\r\n            return false;\r\n        else\r\n            return true;\r\n    }\r\n    \r\n    function checkName (address scNameAddress, string memory name_) public view returns (bool) {\r\n        //Name stored in scName equal name_\r\n        iName scName = iName(scNameAddress);\r\n        string memory name = scName.getName();\r\n        if (compareStrings(name, name_)) {\r\n            return true;\r\n        }\r\n        return false;\r\n    }\r\n    \r\n    function listNameInfo () public view returns (NameStruct[] memory) {\r\n        return nameInfo;\r\n    }\r\n    \r\n    function countNames () public view returns (uint) {\r\n        return (nameInfo.length);\r\n    }\r\n\r\n    function getOwnerSC (address scNameAddress) public view returns (address) {\r\n        iName scName = iName(scNameAddress);\r\n        return scName.owner();\r\n    }\r\n    \r\n    function getName (address scNameAddress) public view returns (string memory) {\r\n        iName scName = iName(scNameAddress);\r\n        return scName.getName();\r\n    }\r\n    \r\n    function getNameInfoByOwner (address account) public view returns (NameStruct memory) {\r\n        return nameInfo[ownerIndex[account]];\r\n    }    \r\n\r\n    function getNameInfoByNameSC (address scNameAddress) public view returns (NameStruct memory) {\r\n        return nameInfo[scNameIndex[scNameAddress]];\r\n    }    \r\n\r\n    function getNameInfoByIndex (uint256 index) public view returns (NameStruct memory) {\r\n        return nameInfo[index-1];\r\n    } \r\n    \r\n    function compareStrings(string memory a, string memory b) private pure returns (bool) {\r\n        return (keccak256(abi.encodePacked((a))) == keccak256(abi.encodePacked((b))));\r\n    }    \r\n}\r\n",
  "sourcePath": "C:/ACADEMY/GITHUB/rsk-academy-dapp/contracts/MasterName.sol",
  "compiler": {
    "name": "solc",
    "version": "0.8.1+commit.df193b15.Emscripten.clang"
  },
  "schemaVersion": "3.3.4",
  "updatedAt": "2021-02-20T18:47:11.334Z",
  "networkType": "ethereum",
  "devdoc": {
    "kind": "dev",
    "methods": {
      "getRoleAdmin(bytes32)": {
        "details": "Returns the admin role that controls `role`. See {grantRole} and {revokeRole}. To change a role's admin, use {_setRoleAdmin}."
      },
      "getRoleMember(bytes32,uint256)": {
        "details": "Returns one of the accounts that have `role`. `index` must be a value between 0 and {getRoleMemberCount}, non-inclusive. Role bearers are not sorted in any particular way, and their ordering may change at any point. WARNING: When using {getRoleMember} and {getRoleMemberCount}, make sure you perform all queries on the same block. See the following https://forum.openzeppelin.com/t/iterating-over-elements-on-enumerableset-in-openzeppelin-contracts/2296[forum post] for more information."
      },
      "getRoleMemberCount(bytes32)": {
        "details": "Returns the number of accounts that have `role`. Can be used together with {getRoleMember} to enumerate all bearers of a role."
      },
      "grantRole(bytes32,address)": {
        "details": "Grants `role` to `account`. If `account` had not been already granted `role`, emits a {RoleGranted} event. Requirements: - the caller must have ``role``'s admin role."
      },
      "hasRole(bytes32,address)": {
        "details": "Returns `true` if `account` has been granted `role`."
      },
      "renounceRole(bytes32,address)": {
        "details": "Revokes `role` from the calling account. Roles are often managed via {grantRole} and {revokeRole}: this function's purpose is to provide a mechanism for accounts to lose their privileges if they are compromised (such as when a trusted device is misplaced). If the calling account had been granted `role`, emits a {RoleRevoked} event. Requirements: - the caller must be `account`."
      },
      "revokeRole(bytes32,address)": {
        "details": "Revokes `role` from `account`. If `account` had been granted `role`, emits a {RoleRevoked} event. Requirements: - the caller must have ``role``'s admin role."
      }
    },
    "version": 1
  },
  "userdoc": {
    "kind": "user",
    "methods": {},
    "version": 1
  }
}