{
  "contractName": "MasterName",
  "abi": [
    {
      "inputs": [
        {
          "internalType": "address",
          "name": "addressStudentList",
          "type": "address"
        }
      ],
      "stateMutability": "nonpayable",
      "type": "constructor"
    },
    {
      "anonymous": false,
      "inputs": [
        {
          "indexed": true,
          "internalType": "address",
          "name": "owner",
          "type": "address"
        },
        {
          "indexed": true,
          "internalType": "address",
          "name": "scName",
          "type": "address"
        },
        {
          "indexed": false,
          "internalType": "string",
          "name": "name",
          "type": "string"
        }
      ],
      "name": "NameAdded",
      "type": "event"
    },
    {
      "anonymous": false,
      "inputs": [
        {
          "indexed": true,
          "internalType": "address",
          "name": "owner",
          "type": "address"
        },
        {
          "indexed": true,
          "internalType": "address",
          "name": "scName",
          "type": "address"
        }
      ],
      "name": "NameDeleted",
      "type": "event"
    },
    {
      "anonymous": false,
      "inputs": [
        {
          "indexed": true,
          "internalType": "address",
          "name": "owner",
          "type": "address"
        },
        {
          "indexed": false,
          "internalType": "uint256",
          "name": "nameIndex",
          "type": "uint256"
        }
      ],
      "name": "NameDeleted1",
      "type": "event"
    },
    {
      "anonymous": false,
      "inputs": [
        {
          "indexed": true,
          "internalType": "bytes32",
          "name": "role",
          "type": "bytes32"
        },
        {
          "indexed": true,
          "internalType": "bytes32",
          "name": "previousAdminRole",
          "type": "bytes32"
        },
        {
          "indexed": true,
          "internalType": "bytes32",
          "name": "newAdminRole",
          "type": "bytes32"
        }
      ],
      "name": "RoleAdminChanged",
      "type": "event"
    },
    {
      "anonymous": false,
      "inputs": [
        {
          "indexed": true,
          "internalType": "bytes32",
          "name": "role",
          "type": "bytes32"
        },
        {
          "indexed": true,
          "internalType": "address",
          "name": "account",
          "type": "address"
        },
        {
          "indexed": true,
          "internalType": "address",
          "name": "sender",
          "type": "address"
        }
      ],
      "name": "RoleGranted",
      "type": "event"
    },
    {
      "anonymous": false,
      "inputs": [
        {
          "indexed": true,
          "internalType": "bytes32",
          "name": "role",
          "type": "bytes32"
        },
        {
          "indexed": true,
          "internalType": "address",
          "name": "account",
          "type": "address"
        },
        {
          "indexed": true,
          "internalType": "address",
          "name": "sender",
          "type": "address"
        }
      ],
      "name": "RoleRevoked",
      "type": "event"
    },
    {
      "inputs": [],
      "name": "DEFAULT_ADMIN_ROLE",
      "outputs": [
        {
          "internalType": "bytes32",
          "name": "",
          "type": "bytes32"
        }
      ],
      "stateMutability": "view",
      "type": "function",
      "constant": true
    },
    {
      "inputs": [
        {
          "internalType": "bytes32",
          "name": "role",
          "type": "bytes32"
        }
      ],
      "name": "getRoleAdmin",
      "outputs": [
        {
          "internalType": "bytes32",
          "name": "",
          "type": "bytes32"
        }
      ],
      "stateMutability": "view",
      "type": "function",
      "constant": true
    },
    {
      "inputs": [
        {
          "internalType": "bytes32",
          "name": "role",
          "type": "bytes32"
        },
        {
          "internalType": "uint256",
          "name": "index",
          "type": "uint256"
        }
      ],
      "name": "getRoleMember",
      "outputs": [
        {
          "internalType": "address",
          "name": "",
          "type": "address"
        }
      ],
      "stateMutability": "view",
      "type": "function",
      "constant": true
    },
    {
      "inputs": [
        {
          "internalType": "bytes32",
          "name": "role",
          "type": "bytes32"
        }
      ],
      "name": "getRoleMemberCount",
      "outputs": [
        {
          "internalType": "uint256",
          "name": "",
          "type": "uint256"
        }
      ],
      "stateMutability": "view",
      "type": "function",
      "constant": true
    },
    {
      "inputs": [
        {
          "internalType": "bytes32",
          "name": "role",
          "type": "bytes32"
        },
        {
          "internalType": "address",
          "name": "account",
          "type": "address"
        }
      ],
      "name": "grantRole",
      "outputs": [],
      "stateMutability": "nonpayable",
      "type": "function"
    },
    {
      "inputs": [
        {
          "internalType": "bytes32",
          "name": "role",
          "type": "bytes32"
        },
        {
          "internalType": "address",
          "name": "account",
          "type": "address"
        }
      ],
      "name": "hasRole",
      "outputs": [
        {
          "internalType": "bool",
          "name": "",
          "type": "bool"
        }
      ],
      "stateMutability": "view",
      "type": "function",
      "constant": true
    },
    {
      "inputs": [
        {
          "internalType": "bytes32",
          "name": "role",
          "type": "bytes32"
        },
        {
          "internalType": "address",
          "name": "account",
          "type": "address"
        }
      ],
      "name": "renounceRole",
      "outputs": [],
      "stateMutability": "nonpayable",
      "type": "function"
    },
    {
      "inputs": [
        {
          "internalType": "bytes32",
          "name": "role",
          "type": "bytes32"
        },
        {
          "internalType": "address",
          "name": "account",
          "type": "address"
        }
      ],
      "name": "revokeRole",
      "outputs": [],
      "stateMutability": "nonpayable",
      "type": "function"
    },
    {
      "inputs": [],
      "name": "studentList",
      "outputs": [
        {
          "internalType": "contract iAcademyStudents",
          "name": "",
          "type": "address"
        }
      ],
      "stateMutability": "view",
      "type": "function",
      "constant": true
    },
    {
      "inputs": [
        {
          "internalType": "address",
          "name": "scNameAddress",
          "type": "address"
        },
        {
          "internalType": "string",
          "name": "name",
          "type": "string"
        }
      ],
      "name": "addName",
      "outputs": [
        {
          "internalType": "bool",
          "name": "",
          "type": "bool"
        }
      ],
      "stateMutability": "nonpayable",
      "type": "function"
    },
    {
      "inputs": [
        {
          "internalType": "address",
          "name": "scOwner",
          "type": "address"
        },
        {
          "internalType": "address",
          "name": "scNameAddress",
          "type": "address"
        },
        {
          "internalType": "string",
          "name": "name",
          "type": "string"
        }
      ],
      "name": "addNameBySC",
      "outputs": [
        {
          "internalType": "bool",
          "name": "",
          "type": "bool"
        }
      ],
      "stateMutability": "nonpayable",
      "type": "function"
    },
    {
      "inputs": [],
      "name": "deleteName",
      "outputs": [
        {
          "internalType": "bool",
          "name": "",
          "type": "bool"
        }
      ],
      "stateMutability": "nonpayable",
      "type": "function"
    },
    {
      "inputs": [
        {
          "internalType": "address",
          "name": "scOwner",
          "type": "address"
        }
      ],
      "name": "deleteNameBySC",
      "outputs": [
        {
          "internalType": "bool",
          "name": "",
          "type": "bool"
        }
      ],
      "stateMutability": "nonpayable",
      "type": "function"
    },
    {
      "inputs": [
        {
          "internalType": "address",
          "name": "addressStudentList",
          "type": "address"
        }
      ],
      "name": "updateStudentList",
      "outputs": [
        {
          "internalType": "bool",
          "name": "",
          "type": "bool"
        }
      ],
      "stateMutability": "nonpayable",
      "type": "function"
    },
    {
      "inputs": [
        {
          "internalType": "address",
          "name": "account",
          "type": "address"
        }
      ],
      "name": "existsOwner",
      "outputs": [
        {
          "internalType": "bool",
          "name": "",
          "type": "bool"
        }
      ],
      "stateMutability": "view",
      "type": "function",
      "constant": true
    },
    {
      "inputs": [
        {
          "internalType": "address",
          "name": "scAddress",
          "type": "address"
        }
      ],
      "name": "existsSCName",
      "outputs": [
        {
          "internalType": "bool",
          "name": "",
          "type": "bool"
        }
      ],
      "stateMutability": "view",
      "type": "function",
      "constant": true
    },
    {
      "inputs": [
        {
          "internalType": "address",
          "name": "scNameAddress",
          "type": "address"
        },
        {
          "internalType": "string",
          "name": "name",
          "type": "string"
        }
      ],
      "name": "checkName",
      "outputs": [
        {
          "internalType": "bool",
          "name": "",
          "type": "bool"
        }
      ],
      "stateMutability": "view",
      "type": "function",
      "constant": true
    },
    {
      "inputs": [],
      "name": "listNameInfo",
      "outputs": [
        {
          "components": [
            {
              "internalType": "address",
              "name": "owner",
              "type": "address"
            },
            {
              "internalType": "address",
              "name": "scName",
              "type": "address"
            },
            {
              "internalType": "string",
              "name": "name",
              "type": "string"
            }
          ],
          "internalType": "struct NameStruct[]",
          "name": "",
          "type": "tuple[]"
        }
      ],
      "stateMutability": "view",
      "type": "function",
      "constant": true
    },
    {
      "inputs": [],
      "name": "countNames",
      "outputs": [
        {
          "internalType": "uint256",
          "name": "",
          "type": "uint256"
        }
      ],
      "stateMutability": "view",
      "type": "function",
      "constant": true
    },
    {
      "inputs": [
        {
          "internalType": "address",
          "name": "scNameAddress",
          "type": "address"
        }
      ],
      "name": "getOwnerSC",
      "outputs": [
        {
          "internalType": "address",
          "name": "",
          "type": "address"
        }
      ],
      "stateMutability": "view",
      "type": "function",
      "constant": true
    },
    {
      "inputs": [
        {
          "internalType": "address",
          "name": "scNameAddress",
          "type": "address"
        }
      ],
      "name": "getName",
      "outputs": [
        {
          "internalType": "string",
          "name": "",
          "type": "string"
        }
      ],
      "stateMutability": "view",
      "type": "function",
      "constant": true
    },
    {
      "inputs": [
        {
          "internalType": "address",
          "name": "account",
          "type": "address"
        }
      ],
      "name": "getNameInfoByOwner",
      "outputs": [
        {
          "components": [
            {
              "internalType": "address",
              "name": "owner",
              "type": "address"
            },
            {
              "internalType": "address",
              "name": "scName",
              "type": "address"
            },
            {
              "internalType": "string",
              "name": "name",
              "type": "string"
            }
          ],
          "internalType": "struct NameStruct",
          "name": "",
          "type": "tuple"
        }
      ],
      "stateMutability": "view",
      "type": "function",
      "constant": true
    },
    {
      "inputs": [
        {
          "internalType": "address",
          "name": "scNameAddress",
          "type": "address"
        }
      ],
      "name": "getNameInfoByNameSC",
      "outputs": [
        {
          "components": [
            {
              "internalType": "address",
              "name": "owner",
              "type": "address"
            },
            {
              "internalType": "address",
              "name": "scName",
              "type": "address"
            },
            {
              "internalType": "string",
              "name": "name",
              "type": "string"
            }
          ],
          "internalType": "struct NameStruct",
          "name": "",
          "type": "tuple"
        }
      ],
      "stateMutability": "view",
      "type": "function",
      "constant": true
    },
    {
      "inputs": [
        {
          "internalType": "uint256",
          "name": "index",
          "type": "uint256"
        }
      ],
      "name": "getNameInfoByIndex",
      "outputs": [
        {
          "components": [
            {
              "internalType": "address",
              "name": "owner",
              "type": "address"
            },
            {
              "internalType": "address",
              "name": "scName",
              "type": "address"
            },
            {
              "internalType": "string",
              "name": "name",
              "type": "string"
            }
          ],
          "internalType": "struct NameStruct",
          "name": "",
          "type": "tuple"
        }
      ],
      "stateMutability": "view",
      "type": "function",
      "constant": true
    }
  ],
  "bytecode": "0x60806040523480156200001157600080fd5b5060405162003c2b38038062003c2b833981810160405281019062000037919062000241565b6200004c6000801b336200009460201b60201c565b80600160006101000a81548173ffffffffffffffffffffffffffffffffffffffff021916908373ffffffffffffffffffffffffffffffffffffffff16021790555050620002bb565b620000a68282620000aa60201b60201c565b5050565b620000d8816000808581526020019081526020016000206000016200014d60201b620012ab1790919060201c565b156200014957620000ee6200018560201b60201c565b73ffffffffffffffffffffffffffffffffffffffff168173ffffffffffffffffffffffffffffffffffffffff16837f2f8788117e7eff1d82e926ec794901d17c78024a50270940304540a733656f0d60405160405180910390a45b5050565b60006200017d836000018373ffffffffffffffffffffffffffffffffffffffff1660001b6200018d60201b60201c565b905092915050565b600033905090565b6000620001a183836200020760201b60201c565b620001fc57826000018290806001815401808255809150506001900390600052602060002001600090919091909150558260000180549050836001016000848152602001908152602001600020819055506001905062000201565b600090505b92915050565b600080836001016000848152602001908152602001600020541415905092915050565b6000815190506200023b81620002a1565b92915050565b6000602082840312156200025457600080fd5b600062000264848285016200022a565b91505092915050565b60006200027a8262000281565b9050919050565b600073ffffffffffffffffffffffffffffffffffffffff82169050919050565b620002ac816200026d565b8114620002b857600080fd5b50565b61396080620002cb6000396000f3fe608060405234801561001057600080fd5b50600436106101585760003560e01c806391d14854116100c3578063ca15c8731161007c578063ca15c8731461044d578063d0aab3fd1461047d578063d43e001a146104ad578063d547741f146104cb578063d5f22ec2146104e7578063e8330ac71461051757610158565b806391d1485414610351578063939678bb14610381578063a217fddf146103b1578063a9cad5b3146103cf578063ad36e0c9146103ff578063bf16fd451461041d57610158565b8063556a1d2111610115578063556a1d21146102435780635fd4b08a146102735780636738acf7146102a35780638edb4a43146102c15780638f1b8293146102f15780639010d07c1461032157610158565b80630d17da9e1461015d578063248a9ca31461018d5780632f2ff15d146101bd5780633209207e146101d957806333e13233146101f757806336568abe14610227575b600080fd5b61017760048036038101906101729190612ac3565b610547565b6040516101849190613329565b60405180910390f35b6101a760048036038101906101a29190612bf9565b610726565b6040516101b49190613191565b60405180910390f35b6101d760048036038101906101d29190612c22565b610745565b005b6101e16107b8565b6040516101ee9190613176565b60405180910390f35b610211600480360381019061020c9190612d1c565b6107cb565b60405161021e9190613329565b60405180910390f35b610241600480360381019061023c9190612c22565b610977565b005b61025d60048036038101906102589190612ac3565b6109fa565b60405161026a9190613329565b60405180910390f35b61028d60048036038101906102889190612ac3565b610bd9565b60405161029a91906131c7565b60405180910390f35b6102ab610c6b565b6040516102b89190613154565b60405180910390f35b6102db60048036038101906102d69190612ac3565b610e08565b6040516102e89190613176565b60405180910390f35b61030b60048036038101906103069190612ac3565b610ea0565b6040516103189190613176565b60405180910390f35b61033b60048036038101906103369190612c5e565b610efc565b6040516103489190613109565b60405180910390f35b61036b60048036038101906103669190612c22565b610f2d565b6040516103789190613176565b60405180910390f35b61039b60048036038101906103969190612ac3565b610f5e565b6040516103a89190613176565b60405180910390f35b6103b9610fba565b6040516103c69190613191565b60405180910390f35b6103e960048036038101906103e49190612ac3565b610fc1565b6040516103f69190613109565b60405180910390f35b61040761104d565b604051610414919061334b565b60405180910390f35b61043760048036038101906104329190612ac3565b61105a565b6040516104449190613176565b60405180910390f35b61046760048036038101906104629190612bf9565b6110bb565b604051610474919061334b565b60405180910390f35b61049760048036038101906104929190612b7c565b6110e1565b6040516104a49190613176565b60405180910390f35b6104b56110f9565b6040516104c291906131ac565b60405180910390f35b6104e560048036038101906104e09190612c22565b61111f565b005b61050160048036038101906104fc9190612b15565b611192565b60405161050e9190613176565b60405180910390f35b610531600480360381019061052c9190612b7c565b6111f7565b60405161053e9190613176565b60405180910390f35b61054f612682565b6002600460008473ffffffffffffffffffffffffffffffffffffffff1673ffffffffffffffffffffffffffffffffffffffff16815260200190815260200160002054815481106105c8577f4e487b7100000000000000000000000000000000000000000000000000000000600052603260045260246000fd5b90600052602060002090600302016040518060600160405290816000820160009054906101000a900473ffffffffffffffffffffffffffffffffffffffff1673ffffffffffffffffffffffffffffffffffffffff1673ffffffffffffffffffffffffffffffffffffffff1681526020016001820160009054906101000a900473ffffffffffffffffffffffffffffffffffffffff1673ffffffffffffffffffffffffffffffffffffffff1673ffffffffffffffffffffffffffffffffffffffff16815260200160028201805461069d9061359b565b80601f01602080910402602001604051908101604052809291908181526020018280546106c99061359b565b80156107165780601f106106eb57610100808354040283529160200191610716565b820191906000526020600020905b8154815290600101906020018083116106f957829003601f168201915b5050505050815250509050919050565b6000806000838152602001908152602001600020600201549050919050565b61076b600080848152602001908152602001600020600201546107666112db565b610f2d565b6107aa576040517f08c379a00000000000000000000000000000000000000000000000000000000081526004016107a190613229565b60405180910390fd5b6107b482826112e3565b5050565b60006107c333611376565b506001905090565b6107d3612682565b60026001836107e291906134af565b81548110610819577f4e487b7100000000000000000000000000000000000000000000000000000000600052603260045260246000fd5b90600052602060002090600302016040518060600160405290816000820160009054906101000a900473ffffffffffffffffffffffffffffffffffffffff1673ffffffffffffffffffffffffffffffffffffffff1673ffffffffffffffffffffffffffffffffffffffff1681526020016001820160009054906101000a900473ffffffffffffffffffffffffffffffffffffffff1673ffffffffffffffffffffffffffffffffffffffff1673ffffffffffffffffffffffffffffffffffffffff1681526020016002820180546108ee9061359b565b80601f016020809104026020016040519081016040528092919081815260200182805461091a9061359b565b80156109675780601f1061093c57610100808354040283529160200191610967565b820191906000526020600020905b81548152906001019060200180831161094a57829003601f168201915b5050505050815250509050919050565b61097f6112db565b73ffffffffffffffffffffffffffffffffffffffff168173ffffffffffffffffffffffffffffffffffffffff16146109ec576040517f08c379a00000000000000000000000000000000000000000000000000000000081526004016109e390613309565b60405180910390fd5b6109f68282611b06565b5050565b610a02612682565b6002600360008473ffffffffffffffffffffffffffffffffffffffff1673ffffffffffffffffffffffffffffffffffffffff1681526020019081526020016000205481548110610a7b577f4e487b7100000000000000000000000000000000000000000000000000000000600052603260045260246000fd5b90600052602060002090600302016040518060600160405290816000820160009054906101000a900473ffffffffffffffffffffffffffffffffffffffff1673ffffffffffffffffffffffffffffffffffffffff1673ffffffffffffffffffffffffffffffffffffffff1681526020016001820160009054906101000a900473ffffffffffffffffffffffffffffffffffffffff1673ffffffffffffffffffffffffffffffffffffffff1673ffffffffffffffffffffffffffffffffffffffff168152602001600282018054610b509061359b565b80601f0160208091040260200160405190810160405280929190818152602001828054610b7c9061359b565b8015610bc95780601f10610b9e57610100808354040283529160200191610bc9565b820191906000526020600020905b815481529060010190602001808311610bac57829003601f168201915b5050505050815250509050919050565b606060008290508073ffffffffffffffffffffffffffffffffffffffff166317d7de7c6040518163ffffffff1660e01b815260040160006040518083038186803b158015610c2657600080fd5b505afa158015610c3a573d6000803e3d6000fd5b505050506040513d6000823e3d601f19601f82011682018060405250810190610c639190612c9a565b915050919050565b60606002805480602002602001604051908101604052809291908181526020016000905b82821015610dff57838290600052602060002090600302016040518060600160405290816000820160009054906101000a900473ffffffffffffffffffffffffffffffffffffffff1673ffffffffffffffffffffffffffffffffffffffff1673ffffffffffffffffffffffffffffffffffffffff1681526020016001820160009054906101000a900473ffffffffffffffffffffffffffffffffffffffff1673ffffffffffffffffffffffffffffffffffffffff1673ffffffffffffffffffffffffffffffffffffffff168152602001600282018054610d6e9061359b565b80601f0160208091040260200160405190810160405280929190818152602001828054610d9a9061359b565b8015610de75780601f10610dbc57610100808354040283529160200191610de7565b820191906000526020600020905b815481529060010190602001808311610dca57829003601f168201915b50505050508152505081526020019060010190610c8f565b50505050905090565b6000610e176000801b33610f2d565b610e56576040517f08c379a0000000000000000000000000000000000000000000000000000000008152600401610e4d90613269565b60405180910390fd5b81600160006101000a81548173ffffffffffffffffffffffffffffffffffffffff021916908373ffffffffffffffffffffffffffffffffffffffff16021790555060019050919050565b600080600360008473ffffffffffffffffffffffffffffffffffffffff1673ffffffffffffffffffffffffffffffffffffffff168152602001908152602001600020541415610ef25760009050610ef7565b600190505b919050565b6000610f2582600080868152602001908152602001600020600001611b9990919063ffffffff16565b905092915050565b6000610f5682600080868152602001908152602001600020600001611bb390919063ffffffff16565b905092915050565b600080600460008473ffffffffffffffffffffffffffffffffffffffff1673ffffffffffffffffffffffffffffffffffffffff168152602001908152602001600020541415610fb05760009050610fb5565b600190505b919050565b6000801b81565b6000808290508073ffffffffffffffffffffffffffffffffffffffff16638da5cb5b6040518163ffffffff1660e01b815260040160206040518083038186803b15801561100d57600080fd5b505afa158015611021573d6000803e3d6000fd5b505050506040513d601f19601f820116820180604052508101906110459190612aec565b915050919050565b6000600280549050905090565b60006110696000801b33610f2d565b6110a8576040517f08c379a000000000000000000000000000000000000000000000000000000000815260040161109f90613269565b60405180910390fd5b6110b182611376565b5060019050919050565b60006110da600080848152602001908152602001600020600001611be3565b9050919050565b60006110ee338484611bf8565b506001905092915050565b600160009054906101000a900473ffffffffffffffffffffffffffffffffffffffff1681565b611145600080848152602001908152602001600020600201546111406112db565b610f2d565b611184576040517f08c379a000000000000000000000000000000000000000000000000000000000815260040161117b90613249565b60405180910390fd5b61118e8282611b06565b5050565b60006111a16000801b33610f2d565b6111e0576040517f08c379a00000000000000000000000000000000000000000000000000000000081526004016111d790613269565b60405180910390fd5b6111eb848484611bf8565b50600190509392505050565b60008083905060008173ffffffffffffffffffffffffffffffffffffffff166317d7de7c6040518163ffffffff1660e01b815260040160006040518083038186803b15801561124557600080fd5b505afa158015611259573d6000803e3d6000fd5b505050506040513d6000823e3d601f19601f820116820180604052508101906112829190612c9a565b905061128e81856120b1565b1561129e576001925050506112a5565b6000925050505b92915050565b60006112d3836000018373ffffffffffffffffffffffffffffffffffffffff1660001b61210a565b905092915050565b600033905090565b61130a816000808581526020019081526020016000206000016112ab90919063ffffffff16565b15611372576113176112db565b73ffffffffffffffffffffffffffffffffffffffff168173ffffffffffffffffffffffffffffffffffffffff16837f2f8788117e7eff1d82e926ec794901d17c78024a50270940304540a733656f0d60405160405180910390a45b5050565b600061138182610ea0565b6113c0576040517f08c379a00000000000000000000000000000000000000000000000000000000081526004016113b7906132c9565b60405180910390fd5b60006001600360008573ffffffffffffffffffffffffffffffffffffffff1673ffffffffffffffffffffffffffffffffffffffff1681526020019081526020016000205461140e91906134af565b90508273ffffffffffffffffffffffffffffffffffffffff167fd3328a61e9ee7e44ee09de69dac246a4fc5eee252a08f21bf24a15d03dfc64ce82604051611456919061334b565b60405180910390a260006002828154811061149a577f4e487b7100000000000000000000000000000000000000000000000000000000600052603260045260246000fd5b906000526020600020906003020160010160009054906101000a900473ffffffffffffffffffffffffffffffffffffffff169050600060016002805490506114e291906134af565b9050600060028281548110611520577f4e487b7100000000000000000000000000000000000000000000000000000000600052603260045260246000fd5b906000526020600020906003020160000160009054906101000a900473ffffffffffffffffffffffffffffffffffffffff169050600060028381548110611590577f4e487b7100000000000000000000000000000000000000000000000000000000600052603260045260246000fd5b906000526020600020906003020160010160009054906101000a900473ffffffffffffffffffffffffffffffffffffffff169050600283815481106115fe577f4e487b7100000000000000000000000000000000000000000000000000000000600052603260045260246000fd5b906000526020600020906003020160028681548110611646577f4e487b7100000000000000000000000000000000000000000000000000000000600052603260045260246000fd5b90600052602060002090600302016000820160009054906101000a900473ffffffffffffffffffffffffffffffffffffffff168160000160006101000a81548173ffffffffffffffffffffffffffffffffffffffff021916908373ffffffffffffffffffffffffffffffffffffffff1602179055506001820160009054906101000a900473ffffffffffffffffffffffffffffffffffffffff168160010160006101000a81548173ffffffffffffffffffffffffffffffffffffffff021916908373ffffffffffffffffffffffffffffffffffffffff16021790555060028201816002019080546117369061359b565b6117419291906126cf565b509050506001856117529190613459565b600360008473ffffffffffffffffffffffffffffffffffffffff1673ffffffffffffffffffffffffffffffffffffffff168152602001908152602001600020819055506001856117a29190613459565b600460008373ffffffffffffffffffffffffffffffffffffffff1673ffffffffffffffffffffffffffffffffffffffff16815260200190815260200160002081905550600360008873ffffffffffffffffffffffffffffffffffffffff1673ffffffffffffffffffffffffffffffffffffffff16815260200190815260200160002060009055600460008573ffffffffffffffffffffffffffffffffffffffff1673ffffffffffffffffffffffffffffffffffffffff1681526020019081526020016000206000905560028054806118a3577f4e487b7100000000000000000000000000000000000000000000000000000000600052603160045260246000fd5b6001900381819060005260206000209060030201600080820160006101000a81549073ffffffffffffffffffffffffffffffffffffffff02191690556001820160006101000a81549073ffffffffffffffffffffffffffffffffffffffff0219169055600282016000611916919061275c565b505090556000600160009054906101000a900473ffffffffffffffffffffffffffffffffffffffff1673ffffffffffffffffffffffffffffffffffffffff16639f3da5cc896040518263ffffffff1660e01b81526004016119779190613109565b60006040518083038186803b15801561198f57600080fd5b505afa1580156119a3573d6000803e3d6000fd5b505050506040513d6000823e3d601f19601f820116820180604052508101906119cc9190612cdb565b9050600073ffffffffffffffffffffffffffffffffffffffff16816040015173ffffffffffffffffffffffffffffffffffffffff1614611a9d576000816040015190508073ffffffffffffffffffffffffffffffffffffffff1663f4a496b7876040518263ffffffff1660e01b8152600401611a489190613109565b602060405180830381600087803b158015611a6257600080fd5b505af1158015611a76573d6000803e3d6000fd5b505050506040513d601f19601f82011682018060405250810190611a9a9190612bd0565b50505b8473ffffffffffffffffffffffffffffffffffffffff168873ffffffffffffffffffffffffffffffffffffffff167f3fafcd48c28ba1ae67f12f2c45df19bd1ddf8375c33d97042ad428b1d55026d660405160405180910390a360019650505050505050919050565b611b2d8160008085815260200190815260200160002060000161217a90919063ffffffff16565b15611b9557611b3a6112db565b73ffffffffffffffffffffffffffffffffffffffff168173ffffffffffffffffffffffffffffffffffffffff16837ff6391f5c32d9c69d2a47ea670b442974b53935d1edc7fd64eb21e047a839171b60405160405180910390a45b5050565b6000611ba883600001836121aa565b60001c905092915050565b6000611bdb836000018373ffffffffffffffffffffffffffffffffffffffff1660001b612244565b905092915050565b6000611bf182600001612267565b9050919050565b6000611c0383610f5e565b15611c43576040517f08c379a0000000000000000000000000000000000000000000000000000000008152600401611c3a90613209565b60405180910390fd5b611c4c84610ea0565b15611c8c576040517f08c379a0000000000000000000000000000000000000000000000000000000008152600401611c83906132a9565b60405180910390fd5b6000839050611d1d8173ffffffffffffffffffffffffffffffffffffffff166317d7de7c6040518163ffffffff1660e01b815260040160006040518083038186803b158015611cda57600080fd5b505afa158015611cee573d6000803e3d6000fd5b505050506040513d6000823e3d601f19601f82011682018060405250810190611d179190612c9a565b846120b1565b611d5c576040517f08c379a0000000000000000000000000000000000000000000000000000000008152600401611d53906132e9565b60405180910390fd5b8473ffffffffffffffffffffffffffffffffffffffff168173ffffffffffffffffffffffffffffffffffffffff16638da5cb5b6040518163ffffffff1660e01b815260040160206040518083038186803b158015611db957600080fd5b505afa158015611dcd573d6000803e3d6000fd5b505050506040513d601f19601f82011682018060405250810190611df19190612aec565b73ffffffffffffffffffffffffffffffffffffffff1614611e47576040517f08c379a0000000000000000000000000000000000000000000000000000000008152600401611e3e90613289565b60405180910390fd5b611e4f612682565b85816000019073ffffffffffffffffffffffffffffffffffffffff16908173ffffffffffffffffffffffffffffffffffffffff168152505084816020019073ffffffffffffffffffffffffffffffffffffffff16908173ffffffffffffffffffffffffffffffffffffffff1681525050838160400181905250600281908060018154018082558091505060019003906000526020600020906003020160009091909190915060008201518160000160006101000a81548173ffffffffffffffffffffffffffffffffffffffff021916908373ffffffffffffffffffffffffffffffffffffffff16021790555060208201518160010160006101000a81548173ffffffffffffffffffffffffffffffffffffffff021916908373ffffffffffffffffffffffffffffffffffffffff1602179055506040820151816002019080519060200190611f9e92919061279c565b5050506000600280549050905080600360008973ffffffffffffffffffffffffffffffffffffffff1673ffffffffffffffffffffffffffffffffffffffff1681526020019081526020016000208190555080600460008873ffffffffffffffffffffffffffffffffffffffff1673ffffffffffffffffffffffffffffffffffffffff1681526020019081526020016000208190555061203d8787612278565b508673ffffffffffffffffffffffffffffffffffffffff168673ffffffffffffffffffffffffffffffffffffffff167f2b824af0f727954b97daea8fcd4ca48fb52a488e8853e716f5b48faa3cd1a2f48760405161209b91906131c7565b60405180910390a3600193505050509392505050565b6000816040516020016120c491906130f2565b60405160208183030381529060405280519060200120836040516020016120eb91906130f2565b6040516020818303038152906040528051906020012014905092915050565b60006121168383612244565b61216f578260000182908060018154018082558091505060019003906000526020600020016000909190919091505582600001805490508360010160008481526020019081526020016000208190555060019050612174565b600090505b92915050565b60006121a2836000018373ffffffffffffffffffffffffffffffffffffffff1660001b6124f8565b905092915050565b6000818360000180549050116121f5576040517f08c379a00000000000000000000000000000000000000000000000000000000081526004016121ec906131e9565b60405180910390fd5b826000018281548110612231577f4e487b7100000000000000000000000000000000000000000000000000000000600052603260045260246000fd5b9060005260206000200154905092915050565b600080836001016000848152602001908152602001600020541415905092915050565b600081600001805490509050919050565b6000600160009054906101000a900473ffffffffffffffffffffffffffffffffffffffff1673ffffffffffffffffffffffffffffffffffffffff166382f7d392846040518263ffffffff1660e01b81526004016122d59190613109565b60206040518083038186803b1580156122ed57600080fd5b505afa158015612301573d6000803e3d6000fd5b505050506040513d601f19601f820116820180604052508101906123259190612bd0565b61233257600090506124f2565b6000600160009054906101000a900473ffffffffffffffffffffffffffffffffffffffff1673ffffffffffffffffffffffffffffffffffffffff16639f3da5cc856040518263ffffffff1660e01b815260040161238f9190613109565b60006040518083038186803b1580156123a757600080fd5b505afa1580156123bb573d6000803e3d6000fd5b505050506040513d6000823e3d601f19601f820116820180604052508101906123e49190612cdb565b9050600073ffffffffffffffffffffffffffffffffffffffff16816040015173ffffffffffffffffffffffffffffffffffffffff16146124ec576000816040015190508073ffffffffffffffffffffffffffffffffffffffff16638a06d20b856040518060400160405280600481526020017f4e616d65000000000000000000000000000000000000000000000000000000008152506040518363ffffffff1660e01b8152600401612497929190613124565b602060405180830381600087803b1580156124b157600080fd5b505af11580156124c5573d6000803e3d6000fd5b505050506040513d601f19601f820116820180604052508101906124e99190612d45565b50505b60019150505b92915050565b6000808360010160008481526020019081526020016000205490506000811461267657600060018261252a91906134af565b905060006001866000018054905061254291906134af565b90506000866000018281548110612582577f4e487b7100000000000000000000000000000000000000000000000000000000600052603260045260246000fd5b90600052602060002001549050808760000184815481106125cc577f4e487b7100000000000000000000000000000000000000000000000000000000600052603260045260246000fd5b90600052602060002001819055506001836125e79190613459565b876001016000838152602001908152602001600020819055508660000180548061263a577f4e487b7100000000000000000000000000000000000000000000000000000000600052603160045260246000fd5b6001900381819060005260206000200160009055905586600101600087815260200190815260200160002060009055600194505050505061267c565b60009150505b92915050565b6040518060600160405280600073ffffffffffffffffffffffffffffffffffffffff168152602001600073ffffffffffffffffffffffffffffffffffffffff168152602001606081525090565b8280546126db9061359b565b90600052602060002090601f0160209004810192826126fd576000855561274b565b82601f1061270e578054855561274b565b8280016001018555821561274b57600052602060002091601f016020900482015b8281111561274a57825482559160010191906001019061272f565b5b5090506127589190612822565b5090565b5080546127689061359b565b6000825580601f1061277a5750612799565b601f0160209004906000526020600020908101906127989190612822565b5b50565b8280546127a89061359b565b90600052602060002090601f0160209004810192826127ca5760008555612811565b82601f106127e357805160ff1916838001178555612811565b82800160010185558215612811579182015b828111156128105782518255916020019190600101906127f5565b5b50905061281e9190612822565b5090565b5b8082111561283b576000816000905550600101612823565b5090565b600061285261284d8461338b565b613366565b9050808382526020820190508285602086028201111561287157600080fd5b60005b858110156128a15781612887888261293c565b845260208401935060208301925050600181019050612874565b5050509392505050565b60006128be6128b9846133b7565b613366565b9050828152602081018484840111156128d657600080fd5b6128e1848285613559565b509392505050565b60006128fc6128f7846133b7565b613366565b90508281526020810184848401111561291457600080fd5b61291f848285613568565b509392505050565b600081359050612936816138ce565b92915050565b60008151905061294b816138ce565b92915050565b600082601f83011261296257600080fd5b815161297284826020860161283f565b91505092915050565b60008151905061298a816138e5565b92915050565b60008135905061299f816138fc565b92915050565b600082601f8301126129b657600080fd5b81356129c68482602086016128ab565b91505092915050565b600082601f8301126129e057600080fd5b81516129f08482602086016128e9565b91505092915050565b600060a08284031215612a0b57600080fd5b612a1560a0613366565b90506000612a2584828501612aae565b6000830152506020612a398482850161293c565b6020830152506040612a4d8482850161293c565b6040830152506060612a618482850161293c565b606083015250608082015167ffffffffffffffff811115612a8157600080fd5b612a8d84828501612951565b60808301525092915050565b600081359050612aa881613913565b92915050565b600081519050612abd81613913565b92915050565b600060208284031215612ad557600080fd5b6000612ae384828501612927565b91505092915050565b600060208284031215612afe57600080fd5b6000612b0c8482850161293c565b91505092915050565b600080600060608486031215612b2a57600080fd5b6000612b3886828701612927565b9350506020612b4986828701612927565b925050604084013567ffffffffffffffff811115612b6657600080fd5b612b72868287016129a5565b9150509250925092565b60008060408385031215612b8f57600080fd5b6000612b9d85828601612927565b925050602083013567ffffffffffffffff811115612bba57600080fd5b612bc6858286016129a5565b9150509250929050565b600060208284031215612be257600080fd5b6000612bf08482850161297b565b91505092915050565b600060208284031215612c0b57600080fd5b6000612c1984828501612990565b91505092915050565b60008060408385031215612c3557600080fd5b6000612c4385828601612990565b9250506020612c5485828601612927565b9150509250929050565b60008060408385031215612c7157600080fd5b6000612c7f85828601612990565b9250506020612c9085828601612a99565b9150509250929050565b600060208284031215612cac57600080fd5b600082015167ffffffffffffffff811115612cc657600080fd5b612cd2848285016129cf565b91505092915050565b600060208284031215612ced57600080fd5b600082015167ffffffffffffffff811115612d0757600080fd5b612d13848285016129f9565b91505092915050565b600060208284031215612d2e57600080fd5b6000612d3c84828501612a99565b91505092915050565b600060208284031215612d5757600080fd5b6000612d6584828501612aae565b91505092915050565b6000612d7a8383613043565b905092915050565b612d8b816134e3565b82525050565b612d9a816134e3565b82525050565b6000612dab826133f8565b612db5818561341b565b935083602082028501612dc7856133e8565b8060005b85811015612e035784840389528151612de48582612d6e565b9450612def8361340e565b925060208a01995050600181019050612dcb565b50829750879550505050505092915050565b612e1e816134f5565b82525050565b612e2d81613501565b82525050565b612e3c81613535565b82525050565b6000612e4d82613403565b612e57818561342c565b9350612e67818560208601613568565b612e708161368b565b840191505092915050565b6000612e8682613403565b612e90818561343d565b9350612ea0818560208601613568565b612ea98161368b565b840191505092915050565b6000612ebf82613403565b612ec9818561344e565b9350612ed9818560208601613568565b80840191505092915050565b6000612ef260228361343d565b9150612efd8261369c565b604082019050919050565b6000612f15600d8361343d565b9150612f20826136eb565b602082019050919050565b6000612f38602f8361343d565b9150612f4382613714565b604082019050919050565b6000612f5b60308361343d565b9150612f6682613763565b604082019050919050565b6000612f7e60168361343d565b9150612f89826137b2565b602082019050919050565b6000612fa1600d8361343d565b9150612fac826137db565b602082019050919050565b6000612fc4600c8361343d565b9150612fcf82613804565b602082019050919050565b6000612fe760108361343d565b9150612ff28261382d565b602082019050919050565b600061300a600e8361343d565b915061301582613856565b602082019050919050565b600061302d602f8361343d565b91506130388261387f565b604082019050919050565b600060608301600083015161305b6000860182612d82565b50602083015161306e6020860182612d82565b50604083015184820360408601526130868282612e42565b9150508091505092915050565b60006060830160008301516130ab6000860182612d82565b5060208301516130be6020860182612d82565b50604083015184820360408601526130d68282612e42565b9150508091505092915050565b6130ec8161352b565b82525050565b60006130fe8284612eb4565b915081905092915050565b600060208201905061311e6000830184612d91565b92915050565b60006040820190506131396000830185612d91565b818103602083015261314b8184612e7b565b90509392505050565b6000602082019050818103600083015261316e8184612da0565b905092915050565b600060208201905061318b6000830184612e15565b92915050565b60006020820190506131a66000830184612e24565b92915050565b60006020820190506131c16000830184612e33565b92915050565b600060208201905081810360008301526131e18184612e7b565b905092915050565b6000602082019050818103600083015261320281612ee5565b9050919050565b6000602082019050818103600083015261322281612f08565b9050919050565b6000602082019050818103600083015261324281612f2b565b9050919050565b6000602082019050818103600083015261326281612f4e565b9050919050565b6000602082019050818103600083015261328281612f71565b9050919050565b600060208201905081810360008301526132a281612f94565b9050919050565b600060208201905081810360008301526132c281612fb7565b9050919050565b600060208201905081810360008301526132e281612fda565b9050919050565b6000602082019050818103600083015261330281612ffd565b9050919050565b6000602082019050818103600083015261332281613020565b9050919050565b600060208201905081810360008301526133438184613093565b905092915050565b600060208201905061336060008301846130e3565b92915050565b6000613370613381565b905061337c82826135cd565b919050565b6000604051905090565b600067ffffffffffffffff8211156133a6576133a561365c565b5b602082029050602081019050919050565b600067ffffffffffffffff8211156133d2576133d161365c565b5b6133db8261368b565b9050602081019050919050565b6000819050602082019050919050565b600081519050919050565b600081519050919050565b6000602082019050919050565b600082825260208201905092915050565b600082825260208201905092915050565b600082825260208201905092915050565b600081905092915050565b60006134648261352b565b915061346f8361352b565b9250827fffffffffffffffffffffffffffffffffffffffffffffffffffffffffffffffff038211156134a4576134a36135fe565b5b828201905092915050565b60006134ba8261352b565b91506134c58361352b565b9250828210156134d8576134d76135fe565b5b828203905092915050565b60006134ee8261350b565b9050919050565b60008115159050919050565b6000819050919050565b600073ffffffffffffffffffffffffffffffffffffffff82169050919050565b6000819050919050565b600061354082613547565b9050919050565b60006135528261350b565b9050919050565b82818337600083830152505050565b60005b8381101561358657808201518184015260208101905061356b565b83811115613595576000848401525b50505050565b600060028204905060018216806135b357607f821691505b602082108114156135c7576135c661362d565b5b50919050565b6135d68261368b565b810181811067ffffffffffffffff821117156135f5576135f461365c565b5b80604052505050565b7f4e487b7100000000000000000000000000000000000000000000000000000000600052601160045260246000fd5b7f4e487b7100000000000000000000000000000000000000000000000000000000600052602260045260246000fd5b7f4e487b7100000000000000000000000000000000000000000000000000000000600052604160045260246000fd5b6000601f19601f8301169050919050565b7f456e756d657261626c655365743a20696e646578206f7574206f6620626f756e60008201527f6473000000000000000000000000000000000000000000000000000000000000602082015250565b7f73634e616d652065786973747300000000000000000000000000000000000000600082015250565b7f416363657373436f6e74726f6c3a2073656e646572206d75737420626520616e60008201527f2061646d696e20746f206772616e740000000000000000000000000000000000602082015250565b7f416363657373436f6e74726f6c3a2073656e646572206d75737420626520616e60008201527f2061646d696e20746f207265766f6b6500000000000000000000000000000000602082015250565b7f4d61737465724e616d653a206f6e6c79206f776e657200000000000000000000600082015250565b7f6f6e6c79207363206f776e657200000000000000000000000000000000000000600082015250565b7f6f776e6572206578697374730000000000000000000000000000000000000000600082015250565b7f6f776e6572206e6f742065786973747300000000000000000000000000000000600082015250565b7f646966666572656e74206e616d65000000000000000000000000000000000000600082015250565b7f416363657373436f6e74726f6c3a2063616e206f6e6c792072656e6f756e636560008201527f20726f6c657320666f722073656c660000000000000000000000000000000000602082015250565b6138d7816134e3565b81146138e257600080fd5b50565b6138ee816134f5565b81146138f957600080fd5b50565b61390581613501565b811461391057600080fd5b50565b61391c8161352b565b811461392757600080fd5b5056fea26469706673582212203d9de43cd7911383d0ad78710714c4748759f351e84736429ba50ccd394db7f164736f6c63430008010033",
  "immutableReferences": {},
  "source": "// SPDX-License-Identifier: MIT\r\npragma solidity 0.8.1;\r\n\r\n//import \"https://github.com/OpenZeppelin/openzeppelin-contracts/blob/master/contracts/access/AccessControl.sol\";\r\n//import '@openzeppelin/contracts/access/AccessControl.sol';\r\nimport './oz-contracts/access/AccessControl.sol';\r\n\r\nimport './iName.sol';\r\nimport './iAcademyStudents.sol';\r\nimport './iStudentPortfolio.sol';\r\n\r\n\r\n/*\r\n    It must have a Project in AcademyProjectList in order to a Master works.\r\n    The Master validate the project which is in AcademyProjectList.\r\n\r\n    PROJECT_NAMEis a key.\r\n    So every Master must hava a PROJECT_NAME which the same name in project in AcademyProjectList.\r\n\r\n    Master is linked to addressStudentList\r\n    After creater a Master:\r\n        your address must be updated in the project in AcademyProjectList.\r\n        \r\n    A Master has the student list who submited this project.\r\n\r\n    MasterName validates the Name and add in student's portfolio.\r\n    MasterName has the student's names = student list!\r\n*/\r\n\r\nstruct NameStruct {\r\n    address owner;\r\n    address scName;\r\n    string name;\r\n}\r\n\r\ncontract MasterName is AccessControl {\r\n\r\n    string constant PROJECT_NAME = \"Name\";\r\n    iAcademyStudents public studentList;\r\n\r\n    NameStruct[] private nameInfo;\r\n    mapping(address => uint256) private ownerIndex;\r\n    mapping(address => uint256) private scNameIndex;\r\n    \r\n\r\n    constructor(address addressStudentList) {\r\n        _setupRole(DEFAULT_ADMIN_ROLE, msg.sender);\r\n        studentList = iAcademyStudents(addressStudentList);\r\n    }\r\n    \r\n    event NameAdded (address indexed owner, address indexed scName, string name);\r\n    event NameDeleted (address indexed owner, address indexed scName);\r\n    event NameDeleted1 (address indexed owner, uint256 nameIndex);\r\n\r\n    modifier onlyOwner() {\r\n        require(hasRole(DEFAULT_ADMIN_ROLE, msg.sender), \"MasterName: only owner\");\r\n        _;\r\n    }\r\n\r\n    function addName (address scNameAddress, string memory name) public returns (bool) {\r\n        _addName (msg.sender, scNameAddress, name);\r\n        return true;\r\n    }\r\n    \r\n    function addNameBySC (address scOwner, address scNameAddress, string memory name) public onlyOwner returns (bool) {\r\n        _addName (scOwner, scNameAddress, name);\r\n        return true;\r\n    }\r\n    \r\n    function _addName (address scOwner, address scNameAddress,  string memory name) private returns (bool) {\r\n        //Does it already exist?\r\n        require (!existsSCName(scNameAddress), \"scName exists\");\r\n        require (!existsOwner(scOwner), \"owner exists\");\r\n        \r\n        iName scName = iName(scNameAddress);\r\n        //string memory name = scName.getName();\r\n        require (compareStrings(scName.getName(), name), \"different name\");\r\n        \r\n        //Only owner's sc can add\r\n        require (scName.owner() == scOwner, \"only sc owner\");\r\n        \r\n        NameStruct memory n;\r\n        n.owner = scOwner;\r\n        n.scName = scNameAddress;\r\n        n.name = name;\r\n\r\n        nameInfo.push(n);\r\n        uint256 index = nameInfo.length;    //Attention: real location is index-1!\r\n        ownerIndex[scOwner] = index;\r\n        scNameIndex[scNameAddress] = index;\r\n        \r\n        _addInPortfolio(scOwner, scNameAddress);\r\n\r\n        emit NameAdded(scNameAddress, scOwner, name);\r\n        return true;\r\n    }    \r\n\r\n    function _addInPortfolio(address scOwner, address scNameAddress) private returns (bool) {\r\n        if (!studentList.isStudent(scOwner))\r\n            return false;\r\n\r\n        /* */\r\n        StudentStruct memory s = studentList.getStudentByAddress(scOwner);        \r\n        if (s.portfolioAddress != address(0x0)) {\r\n            //Only AcademyStudents is allowed to adds projects\r\n\r\n            iStudentPortfolio p = iStudentPortfolio(s.portfolioAddress);\r\n            p.addProject(scNameAddress, PROJECT_NAME);\r\n        }\r\n        \r\n        return true;\r\n    }\r\n\r\n    function deleteName () public returns (bool) {\r\n        _deleteName (msg.sender);\r\n        return true;        \r\n    }\r\n\r\n    function deleteNameBySC (address scOwner) public onlyOwner returns (bool) {\r\n        _deleteName (scOwner);\r\n        return true;        \r\n    }\r\n\r\n    function _deleteName (address scOwner) private returns (bool) {\r\n        require (existsOwner(scOwner), \"owner not exists\");\r\n\r\n        uint256 indexToDelete = ownerIndex[scOwner] - 1;\r\n        emit NameDeleted1 (scOwner, indexToDelete);\r\n        address scNameToDelete = nameInfo[indexToDelete].scName;\r\n\r\n        uint256 indexToMove = nameInfo.length - 1;\r\n        address ownerToMove = nameInfo[indexToMove].owner;\r\n        address scNameToMove = nameInfo[indexToMove].scName;\r\n\r\n        nameInfo[indexToDelete] = nameInfo[indexToMove];\r\n        ownerIndex[ownerToMove] = indexToDelete + 1;\r\n        scNameIndex[scNameToMove] = indexToDelete + 1;\r\n\r\n        delete ownerIndex[scOwner];\r\n        delete scNameIndex[scNameToDelete];\r\n        nameInfo.pop();\r\n        \r\n        StudentStruct memory s = studentList.getStudentByAddress(scOwner); \r\n        if (s.portfolioAddress != address(0x0)) {\r\n            iStudentPortfolio p = iStudentPortfolio(s.portfolioAddress);\r\n            p.deleteProjectByAddress(scNameToDelete);\r\n        }\r\n\r\n        emit NameDeleted (scOwner, scNameToDelete);\r\n        return true;\r\n    }\r\n    \r\n    function updateStudentList(address addressStudentList) public onlyOwner returns (bool) {\r\n        studentList = iAcademyStudents(addressStudentList);\r\n        return true;\r\n    }\r\n    \r\n    //Owner can have more than one SCName? NO\r\n    function existsOwner(address account) public view returns (bool) {\r\n        if (ownerIndex[account] == 0)\r\n            return false;\r\n        else\r\n            return true;\r\n    }\r\n    \r\n    function existsSCName(address scAddress) public view returns (bool) {\r\n        if (scNameIndex[scAddress] == 0)\r\n            return false;\r\n        else\r\n            return true;\r\n    }\r\n    \r\n    function checkName (address scNameAddress, string memory name) public view returns (bool) {\r\n        //Name stored in scName equal name_\r\n        iName scName = iName(scNameAddress);\r\n        string memory nameInSC = scName.getName();\r\n        if (compareStrings(nameInSC, name)) {\r\n            return true;\r\n        }\r\n        return false;\r\n    }\r\n    \r\n    function listNameInfo () public view returns (NameStruct[] memory) {\r\n        return nameInfo;\r\n    }\r\n    \r\n    function countNames () public view returns (uint) {\r\n        return (nameInfo.length);\r\n    }\r\n\r\n    function getOwnerSC (address scNameAddress) public view returns (address) {\r\n        iName scName = iName(scNameAddress);\r\n        return scName.owner();\r\n    }\r\n    \r\n    function getName (address scNameAddress) public view returns (string memory) {\r\n        iName scName = iName(scNameAddress);\r\n        return scName.getName();\r\n    }\r\n    \r\n    function getNameInfoByOwner (address account) public view returns (NameStruct memory) {\r\n        return nameInfo[ownerIndex[account]];\r\n    }    \r\n\r\n    function getNameInfoByNameSC (address scNameAddress) public view returns (NameStruct memory) {\r\n        return nameInfo[scNameIndex[scNameAddress]];\r\n    }    \r\n\r\n    function getNameInfoByIndex (uint256 index) public view returns (NameStruct memory) {\r\n        return nameInfo[index-1];\r\n    } \r\n    \r\n    function compareStrings(string memory a, string memory b) private pure returns (bool) {\r\n        return (keccak256(abi.encodePacked((a))) == keccak256(abi.encodePacked((b))));\r\n    }    \r\n}\r\n",
  "sourcePath": "C:/ACADEMY/GITHUB/rsk-academy-dapp/contracts/MasterName.sol",
  "compiler": {
    "name": "solc",
    "version": "0.8.1+commit.df193b15.Emscripten.clang"
  },
  "schemaVersion": "3.3.3",
  "updatedAt": "2021-02-21T16:52:30.195Z",
  "networkType": "ethereum",
  "devdoc": {
    "kind": "dev",
    "methods": {
      "getRoleAdmin(bytes32)": {
        "details": "Returns the admin role that controls `role`. See {grantRole} and {revokeRole}. To change a role's admin, use {_setRoleAdmin}."
      },
      "getRoleMember(bytes32,uint256)": {
        "details": "Returns one of the accounts that have `role`. `index` must be a value between 0 and {getRoleMemberCount}, non-inclusive. Role bearers are not sorted in any particular way, and their ordering may change at any point. WARNING: When using {getRoleMember} and {getRoleMemberCount}, make sure you perform all queries on the same block. See the following https://forum.openzeppelin.com/t/iterating-over-elements-on-enumerableset-in-openzeppelin-contracts/2296[forum post] for more information."
      },
      "getRoleMemberCount(bytes32)": {
        "details": "Returns the number of accounts that have `role`. Can be used together with {getRoleMember} to enumerate all bearers of a role."
      },
      "grantRole(bytes32,address)": {
        "details": "Grants `role` to `account`. If `account` had not been already granted `role`, emits a {RoleGranted} event. Requirements: - the caller must have ``role``'s admin role."
      },
      "hasRole(bytes32,address)": {
        "details": "Returns `true` if `account` has been granted `role`."
      },
      "renounceRole(bytes32,address)": {
        "details": "Revokes `role` from the calling account. Roles are often managed via {grantRole} and {revokeRole}: this function's purpose is to provide a mechanism for accounts to lose their privileges if they are compromised (such as when a trusted device is misplaced). If the calling account had been granted `role`, emits a {RoleRevoked} event. Requirements: - the caller must be `account`."
      },
      "revokeRole(bytes32,address)": {
        "details": "Revokes `role` from `account`. If `account` had been granted `role`, emits a {RoleRevoked} event. Requirements: - the caller must have ``role``'s admin role."
      }
    },
    "version": 1
  },
  "userdoc": {
    "kind": "user",
    "methods": {},
    "version": 1
  }
}