{
  "contractName": "Name",
  "abi": [
    {
      "inputs": [],
      "stateMutability": "nonpayable",
      "type": "constructor"
    },
    {
      "inputs": [],
      "name": "owner",
      "outputs": [
        {
          "internalType": "address",
          "name": "",
          "type": "address"
        }
      ],
      "stateMutability": "view",
      "type": "function"
    },
    {
      "inputs": [],
      "name": "getName",
      "outputs": [
        {
          "internalType": "string",
          "name": "",
          "type": "string"
        }
      ],
      "stateMutability": "view",
      "type": "function"
    }
  ],
  "bytecode": "0x608060405234801561001057600080fd5b5033600160006101000a81548173ffffffffffffffffffffffffffffffffffffffff021916908373ffffffffffffffffffffffffffffffffffffffff1602179055506040518060400160405280600981526020017f596f7572206e616d6500000000000000000000000000000000000000000000008152506000908051906020019061009d9291906100a3565b506101a7565b8280546100af90610146565b90600052602060002090601f0160209004810192826100d15760008555610118565b82601f106100ea57805160ff1916838001178555610118565b82800160010185558215610118579182015b828111156101175782518255916020019190600101906100fc565b5b5090506101259190610129565b5090565b5b8082111561014257600081600090555060010161012a565b5090565b6000600282049050600182168061015e57607f821691505b6020821081141561017257610171610178565b5b50919050565b7f4e487b7100000000000000000000000000000000000000000000000000000000600052602260045260246000fd5b6102dd806101b66000396000f3fe608060405234801561001057600080fd5b50600436106100365760003560e01c806317d7de7c1461003b5780638da5cb5b14610059575b600080fd5b610043610077565b6040516100509190610192565b60405180910390f35b610061610109565b60405161006e9190610177565b60405180910390f35b60606000805461008690610235565b80601f01602080910402602001604051908101604052809291908181526020018280546100b290610235565b80156100ff5780601f106100d4576101008083540402835291602001916100ff565b820191906000526020600020905b8154815290600101906020018083116100e257829003601f168201915b5050505050905090565b600160009054906101000a900473ffffffffffffffffffffffffffffffffffffffff1681565b610138816101d0565b82525050565b6000610149826101b4565b61015381856101bf565b9350610163818560208601610202565b61016c81610296565b840191505092915050565b600060208201905061018c600083018461012f565b92915050565b600060208201905081810360008301526101ac818461013e565b905092915050565b600081519050919050565b600082825260208201905092915050565b60006101db826101e2565b9050919050565b600073ffffffffffffffffffffffffffffffffffffffff82169050919050565b60005b83811015610220578082015181840152602081019050610205565b8381111561022f576000848401525b50505050565b6000600282049050600182168061024d57607f821691505b6020821081141561026157610260610267565b5b50919050565b7f4e487b7100000000000000000000000000000000000000000000000000000000600052602260045260246000fd5b6000601f19601f830116905091905056fea26469706673582212204835c498ee5a7c76a5e4d8d2b59684d33ee18298a903648f4fdefd0d5c95770164736f6c63430008010033",
  "immutableReferences": {},
  "source": "// SPDX-License-Identifier: MIT\r\npragma solidity 0.8.1;\r\n\r\ncontract Name {\r\n    string private name;\r\n    address public owner;\r\n\r\n    constructor() {\r\n        owner = msg.sender;\r\n        name = \"Your name\";\r\n    }\r\n\r\n    function getName() public view returns (string memory) {\r\n        return name;\r\n    }\r\n}",
  "sourcePath": "C:/ACADEMY/GITHUB/rsk-academy-dapp/contracts/Name.sol",
  "compiler": {
    "name": "solc",
    "version": "0.8.1+commit.df193b15.Emscripten.clang"
  },
  "schemaVersion": "3.3.3",
  "updatedAt": "2021-03-06T20:47:28.810Z",
  "networkType": "ethereum",
  "devdoc": {
    "kind": "dev",
    "methods": {},
    "version": 1
  },
  "userdoc": {
    "kind": "user",
    "methods": {},
    "version": 1
  }
}