{
  "contractName": "StudentQuiz",
  "abi": [
    {
      "inputs": [],
      "stateMutability": "nonpayable",
      "type": "constructor"
    },
    {
      "anonymous": false,
      "inputs": [
        {
          "indexed": true,
          "internalType": "bytes32",
          "name": "role",
          "type": "bytes32"
        },
        {
          "indexed": true,
          "internalType": "bytes32",
          "name": "previousAdminRole",
          "type": "bytes32"
        },
        {
          "indexed": true,
          "internalType": "bytes32",
          "name": "newAdminRole",
          "type": "bytes32"
        }
      ],
      "name": "RoleAdminChanged",
      "type": "event"
    },
    {
      "anonymous": false,
      "inputs": [
        {
          "indexed": true,
          "internalType": "bytes32",
          "name": "role",
          "type": "bytes32"
        },
        {
          "indexed": true,
          "internalType": "address",
          "name": "account",
          "type": "address"
        },
        {
          "indexed": true,
          "internalType": "address",
          "name": "sender",
          "type": "address"
        }
      ],
      "name": "RoleGranted",
      "type": "event"
    },
    {
      "anonymous": false,
      "inputs": [
        {
          "indexed": true,
          "internalType": "bytes32",
          "name": "role",
          "type": "bytes32"
        },
        {
          "indexed": true,
          "internalType": "address",
          "name": "account",
          "type": "address"
        },
        {
          "indexed": true,
          "internalType": "address",
          "name": "sender",
          "type": "address"
        }
      ],
      "name": "RoleRevoked",
      "type": "event"
    },
    {
      "anonymous": false,
      "inputs": [
        {
          "indexed": false,
          "internalType": "string",
          "name": "name",
          "type": "string"
        }
      ],
      "name": "StudentGradeDeleted",
      "type": "event"
    },
    {
      "anonymous": false,
      "inputs": [
        {
          "indexed": true,
          "internalType": "string",
          "name": "name",
          "type": "string"
        },
        {
          "indexed": false,
          "internalType": "uint8",
          "name": "total",
          "type": "uint8"
        },
        {
          "indexed": false,
          "internalType": "uint8",
          "name": "grade",
          "type": "uint8"
        },
        {
          "indexed": false,
          "internalType": "uint8",
          "name": "atempt",
          "type": "uint8"
        }
      ],
      "name": "StudentGradeUpdated",
      "type": "event"
    },
    {
      "inputs": [],
      "name": "DEFAULT_ADMIN_ROLE",
      "outputs": [
        {
          "internalType": "bytes32",
          "name": "",
          "type": "bytes32"
        }
      ],
      "stateMutability": "view",
      "type": "function"
    },
    {
      "inputs": [],
      "name": "active",
      "outputs": [
        {
          "internalType": "bool",
          "name": "",
          "type": "bool"
        }
      ],
      "stateMutability": "view",
      "type": "function"
    },
    {
      "inputs": [
        {
          "internalType": "bytes32",
          "name": "role",
          "type": "bytes32"
        }
      ],
      "name": "getRoleAdmin",
      "outputs": [
        {
          "internalType": "bytes32",
          "name": "",
          "type": "bytes32"
        }
      ],
      "stateMutability": "view",
      "type": "function"
    },
    {
      "inputs": [
        {
          "internalType": "bytes32",
          "name": "role",
          "type": "bytes32"
        },
        {
          "internalType": "uint256",
          "name": "index",
          "type": "uint256"
        }
      ],
      "name": "getRoleMember",
      "outputs": [
        {
          "internalType": "address",
          "name": "",
          "type": "address"
        }
      ],
      "stateMutability": "view",
      "type": "function"
    },
    {
      "inputs": [
        {
          "internalType": "bytes32",
          "name": "role",
          "type": "bytes32"
        }
      ],
      "name": "getRoleMemberCount",
      "outputs": [
        {
          "internalType": "uint256",
          "name": "",
          "type": "uint256"
        }
      ],
      "stateMutability": "view",
      "type": "function"
    },
    {
      "inputs": [
        {
          "internalType": "bytes32",
          "name": "role",
          "type": "bytes32"
        },
        {
          "internalType": "address",
          "name": "account",
          "type": "address"
        }
      ],
      "name": "grantRole",
      "outputs": [],
      "stateMutability": "nonpayable",
      "type": "function"
    },
    {
      "inputs": [
        {
          "internalType": "bytes32",
          "name": "role",
          "type": "bytes32"
        },
        {
          "internalType": "address",
          "name": "account",
          "type": "address"
        }
      ],
      "name": "hasRole",
      "outputs": [
        {
          "internalType": "bool",
          "name": "",
          "type": "bool"
        }
      ],
      "stateMutability": "view",
      "type": "function"
    },
    {
      "inputs": [
        {
          "internalType": "bytes32",
          "name": "role",
          "type": "bytes32"
        },
        {
          "internalType": "address",
          "name": "account",
          "type": "address"
        }
      ],
      "name": "renounceRole",
      "outputs": [],
      "stateMutability": "nonpayable",
      "type": "function"
    },
    {
      "inputs": [
        {
          "internalType": "bytes32",
          "name": "role",
          "type": "bytes32"
        },
        {
          "internalType": "address",
          "name": "account",
          "type": "address"
        }
      ],
      "name": "revokeRole",
      "outputs": [],
      "stateMutability": "nonpayable",
      "type": "function"
    },
    {
      "inputs": [
        {
          "internalType": "string",
          "name": "name",
          "type": "string"
        },
        {
          "internalType": "uint8",
          "name": "total",
          "type": "uint8"
        },
        {
          "internalType": "uint8",
          "name": "grade",
          "type": "uint8"
        }
      ],
      "name": "addStudentQuiz",
      "outputs": [
        {
          "internalType": "uint256",
          "name": "",
          "type": "uint256"
        }
      ],
      "stateMutability": "nonpayable",
      "type": "function"
    },
    {
      "inputs": [
        {
          "internalType": "string",
          "name": "name",
          "type": "string"
        }
      ],
      "name": "delStudentQuiz",
      "outputs": [
        {
          "internalType": "bool",
          "name": "",
          "type": "bool"
        }
      ],
      "stateMutability": "nonpayable",
      "type": "function"
    },
    {
      "inputs": [
        {
          "internalType": "string",
          "name": "name",
          "type": "string"
        },
        {
          "internalType": "uint8",
          "name": "total",
          "type": "uint8"
        },
        {
          "internalType": "uint8",
          "name": "grade",
          "type": "uint8"
        }
      ],
      "name": "updateStudentQuiz",
      "outputs": [
        {
          "internalType": "bool",
          "name": "",
          "type": "bool"
        }
      ],
      "stateMutability": "nonpayable",
      "type": "function"
    },
    {
      "inputs": [],
      "name": "changeActive",
      "outputs": [
        {
          "internalType": "bool",
          "name": "",
          "type": "bool"
        }
      ],
      "stateMutability": "nonpayable",
      "type": "function"
    },
    {
      "inputs": [
        {
          "internalType": "string",
          "name": "name",
          "type": "string"
        }
      ],
      "name": "exists",
      "outputs": [
        {
          "internalType": "bool",
          "name": "",
          "type": "bool"
        }
      ],
      "stateMutability": "view",
      "type": "function"
    },
    {
      "inputs": [
        {
          "internalType": "string",
          "name": "name",
          "type": "string"
        }
      ],
      "name": "getProject",
      "outputs": [
        {
          "components": [
            {
              "internalType": "uint8",
              "name": "total",
              "type": "uint8"
            },
            {
              "internalType": "uint8",
              "name": "grade",
              "type": "uint8"
            },
            {
              "internalType": "uint8",
              "name": "atempt",
              "type": "uint8"
            },
            {
              "internalType": "string",
              "name": "name",
              "type": "string"
            }
          ],
          "internalType": "struct StudentQuizStruct",
          "name": "",
          "type": "tuple"
        }
      ],
      "stateMutability": "view",
      "type": "function"
    },
    {
      "inputs": [
        {
          "internalType": "uint256",
          "name": "index",
          "type": "uint256"
        }
      ],
      "name": "getProject",
      "outputs": [
        {
          "components": [
            {
              "internalType": "uint8",
              "name": "total",
              "type": "uint8"
            },
            {
              "internalType": "uint8",
              "name": "grade",
              "type": "uint8"
            },
            {
              "internalType": "uint8",
              "name": "atempt",
              "type": "uint8"
            },
            {
              "internalType": "string",
              "name": "name",
              "type": "string"
            }
          ],
          "internalType": "struct StudentQuizStruct",
          "name": "",
          "type": "tuple"
        }
      ],
      "stateMutability": "view",
      "type": "function"
    },
    {
      "inputs": [
        {
          "internalType": "string",
          "name": "name",
          "type": "string"
        }
      ],
      "name": "getIndexByName",
      "outputs": [
        {
          "internalType": "uint256",
          "name": "",
          "type": "uint256"
        }
      ],
      "stateMutability": "view",
      "type": "function"
    },
    {
      "inputs": [],
      "name": "countStudentQuiz",
      "outputs": [
        {
          "internalType": "uint256",
          "name": "",
          "type": "uint256"
        }
      ],
      "stateMutability": "view",
      "type": "function"
    },
    {
      "inputs": [],
      "name": "listStudentQuiz",
      "outputs": [
        {
          "components": [
            {
              "internalType": "uint8",
              "name": "total",
              "type": "uint8"
            },
            {
              "internalType": "uint8",
              "name": "grade",
              "type": "uint8"
            },
            {
              "internalType": "uint8",
              "name": "atempt",
              "type": "uint8"
            },
            {
              "internalType": "string",
              "name": "name",
              "type": "string"
            }
          ],
          "internalType": "struct StudentQuizStruct[]",
          "name": "",
          "type": "tuple[]"
        }
      ],
      "stateMutability": "view",
      "type": "function"
    }
  ],
  "bytecode": "0x60806040523480156200001157600080fd5b50620000276000801b336200004760201b60201c565b60018060006101000a81548160ff021916908315150217905550620001dd565b6200005982826200005d60201b60201c565b5050565b6200008b816000808581526020019081526020016000206000016200010060201b620016731790919060201c565b15620000fc57620000a16200013860201b60201c565b73ffffffffffffffffffffffffffffffffffffffff168173ffffffffffffffffffffffffffffffffffffffff16837f2f8788117e7eff1d82e926ec794901d17c78024a50270940304540a733656f0d60405160405180910390a45b5050565b600062000130836000018373ffffffffffffffffffffffffffffffffffffffff1660001b6200014060201b60201c565b905092915050565b600033905090565b6000620001548383620001ba60201b60201c565b620001af578260000182908060018154018082558091505060019003906000526020600020016000909190919091505582600001805490508360010160008481526020019081526020016000208190555060019050620001b4565b600090505b92915050565b600080836001016000848152602001908152602001600020541415905092915050565b612adc80620001ed6000396000f3fe608060405234801561001057600080fd5b50600436106101215760003560e01c80635796bb73116100ad578063c0af858211610071578063c0af858214610356578063ca15c87314610386578063d547741f146103b6578063dca5ab44146103d2578063f0f3f2c8146103f057610121565b80635796bb731461028a5780639010d07c146102ba57806391d14854146102ea578063a217fddf1461031a578063b4ac0dfc1461033857610121565b80632f2ff15d116100f45780632f2ff15d146101d457806336568abe146101f05780633cb6009d1461020c5780634d9ce37a1461023c5780634fa691e21461025a57610121565b806302fb0c5e14610126578063248a9ca314610144578063261a323e1461017457806329f10756146101a4575b600080fd5b61012e610420565b60405161013b919061232b565b60405180910390f35b61015e60048036038101906101599190611dde565b610433565b60405161016b9190612346565b60405180910390f35b61018e60048036038101906101899190611e7f565b610452565b60405161019b919061232b565b60405180910390f35b6101be60048036038101906101b99190611ec0565b61048d565b6040516101cb919061232b565b60405180910390f35b6101ee60048036038101906101e99190611e07565b610815565b005b61020a60048036038101906102059190611e07565b610888565b005b61022660048036038101906102219190611e7f565b61090b565b604051610233919061232b565b60405180910390f35b610244610d4a565b6040516102519190612309565b60405180910390f35b610274600480360381019061026f9190611e7f565b610e92565b60405161028191906124a3565b60405180910390f35b6102a4600480360381019061029f9190611ec0565b611055565b6040516102b191906124c5565b60405180910390f35b6102d460048036038101906102cf9190611e43565b611304565b6040516102e191906122ee565b60405180910390f35b61030460048036038101906102ff9190611e07565b611335565b604051610311919061232b565b60405180910390f35b610322611366565b60405161032f9190612346565b60405180910390f35b61034061136d565b60405161034d919061232b565b60405180910390f35b610370600480360381019061036b9190611e7f565b6113fa565b60405161037d91906124c5565b60405180910390f35b6103a0600480360381019061039b9190611dde565b611422565b6040516103ad91906124c5565b60405180910390f35b6103d060048036038101906103cb9190611e07565b611448565b005b6103da6114bb565b6040516103e791906124c5565b60405180910390f35b61040a60048036038101906104059190611f27565b6114c8565b60405161041791906124a3565b60405180910390f35b600160009054906101000a900460ff1681565b6000806000838152602001908152602001600020600201549050919050565b60008060038360405161046591906122d7565b90815260200160405180910390205414156104835760009050610488565b600190505b919050565b600061049c6000801b33611335565b6104db576040517f08c379a00000000000000000000000000000000000000000000000000000000081526004016104d2906123e3565b60405180910390fd5b600160009054906101000a900460ff1661052a576040517f08c379a000000000000000000000000000000000000000000000000000000000815260040161052190612443565b60405180910390fd5b61053384610452565b610540576000905061080e565b6000600160038660405161055491906122d7565b90815260200160405180910390205461056d919061266b565b905084600282815481106105aa577f4e487b7100000000000000000000000000000000000000000000000000000000600052603260045260246000fd5b906000526020600020906002020160010190805190602001906105ce929190611b81565b50836002828154811061060a577f4e487b7100000000000000000000000000000000000000000000000000000000600052603260045260246000fd5b906000526020600020906002020160000160006101000a81548160ff021916908360ff160217905550826002828154811061066e577f4e487b7100000000000000000000000000000000000000000000000000000000600052603260045260246000fd5b906000526020600020906002020160000160016101000a81548160ff021916908360ff1602179055506001600282815481106106d3577f4e487b7100000000000000000000000000000000000000000000000000000000600052603260045260246000fd5b906000526020600020906002020160000160029054906101000a900460ff166106fc9190612634565b60028281548110610736577f4e487b7100000000000000000000000000000000000000000000000000000000600052603260045260246000fd5b906000526020600020906002020160000160026101000a81548160ff021916908360ff1602179055508460405161076d91906122d7565b60405180910390207fac54242247d684cbdea33f9545d3b70f86d6a6234537681ae29f1f04c26fc5cc8585600285815481106107d2577f4e487b7100000000000000000000000000000000000000000000000000000000600052603260045260246000fd5b906000526020600020906002020160000160029054906101000a900460ff16604051610800939291906124e0565b60405180910390a260019150505b9392505050565b61083b600080848152602001908152602001600020600201546108366116a3565b611335565b61087a576040517f08c379a0000000000000000000000000000000000000000000000000000000008152600401610871906123a3565b60405180910390fd5b61088482826116ab565b5050565b6108906116a3565b73ffffffffffffffffffffffffffffffffffffffff168173ffffffffffffffffffffffffffffffffffffffff16146108fd576040517f08c379a00000000000000000000000000000000000000000000000000000000081526004016108f490612483565b60405180910390fd5b610907828261173e565b5050565b600061091a6000801b33611335565b610959576040517f08c379a0000000000000000000000000000000000000000000000000000000008152600401610950906123e3565b60405180910390fd5b600160009054906101000a900460ff166109a8576040517f08c379a000000000000000000000000000000000000000000000000000000000815260040161099f90612443565b60405180910390fd5b6109b182610452565b6109be5760009050610d45565b600060016003846040516109d291906122d7565b9081526020016040518091039020546109eb919061266b565b905060006001600280549050610a01919061266b565b9050600060028281548110610a3f577f4e487b7100000000000000000000000000000000000000000000000000000000600052603260045260246000fd5b90600052602060002090600202016001018054610a5b90612740565b80601f0160208091040260200160405190810160405280929190818152602001828054610a8790612740565b8015610ad45780601f10610aa957610100808354040283529160200191610ad4565b820191906000526020600020905b815481529060010190602001808311610ab757829003601f168201915b5050505050905060028281548110610b15577f4e487b7100000000000000000000000000000000000000000000000000000000600052603260045260246000fd5b906000526020600020906002020160028481548110610b5d577f4e487b7100000000000000000000000000000000000000000000000000000000600052603260045260246000fd5b90600052602060002090600202016000820160009054906101000a900460ff168160000160006101000a81548160ff021916908360ff1602179055506000820160019054906101000a900460ff168160000160016101000a81548160ff021916908360ff1602179055506000820160029054906101000a900460ff168160000160026101000a81548160ff021916908360ff1602179055506001820181600101908054610c0990612740565b610c14929190611c07565b50905050600183610c2591906125de565b600382604051610c3591906122d7565b908152602001604051809103902081905550600385604051610c5791906122d7565b9081526020016040518091039020600090556002805480610ca1577f4e487b7100000000000000000000000000000000000000000000000000000000600052603160045260246000fd5b6001900381819060005260206000209060020201600080820160006101000a81549060ff02191690556000820160016101000a81549060ff02191690556000820160026101000a81549060ff0219169055600182016000610d029190611c94565b505090557f48e2d92834970e663461a13f6840ca2b077a1308acd4a80d5b15ee80a17b426285604051610d359190612361565b60405180910390a1600193505050505b919050565b60606002805480602002602001604051908101604052809291908181526020016000905b82821015610e8957838290600052602060002090600202016040518060800160405290816000820160009054906101000a900460ff1660ff1660ff1681526020016000820160019054906101000a900460ff1660ff1660ff1681526020016000820160029054906101000a900460ff1660ff1660ff168152602001600182018054610df890612740565b80601f0160208091040260200160405190810160405280929190818152602001828054610e2490612740565b8015610e715780601f10610e4657610100808354040283529160200191610e71565b820191906000526020600020905b815481529060010190602001808311610e5457829003601f168201915b50505050508152505081526020019060010190610d6e565b50505050905090565b610e9a611cd4565b610ea382610452565b610ee2576040517f08c379a0000000000000000000000000000000000000000000000000000000008152600401610ed990612423565b60405180910390fd5b60006001600384604051610ef691906122d7565b908152602001604051809103902054610f0f919061266b565b905060028181548110610f4b577f4e487b7100000000000000000000000000000000000000000000000000000000600052603260045260246000fd5b90600052602060002090600202016040518060800160405290816000820160009054906101000a900460ff1660ff1660ff1681526020016000820160019054906101000a900460ff1660ff1660ff1681526020016000820160029054906101000a900460ff1660ff1660ff168152602001600182018054610fcb90612740565b80601f0160208091040260200160405190810160405280929190818152602001828054610ff790612740565b80156110445780601f1061101957610100808354040283529160200191611044565b820191906000526020600020905b81548152906001019060200180831161102757829003601f168201915b505050505081525050915050919050565b60006110646000801b33611335565b6110a3576040517f08c379a000000000000000000000000000000000000000000000000000000000815260040161109a906123e3565b60405180910390fd5b600160009054906101000a900460ff166110f2576040517f08c379a00000000000000000000000000000000000000000000000000000000081526004016110e990612443565b60405180910390fd5b6110fb84610452565b156111265760038460405161111091906122d7565b90815260200160405180910390205490506112fd565b61113f84604051806020016040528060008152506117d1565b1561117f576040517f08c379a000000000000000000000000000000000000000000000000000000000815260040161117690612463565b60405180910390fd5b611187611cd4565b84816060018190525083816000019060ff16908160ff168152505082816020019060ff16908160ff16815250506001816040019060ff16908160ff1681525050600281908060018154018082558091505060019003906000526020600020906002020160009091909190915060008201518160000160006101000a81548160ff021916908360ff16021790555060208201518160000160016101000a81548160ff021916908360ff16021790555060408201518160000160026101000a81548160ff021916908360ff1602179055506060820151816001019080519060200190611272929190611b81565b505050600060028054905090508060038760405161129091906122d7565b908152602001604051809103902081905550856040516112b091906122d7565b60405180910390207fac54242247d684cbdea33f9545d3b70f86d6a6234537681ae29f1f04c26fc5cc868685604001516040516112ef939291906124e0565b60405180910390a280925050505b9392505050565b600061132d8260008086815260200190815260200160002060000161182a90919063ffffffff16565b905092915050565b600061135e8260008086815260200190815260200160002060000161184490919063ffffffff16565b905092915050565b6000801b81565b600061137c6000801b33611335565b6113bb576040517f08c379a00000000000000000000000000000000000000000000000000000000081526004016113b2906123e3565b60405180910390fd5b600160009054906101000a900460ff1615600160006101000a81548160ff021916908315150217905550600160009054906101000a900460ff16905090565b600060038260405161140c91906122d7565b9081526020016040518091039020549050919050565b6000611441600080848152602001908152602001600020600001611874565b9050919050565b61146e600080848152602001908152602001600020600201546114696116a3565b611335565b6114ad576040517f08c379a00000000000000000000000000000000000000000000000000000000081526004016114a490612403565b60405180910390fd5b6114b7828261173e565b5050565b6000600280549050905090565b6114d0611cd4565b6000821180156114e557506002805490508211155b611524576040517f08c379a000000000000000000000000000000000000000000000000000000000815260040161151b906123c3565b60405180910390fd5b6002600183611533919061266b565b8154811061156a577f4e487b7100000000000000000000000000000000000000000000000000000000600052603260045260246000fd5b90600052602060002090600202016040518060800160405290816000820160009054906101000a900460ff1660ff1660ff1681526020016000820160019054906101000a900460ff1660ff1660ff1681526020016000820160029054906101000a900460ff1660ff1660ff1681526020016001820180546115ea90612740565b80601f016020809104026020016040519081016040528092919081815260200182805461161690612740565b80156116635780601f1061163857610100808354040283529160200191611663565b820191906000526020600020905b81548152906001019060200180831161164657829003601f168201915b5050505050815250509050919050565b600061169b836000018373ffffffffffffffffffffffffffffffffffffffff1660001b611889565b905092915050565b600033905090565b6116d28160008085815260200190815260200160002060000161167390919063ffffffff16565b1561173a576116df6116a3565b73ffffffffffffffffffffffffffffffffffffffff168173ffffffffffffffffffffffffffffffffffffffff16837f2f8788117e7eff1d82e926ec794901d17c78024a50270940304540a733656f0d60405160405180910390a45b5050565b611765816000808581526020019081526020016000206000016118f990919063ffffffff16565b156117cd576117726116a3565b73ffffffffffffffffffffffffffffffffffffffff168173ffffffffffffffffffffffffffffffffffffffff16837ff6391f5c32d9c69d2a47ea670b442974b53935d1edc7fd64eb21e047a839171b60405160405180910390a45b5050565b6000816040516020016117e491906122d7565b604051602081830303815290604052805190602001208360405160200161180b91906122d7565b6040516020818303038152906040528051906020012014905092915050565b60006118398360000183611929565b60001c905092915050565b600061186c836000018373ffffffffffffffffffffffffffffffffffffffff1660001b6119c3565b905092915050565b6000611882826000016119e6565b9050919050565b600061189583836119c3565b6118ee5782600001829080600181540180825580915050600190039060005260206000200160009091909190915055826000018054905083600101600084815260200190815260200160002081905550600190506118f3565b600090505b92915050565b6000611921836000018373ffffffffffffffffffffffffffffffffffffffff1660001b6119f7565b905092915050565b600081836000018054905011611974576040517f08c379a000000000000000000000000000000000000000000000000000000000815260040161196b90612383565b60405180910390fd5b8260000182815481106119b0577f4e487b7100000000000000000000000000000000000000000000000000000000600052603260045260246000fd5b9060005260206000200154905092915050565b600080836001016000848152602001908152602001600020541415905092915050565b600081600001805490509050919050565b60008083600101600084815260200190815260200160002054905060008114611b75576000600182611a29919061266b565b9050600060018660000180549050611a41919061266b565b90506000866000018281548110611a81577f4e487b7100000000000000000000000000000000000000000000000000000000600052603260045260246000fd5b9060005260206000200154905080876000018481548110611acb577f4e487b7100000000000000000000000000000000000000000000000000000000600052603260045260246000fd5b9060005260206000200181905550600183611ae691906125de565b8760010160008381526020019081526020016000208190555086600001805480611b39577f4e487b7100000000000000000000000000000000000000000000000000000000600052603160045260246000fd5b60019003818190600052602060002001600090559055866001016000878152602001908152602001600020600090556001945050505050611b7b565b60009150505b92915050565b828054611b8d90612740565b90600052602060002090601f016020900481019282611baf5760008555611bf6565b82601f10611bc857805160ff1916838001178555611bf6565b82800160010185558215611bf6579182015b82811115611bf5578251825591602001919060010190611bda565b5b509050611c039190611d05565b5090565b828054611c1390612740565b90600052602060002090601f016020900481019282611c355760008555611c83565b82601f10611c465780548555611c83565b82800160010185558215611c8357600052602060002091601f016020900482015b82811115611c82578254825591600101919060010190611c67565b5b509050611c909190611d05565b5090565b508054611ca090612740565b6000825580601f10611cb25750611cd1565b601f016020900490600052602060002090810190611cd09190611d05565b5b50565b6040518060800160405280600060ff168152602001600060ff168152602001600060ff168152602001606081525090565b5b80821115611d1e576000816000905550600101611d06565b5090565b6000611d35611d308461253c565b612517565b905082815260208101848484011115611d4d57600080fd5b611d588482856126fe565b509392505050565b600081359050611d6f81612a4a565b92915050565b600081359050611d8481612a61565b92915050565b600082601f830112611d9b57600080fd5b8135611dab848260208601611d22565b91505092915050565b600081359050611dc381612a78565b92915050565b600081359050611dd881612a8f565b92915050565b600060208284031215611df057600080fd5b6000611dfe84828501611d75565b91505092915050565b60008060408385031215611e1a57600080fd5b6000611e2885828601611d75565b9250506020611e3985828601611d60565b9150509250929050565b60008060408385031215611e5657600080fd5b6000611e6485828601611d75565b9250506020611e7585828601611db4565b9150509250929050565b600060208284031215611e9157600080fd5b600082013567ffffffffffffffff811115611eab57600080fd5b611eb784828501611d8a565b91505092915050565b600080600060608486031215611ed557600080fd5b600084013567ffffffffffffffff811115611eef57600080fd5b611efb86828701611d8a565b9350506020611f0c86828701611dc9565b9250506040611f1d86828701611dc9565b9150509250925092565b600060208284031215611f3957600080fd5b6000611f4784828501611db4565b91505092915050565b6000611f5c83836121e4565b905092915050565b611f6d8161269f565b82525050565b6000611f7e8261257d565b611f8881856125a0565b935083602082028501611f9a8561256d565b8060005b85811015611fd65784840389528151611fb78582611f50565b9450611fc283612593565b925060208a01995050600181019050611f9e565b50829750879550505050505092915050565b611ff1816126b1565b82525050565b612000816126bd565b82525050565b600061201182612588565b61201b81856125b1565b935061202b81856020860161270d565b61203481612830565b840191505092915050565b600061204a82612588565b61205481856125c2565b935061206481856020860161270d565b61206d81612830565b840191505092915050565b600061208382612588565b61208d81856125d3565b935061209d81856020860161270d565b80840191505092915050565b60006120b66022836125c2565b91506120c182612841565b604082019050919050565b60006120d9602f836125c2565b91506120e482612890565b604082019050919050565b60006120fc600c836125c2565b9150612107826128df565b602082019050919050565b600061211f601e836125c2565b915061212a82612908565b602082019050919050565b60006121426030836125c2565b915061214d82612931565b604082019050919050565b6000612165600a836125c2565b915061217082612980565b602082019050919050565b60006121886017836125c2565b9150612193826129a9565b602082019050919050565b60006121ab6017836125c2565b91506121b6826129d2565b602082019050919050565b60006121ce602f836125c2565b91506121d9826129fb565b604082019050919050565b60006080830160008301516121fc60008601826122b9565b50602083015161220f60208601826122b9565b50604083015161222260408601826122b9565b506060830151848203606086015261223a8282612006565b9150508091505092915050565b600060808301600083015161225f60008601826122b9565b50602083015161227260208601826122b9565b50604083015161228560408601826122b9565b506060830151848203606086015261229d8282612006565b9150508091505092915050565b6122b3816126e7565b82525050565b6122c2816126f1565b82525050565b6122d1816126f1565b82525050565b60006122e38284612078565b915081905092915050565b60006020820190506123036000830184611f64565b92915050565b600060208201905081810360008301526123238184611f73565b905092915050565b60006020820190506123406000830184611fe8565b92915050565b600060208201905061235b6000830184611ff7565b92915050565b6000602082019050818103600083015261237b818461203f565b905092915050565b6000602082019050818103600083015261239c816120a9565b9050919050565b600060208201905081810360008301526123bc816120cc565b9050919050565b600060208201905081810360008301526123dc816120ef565b9050919050565b600060208201905081810360008301526123fc81612112565b9050919050565b6000602082019050818103600083015261241c81612135565b9050919050565b6000602082019050818103600083015261243c81612158565b9050919050565b6000602082019050818103600083015261245c8161217b565b9050919050565b6000602082019050818103600083015261247c8161219e565b9050919050565b6000602082019050818103600083015261249c816121c1565b9050919050565b600060208201905081810360008301526124bd8184612247565b905092915050565b60006020820190506124da60008301846122aa565b92915050565b60006060820190506124f560008301866122c8565b61250260208301856122c8565b61250f60408301846122c8565b949350505050565b6000612521612532565b905061252d8282612772565b919050565b6000604051905090565b600067ffffffffffffffff82111561255757612556612801565b5b61256082612830565b9050602081019050919050565b6000819050602082019050919050565b600081519050919050565b600081519050919050565b6000602082019050919050565b600082825260208201905092915050565b600082825260208201905092915050565b600082825260208201905092915050565b600081905092915050565b60006125e9826126e7565b91506125f4836126e7565b9250827fffffffffffffffffffffffffffffffffffffffffffffffffffffffffffffffff03821115612629576126286127a3565b5b828201905092915050565b600061263f826126f1565b915061264a836126f1565b92508260ff038211156126605761265f6127a3565b5b828201905092915050565b6000612676826126e7565b9150612681836126e7565b925082821015612694576126936127a3565b5b828203905092915050565b60006126aa826126c7565b9050919050565b60008115159050919050565b6000819050919050565b600073ffffffffffffffffffffffffffffffffffffffff82169050919050565b6000819050919050565b600060ff82169050919050565b82818337600083830152505050565b60005b8381101561272b578082015181840152602081019050612710565b8381111561273a576000848401525b50505050565b6000600282049050600182168061275857607f821691505b6020821081141561276c5761276b6127d2565b5b50919050565b61277b82612830565b810181811067ffffffffffffffff8211171561279a57612799612801565b5b80604052505050565b7f4e487b7100000000000000000000000000000000000000000000000000000000600052601160045260246000fd5b7f4e487b7100000000000000000000000000000000000000000000000000000000600052602260045260246000fd5b7f4e487b7100000000000000000000000000000000000000000000000000000000600052604160045260246000fd5b6000601f19601f8301169050919050565b7f456e756d657261626c655365743a20696e646578206f7574206f6620626f756e60008201527f6473000000000000000000000000000000000000000000000000000000000000602082015250565b7f416363657373436f6e74726f6c3a2073656e646572206d75737420626520616e60008201527f2061646d696e20746f206772616e740000000000000000000000000000000000602082015250565b7f6f7574206f662072616e67650000000000000000000000000000000000000000600082015250565b7f41636164656d7950726f6a6563744c6973743a206f6e6c79206f776e65720000600082015250565b7f416363657373436f6e74726f6c3a2073656e646572206d75737420626520616e60008201527f2061646d696e20746f207265766f6b6500000000000000000000000000000000602082015250565b7f6e6f742065786973747300000000000000000000000000000000000000000000600082015250565b7f53747564656e745175697a3a206e6f7420616374697665000000000000000000600082015250565b7f706f7274666f6c696f3a20696e76616c6964206e616d65000000000000000000600082015250565b7f416363657373436f6e74726f6c3a2063616e206f6e6c792072656e6f756e636560008201527f20726f6c657320666f722073656c660000000000000000000000000000000000602082015250565b612a538161269f565b8114612a5e57600080fd5b50565b612a6a816126bd565b8114612a7557600080fd5b50565b612a81816126e7565b8114612a8c57600080fd5b50565b612a98816126f1565b8114612aa357600080fd5b5056fea26469706673582212201072ae7c679a145286f38e0c2bdd6418a8626446e4fd058c4f2001c3e9776c1e64736f6c63430008010033",
  "immutableReferences": {},
  "source": "// SPDX-License-Identifier: MIT\r\npragma solidity 0.8.1;\r\n\r\n//import \"https://github.com/OpenZeppelin/openzeppelin-contracts/blob/master/contracts/access/AccessControl.sol\";\r\n//import '@openzeppelin/contracts/access/AccessControl.sol';\r\nimport './oz-contracts/access/AccessControl.sol';\r\n\r\nstruct StudentQuizStruct {\r\n    uint8 total;\r\n    uint8 grade;\r\n    uint8 atempt;\r\n    string name;\r\n}\r\n\r\n//Who is the owner?\r\n//Who can change information? It cannot be the student directly\r\n\r\ncontract StudentQuiz is AccessControl {\r\n\r\n    bool public active;\r\n\r\n    StudentQuizStruct[] private studentQuizInfo; \r\n    //Quiz name is an index, can't be changed after created.\r\n    mapping(string => uint256) private studentQuizIndexName;\r\n\r\n    constructor() {\r\n        _setupRole(DEFAULT_ADMIN_ROLE, msg.sender);\r\n        active = true;\r\n    }    \r\n    \r\n    event StudentGradeUpdated(string indexed name, uint8 total, uint8 grade, uint8 atempt);\r\n    event StudentGradeDeleted(string name);\r\n\r\n    modifier onlyOwner() {\r\n        require(hasRole(DEFAULT_ADMIN_ROLE, msg.sender), \"AcademyProjectList: only owner\");\r\n        _;\r\n    }\r\n    \r\n    modifier onlyActive() {\r\n        require(active, \"StudentQuiz: not active\");\r\n        _;\r\n    }\r\n\r\n    function addStudentQuiz (string memory name, uint8 total, uint8 grade) public onlyOwner onlyActive returns(uint256) {\r\n        if (exists(name))\r\n            return studentQuizIndexName[name];\r\n        require (!compareStrings(name, \"\"), \"portfolio: invalid name\");\r\n            \r\n        StudentQuizStruct memory q;\r\n        q.name = name;\r\n        q.total = total;\r\n        q.grade = grade;\r\n        q.atempt = 1;\r\n        \r\n        studentQuizInfo.push(q);\r\n        uint256 index = studentQuizInfo.length;\r\n        studentQuizIndexName[name] = index;\r\n        emit StudentGradeUpdated(name, total, grade, q.atempt);\r\n        return index;\r\n    }\r\n    \r\n    function delStudentQuiz (string memory name) public onlyOwner onlyActive returns (bool) {\r\n        if (!exists(name))\r\n            return false;\r\n\r\n        uint256 indexToDelete = studentQuizIndexName[name]-1;\r\n        uint256 indexToMove = studentQuizInfo.length-1;\r\n        string memory keyToMove = studentQuizInfo[indexToMove].name;\r\n        \r\n        studentQuizInfo[indexToDelete] = studentQuizInfo[indexToMove];\r\n        studentQuizIndexName[keyToMove] = indexToDelete+1;\r\n\r\n        delete studentQuizIndexName[name];\r\n        studentQuizInfo.pop();\r\n\r\n        emit StudentGradeDeleted(name);\r\n        return true;\r\n    }\r\n    \r\n    function updateStudentQuiz (string memory name, uint8 total, uint8 grade) public onlyOwner onlyActive returns (bool) {\r\n        if (!exists(name))\r\n            return false;\r\n        \r\n        uint256 index = studentQuizIndexName[name]-1;\r\n        \r\n        studentQuizInfo[index].name = name;\r\n        studentQuizInfo[index].total = total;\r\n        studentQuizInfo[index].grade = grade;\r\n        studentQuizInfo[index].atempt = studentQuizInfo[index].atempt + 1;\r\n        \r\n        emit StudentGradeUpdated(name, total, grade, studentQuizInfo[index].atempt);\r\n        return true;\r\n    }    \r\n    \r\n    function changeActive () public onlyOwner returns (bool) {\r\n        active = !active;\r\n        return active;\r\n    }\r\n    \r\n    function exists(string memory name) public view returns (bool) {\r\n        if (studentQuizIndexName[name] == 0)\r\n            return false;\r\n        else\r\n            return true;\r\n    }    \r\n\r\n    function getProject (string memory name) public view returns (StudentQuizStruct memory) {\r\n        require (exists(name), \"not exists\");\r\n        uint256 index = studentQuizIndexName[name]-1;\r\n        return studentQuizInfo[index];\r\n    }\r\n    \r\n    function getProject (uint256 index) public view returns (StudentQuizStruct memory) {\r\n        require ((index > 0 ) && (index <= studentQuizInfo.length), \"out of range\");\r\n        return studentQuizInfo[index-1];\r\n    }\r\n    \r\n    function getIndexByName (string memory name) public view returns (uint256) {\r\n        return studentQuizIndexName[name];\r\n    }\r\n    \r\n    function countStudentQuiz () public view returns (uint256) {\r\n        return studentQuizInfo.length;\r\n    }\r\n     \r\n    function listStudentQuiz () public view returns (StudentQuizStruct[] memory) {\r\n        return studentQuizInfo;\r\n    }\r\n    function compareStrings(string memory a, string memory b) private pure returns (bool) {\r\n        return (keccak256(abi.encodePacked((a))) == keccak256(abi.encodePacked((b))));\r\n    }   \r\n}",
  "sourcePath": "C:/ACADEMY/GITHUB/rsk-academy-dapp/contracts/StudentQuiz.sol",
  "compiler": {
    "name": "solc",
    "version": "0.8.1+commit.df193b15.Emscripten.clang"
  },
  "schemaVersion": "3.3.3",
  "updatedAt": "2021-03-09T20:04:56.173Z",
  "devdoc": {
    "kind": "dev",
    "methods": {
      "getRoleAdmin(bytes32)": {
        "details": "Returns the admin role that controls `role`. See {grantRole} and {revokeRole}. To change a role's admin, use {_setRoleAdmin}."
      },
      "getRoleMember(bytes32,uint256)": {
        "details": "Returns one of the accounts that have `role`. `index` must be a value between 0 and {getRoleMemberCount}, non-inclusive. Role bearers are not sorted in any particular way, and their ordering may change at any point. WARNING: When using {getRoleMember} and {getRoleMemberCount}, make sure you perform all queries on the same block. See the following https://forum.openzeppelin.com/t/iterating-over-elements-on-enumerableset-in-openzeppelin-contracts/2296[forum post] for more information."
      },
      "getRoleMemberCount(bytes32)": {
        "details": "Returns the number of accounts that have `role`. Can be used together with {getRoleMember} to enumerate all bearers of a role."
      },
      "grantRole(bytes32,address)": {
        "details": "Grants `role` to `account`. If `account` had not been already granted `role`, emits a {RoleGranted} event. Requirements: - the caller must have ``role``'s admin role."
      },
      "hasRole(bytes32,address)": {
        "details": "Returns `true` if `account` has been granted `role`."
      },
      "renounceRole(bytes32,address)": {
        "details": "Revokes `role` from the calling account. Roles are often managed via {grantRole} and {revokeRole}: this function's purpose is to provide a mechanism for accounts to lose their privileges if they are compromised (such as when a trusted device is misplaced). If the calling account had been granted `role`, emits a {RoleRevoked} event. Requirements: - the caller must be `account`."
      },
      "revokeRole(bytes32,address)": {
        "details": "Revokes `role` from `account`. If `account` had been granted `role`, emits a {RoleRevoked} event. Requirements: - the caller must have ``role``'s admin role."
      }
    },
    "version": 1
  },
  "userdoc": {
    "kind": "user",
    "methods": {},
    "version": 1
  }
}