{
  "contractName": "StudentPortfolio",
  "abi": [
    {
      "inputs": [
        {
          "internalType": "address",
          "name": "account",
          "type": "address"
        },
        {
          "internalType": "address",
          "name": "addressProjectList",
          "type": "address"
        }
      ],
      "stateMutability": "nonpayable",
      "type": "constructor"
    },
    {
      "anonymous": false,
      "inputs": [
        {
          "indexed": true,
          "internalType": "address",
          "name": "projectAddress",
          "type": "address"
        },
        {
          "indexed": false,
          "internalType": "string",
          "name": "projectName",
          "type": "string"
        }
      ],
      "name": "PortfolioProjectAdded",
      "type": "event"
    },
    {
      "anonymous": false,
      "inputs": [
        {
          "indexed": true,
          "internalType": "address",
          "name": "projectAddress",
          "type": "address"
        },
        {
          "indexed": false,
          "internalType": "string",
          "name": "projectName",
          "type": "string"
        }
      ],
      "name": "PortfolioProjectDeleted",
      "type": "event"
    },
    {
      "anonymous": false,
      "inputs": [
        {
          "indexed": true,
          "internalType": "bytes32",
          "name": "role",
          "type": "bytes32"
        },
        {
          "indexed": true,
          "internalType": "bytes32",
          "name": "previousAdminRole",
          "type": "bytes32"
        },
        {
          "indexed": true,
          "internalType": "bytes32",
          "name": "newAdminRole",
          "type": "bytes32"
        }
      ],
      "name": "RoleAdminChanged",
      "type": "event"
    },
    {
      "anonymous": false,
      "inputs": [
        {
          "indexed": true,
          "internalType": "bytes32",
          "name": "role",
          "type": "bytes32"
        },
        {
          "indexed": true,
          "internalType": "address",
          "name": "account",
          "type": "address"
        },
        {
          "indexed": true,
          "internalType": "address",
          "name": "sender",
          "type": "address"
        }
      ],
      "name": "RoleGranted",
      "type": "event"
    },
    {
      "anonymous": false,
      "inputs": [
        {
          "indexed": true,
          "internalType": "bytes32",
          "name": "role",
          "type": "bytes32"
        },
        {
          "indexed": true,
          "internalType": "address",
          "name": "account",
          "type": "address"
        },
        {
          "indexed": true,
          "internalType": "address",
          "name": "sender",
          "type": "address"
        }
      ],
      "name": "RoleRevoked",
      "type": "event"
    },
    {
      "inputs": [],
      "name": "DEFAULT_ADMIN_ROLE",
      "outputs": [
        {
          "internalType": "bytes32",
          "name": "",
          "type": "bytes32"
        }
      ],
      "stateMutability": "view",
      "type": "function"
    },
    {
      "inputs": [
        {
          "internalType": "bytes32",
          "name": "role",
          "type": "bytes32"
        }
      ],
      "name": "getRoleAdmin",
      "outputs": [
        {
          "internalType": "bytes32",
          "name": "",
          "type": "bytes32"
        }
      ],
      "stateMutability": "view",
      "type": "function"
    },
    {
      "inputs": [
        {
          "internalType": "bytes32",
          "name": "role",
          "type": "bytes32"
        },
        {
          "internalType": "uint256",
          "name": "index",
          "type": "uint256"
        }
      ],
      "name": "getRoleMember",
      "outputs": [
        {
          "internalType": "address",
          "name": "",
          "type": "address"
        }
      ],
      "stateMutability": "view",
      "type": "function"
    },
    {
      "inputs": [
        {
          "internalType": "bytes32",
          "name": "role",
          "type": "bytes32"
        }
      ],
      "name": "getRoleMemberCount",
      "outputs": [
        {
          "internalType": "uint256",
          "name": "",
          "type": "uint256"
        }
      ],
      "stateMutability": "view",
      "type": "function"
    },
    {
      "inputs": [
        {
          "internalType": "bytes32",
          "name": "role",
          "type": "bytes32"
        },
        {
          "internalType": "address",
          "name": "account",
          "type": "address"
        }
      ],
      "name": "grantRole",
      "outputs": [],
      "stateMutability": "nonpayable",
      "type": "function"
    },
    {
      "inputs": [
        {
          "internalType": "bytes32",
          "name": "role",
          "type": "bytes32"
        },
        {
          "internalType": "address",
          "name": "account",
          "type": "address"
        }
      ],
      "name": "hasRole",
      "outputs": [
        {
          "internalType": "bool",
          "name": "",
          "type": "bool"
        }
      ],
      "stateMutability": "view",
      "type": "function"
    },
    {
      "inputs": [
        {
          "internalType": "string",
          "name": "",
          "type": "string"
        }
      ],
      "name": "nameIndex",
      "outputs": [
        {
          "internalType": "uint256",
          "name": "",
          "type": "uint256"
        }
      ],
      "stateMutability": "view",
      "type": "function"
    },
    {
      "inputs": [],
      "name": "projectList",
      "outputs": [
        {
          "internalType": "contract iAcademyProjectList",
          "name": "",
          "type": "address"
        }
      ],
      "stateMutability": "view",
      "type": "function"
    },
    {
      "inputs": [
        {
          "internalType": "bytes32",
          "name": "role",
          "type": "bytes32"
        },
        {
          "internalType": "address",
          "name": "account",
          "type": "address"
        }
      ],
      "name": "renounceRole",
      "outputs": [],
      "stateMutability": "nonpayable",
      "type": "function"
    },
    {
      "inputs": [
        {
          "internalType": "bytes32",
          "name": "role",
          "type": "bytes32"
        },
        {
          "internalType": "address",
          "name": "account",
          "type": "address"
        }
      ],
      "name": "revokeRole",
      "outputs": [],
      "stateMutability": "nonpayable",
      "type": "function"
    },
    {
      "inputs": [],
      "name": "student",
      "outputs": [
        {
          "internalType": "address",
          "name": "",
          "type": "address"
        }
      ],
      "stateMutability": "view",
      "type": "function"
    },
    {
      "inputs": [
        {
          "internalType": "address",
          "name": "projectAddress",
          "type": "address"
        },
        {
          "internalType": "string",
          "name": "projectName",
          "type": "string"
        }
      ],
      "name": "addProject",
      "outputs": [
        {
          "internalType": "uint256",
          "name": "",
          "type": "uint256"
        }
      ],
      "stateMutability": "nonpayable",
      "type": "function"
    },
    {
      "inputs": [
        {
          "internalType": "address",
          "name": "projectAddress",
          "type": "address"
        }
      ],
      "name": "deleteProjectByAddress",
      "outputs": [
        {
          "internalType": "bool",
          "name": "",
          "type": "bool"
        }
      ],
      "stateMutability": "nonpayable",
      "type": "function"
    },
    {
      "inputs": [
        {
          "internalType": "address",
          "name": "addressProjectList",
          "type": "address"
        }
      ],
      "name": "updateProjectList",
      "outputs": [
        {
          "internalType": "bool",
          "name": "",
          "type": "bool"
        }
      ],
      "stateMutability": "nonpayable",
      "type": "function"
    },
    {
      "inputs": [
        {
          "internalType": "address",
          "name": "projectAddress",
          "type": "address"
        }
      ],
      "name": "addressInPortfolio",
      "outputs": [
        {
          "internalType": "bool",
          "name": "",
          "type": "bool"
        }
      ],
      "stateMutability": "view",
      "type": "function"
    },
    {
      "inputs": [
        {
          "internalType": "string",
          "name": "projectName",
          "type": "string"
        }
      ],
      "name": "nameInPortfolio",
      "outputs": [
        {
          "internalType": "bool",
          "name": "",
          "type": "bool"
        }
      ],
      "stateMutability": "view",
      "type": "function"
    },
    {
      "inputs": [],
      "name": "listPortfolio",
      "outputs": [
        {
          "components": [
            {
              "internalType": "address",
              "name": "projectAddress",
              "type": "address"
            },
            {
              "internalType": "string",
              "name": "name",
              "type": "string"
            }
          ],
          "internalType": "struct StudentPortfolio.PortfolioStruct[]",
          "name": "",
          "type": "tuple[]"
        }
      ],
      "stateMutability": "view",
      "type": "function"
    },
    {
      "inputs": [],
      "name": "countPortfolio",
      "outputs": [
        {
          "internalType": "uint256",
          "name": "",
          "type": "uint256"
        }
      ],
      "stateMutability": "view",
      "type": "function"
    },
    {
      "inputs": [
        {
          "internalType": "string",
          "name": "projectName",
          "type": "string"
        }
      ],
      "name": "projectByName",
      "outputs": [
        {
          "components": [
            {
              "internalType": "address",
              "name": "projectAddress",
              "type": "address"
            },
            {
              "internalType": "string",
              "name": "name",
              "type": "string"
            }
          ],
          "internalType": "struct StudentPortfolio.PortfolioStruct",
          "name": "",
          "type": "tuple"
        }
      ],
      "stateMutability": "view",
      "type": "function"
    },
    {
      "inputs": [
        {
          "internalType": "address",
          "name": "projectAddress",
          "type": "address"
        }
      ],
      "name": "projectByAddress",
      "outputs": [
        {
          "components": [
            {
              "internalType": "address",
              "name": "projectAddress",
              "type": "address"
            },
            {
              "internalType": "string",
              "name": "name",
              "type": "string"
            }
          ],
          "internalType": "struct StudentPortfolio.PortfolioStruct",
          "name": "",
          "type": "tuple"
        }
      ],
      "stateMutability": "view",
      "type": "function"
    },
    {
      "inputs": [
        {
          "internalType": "uint256",
          "name": "index",
          "type": "uint256"
        }
      ],
      "name": "projectByIndex",
      "outputs": [
        {
          "components": [
            {
              "internalType": "address",
              "name": "projectAddress",
              "type": "address"
            },
            {
              "internalType": "string",
              "name": "name",
              "type": "string"
            }
          ],
          "internalType": "struct StudentPortfolio.PortfolioStruct",
          "name": "",
          "type": "tuple"
        }
      ],
      "stateMutability": "view",
      "type": "function"
    },
    {
      "inputs": [
        {
          "internalType": "address",
          "name": "projectAddress",
          "type": "address"
        }
      ],
      "name": "indexOfProject",
      "outputs": [
        {
          "internalType": "uint256",
          "name": "",
          "type": "uint256"
        }
      ],
      "stateMutability": "view",
      "type": "function"
    }
  ],
  "bytecode": "0x60806040523480156200001157600080fd5b50604051620037f2380380620037f2833981810160405281019062000037919062000283565b6200004c6000801b33620000d660201b60201c565b81600460006101000a81548173ffffffffffffffffffffffffffffffffffffffff021916908373ffffffffffffffffffffffffffffffffffffffff16021790555080600560006101000a81548173ffffffffffffffffffffffffffffffffffffffff021916908373ffffffffffffffffffffffffffffffffffffffff160217905550505062000312565b620000e88282620000ec60201b60201c565b5050565b6200011a816000808581526020019081526020016000206000016200018f60201b62001c781790919060201c565b156200018b5762000130620001c760201b60201c565b73ffffffffffffffffffffffffffffffffffffffff168173ffffffffffffffffffffffffffffffffffffffff16837f2f8788117e7eff1d82e926ec794901d17c78024a50270940304540a733656f0d60405160405180910390a45b5050565b6000620001bf836000018373ffffffffffffffffffffffffffffffffffffffff1660001b620001cf60201b60201c565b905092915050565b600033905090565b6000620001e383836200024960201b60201c565b6200023e57826000018290806001815401808255809150506001900390600052602060002001600090919091909150558260000180549050836001016000848152602001908152602001600020819055506001905062000243565b600090505b92915050565b600080836001016000848152602001908152602001600020541415905092915050565b6000815190506200027d81620002f8565b92915050565b600080604083850312156200029757600080fd5b6000620002a7858286016200026c565b9250506020620002ba858286016200026c565b9150509250929050565b6000620002d182620002d8565b9050919050565b600073ffffffffffffffffffffffffffffffffffffffff82169050919050565b6200030381620002c4565b81146200030f57600080fd5b50565b6134d080620003226000396000f3fe608060405234801561001057600080fd5b50600436106101425760003560e01c8063a217fddf116100b8578063e4440b991161007c578063e4440b99146103e7578063e5a2797914610417578063ec77f83014610447578063f4a496b714610465578063f7e0123a14610495578063fefd6e76146104b357610142565b8063a217fddf1461031d578063a84224bc1461033b578063ca15c8731461036b578063d46e1c4a1461039b578063d547741f146103cb57610142565b806336568abe1161010a57806336568abe14610223578063699450e81461023f5780637201ac1e1461025d5780638a06d20b1461028d5780639010d07c146102bd57806391d14854146102ed57610142565b80631734109a146101475780632289367f14610177578063248a9ca3146101a75780632727737d146101d75780632f2ff15d14610207575b600080fd5b610161600480360381019061015c91906123f7565b6104d1565b60405161016e9190612b48565b60405180910390f35b610191600480360381019061018c91906123f7565b610569565b60405161019e9190612b48565b60405180910390f35b6101c160048036038101906101bc91906124c6565b6105c5565b6040516101ce9190612b63565b60405180910390f35b6101f160048036038101906101ec91906123f7565b6105e4565b6040516101fe9190612dbd565b60405180910390f35b610221600480360381019061021c91906124ef565b610778565b005b61023d600480360381019061023891906124ef565b6107eb565b005b61024761086e565b6040516102549190612b0b565b60405180910390f35b61027760048036038101906102729190612567565b610894565b6040516102849190612dbd565b60405180910390f35b6102a760048036038101906102a29190612449565b610a07565b6040516102b49190612ddf565b60405180910390f35b6102d760048036038101906102d2919061252b565b610ff5565b6040516102e49190612b0b565b60405180910390f35b610307600480360381019061030291906124ef565b611026565b6040516103149190612b48565b60405180910390f35b610325611057565b6040516103329190612b63565b60405180910390f35b61035560048036038101906103509190612567565b61105e565b6040516103629190612b48565b60405180910390f35b610385600480360381019061038091906124c6565b611099565b6040516103929190612ddf565b60405180910390f35b6103b560048036038101906103b091906123f7565b6110bf565b6040516103c29190612ddf565b60405180910390f35b6103e560048036038101906103e091906124ef565b611108565b005b61040160048036038101906103fc91906125a8565b61117b565b60405161040e9190612dbd565b60405180910390f35b610431600480360381019061042c9190612567565b611324565b60405161043e9190612ddf565b60405180910390f35b61044f611352565b60405161045c9190612ddf565b60405180910390f35b61047f600480360381019061047a91906123f7565b61135f565b60405161048c9190612b48565b60405180910390f35b61049d611b0b565b6040516104aa9190612b26565b60405180910390f35b6104bb611c52565b6040516104c89190612b7e565b60405180910390f35b60006104e06000801b33611026565b61051f576040517f08c379a000000000000000000000000000000000000000000000000000000000815260040161051690612d1d565b60405180910390fd5b81600560006101000a81548173ffffffffffffffffffffffffffffffffffffffff021916908373ffffffffffffffffffffffffffffffffffffffff16021790555060019050919050565b600080600260008473ffffffffffffffffffffffffffffffffffffffff1673ffffffffffffffffffffffffffffffffffffffff1681526020019081526020016000205414156105bb57600090506105c0565b600190505b919050565b6000806000838152602001908152602001600020600201549050919050565b6105ec612186565b600180600260008573ffffffffffffffffffffffffffffffffffffffff1673ffffffffffffffffffffffffffffffffffffffff168152602001908152602001600020546106399190612f2c565b81548110610670577f4e487b7100000000000000000000000000000000000000000000000000000000600052603260045260246000fd5b90600052602060002090600202016040518060400160405290816000820160009054906101000a900473ffffffffffffffffffffffffffffffffffffffff1673ffffffffffffffffffffffffffffffffffffffff1673ffffffffffffffffffffffffffffffffffffffff1681526020016001820180546106ef90613018565b80601f016020809104026020016040519081016040528092919081815260200182805461071b90613018565b80156107685780601f1061073d57610100808354040283529160200191610768565b820191906000526020600020905b81548152906001019060200180831161074b57829003601f168201915b5050505050815250509050919050565b61079e60008084815260200190815260200160002060020154610799611ca8565b611026565b6107dd576040517f08c379a00000000000000000000000000000000000000000000000000000000081526004016107d490612c1d565b60405180910390fd5b6107e78282611cb0565b5050565b6107f3611ca8565b73ffffffffffffffffffffffffffffffffffffffff168173ffffffffffffffffffffffffffffffffffffffff1614610860576040517f08c379a000000000000000000000000000000000000000000000000000000000815260040161085790612d7d565b60405180910390fd5b61086a8282611d43565b5050565b600460009054906101000a900473ffffffffffffffffffffffffffffffffffffffff1681565b61089c612186565b6001806003846040516108af9190612add565b9081526020016040518091039020546108c89190612f2c565b815481106108ff577f4e487b7100000000000000000000000000000000000000000000000000000000600052603260045260246000fd5b90600052602060002090600202016040518060400160405290816000820160009054906101000a900473ffffffffffffffffffffffffffffffffffffffff1673ffffffffffffffffffffffffffffffffffffffff1673ffffffffffffffffffffffffffffffffffffffff16815260200160018201805461097e90613018565b80601f01602080910402602001604051908101604052809291908181526020018280546109aa90613018565b80156109f75780601f106109cc576101008083540402835291602001916109f7565b820191906000526020600020905b8154815290600101906020018083116109da57829003601f168201915b5050505050815250509050919050565b6000610a228260405180602001604052806000815250611dd6565b15610a62576040517f08c379a0000000000000000000000000000000000000000000000000000000008152600401610a5990612d3d565b60405180910390fd5b600073ffffffffffffffffffffffffffffffffffffffff168373ffffffffffffffffffffffffffffffffffffffff161415610ad2576040517f08c379a0000000000000000000000000000000000000000000000000000000008152600401610ac990612cfd565b60405180910390fd5b600560009054906101000a900473ffffffffffffffffffffffffffffffffffffffff1673ffffffffffffffffffffffffffffffffffffffff1663261a323e836040518263ffffffff1660e01b8152600401610b2d9190612b99565b60206040518083038186803b158015610b4557600080fd5b505afa158015610b59573d6000803e3d6000fd5b505050506040513d601f19601f82011682018060405250810190610b7d919061249d565b610bbc576040517f08c379a0000000000000000000000000000000000000000000000000000000008152600401610bb390612c7d565b60405180910390fd5b600560009054906101000a900473ffffffffffffffffffffffffffffffffffffffff1673ffffffffffffffffffffffffffffffffffffffff1663c8902a21836040518263ffffffff1660e01b8152600401610c179190612b99565b60206040518083038186803b158015610c2f57600080fd5b505afa158015610c43573d6000803e3d6000fd5b505050506040513d601f19601f82011682018060405250810190610c67919061249d565b610ca6576040517f08c379a0000000000000000000000000000000000000000000000000000000008152600401610c9d90612d9d565b60405180910390fd5b600560009054906101000a900473ffffffffffffffffffffffffffffffffffffffff1673ffffffffffffffffffffffffffffffffffffffff16634f491152836040518263ffffffff1660e01b8152600401610d019190612b99565b60206040518083038186803b158015610d1957600080fd5b505afa158015610d2d573d6000803e3d6000fd5b505050506040513d601f19601f82011682018060405250810190610d519190612420565b73ffffffffffffffffffffffffffffffffffffffff163373ffffffffffffffffffffffffffffffffffffffff1614610dbe576040517f08c379a0000000000000000000000000000000000000000000000000000000008152600401610db590612d5d565b60405180910390fd5b610dc783610569565b15610e07576040517f08c379a0000000000000000000000000000000000000000000000000000000008152600401610dfe90612c3d565b60405180910390fd5b610e108261105e565b15610e50576040517f08c379a0000000000000000000000000000000000000000000000000000000008152600401610e4790612bdd565b60405180910390fd5b610e58612186565b83816000019073ffffffffffffffffffffffffffffffffffffffff16908173ffffffffffffffffffffffffffffffffffffffff1681525050828160200181905250600181908060018154018082558091505060019003906000526020600020906002020160009091909190915060008201518160000160006101000a81548173ffffffffffffffffffffffffffffffffffffffff021916908373ffffffffffffffffffffffffffffffffffffffff1602179055506020820151816001019080519060200190610f289291906121b6565b5050506000600180549050905080600260008773ffffffffffffffffffffffffffffffffffffffff1673ffffffffffffffffffffffffffffffffffffffff1681526020019081526020016000208190555080600385604051610f8a9190612add565b9081526020016040518091039020819055508473ffffffffffffffffffffffffffffffffffffffff167f5f72ee8f126edb9517a308b63a1840bbade7cc7d2406cf0df01e0b0f2071e45385604051610fe29190612b99565b60405180910390a2809250505092915050565b600061101e82600080868152602001908152602001600020600001611e2f90919063ffffffff16565b905092915050565b600061104f82600080868152602001908152602001600020600001611e4990919063ffffffff16565b905092915050565b6000801b81565b6000806003836040516110719190612add565b908152602001604051809103902054141561108f5760009050611094565b600190505b919050565b60006110b8600080848152602001908152602001600020600001611e79565b9050919050565b6000600260008373ffffffffffffffffffffffffffffffffffffffff1673ffffffffffffffffffffffffffffffffffffffff168152602001908152602001600020549050919050565b61112e60008084815260200190815260200160002060020154611129611ca8565b611026565b61116d576040517f08c379a000000000000000000000000000000000000000000000000000000000815260040161116490612c9d565b60405180910390fd5b6111778282611d43565b5050565b611183612186565b60008211801561119857506001805490508211155b6111d7576040517f08c379a00000000000000000000000000000000000000000000000000000000081526004016111ce90612c5d565b60405180910390fd5b600180836111e59190612f2c565b8154811061121c577f4e487b7100000000000000000000000000000000000000000000000000000000600052603260045260246000fd5b90600052602060002090600202016040518060400160405290816000820160009054906101000a900473ffffffffffffffffffffffffffffffffffffffff1673ffffffffffffffffffffffffffffffffffffffff1673ffffffffffffffffffffffffffffffffffffffff16815260200160018201805461129b90613018565b80601f01602080910402602001604051908101604052809291908181526020018280546112c790613018565b80156113145780601f106112e957610100808354040283529160200191611314565b820191906000526020600020905b8154815290600101906020018083116112f757829003601f168201915b5050505050815250509050919050565b6003818051602081018201805184825260208301602085012081835280955050505050506000915090505481565b6000600180549050905090565b60008073ffffffffffffffffffffffffffffffffffffffff168273ffffffffffffffffffffffffffffffffffffffff1614156113d0576040517f08c379a00000000000000000000000000000000000000000000000000000000081526004016113c790612cbd565b60405180910390fd5b6113d982610569565b611418576040517f08c379a000000000000000000000000000000000000000000000000000000000815260040161140f90612cdd565b60405180910390fd5b6000600560009054906101000a900473ffffffffffffffffffffffffffffffffffffffff1673ffffffffffffffffffffffffffffffffffffffff16634f491152600180600260008873ffffffffffffffffffffffffffffffffffffffff1673ffffffffffffffffffffffffffffffffffffffff168152602001908152602001600020546114a59190612f2c565b815481106114dc577f4e487b7100000000000000000000000000000000000000000000000000000000600052603260045260246000fd5b90600052602060002090600202016001016040518263ffffffff1660e01b81526004016115099190612bbb565b60206040518083038186803b15801561152157600080fd5b505afa158015611535573d6000803e3d6000fd5b505050506040513d601f19601f820116820180604052508101906115599190612420565b90508073ffffffffffffffffffffffffffffffffffffffff163373ffffffffffffffffffffffffffffffffffffffff16146115c9576040517f08c379a00000000000000000000000000000000000000000000000000000000081526004016115c090612d5d565b60405180910390fd5b60006001600260008673ffffffffffffffffffffffffffffffffffffffff1673ffffffffffffffffffffffffffffffffffffffff168152602001908152602001600020546116179190612f2c565b9050600060018281548110611655577f4e487b7100000000000000000000000000000000000000000000000000000000600052603260045260246000fd5b9060005260206000209060020201600101805461167190613018565b80601f016020809104026020016040519081016040528092919081815260200182805461169d90613018565b80156116ea5780601f106116bf576101008083540402835291602001916116ea565b820191906000526020600020905b8154815290600101906020018083116116cd57829003601f168201915b505050505090506000600260008773ffffffffffffffffffffffffffffffffffffffff1673ffffffffffffffffffffffffffffffffffffffff1681526020019081526020016000208190555060006003826040516117489190612add565b908152602001604051809103902081905550600260008673ffffffffffffffffffffffffffffffffffffffff1673ffffffffffffffffffffffffffffffffffffffff168152602001908152602001600020600090556003816040516117ad9190612add565b9081526020016040518091039020600090556000600180805490506117d29190612f2c565b9050600060018281548110611810577f4e487b7100000000000000000000000000000000000000000000000000000000600052603260045260246000fd5b906000526020600020906002020160000160009054906101000a900473ffffffffffffffffffffffffffffffffffffffff1690506001828154811061187e577f4e487b7100000000000000000000000000000000000000000000000000000000600052603260045260246000fd5b9060005260206000209060020201600185815481106118c6577f4e487b7100000000000000000000000000000000000000000000000000000000600052603260045260246000fd5b90600052602060002090600202016000820160009054906101000a900473ffffffffffffffffffffffffffffffffffffffff168160000160006101000a81548173ffffffffffffffffffffffffffffffffffffffff021916908373ffffffffffffffffffffffffffffffffffffffff160217905550600182018160010190805461194f90613018565b61195a92919061223c565b5090505060018461196b9190612ed6565b600260008373ffffffffffffffffffffffffffffffffffffffff1673ffffffffffffffffffffffffffffffffffffffff168152602001908152602001600020819055506001846119bb9190612ed6565b6003600184815481106119f7577f4e487b7100000000000000000000000000000000000000000000000000000000600052603260045260246000fd5b9060005260206000209060020201600101604051611a159190612af4565b9081526020016040518091039020819055506001805480611a5f577f4e487b7100000000000000000000000000000000000000000000000000000000600052603160045260246000fd5b6001900381819060005260206000209060020201600080820160006101000a81549073ffffffffffffffffffffffffffffffffffffffff0219169055600182016000611aab91906122c9565b505090558673ffffffffffffffffffffffffffffffffffffffff167f28396d1fabed6609301bc39be12fb83c36ef88bb22fd01e7e40882caea308bf384604051611af59190612b99565b60405180910390a2600195505050505050919050565b60606001805480602002602001604051908101604052809291908181526020016000905b82821015611c4957838290600052602060002090600202016040518060400160405290816000820160009054906101000a900473ffffffffffffffffffffffffffffffffffffffff1673ffffffffffffffffffffffffffffffffffffffff1673ffffffffffffffffffffffffffffffffffffffff168152602001600182018054611bb890613018565b80601f0160208091040260200160405190810160405280929190818152602001828054611be490613018565b8015611c315780601f10611c0657610100808354040283529160200191611c31565b820191906000526020600020905b815481529060010190602001808311611c1457829003601f168201915b50505050508152505081526020019060010190611b2f565b50505050905090565b600560009054906101000a900473ffffffffffffffffffffffffffffffffffffffff1681565b6000611ca0836000018373ffffffffffffffffffffffffffffffffffffffff1660001b611e8e565b905092915050565b600033905090565b611cd781600080858152602001908152602001600020600001611c7890919063ffffffff16565b15611d3f57611ce4611ca8565b73ffffffffffffffffffffffffffffffffffffffff168173ffffffffffffffffffffffffffffffffffffffff16837f2f8788117e7eff1d82e926ec794901d17c78024a50270940304540a733656f0d60405160405180910390a45b5050565b611d6a81600080858152602001908152602001600020600001611efe90919063ffffffff16565b15611dd257611d77611ca8565b73ffffffffffffffffffffffffffffffffffffffff168173ffffffffffffffffffffffffffffffffffffffff16837ff6391f5c32d9c69d2a47ea670b442974b53935d1edc7fd64eb21e047a839171b60405160405180910390a45b5050565b600081604051602001611de99190612add565b6040516020818303038152906040528051906020012083604051602001611e109190612add565b6040516020818303038152906040528051906020012014905092915050565b6000611e3e8360000183611f2e565b60001c905092915050565b6000611e71836000018373ffffffffffffffffffffffffffffffffffffffff1660001b611fc8565b905092915050565b6000611e8782600001611feb565b9050919050565b6000611e9a8383611fc8565b611ef3578260000182908060018154018082558091505060019003906000526020600020016000909190919091505582600001805490508360010160008481526020019081526020016000208190555060019050611ef8565b600090505b92915050565b6000611f26836000018373ffffffffffffffffffffffffffffffffffffffff1660001b611ffc565b905092915050565b600081836000018054905011611f79576040517f08c379a0000000000000000000000000000000000000000000000000000000008152600401611f7090612bfd565b60405180910390fd5b826000018281548110611fb5577f4e487b7100000000000000000000000000000000000000000000000000000000600052603260045260246000fd5b9060005260206000200154905092915050565b600080836001016000848152602001908152602001600020541415905092915050565b600081600001805490509050919050565b6000808360010160008481526020019081526020016000205490506000811461217a57600060018261202e9190612f2c565b90506000600186600001805490506120469190612f2c565b90506000866000018281548110612086577f4e487b7100000000000000000000000000000000000000000000000000000000600052603260045260246000fd5b90600052602060002001549050808760000184815481106120d0577f4e487b7100000000000000000000000000000000000000000000000000000000600052603260045260246000fd5b90600052602060002001819055506001836120eb9190612ed6565b876001016000838152602001908152602001600020819055508660000180548061213e577f4e487b7100000000000000000000000000000000000000000000000000000000600052603160045260246000fd5b60019003818190600052602060002001600090559055866001016000878152602001908152602001600020600090556001945050505050612180565b60009150505b92915050565b6040518060400160405280600073ffffffffffffffffffffffffffffffffffffffff168152602001606081525090565b8280546121c290613018565b90600052602060002090601f0160209004810192826121e4576000855561222b565b82601f106121fd57805160ff191683800117855561222b565b8280016001018555821561222b579182015b8281111561222a57825182559160200191906001019061220f565b5b5090506122389190612309565b5090565b82805461224890613018565b90600052602060002090601f01602090048101928261226a57600085556122b8565b82601f1061227b57805485556122b8565b828001600101855582156122b857600052602060002091601f016020900482015b828111156122b757825482559160010191906001019061229c565b5b5090506122c59190612309565b5090565b5080546122d590613018565b6000825580601f106122e75750612306565b601f0160209004906000526020600020908101906123059190612309565b5b50565b5b8082111561232257600081600090555060010161230a565b5090565b600061233961233484612e1f565b612dfa565b90508281526020810184848401111561235157600080fd5b61235c848285612fd6565b509392505050565b6000813590506123738161343e565b92915050565b6000815190506123888161343e565b92915050565b60008151905061239d81613455565b92915050565b6000813590506123b28161346c565b92915050565b600082601f8301126123c957600080fd5b81356123d9848260208601612326565b91505092915050565b6000813590506123f181613483565b92915050565b60006020828403121561240957600080fd5b600061241784828501612364565b91505092915050565b60006020828403121561243257600080fd5b600061244084828501612379565b91505092915050565b6000806040838503121561245c57600080fd5b600061246a85828601612364565b925050602083013567ffffffffffffffff81111561248757600080fd5b612493858286016123b8565b9150509250929050565b6000602082840312156124af57600080fd5b60006124bd8482850161238e565b91505092915050565b6000602082840312156124d857600080fd5b60006124e6848285016123a3565b91505092915050565b6000806040838503121561250257600080fd5b6000612510858286016123a3565b925050602061252185828601612364565b9150509250929050565b6000806040838503121561253e57600080fd5b600061254c858286016123a3565b925050602061255d858286016123e2565b9150509250929050565b60006020828403121561257957600080fd5b600082013567ffffffffffffffff81111561259357600080fd5b61259f848285016123b8565b91505092915050565b6000602082840312156125ba57600080fd5b60006125c8848285016123e2565b91505092915050565b60006125dd8383612a54565b905092915050565b6125ee81612f60565b82525050565b6125fd81612f60565b82525050565b600061260e82612e75565b6126188185612e98565b93508360208202850161262a85612e50565b8060005b85811015612666578484038952815161264785826125d1565b945061265283612e8b565b925060208a0199505060018101905061262e565b50829750879550505050505092915050565b61268181612f72565b82525050565b61269081612f7e565b82525050565b61269f81612fb2565b82525050565b60006126b082612e80565b6126ba8185612ea9565b93506126ca818560208601612fe5565b6126d381613108565b840191505092915050565b60006126e982612e80565b6126f38185612eba565b9350612703818560208601612fe5565b61270c81613108565b840191505092915050565b600061272282612e80565b61272c8185612ecb565b935061273c818560208601612fe5565b80840191505092915050565b6000815461275581613018565b61275f8186612eba565b9450600182166000811461277a576001811461278c576127bf565b60ff19831686526020860193506127bf565b61279585612e60565b60005b838110156127b757815481890152600182019150602081019050612798565b808801955050505b50505092915050565b600081546127d581613018565b6127df8186612ecb565b945060018216600081146127fa576001811461280b5761283e565b60ff1983168652818601935061283e565b61281485612e60565b60005b8381101561283657815481890152600182019150602081019050612817565b838801955050505b50505092915050565b6000612854601983612eba565b915061285f82613119565b602082019050919050565b6000612877602283612eba565b915061288282613142565b604082019050919050565b600061289a602f83612eba565b91506128a582613191565b604082019050919050565b60006128bd601983612eba565b91506128c8826131e0565b602082019050919050565b60006128e0600c83612eba565b91506128eb82613209565b602082019050919050565b6000612903601d83612eba565b915061290e82613232565b602082019050919050565b6000612926603083612eba565b91506129318261325b565b604082019050919050565b6000612949600f83612eba565b9150612954826132aa565b602082019050919050565b600061296c601283612eba565b9150612977826132d3565b602082019050919050565b600061298f601a83612eba565b915061299a826132fc565b602082019050919050565b60006129b2601c83612eba565b91506129bd82613325565b602082019050919050565b60006129d5601783612eba565b91506129e08261334e565b602082019050919050565b60006129f8602883612eba565b9150612a0382613377565b604082019050919050565b6000612a1b602f83612eba565b9150612a26826133c6565b604082019050919050565b6000612a3e601d83612eba565b9150612a4982613415565b602082019050919050565b6000604083016000830151612a6c60008601826125e5565b5060208301518482036020860152612a8482826126a5565b9150508091505092915050565b6000604083016000830151612aa960008601826125e5565b5060208301518482036020860152612ac182826126a5565b9150508091505092915050565b612ad781612fa8565b82525050565b6000612ae98284612717565b915081905092915050565b6000612b0082846127c8565b915081905092915050565b6000602082019050612b2060008301846125f4565b92915050565b60006020820190508181036000830152612b408184612603565b905092915050565b6000602082019050612b5d6000830184612678565b92915050565b6000602082019050612b786000830184612687565b92915050565b6000602082019050612b936000830184612696565b92915050565b60006020820190508181036000830152612bb381846126de565b905092915050565b60006020820190508181036000830152612bd58184612748565b905092915050565b60006020820190508181036000830152612bf681612847565b9050919050565b60006020820190508181036000830152612c168161286a565b9050919050565b60006020820190508181036000830152612c368161288d565b9050919050565b60006020820190508181036000830152612c56816128b0565b9050919050565b60006020820190508181036000830152612c76816128d3565b9050919050565b60006020820190508181036000830152612c96816128f6565b9050919050565b60006020820190508181036000830152612cb681612919565b9050919050565b60006020820190508181036000830152612cd68161293c565b9050919050565b60006020820190508181036000830152612cf68161295f565b9050919050565b60006020820190508181036000830152612d1681612982565b9050919050565b60006020820190508181036000830152612d36816129a5565b9050919050565b60006020820190508181036000830152612d56816129c8565b9050919050565b60006020820190508181036000830152612d76816129eb565b9050919050565b60006020820190508181036000830152612d9681612a0e565b9050919050565b60006020820190508181036000830152612db681612a31565b9050919050565b60006020820190508181036000830152612dd78184612a91565b905092915050565b6000602082019050612df46000830184612ace565b92915050565b6000612e04612e15565b9050612e10828261304a565b919050565b6000604051905090565b600067ffffffffffffffff821115612e3a57612e396130d9565b5b612e4382613108565b9050602081019050919050565b6000819050602082019050919050565b60008190508160005260206000209050919050565b600081519050919050565b600081519050919050565b6000602082019050919050565b600082825260208201905092915050565b600082825260208201905092915050565b600082825260208201905092915050565b600081905092915050565b6000612ee182612fa8565b9150612eec83612fa8565b9250827fffffffffffffffffffffffffffffffffffffffffffffffffffffffffffffffff03821115612f2157612f2061307b565b5b828201905092915050565b6000612f3782612fa8565b9150612f4283612fa8565b925082821015612f5557612f5461307b565b5b828203905092915050565b6000612f6b82612f88565b9050919050565b60008115159050919050565b6000819050919050565b600073ffffffffffffffffffffffffffffffffffffffff82169050919050565b6000819050919050565b6000612fbd82612fc4565b9050919050565b6000612fcf82612f88565b9050919050565b82818337600083830152505050565b60005b83811015613003578082015181840152602081019050612fe8565b83811115613012576000848401525b50505050565b6000600282049050600182168061303057607f821691505b60208210811415613044576130436130aa565b5b50919050565b61305382613108565b810181811067ffffffffffffffff82111715613072576130716130d9565b5b80604052505050565b7f4e487b7100000000000000000000000000000000000000000000000000000000600052601160045260246000fd5b7f4e487b7100000000000000000000000000000000000000000000000000000000600052602260045260246000fd5b7f4e487b7100000000000000000000000000000000000000000000000000000000600052604160045260246000fd5b6000601f19601f8301169050919050565b7f706f7274666f6c696f3a2070726f6a6563742065786973747300000000000000600082015250565b7f456e756d657261626c655365743a20696e646578206f7574206f6620626f756e60008201527f6473000000000000000000000000000000000000000000000000000000000000602082015250565b7f416363657373436f6e74726f6c3a2073656e646572206d75737420626520616e60008201527f2061646d696e20746f206772616e740000000000000000000000000000000000602082015250565b7f706f7274666f6c696f3a20616464726573732065786973747300000000000000600082015250565b7f6f7574206f662072616e67650000000000000000000000000000000000000000600082015250565b7f706f7274666f6c696f3a2070726f6a656374206e6f7420657869737473000000600082015250565b7f416363657373436f6e74726f6c3a2073656e646572206d75737420626520616e60008201527f2061646d696e20746f207265766f6b6500000000000000000000000000000000602082015250565b7f696e76616c696420616464726573730000000000000000000000000000000000600082015250565b7f61646472657373206e6f74206578697374730000000000000000000000000000600082015250565b7f706f7274666f6c696f3a20696e76616c69642061646472657373000000000000600082015250565b7f53747564656e74506f7274666f6c696f3a206f6e6c79206f776e657200000000600082015250565b7f706f7274666f6c696f3a20696e76616c6964206e616d65000000000000000000600082015250565b7f4f6e6c79204d61737465722063616e206164642070726f6a65637420696e207060008201527f6f7274666f6c696f000000000000000000000000000000000000000000000000602082015250565b7f416363657373436f6e74726f6c3a2063616e206f6e6c792072656e6f756e636560008201527f20726f6c657320666f722073656c660000000000000000000000000000000000602082015250565b7f706f7274666f6c696f3a2070726f6a656374206e6f7420616374697665000000600082015250565b61344781612f60565b811461345257600080fd5b50565b61345e81612f72565b811461346957600080fd5b50565b61347581612f7e565b811461348057600080fd5b50565b61348c81612fa8565b811461349757600080fd5b5056fea264697066735822122041f0b1c693b7f4194f7dee77631c504fc30db3c0729cb507f3ecd23eabcdd13a64736f6c63430008010033",
  "immutableReferences": {},
  "source": "// SPDX-License-Identifier: MIT\r\npragma solidity 0.8.1;\r\n\r\n//import \"https://github.com/OpenZeppelin/openzeppelin-contracts/blob/master/contracts/access/AccessControl.sol\";\r\n//import '@openzeppelin/contracts/access/AccessControl.sol';\r\nimport './oz-contracts/access/AccessControl.sol';\r\n\r\n\r\nstruct StudentStruct {\r\n    uint index;\r\n    address ownerAddress;\r\n    address portfolioAddress;\r\n    address activeClass;\r\n    address[] studentClasses;\r\n}\r\n\r\nstruct ProjectStruct {\r\n    bool active;\r\n    address master;\r\n    string name;\r\n    string description;\r\n    string ABI;\r\n    string sourceCode;\r\n}\r\n\r\ninterface iName {\r\n    //function owner() external returns (address);\r\n    //function getName() external view returns (string memory);\r\n}\r\n\r\ninterface iAcademyClass {\r\n    function addStudent (address account) external returns (bool);\r\n    function isStudent (address account) external view returns (bool);\r\n}\r\n\r\ninterface iAcademyProjectList {\r\n   function exists(string memory name) external view returns (bool);\r\n    function isActive(string memory name) external view returns (bool);\r\n    function getProjectByName (string memory name_) external view returns (ProjectStruct memory);\r\n    function getMasterAddressByName (string memory name_) external view returns (address);\r\n}\r\n\r\n\r\ncontract AcademyStudents is AccessControl {\r\n\r\n    address public projectListAddress;\r\n    bool active;\r\n\r\n    mapping(address => StudentStruct) private studentInfo;\r\n    address[] private studentIndex;\r\n    mapping(address => mapping (address=>bool) ) private studentClassSubscribed;\r\n    \r\n    constructor(address addressProjectList) {\r\n        _setupRole(DEFAULT_ADMIN_ROLE, msg.sender);\r\n        active = true;\r\n        projectListAddress = addressProjectList;\r\n    }\r\n\r\n    event StudentCreated(address indexed studentAddress);\r\n    event StudentRemoved(address indexed studentAddress);\r\n    event StudentSubscribed(address indexed classAddress, address indexed studentAddress);\r\n    event StudentClassSelected(address indexed classAddress, address indexed studentAddress);\r\n    \r\n    modifier onlyOwner() {\r\n        require(hasRole(DEFAULT_ADMIN_ROLE, msg.sender), \"AcademyStudents: only owner\");\r\n        _;\r\n    }\r\n    \r\n    modifier onlyActive() {\r\n        require(active, \"AcademyStudents: not active\");\r\n        _;\r\n    } \r\n\r\n    function addStudent (address account) public onlyOwner onlyActive returns (uint256) {\r\n        uint256 indexStudent;\r\n        if (!isStudent(account)) {\r\n            indexStudent = _addStudent(account);\r\n        }\r\n        \r\n        //Portfolio created for each student\r\n        StudentPortfolio p = new StudentPortfolio (account, projectListAddress);\r\n        studentInfo[account].portfolioAddress = address(p);\r\n        \r\n        return indexStudent;\r\n    }\r\n    \r\n    function _addStudent (address account) private returns (uint256) {\r\n        if (isStudent(account))\r\n            return 0;\r\n        //require (!isStudent(account), \"student already exists\");\r\n        \r\n        studentInfo[account].ownerAddress = account;\r\n        studentIndex.push(account);\r\n        uint256 index = studentIndex.length - 1;\r\n        studentInfo[account].index = index;\r\n        \r\n        emit StudentCreated(account);\r\n        return index;\r\n    }\r\n    \r\n    function delStudent (address account) public onlyOwner onlyActive returns (bool) {\r\n        _delStudent(account);\r\n        return true;\r\n    }\r\n    \r\n    function _delStudent (address account) private returns (bool) {\r\n        if (!isStudent(account))\r\n            return false;\r\n        //require (isStudent(account), \"student not exists\");\r\n        \r\n        uint indexToDelete = studentInfo[account].index;\r\n        address keyToMove = studentIndex[studentIndex.length-1];\r\n        studentIndex[indexToDelete] = keyToMove;\r\n        studentInfo[keyToMove].index = indexToDelete;\r\n        \r\n        delete studentInfo[account];\r\n        studentIndex.pop();\r\n        \r\n        //Mantm o Portfolio do estudante?\r\n\r\n        emit StudentRemoved(account);\r\n        return true;\r\n    }\r\n\r\n    function addClass (address account, address classAddress) public onlyOwner onlyActive returns (bool) {\r\n        if (!isStudent(account)) \r\n            return false;\r\n\r\n        //Verificar se ele j est inscrito nesta classe\r\n        if (!studentClassSubscribed[account][classAddress]) {\r\n            studentInfo[account].studentClasses.push(classAddress);\r\n            studentClassSubscribed[account][classAddress] = true;\r\n        }\r\n        \r\n        emit StudentSubscribed(classAddress, account);\r\n        return true;\r\n    }\r\n\r\n    function updateActiveClass (address classAddress) public returns (bool) {\r\n        return _updateActiveClass(msg.sender, classAddress);\r\n    }\r\n    \r\n    function updateStudentActiveClass (address account, address classAddress) public onlyOwner returns (bool) {\r\n        return _updateActiveClass(account, classAddress);\r\n    }\r\n\r\n    function _updateActiveClass (address account, address classAddress) public onlyActive returns (bool) {\r\n        if (!isStudent(account))\r\n            return false;\r\n        studentInfo[account].activeClass = classAddress;\r\n        emit StudentClassSelected(classAddress, account);\r\n        return true;\r\n    }\r\n\r\n    function changeActive () public onlyOwner returns (bool) {\r\n        active = !active;\r\n        return active;\r\n    }\r\n\r\n    function updateProjectListAddress (address addressProjectList) public onlyOwner returns (bool) {\r\n        projectListAddress = addressProjectList;\r\n        return true;\r\n    }\r\n    \r\n    function isStudent(address account) public view returns (bool) {\r\n        if(studentIndex.length == 0) return false;\r\n        return (studentIndex[studentInfo[account].index] == account);\r\n    }\r\n    \r\n    function getStudentByAddress (address account) public view returns (StudentStruct memory) {\r\n        if (!isStudent(account)) {\r\n            StudentStruct memory s;\r\n            return s;\r\n        }\r\n        else \r\n            return studentInfo[account];\r\n    }\r\n\r\n    function countStudents () public view returns (uint256) {\r\n        return studentIndex.length;\r\n    }\r\n    \r\n    function listStudents () public view returns (address[] memory) {\r\n        return studentIndex;\r\n    }\r\n\r\n    function compareStrings(string memory a, string memory b) private pure returns (bool) {\r\n        return (keccak256(abi.encodePacked((a))) == keccak256(abi.encodePacked((b))));\r\n    }\r\n\r\n}\r\n\r\n\r\ncontract StudentPortfolio is AccessControl {\r\n    //One StudentPortfolio per Student\r\n    \r\n    struct PortfolioStruct {\r\n        address projectAddress; // Key\r\n        //iAcademyProjects.ProjectStruct name;\r\n        string name;    // Key for iAcademyProjects.ProjectStruct\r\n    }\r\n    PortfolioStruct[] private portfolioProjects;\r\n    //private\r\n\r\n    mapping(address => uint256) private addressIndex;\r\n    mapping(string => uint256) public nameIndex;\r\n\r\n    address public student;\r\n    //address public projectList;\r\n    iAcademyProjectList public projectList;\r\n    \r\n    constructor(address account, address addressProjectList) {\r\n        _setupRole(DEFAULT_ADMIN_ROLE, msg.sender);\r\n        student = account;\r\n        //projectList = addressProjectList;\r\n        projectList = iAcademyProjectList(addressProjectList);\r\n        \r\n        //addProject(0xAb8483F64d9C6d1EcF9b849Ae677dD3315835cb2,\"P1\");\r\n    }\r\n\r\n    event PortfolioProjectAdded(address indexed projectAddress, string projectName);\r\n    event PortfolioProjectDeleted(address indexed projectAddress, string projectName);\r\n\r\n    modifier onlyOwner() {\r\n        require(hasRole(DEFAULT_ADMIN_ROLE, msg.sender), \"StudentPortfolio: only owner\");\r\n        _;\r\n    }\r\n    \r\n    modifier onlyOwnerOrStudent() {\r\n        require(hasRole(DEFAULT_ADMIN_ROLE, msg.sender) || (msg.sender == student), \"StudentPortfolio: only student or owner\");\r\n        _;\r\n    }\r\n\r\n    function addProject (address projectAddress, string memory projectName) public returns(uint256) {\r\n        //Owners sero os Masters ou Academy. Somente eles podem adicionar projetos, porque validam cada projeto antes de adicionar.\r\n        //melhor somente Academy pode adicionar, Masters chamam Academy\r\n        require (!compareStrings(projectName, \"\"), \"portfolio: invalid name\");\r\n        require (!(projectAddress == address(0x0)), \"portfolio: invalid address\");\r\n        require (projectList.exists(projectName), \"portfolio: project not exists\");\r\n        require (projectList.isActive(projectName), \"portfolio: project not active\");\r\n        require(msg.sender == projectList.getMasterAddressByName(projectName), \"Only Master can add project in portfolio\");\r\n        \r\n        // O estudante pode ter mais de um address por projeto? NO\r\n        require (!addressInPortfolio(projectAddress), \"portfolio: address exists\");\r\n        require (!nameInPortfolio(projectName), \"portfolio: project exists\");\r\n\r\n        PortfolioStruct memory p;\r\n        p.projectAddress = projectAddress;\r\n        p.name = projectName;\r\n\r\n        portfolioProjects.push(p);\r\n        uint256 index = portfolioProjects.length; \r\n        addressIndex[projectAddress] = index;\r\n        nameIndex[projectName] = index;\r\n\r\n        emit PortfolioProjectAdded(projectAddress, projectName);\r\n        return index;\r\n    }\r\n    \r\n    function deleteProjectByAddress (address projectAddress) public returns (bool) {\r\n        //Se o estudante no gostar do seu projeto, pode apag-lo para submete-lo novamente.\r\n        //onlyOwnerOrStudent\r\n        require (!(projectAddress == address(0x0)), \"invalid address\");\r\n        require (addressInPortfolio(projectAddress), \"address not exists\");\r\n\r\n\r\n        //Porm, dependendo do projeto, ele ter que apagar no MasterProject.\r\n        //Definir que um projeto s pode ser apagado em seu MasterProject? SIM!\r\n        address masterAddress = projectList.getMasterAddressByName(portfolioProjects[addressIndex[projectAddress]-1].name);\r\n        require(msg.sender == masterAddress, \"Only Master can add project in portfolio\");\r\n\r\n        uint256 indexToDelete = addressIndex[projectAddress]-1;\r\n        string memory nameToDelete =  portfolioProjects[indexToDelete].name;\r\n        addressIndex[projectAddress] = 0;\r\n        nameIndex[nameToDelete] = 0;\r\n        delete addressIndex[projectAddress];\r\n        delete nameIndex[nameToDelete];\r\n        \r\n        uint256 indexToMove = portfolioProjects.length-1;\r\n        address keyToMove = portfolioProjects[indexToMove].projectAddress;\r\n        portfolioProjects[indexToDelete] = portfolioProjects[indexToMove];\r\n        addressIndex[keyToMove] = indexToDelete+1;\r\n        nameIndex[portfolioProjects[indexToMove].name] = indexToDelete+1;\r\n        portfolioProjects.pop();\r\n\r\n        emit PortfolioProjectDeleted(projectAddress, nameToDelete);\r\n        /*\r\n        */\r\n        \r\n        return true;\r\n    }\r\n \r\n    function updateProjectList (address addressProjectList) public onlyOwner returns (bool) {\r\n        projectList = iAcademyProjectList(addressProjectList);\r\n        return true;\r\n    }\r\n\r\n    function addressInPortfolio (address projectAddress) public view returns (bool) {\r\n        //if(portfolioProjects.length == 0) return false;\r\n        \r\n        if (addressIndex[projectAddress] == 0)\r\n            return false;\r\n        else\r\n            return true;\r\n    }\r\n\r\n    function nameInPortfolio (string memory projectName) public view returns (bool) {\r\n        if (nameIndex[projectName] == 0)\r\n            return false;\r\n        else\r\n            return true;\r\n    }\r\n    \r\n    function listPortfolio () public view returns (PortfolioStruct[] memory) {\r\n        return (portfolioProjects);\r\n    }\r\n    \r\n    function countPortfolio () public view returns (uint) {\r\n        return (portfolioProjects.length);\r\n    }\r\n\r\n    function projectByName (string memory projectName) public view returns (PortfolioStruct memory) {\r\n        return portfolioProjects[nameIndex[projectName]-1];\r\n    }\r\n    \r\n    function projectByAddress (address projectAddress) public view returns (PortfolioStruct memory) {\r\n        return portfolioProjects[addressIndex[projectAddress]-1];\r\n    }\r\n    \r\n    function projectByIndex (uint256 index) public view returns (PortfolioStruct memory) {\r\n        require ((index > 0 ) && (index <= portfolioProjects.length), \"out of range\");\r\n        return portfolioProjects[index-1];\r\n    }    \r\n\r\n    function indexOfProject (address projectAddress) public view returns (uint) {\r\n        return addressIndex[projectAddress];\r\n    }\r\n    \r\n    function compareStrings(string memory a, string memory b) private pure returns (bool) {\r\n        return (keccak256(abi.encodePacked((a))) == keccak256(abi.encodePacked((b))));\r\n    }\r\n    \r\n}\r\n\r\n",
  "sourcePath": "C:/ACADEMY/GITHUB/rsk-academy-dapp/contracts/AcademyStudents.sol",
  "compiler": {
    "name": "solc",
    "version": "0.8.1+commit.df193b15.Emscripten.clang"
  },
  "schemaVersion": "3.3.3",
  "updatedAt": "2021-02-20T02:26:46.632Z",
  "devdoc": {
    "kind": "dev",
    "methods": {
      "getRoleAdmin(bytes32)": {
        "details": "Returns the admin role that controls `role`. See {grantRole} and {revokeRole}. To change a role's admin, use {_setRoleAdmin}."
      },
      "getRoleMember(bytes32,uint256)": {
        "details": "Returns one of the accounts that have `role`. `index` must be a value between 0 and {getRoleMemberCount}, non-inclusive. Role bearers are not sorted in any particular way, and their ordering may change at any point. WARNING: When using {getRoleMember} and {getRoleMemberCount}, make sure you perform all queries on the same block. See the following https://forum.openzeppelin.com/t/iterating-over-elements-on-enumerableset-in-openzeppelin-contracts/2296[forum post] for more information."
      },
      "getRoleMemberCount(bytes32)": {
        "details": "Returns the number of accounts that have `role`. Can be used together with {getRoleMember} to enumerate all bearers of a role."
      },
      "grantRole(bytes32,address)": {
        "details": "Grants `role` to `account`. If `account` had not been already granted `role`, emits a {RoleGranted} event. Requirements: - the caller must have ``role``'s admin role."
      },
      "hasRole(bytes32,address)": {
        "details": "Returns `true` if `account` has been granted `role`."
      },
      "renounceRole(bytes32,address)": {
        "details": "Revokes `role` from the calling account. Roles are often managed via {grantRole} and {revokeRole}: this function's purpose is to provide a mechanism for accounts to lose their privileges if they are compromised (such as when a trusted device is misplaced). If the calling account had been granted `role`, emits a {RoleRevoked} event. Requirements: - the caller must be `account`."
      },
      "revokeRole(bytes32,address)": {
        "details": "Revokes `role` from `account`. If `account` had been granted `role`, emits a {RoleRevoked} event. Requirements: - the caller must have ``role``'s admin role."
      }
    },
    "version": 1
  },
  "userdoc": {
    "kind": "user",
    "methods": {},
    "version": 1
  }
}